{
  "contractName": "Confirmation",
  "abi": [
    {
      "inputs": [],
      "stateMutability": "nonpayable",
      "type": "constructor"
    },
    {
      "anonymous": false,
      "inputs": [
        {
          "indexed": true,
          "internalType": "address",
          "name": "_owner",
          "type": "address"
        },
        {
          "indexed": true,
          "internalType": "address",
          "name": "_approved",
          "type": "address"
        },
        {
          "indexed": true,
          "internalType": "uint256",
          "name": "_tokenId",
          "type": "uint256"
        }
      ],
      "name": "Approval",
      "type": "event"
    },
    {
      "anonymous": false,
      "inputs": [
        {
          "indexed": true,
          "internalType": "address",
          "name": "_from",
          "type": "address"
        },
        {
          "indexed": true,
          "internalType": "address",
          "name": "_to",
          "type": "address"
        },
        {
          "indexed": true,
          "internalType": "uint256",
          "name": "_tokenId",
          "type": "uint256"
        }
      ],
      "name": "Transfer",
      "type": "event"
    },
    {
      "inputs": [
        {
          "internalType": "address",
          "name": "owner",
          "type": "address"
        }
      ],
      "name": "alltokenOfOwner",
      "outputs": [
        {
          "internalType": "uint256[]",
          "name": "",
          "type": "uint256[]"
        }
      ],
      "stateMutability": "view",
      "type": "function",
      "constant": true
    },
    {
      "inputs": [
        {
          "internalType": "address",
          "name": "_to",
          "type": "address"
        },
        {
          "internalType": "uint256",
          "name": "tokenId",
          "type": "uint256"
        }
      ],
      "name": "approve",
      "outputs": [],
      "stateMutability": "nonpayable",
      "type": "function"
    },
    {
      "inputs": [
        {
          "internalType": "address",
          "name": "_owner",
          "type": "address"
        }
      ],
      "name": "balanceOf",
      "outputs": [
        {
          "internalType": "uint256",
          "name": "",
          "type": "uint256"
        }
      ],
      "stateMutability": "view",
      "type": "function",
      "constant": true
    },
    {
      "inputs": [
        {
          "internalType": "uint256",
          "name": "",
          "type": "uint256"
        }
      ],
      "name": "cfms",
      "outputs": [
        {
          "internalType": "uint256",
          "name": "id",
          "type": "uint256"
        },
        {
          "internalType": "string",
          "name": "userName",
          "type": "string"
        },
        {
          "internalType": "string",
          "name": "hosName",
          "type": "string"
        },
        {
          "internalType": "string",
          "name": "pharName",
          "type": "string"
        },
        {
          "internalType": "uint256",
          "name": "prescriptionCount",
          "type": "uint256"
        },
        {
          "internalType": "uint256",
          "name": "dispensingCount",
          "type": "uint256"
        },
        {
          "internalType": "uint256",
          "name": "prepDate",
          "type": "uint256"
        },
        {
          "internalType": "string",
          "name": "howtoTake",
          "type": "string"
        }
      ],
      "stateMutability": "view",
      "type": "function",
      "constant": true
    },
    {
      "inputs": [],
      "name": "name",
      "outputs": [
        {
          "internalType": "string",
          "name": "",
          "type": "string"
        }
      ],
      "stateMutability": "view",
      "type": "function",
      "constant": true
    },
    {
      "inputs": [
        {
          "internalType": "uint256",
          "name": "_tokenId",
          "type": "uint256"
        }
      ],
      "name": "ownerOf",
      "outputs": [
        {
          "internalType": "address",
          "name": "",
          "type": "address"
        }
      ],
      "stateMutability": "view",
      "type": "function",
      "constant": true
    },
    {
      "inputs": [
        {
          "internalType": "bytes4",
          "name": "interfaceID",
          "type": "bytes4"
        }
      ],
      "name": "supportsInterface",
      "outputs": [
        {
          "internalType": "bool",
          "name": "",
          "type": "bool"
        }
      ],
      "stateMutability": "view",
      "type": "function",
      "constant": true
    },
    {
      "inputs": [],
      "name": "symbol",
      "outputs": [
        {
          "internalType": "string",
          "name": "",
          "type": "string"
        }
      ],
      "stateMutability": "view",
      "type": "function",
      "constant": true
    },
    {
      "inputs": [
        {
          "internalType": "uint256",
          "name": "index",
          "type": "uint256"
        }
      ],
      "name": "tokenByIndex",
      "outputs": [
        {
          "internalType": "uint256",
          "name": "",
          "type": "uint256"
        }
      ],
      "stateMutability": "view",
      "type": "function",
      "constant": true
    },
    {
      "inputs": [
        {
          "internalType": "address",
          "name": "owner",
          "type": "address"
        },
        {
          "internalType": "uint256",
          "name": "index",
          "type": "uint256"
        }
      ],
      "name": "tokenOfOwnerByIndex",
      "outputs": [
        {
          "internalType": "uint256",
          "name": "",
          "type": "uint256"
        }
      ],
      "stateMutability": "view",
      "type": "function",
      "constant": true
    },
    {
      "inputs": [],
      "name": "totalSupply",
      "outputs": [
        {
          "internalType": "uint256",
          "name": "",
          "type": "uint256"
        }
      ],
      "stateMutability": "view",
      "type": "function",
      "constant": true
    },
    {
      "inputs": [
        {
          "internalType": "address",
          "name": "_from",
          "type": "address"
        },
        {
          "internalType": "address",
          "name": "_to",
          "type": "address"
        },
        {
          "internalType": "uint256",
          "name": "_tokenId",
          "type": "uint256"
        }
      ],
      "name": "transferFrom",
      "outputs": [],
      "stateMutability": "nonpayable",
      "type": "function"
    },
    {
      "inputs": [
        {
          "internalType": "address",
          "name": "_from",
          "type": "address"
        },
        {
          "internalType": "address",
          "name": "_to",
          "type": "address"
        },
        {
          "internalType": "uint256",
          "name": "_tokenId",
          "type": "uint256"
        }
      ],
      "name": "transferPrs",
      "outputs": [],
      "stateMutability": "nonpayable",
      "type": "function"
    },
    {
      "inputs": [
        {
          "components": [
            {
              "internalType": "uint256",
              "name": "id",
              "type": "uint256"
            },
            {
              "internalType": "string",
              "name": "userName",
              "type": "string"
            },
            {
              "internalType": "string",
              "name": "hosName",
              "type": "string"
            },
            {
              "internalType": "string",
              "name": "pharName",
              "type": "string"
            },
            {
              "internalType": "string[]",
              "name": "dName",
              "type": "string[]"
            },
            {
              "internalType": "uint256[]",
              "name": "dosage",
              "type": "uint256[]"
            },
            {
              "internalType": "uint256[]",
              "name": "doseNum",
              "type": "uint256[]"
            },
            {
              "internalType": "uint256[]",
              "name": "dosePeriod",
              "type": "uint256[]"
            },
            {
              "internalType": "uint256",
              "name": "prescriptionCount",
              "type": "uint256"
            },
            {
              "internalType": "uint256",
              "name": "dispensingCount",
              "type": "uint256"
            },
            {
              "internalType": "uint256",
              "name": "prepDate",
              "type": "uint256"
            },
            {
              "internalType": "string",
              "name": "howtoTake",
              "type": "string"
            }
          ],
          "internalType": "struct Confirmation.confirmation",
          "name": "_confirmation",
          "type": "tuple"
        }
      ],
      "name": "mint",
      "outputs": [],
      "stateMutability": "nonpayable",
      "type": "function"
    },
    {
      "inputs": [
        {
          "internalType": "address",
          "name": "_from",
          "type": "address"
        },
        {
          "internalType": "address",
          "name": "_to",
          "type": "address"
        },
        {
          "internalType": "uint256",
          "name": "_tokenId",
          "type": "uint256"
        }
      ],
      "name": "transferconfirmation",
      "outputs": [],
      "stateMutability": "nonpayable",
      "type": "function"
    },
    {
      "inputs": [
        {
          "internalType": "address",
          "name": "_address",
          "type": "address"
        }
      ],
      "name": "getcfmsByAccount",
      "outputs": [
        {
          "components": [
            {
              "internalType": "uint256",
              "name": "id",
              "type": "uint256"
            },
            {
              "internalType": "string",
              "name": "userName",
              "type": "string"
            },
            {
              "internalType": "string",
              "name": "hosName",
              "type": "string"
            },
            {
              "internalType": "string",
              "name": "pharName",
              "type": "string"
            },
            {
              "internalType": "string[]",
              "name": "dName",
              "type": "string[]"
            },
            {
              "internalType": "uint256[]",
              "name": "dosage",
              "type": "uint256[]"
            },
            {
              "internalType": "uint256[]",
              "name": "doseNum",
              "type": "uint256[]"
            },
            {
              "internalType": "uint256[]",
              "name": "dosePeriod",
              "type": "uint256[]"
            },
            {
              "internalType": "uint256",
              "name": "prescriptionCount",
              "type": "uint256"
            },
            {
              "internalType": "uint256",
              "name": "dispensingCount",
              "type": "uint256"
            },
            {
              "internalType": "uint256",
              "name": "prepDate",
              "type": "uint256"
            },
            {
              "internalType": "string",
              "name": "howtoTake",
              "type": "string"
            }
          ],
          "internalType": "struct Confirmation.confirmation[]",
          "name": "",
          "type": "tuple[]"
        }
      ],
      "stateMutability": "view",
      "type": "function",
      "constant": true
    },
    {
      "inputs": [
        {
          "internalType": "address",
          "name": "_from",
          "type": "address"
        },
        {
          "internalType": "address",
          "name": "_to",
          "type": "address"
        }
      ],
      "name": "getpatientListFromAccount",
      "outputs": [
        {
          "components": [
            {
              "internalType": "uint256",
              "name": "id",
              "type": "uint256"
            },
            {
              "internalType": "string",
              "name": "userName",
              "type": "string"
            },
            {
              "internalType": "string",
              "name": "hosName",
              "type": "string"
            },
            {
              "internalType": "string",
              "name": "pharName",
              "type": "string"
            },
            {
              "internalType": "string[]",
              "name": "dName",
              "type": "string[]"
            },
            {
              "internalType": "uint256[]",
              "name": "dosage",
              "type": "uint256[]"
            },
            {
              "internalType": "uint256[]",
              "name": "doseNum",
              "type": "uint256[]"
            },
            {
              "internalType": "uint256[]",
              "name": "dosePeriod",
              "type": "uint256[]"
            },
            {
              "internalType": "uint256",
              "name": "prescriptionCount",
              "type": "uint256"
            },
            {
              "internalType": "uint256",
              "name": "dispensingCount",
              "type": "uint256"
            },
            {
              "internalType": "uint256",
              "name": "prepDate",
              "type": "uint256"
            },
            {
              "internalType": "string",
              "name": "howtoTake",
              "type": "string"
            }
          ],
          "internalType": "struct Confirmation.confirmation[]",
          "name": "",
          "type": "tuple[]"
        }
      ],
      "stateMutability": "view",
      "type": "function",
      "constant": true
    },
    {
      "inputs": [
        {
          "internalType": "uint256",
          "name": "_tokenId",
          "type": "uint256"
        }
      ],
      "name": "getcountOfprs",
      "outputs": [
        {
          "internalType": "uint256",
          "name": "",
          "type": "uint256"
        }
      ],
      "stateMutability": "view",
      "type": "function",
      "constant": true
    }
  ],
  "bytecode": "0x60806040523480156200001157600080fd5b506040518060400160405280600c81526020017f436f6e6669726d6174696f6e00000000000000000000000000000000000000008152506040518060400160405280600381526020017f43666d00000000000000000000000000000000000000000000000000000000008152508181620000b17f01ffc9a7a5cef8baa21ed3c5c0d7e23accb804b619e9333b597f47a0d84076e26200021c60201b60201c565b620001047f13b182f4c0e5b2efbac0efe6cf6d756c8b89f4b79c5707a043ed9ea740574ee97f7feaf19471f34a12a7eaf32d5f3090aa2260ea8624dc8a138e74e0bf0f623076186200021c60201b60201c565b81600190816200011591906200056d565b5080600290816200012791906200056d565b5050506200019f7f22c82707ba960a14c7592ffb6b8cfaa073fed0048a84cc7fa41f6b5bd8e7f2e47f3a6eb71757dfc6e784c1459d26270140c2c147d95ca985c80026fc5301c3eca17f8a7e378434598edc36d108689a030cbc9d7d465de4f74c71bae1028eed6a881b18186200021c60201b60201c565b620002147f8230223f691b981717299fae9549350a0d894555723531f02108b1f522c1a7977f6da5e1284143cdd2d15038a59bde3be031250f00291d64494c12d967b3a4e0c37fc53637662700e6c65104059db8bba34439e0c32483ab7c34e3ccae52c739549518186200021c60201b60201c565b5050620006d7565b63ffffffff60e01b817bffffffffffffffffffffffffffffffffffffffffffffffffffffffff19160362000287576040517f08c379a00000000000000000000000000000000000000000000000000000000081526004016200027e90620006b5565b60405180910390fd5b6001600080837bffffffffffffffffffffffffffffffffffffffffffffffffffffffff19167bffffffffffffffffffffffffffffffffffffffffffffffffffffffff1916815260200190815260200160002060006101000a81548160ff02191690831515021790555050565b600081519050919050565b7f4e487b7100000000000000000000000000000000000000000000000000000000600052604160045260246000fd5b7f4e487b7100000000000000000000000000000000000000000000000000000000600052602260045260246000fd5b600060028204905060018216806200037557607f821691505b6020821081036200038b576200038a6200032d565b5b50919050565b60008190508160005260206000209050919050565b60006020601f8301049050919050565b600082821b905092915050565b600060088302620003f57fffffffffffffffffffffffffffffffffffffffffffffffffffffffffffffffff82620003b6565b620004018683620003b6565b95508019841693508086168417925050509392505050565b6000819050919050565b6000819050919050565b60006200044e62000448620004428462000419565b62000423565b62000419565b9050919050565b6000819050919050565b6200046a836200042d565b62000482620004798262000455565b848454620003c3565b825550505050565b600090565b620004996200048a565b620004a68184846200045f565b505050565b5b81811015620004ce57620004c26000826200048f565b600181019050620004ac565b5050565b601f8211156200051d57620004e78162000391565b620004f284620003a6565b8101602085101562000502578190505b6200051a6200051185620003a6565b830182620004ab565b50505b505050565b600082821c905092915050565b6000620005426000198460080262000522565b1980831691505092915050565b60006200055d83836200052f565b9150826002028217905092915050565b6200057882620002f3565b67ffffffffffffffff811115620005945762000593620002fe565b5b620005a082546200035c565b620005ad828285620004d2565b600060209050601f831160018114620005e55760008415620005d0578287015190505b620005dc85826200054f565b8655506200064c565b601f198416620005f58662000391565b60005b828110156200061f57848901518255600182019150602085019450602081019050620005f8565b868310156200063f57848901516200063b601f8916826200052f565b8355505b6001600288020188555050505b505050505050565b600082825260208201905092915050565b7f496e76616c696420696e74657266616365207265717565737400000000000000600082015250565b60006200069d60198362000654565b9150620006aa8262000665565b602082019050919050565b60006020820190508181036000830152620006d0816200068e565b9050919050565b6146bf80620006e76000396000f3fe608060405234801561001057600080fd5b50600436106101165760003560e01c8063566dd911116100a2578063890ec74411610071578063890ec7441461033257806395d89b4114610362578063d309b77214610380578063e241ff481461039c578063e6fb1526146103cc57610116565b8063566dd911146102725780636352211e146102a25780636e03a06a146102d257806370a082311461030257610116565b80631c18c246116100e95780631c18c246146101a35780631d161887146101bf57806323b872dd146101f65780632f745c59146102125780634f6ccce71461024257610116565b806301ffc9a71461011b57806306fdde031461014b578063095ea7b31461016957806318160ddd14610185575b600080fd5b61013560048036038101906101309190612dc2565b6103e8565b6040516101429190612e0a565b60405180910390f35b61015361044f565b6040516101609190612eb5565b60405180910390f35b610183600480360381019061017e9190612f6b565b6104e1565b005b61018d61067c565b60405161019a9190612fba565b60405180910390f35b6101bd60048036038101906101b89190612fd5565b610689565b005b6101d960048036038101906101d49190613028565b6108dc565b6040516101ed989796959493929190613055565b60405180910390f35b610210600480360381019061020b9190612fd5565b610b54565b005b61022c60048036038101906102279190612f6b565b610b77565b6040516102399190612fba565b60405180910390f35b61025c60048036038101906102579190613028565b610c27565b6040516102699190612fba565b60405180910390f35b61028c60048036038101906102879190613028565b610c98565b6040516102999190612fba565b60405180910390f35b6102bc60048036038101906102b79190613028565b610cb5565b6040516102c991906130fe565b60405180910390f35b6102ec60048036038101906102e79190613119565b610d66565b6040516102f99190613507565b60405180910390f35b61031c60048036038101906103179190613119565b611256565b6040516103299190612fba565b60405180910390f35b61034c60048036038101906103479190613529565b611314565b6040516103599190613507565b60405180910390f35b61036a611842565b6040516103779190612eb5565b60405180910390f35b61039a60048036038101906103959190612fd5565b6118d4565b005b6103b660048036038101906103b19190613119565b612095565b6040516103c391906135d8565b60405180910390f35b6103e660048036038101906103e19190613ae4565b61212c565b005b6000806000837bffffffffffffffffffffffffffffffffffffffffffffffffffffffff19167bffffffffffffffffffffffffffffffffffffffffffffffffffffffff1916815260200190815260200160002060009054906101000a900460ff169050919050565b60606001805461045e90613b5c565b80601f016020809104026020016040519081016040528092919081815260200182805461048a90613b5c565b80156104d75780601f106104ac576101008083540402835291602001916104d7565b820191906000526020600020905b8154815290600101906020018083116104ba57829003601f168201915b5050505050905090565b60006104ec82610cb5565b90508073ffffffffffffffffffffffffffffffffffffffff168373ffffffffffffffffffffffffffffffffffffffff160361055c576040517f08c379a000000000000000000000000000000000000000000000000000000000815260040161055390613bff565b60405180910390fd5b8073ffffffffffffffffffffffffffffffffffffffff163373ffffffffffffffffffffffffffffffffffffffff16146105ca576040517f08c379a00000000000000000000000000000000000000000000000000000000081526004016105c190613c91565b60405180910390fd5b826005600084815260200190815260200160002060006101000a81548173ffffffffffffffffffffffffffffffffffffffff021916908373ffffffffffffffffffffffffffffffffffffffff160217905550818373ffffffffffffffffffffffffffffffffffffffff168273ffffffffffffffffffffffffffffffffffffffff167f8c5be1e5ebec7d5bd14f71427d1e84f3dd0314c0f7b2291e5b200ac8c7c3b92560405160405180910390a4505050565b6000600680549050905090565b610694838383610b54565b60006009600083815260200190815260200160002054905060008190505b6001600860008773ffffffffffffffffffffffffffffffffffffffff1673ffffffffffffffffffffffffffffffffffffffff168152602001908152602001600020805490506107019190613ce0565b81101561086657600860008673ffffffffffffffffffffffffffffffffffffffff1673ffffffffffffffffffffffffffffffffffffffff1681526020019081526020016000206001826107549190613d14565b8154811061076557610764613d48565b5b9060005260206000200154600860008773ffffffffffffffffffffffffffffffffffffffff1673ffffffffffffffffffffffffffffffffffffffff16815260200190815260200160002082815481106107c1576107c0613d48565b5b906000526020600020018190555060096000600860008873ffffffffffffffffffffffffffffffffffffffff1673ffffffffffffffffffffffffffffffffffffffff168152602001908152602001600020838154811061082457610823613d48565b5b90600052602060002001548152602001908152602001600020600081548092919061084e90613d77565b9190505550808061085e90613da0565b9150506106b2565b50600860008573ffffffffffffffffffffffffffffffffffffffff1673ffffffffffffffffffffffffffffffffffffffff1681526020019081526020016000208054806108b6576108b5613de8565b5b600190038181906000526020600020016000905590556108d683836124cc565b50505050565b600a81815481106108ec57600080fd5b90600052602060002090600c020160009150905080600001549080600101805461091590613b5c565b80601f016020809104026020016040519081016040528092919081815260200182805461094190613b5c565b801561098e5780601f106109635761010080835404028352916020019161098e565b820191906000526020600020905b81548152906001019060200180831161097157829003601f168201915b5050505050908060020180546109a390613b5c565b80601f01602080910402602001604051908101604052809291908181526020018280546109cf90613b5c565b8015610a1c5780601f106109f157610100808354040283529160200191610a1c565b820191906000526020600020905b8154815290600101906020018083116109ff57829003601f168201915b505050505090806003018054610a3190613b5c565b80601f0160208091040260200160405190810160405280929190818152602001828054610a5d90613b5c565b8015610aaa5780601f10610a7f57610100808354040283529160200191610aaa565b820191906000526020600020905b815481529060010190602001808311610a8d57829003601f168201915b50505050509080600801549080600901549080600a01549080600b018054610ad190613b5c565b80601f0160208091040260200160405190810160405280929190818152602001828054610afd90613b5c565b8015610b4a5780601f10610b1f57610100808354040283529160200191610b4a565b820191906000526020600020905b815481529060010190602001808311610b2d57829003601f168201915b5050505050905088565b610b5e3382612590565b610b6757600080fd5b610b7283838361261f565b505050565b6000610b8283611256565b8210610bc3576040517f08c379a0000000000000000000000000000000000000000000000000000000008152600401610bba90613e63565b60405180910390fd5b600860008473ffffffffffffffffffffffffffffffffffffffff1673ffffffffffffffffffffffffffffffffffffffff1681526020019081526020016000208281548110610c1457610c13613d48565b5b9060005260206000200154905092915050565b6000610c3161067c565b8210610c72576040517f08c379a0000000000000000000000000000000000000000000000000000000008152600401610c6990613ecf565b60405180910390fd5b60068281548110610c8657610c85613d48565b5b90600052602060002001549050919050565b6000600e6000838152602001908152602001600020549050919050565b6000806003600084815260200190815260200160002060009054906101000a900473ffffffffffffffffffffffffffffffffffffffff169050600073ffffffffffffffffffffffffffffffffffffffff168173ffffffffffffffffffffffffffffffffffffffff1603610d5d576040517f08c379a0000000000000000000000000000000000000000000000000000000008152600401610d5490613f61565b60405180910390fd5b80915050919050565b6060600c60008373ffffffffffffffffffffffffffffffffffffffff1673ffffffffffffffffffffffffffffffffffffffff168152602001908152602001600020805480602002602001604051908101604052809291908181526020016000905b8282101561124b57838290600052602060002090600c02016040518061018001604052908160008201548152602001600182018054610e0590613b5c565b80601f0160208091040260200160405190810160405280929190818152602001828054610e3190613b5c565b8015610e7e5780601f10610e5357610100808354040283529160200191610e7e565b820191906000526020600020905b815481529060010190602001808311610e6157829003601f168201915b50505050508152602001600282018054610e9790613b5c565b80601f0160208091040260200160405190810160405280929190818152602001828054610ec390613b5c565b8015610f105780601f10610ee557610100808354040283529160200191610f10565b820191906000526020600020905b815481529060010190602001808311610ef357829003601f168201915b50505050508152602001600382018054610f2990613b5c565b80601f0160208091040260200160405190810160405280929190818152602001828054610f5590613b5c565b8015610fa25780601f10610f7757610100808354040283529160200191610fa2565b820191906000526020600020905b815481529060010190602001808311610f8557829003601f168201915b5050505050815260200160048201805480602002602001604051908101604052809291908181526020016000905b8282101561107c578382906000526020600020018054610fef90613b5c565b80601f016020809104026020016040519081016040528092919081815260200182805461101b90613b5c565b80156110685780601f1061103d57610100808354040283529160200191611068565b820191906000526020600020905b81548152906001019060200180831161104b57829003601f168201915b505050505081526020019060010190610fd0565b505050508152602001600582018054806020026020016040519081016040528092919081815260200182805480156110d357602002820191906000526020600020905b8154815260200190600101908083116110bf575b505050505081526020016006820180548060200260200160405190810160405280929190818152602001828054801561112b57602002820191906000526020600020905b815481526020019060010190808311611117575b505050505081526020016007820180548060200260200160405190810160405280929190818152602001828054801561118357602002820191906000526020600020905b81548152602001906001019080831161116f575b505050505081526020016008820154815260200160098201548152602001600a8201548152602001600b820180546111ba90613b5c565b80601f01602080910402602001604051908101604052809291908181526020018280546111e690613b5c565b80156112335780601f1061120857610100808354040283529160200191611233565b820191906000526020600020905b81548152906001019060200180831161121657829003601f168201915b50505050508152505081526020019060010190610dc7565b505050509050919050565b60008073ffffffffffffffffffffffffffffffffffffffff168273ffffffffffffffffffffffffffffffffffffffff16036112c6576040517f08c379a00000000000000000000000000000000000000000000000000000000081526004016112bd90613f61565b60405180910390fd5b61130d600460008473ffffffffffffffffffffffffffffffffffffffff1673ffffffffffffffffffffffffffffffffffffffff168152602001908152602001600020612844565b9050919050565b6060600f60008473ffffffffffffffffffffffffffffffffffffffff1673ffffffffffffffffffffffffffffffffffffffff16815260200190815260200160002060008373ffffffffffffffffffffffffffffffffffffffff1673ffffffffffffffffffffffffffffffffffffffff168152602001908152602001600020805480602002602001604051908101604052809291908181526020016000905b8282101561183657838290600052602060002090600c020160405180610180016040529081600082015481526020016001820180546113f090613b5c565b80601f016020809104026020016040519081016040528092919081815260200182805461141c90613b5c565b80156114695780601f1061143e57610100808354040283529160200191611469565b820191906000526020600020905b81548152906001019060200180831161144c57829003601f168201915b5050505050815260200160028201805461148290613b5c565b80601f01602080910402602001604051908101604052809291908181526020018280546114ae90613b5c565b80156114fb5780601f106114d0576101008083540402835291602001916114fb565b820191906000526020600020905b8154815290600101906020018083116114de57829003601f168201915b5050505050815260200160038201805461151490613b5c565b80601f016020809104026020016040519081016040528092919081815260200182805461154090613b5c565b801561158d5780601f106115625761010080835404028352916020019161158d565b820191906000526020600020905b81548152906001019060200180831161157057829003601f168201915b5050505050815260200160048201805480602002602001604051908101604052809291908181526020016000905b828210156116675783829060005260206000200180546115da90613b5c565b80601f016020809104026020016040519081016040528092919081815260200182805461160690613b5c565b80156116535780601f1061162857610100808354040283529160200191611653565b820191906000526020600020905b81548152906001019060200180831161163657829003601f168201915b5050505050815260200190600101906115bb565b505050508152602001600582018054806020026020016040519081016040528092919081815260200182805480156116be57602002820191906000526020600020905b8154815260200190600101908083116116aa575b505050505081526020016006820180548060200260200160405190810160405280929190818152602001828054801561171657602002820191906000526020600020905b815481526020019060010190808311611702575b505050505081526020016007820180548060200260200160405190810160405280929190818152602001828054801561176e57602002820191906000526020600020905b81548152602001906001019080831161175a575b505050505081526020016008820154815260200160098201548152602001600a8201548152602001600b820180546117a590613b5c565b80601f01602080910402602001604051908101604052809291908181526020018280546117d190613b5c565b801561181e5780601f106117f35761010080835404028352916020019161181e565b820191906000526020600020905b81548152906001019060200180831161180157829003601f168201915b505050505081525050815260200190600101906113b2565b50505050905092915050565b60606002805461185190613b5c565b80601f016020809104026020016040519081016040528092919081815260200182805461187d90613b5c565b80156118ca5780601f1061189f576101008083540402835291602001916118ca565b820191906000526020600020905b8154815290600101906020018083116118ad57829003601f168201915b5050505050905090565b6000600a82815481106118ea576118e9613d48565b5b90600052602060002090600c0201604051806101800160405290816000820154815260200160018201805461191e90613b5c565b80601f016020809104026020016040519081016040528092919081815260200182805461194a90613b5c565b80156119975780601f1061196c57610100808354040283529160200191611997565b820191906000526020600020905b81548152906001019060200180831161197a57829003601f168201915b505050505081526020016002820180546119b090613b5c565b80601f01602080910402602001604051908101604052809291908181526020018280546119dc90613b5c565b8015611a295780601f106119fe57610100808354040283529160200191611a29565b820191906000526020600020905b815481529060010190602001808311611a0c57829003601f168201915b50505050508152602001600382018054611a4290613b5c565b80601f0160208091040260200160405190810160405280929190818152602001828054611a6e90613b5c565b8015611abb5780601f10611a9057610100808354040283529160200191611abb565b820191906000526020600020905b815481529060010190602001808311611a9e57829003601f168201915b5050505050815260200160048201805480602002602001604051908101604052809291908181526020016000905b82821015611b95578382906000526020600020018054611b0890613b5c565b80601f0160208091040260200160405190810160405280929190818152602001828054611b3490613b5c565b8015611b815780601f10611b5657610100808354040283529160200191611b81565b820191906000526020600020905b815481529060010190602001808311611b6457829003601f168201915b505050505081526020019060010190611ae9565b50505050815260200160058201805480602002602001604051908101604052809291908181526020018280548015611bec57602002820191906000526020600020905b815481526020019060010190808311611bd8575b5050505050815260200160068201805480602002602001604051908101604052809291908181526020018280548015611c4457602002820191906000526020600020905b815481526020019060010190808311611c30575b5050505050815260200160078201805480602002602001604051908101604052809291908181526020018280548015611c9c57602002820191906000526020600020905b815481526020019060010190808311611c88575b505050505081526020016008820154815260200160098201548152602001600a8201548152602001600b82018054611cd390613b5c565b80601f0160208091040260200160405190810160405280929190818152602001828054611cff90613b5c565b8015611d4c5780601f10611d2157610100808354040283529160200191611d4c565b820191906000526020600020905b815481529060010190602001808311611d2f57829003601f168201915b5050505050815250509050600e60008381526020019081526020016000206000815480929190611d7b90613da0565b9190505550600c60008473ffffffffffffffffffffffffffffffffffffffff1673ffffffffffffffffffffffffffffffffffffffff1681526020019081526020016000208190806001815401808255809150506001900390600052602060002090600c0201600090919091909150600082015181600001556020820151816001019081611e08919061412d565b506040820151816002019081611e1e919061412d565b506060820151816003019081611e34919061412d565b506080820151816004019080519060200190611e51929190612b80565b5060a0820151816005019080519060200190611e6e929190612bd9565b5060c0820151816006019080519060200190611e8b929190612bd9565b5060e0820151816007019080519060200190611ea8929190612bd9565b506101008201518160080155610120820151816009015561014082015181600a015561016082015181600b019081611ee0919061412d565b505050600f60008573ffffffffffffffffffffffffffffffffffffffff1673ffffffffffffffffffffffffffffffffffffffff16815260200190815260200160002060008473ffffffffffffffffffffffffffffffffffffffff1673ffffffffffffffffffffffffffffffffffffffff168152602001908152602001600020600a8381548110611f7357611f72613d48565b5b90600052602060002090600c020190806001815401808255809150506001900390600052602060002090600c02016000909190919091506000820154816000015560018201816001019081611fc89190614215565b5060028201816002019081611fdd9190614215565b5060038201816003019081611ff29190614215565b506004820181600401908054612009929190612c26565b506005820181600501908054612020929190612c83565b506006820181600601908054612037929190612c83565b50600782018160070190805461204e929190612c83565b506008820154816008015560098201548160090155600a82015481600a0155600b820181600b0190816120819190614215565b50505061208f848484610b54565b50505050565b6060600860008373ffffffffffffffffffffffffffffffffffffffff1673ffffffffffffffffffffffffffffffffffffffff16815260200190815260200160002080548060200260200160405190810160405280929190818152602001828054801561212057602002820191906000526020600020905b81548152602001906001019080831161210c575b50505050509050919050565b80600001518161012001516000805b600a805490508110156121bd5783600a828154811061215d5761215c613d48565b5b90600052602060002090600c0201600001541480156121a0575082600a828154811061218c5761218b613d48565b5b90600052602060002090600c020160090154145b156121aa57600191505b80806121b590613da0565b91505061213b565b5080156121ff576040517f08c379a00000000000000000000000000000000000000000000000000000000081526004016121f69061436f565b60405180910390fd5b600a8490806001815401808255809150506001900390600052602060002090600c020160009091909190915060008201518160000155602082015181600101908161224a919061412d565b506040820151816002019081612260919061412d565b506060820151816003019081612276919061412d565b506080820151816004019080519060200190612293929190612b80565b5060a08201518160050190805190602001906122b0929190612bd9565b5060c08201518160060190805190602001906122cd929190612bd9565b5060e08201518160070190805190602001906122ea929190612bd9565b506101008201518160080155610120820151816009015561014082015181600a015561016082015181600b019081612322919061412d565b50505060006001600a805490506123399190613ce0565b90506000600e60008760000151815260200190815260200160002081905550600c60003373ffffffffffffffffffffffffffffffffffffffff1673ffffffffffffffffffffffffffffffffffffffff1681526020019081526020016000208590806001815401808255809150506001900390600052602060002090600c02016000909190919091506000820151816000015560208201518160010190816123e0919061412d565b5060408201518160020190816123f6919061412d565b50606082015181600301908161240c919061412d565b506080820151816004019080519060200190612429929190612b80565b5060a0820151816005019080519060200190612446929190612bd9565b5060c0820151816006019080519060200190612463929190612bd9565b5060e0820151816007019080519060200190612480929190612bd9565b506101008201518160080155610120820151816009015561014082015181600a015561016082015181600b0190816124b8919061412d565b5050506124c53382612852565b5050505050565b600860008373ffffffffffffffffffffffffffffffffffffffff1673ffffffffffffffffffffffffffffffffffffffff168152602001908152602001600020805490506009600083815260200190815260200160002081905550600860008373ffffffffffffffffffffffffffffffffffffffff1673ffffffffffffffffffffffffffffffffffffffff1681526020019081526020016000208190806001815401808255809150506001900390600052602060002001600090919091909150555050565b600061259b82612873565b6125da576040517f08c379a00000000000000000000000000000000000000000000000000000000081526004016125d1906143db565b60405180910390fd5b60006125e583610cb5565b90508073ffffffffffffffffffffffffffffffffffffffff168473ffffffffffffffffffffffffffffffffffffffff161491505092915050565b600073ffffffffffffffffffffffffffffffffffffffff168273ffffffffffffffffffffffffffffffffffffffff160361268e576040517f08c379a00000000000000000000000000000000000000000000000000000000081526004016126859061446d565b60405180910390fd5b8273ffffffffffffffffffffffffffffffffffffffff166126ae82610cb5565b73ffffffffffffffffffffffffffffffffffffffff1614612704576040517f08c379a00000000000000000000000000000000000000000000000000000000081526004016126fb906144ff565b60405180910390fd5b61274b600460008573ffffffffffffffffffffffffffffffffffffffff1673ffffffffffffffffffffffffffffffffffffffff1681526020019081526020016000206128e5565b612792600460008473ffffffffffffffffffffffffffffffffffffffff1673ffffffffffffffffffffffffffffffffffffffff168152602001908152602001600020612908565b816003600083815260200190815260200160002060006101000a81548173ffffffffffffffffffffffffffffffffffffffff021916908373ffffffffffffffffffffffffffffffffffffffff160217905550808273ffffffffffffffffffffffffffffffffffffffff168473ffffffffffffffffffffffffffffffffffffffff167fddf252ad1be2c89b69c2b068fc378daa952ba7f163c4a11628f55a4df523b3ef60405160405180910390a4505050565b600081600001549050919050565b61285c8282612927565b61286581612ad8565b61286f82826124cc565b5050565b6000806003600084815260200190815260200160002060009054906101000a900473ffffffffffffffffffffffffffffffffffffffff169050600073ffffffffffffffffffffffffffffffffffffffff168173ffffffffffffffffffffffffffffffffffffffff161415915050919050565b6128fd60018260000154612b2190919063ffffffff16565b816000018190555050565b600181600001600082825461291d9190613d14565b9250508190555050565b600073ffffffffffffffffffffffffffffffffffffffff168273ffffffffffffffffffffffffffffffffffffffff1603612996576040517f08c379a000000000000000000000000000000000000000000000000000000000815260040161298d90614591565b60405180910390fd5b61299f81612873565b156129df576040517f08c379a00000000000000000000000000000000000000000000000000000000081526004016129d6906145fd565b60405180910390fd5b816003600083815260200190815260200160002060006101000a81548173ffffffffffffffffffffffffffffffffffffffff021916908373ffffffffffffffffffffffffffffffffffffffff160217905550612a78600460008473ffffffffffffffffffffffffffffffffffffffff1673ffffffffffffffffffffffffffffffffffffffff168152602001908152602001600020612908565b808273ffffffffffffffffffffffffffffffffffffffff16600073ffffffffffffffffffffffffffffffffffffffff167fddf252ad1be2c89b69c2b068fc378daa952ba7f163c4a11628f55a4df523b3ef60405160405180910390a45050565b6006805490506007600083815260200190815260200160002081905550600681908060018154018082558091505060019003906000526020600020016000909190919091505550565b600082821115612b66576040517f08c379a0000000000000000000000000000000000000000000000000000000008152600401612b5d90614669565b60405180910390fd5b60008284612b749190613ce0565b90508091505092915050565b828054828255906000526020600020908101928215612bc8579160200282015b82811115612bc7578251829081612bb7919061412d565b5091602001919060010190612ba0565b5b509050612bd59190612cd5565b5090565b828054828255906000526020600020908101928215612c15579160200282015b82811115612c14578251825591602001919060010190612bf9565b5b509050612c229190612cf9565b5090565b828054828255906000526020600020908101928215612c725760005260206000209182015b82811115612c715782829081612c619190614215565b5091600101919060010190612c4b565b5b509050612c7f9190612cd5565b5090565b828054828255906000526020600020908101928215612cc45760005260206000209182015b82811115612cc3578254825591600101919060010190612ca8565b5b509050612cd19190612cf9565b5090565b5b80821115612cf55760008181612cec9190612d16565b50600101612cd6565b5090565b5b80821115612d12576000816000905550600101612cfa565b5090565b508054612d2290613b5c565b6000825580601f10612d345750612d53565b601f016020900490600052602060002090810190612d529190612cf9565b5b50565b6000604051905090565b600080fd5b600080fd5b60007fffffffff0000000000000000000000000000000000000000000000000000000082169050919050565b612d9f81612d6a565b8114612daa57600080fd5b50565b600081359050612dbc81612d96565b92915050565b600060208284031215612dd857612dd7612d60565b5b6000612de684828501612dad565b91505092915050565b60008115159050919050565b612e0481612def565b82525050565b6000602082019050612e1f6000830184612dfb565b92915050565b600081519050919050565b600082825260208201905092915050565b60005b83811015612e5f578082015181840152602081019050612e44565b60008484015250505050565b6000601f19601f8301169050919050565b6000612e8782612e25565b612e918185612e30565b9350612ea1818560208601612e41565b612eaa81612e6b565b840191505092915050565b60006020820190508181036000830152612ecf8184612e7c565b905092915050565b600073ffffffffffffffffffffffffffffffffffffffff82169050919050565b6000612f0282612ed7565b9050919050565b612f1281612ef7565b8114612f1d57600080fd5b50565b600081359050612f2f81612f09565b92915050565b6000819050919050565b612f4881612f35565b8114612f5357600080fd5b50565b600081359050612f6581612f3f565b92915050565b60008060408385031215612f8257612f81612d60565b5b6000612f9085828601612f20565b9250506020612fa185828601612f56565b9150509250929050565b612fb481612f35565b82525050565b6000602082019050612fcf6000830184612fab565b92915050565b600080600060608486031215612fee57612fed612d60565b5b6000612ffc86828701612f20565b935050602061300d86828701612f20565b925050604061301e86828701612f56565b9150509250925092565b60006020828403121561303e5761303d612d60565b5b600061304c84828501612f56565b91505092915050565b60006101008201905061306b600083018b612fab565b818103602083015261307d818a612e7c565b905081810360408301526130918189612e7c565b905081810360608301526130a58188612e7c565b90506130b46080830187612fab565b6130c160a0830186612fab565b6130ce60c0830185612fab565b81810360e08301526130e08184612e7c565b90509998505050505050505050565b6130f881612ef7565b82525050565b600060208201905061311360008301846130ef565b92915050565b60006020828403121561312f5761312e612d60565b5b600061313d84828501612f20565b91505092915050565b600081519050919050565b600082825260208201905092915050565b6000819050602082019050919050565b61317b81612f35565b82525050565b600082825260208201905092915050565b600061319d82612e25565b6131a78185613181565b93506131b7818560208601612e41565b6131c081612e6b565b840191505092915050565b600081519050919050565b600082825260208201905092915050565b6000819050602082019050919050565b60006132038383613192565b905092915050565b6000602082019050919050565b6000613223826131cb565b61322d81856131d6565b93508360208202850161323f856131e7565b8060005b8581101561327b578484038952815161325c85826131f7565b94506132678361320b565b925060208a01995050600181019050613243565b50829750879550505050505092915050565b600081519050919050565b600082825260208201905092915050565b6000819050602082019050919050565b60006132c58383613172565b60208301905092915050565b6000602082019050919050565b60006132e98261328d565b6132f38185613298565b93506132fe836132a9565b8060005b8381101561332f57815161331688826132b9565b9750613321836132d1565b925050600181019050613302565b5085935050505092915050565b6000610180830160008301516133556000860182613172565b506020830151848203602086015261336d8282613192565b915050604083015184820360408601526133878282613192565b915050606083015184820360608601526133a18282613192565b915050608083015184820360808601526133bb8282613218565b91505060a083015184820360a08601526133d582826132de565b91505060c083015184820360c08601526133ef82826132de565b91505060e083015184820360e086015261340982826132de565b915050610100830151613420610100860182613172565b50610120830151613435610120860182613172565b5061014083015161344a610140860182613172565b506101608301518482036101608601526134648282613192565b9150508091505092915050565b600061347d838361333c565b905092915050565b6000602082019050919050565b600061349d82613146565b6134a78185613151565b9350836020820285016134b985613162565b8060005b858110156134f557848403895281516134d68582613471565b94506134e183613485565b925060208a019950506001810190506134bd565b50829750879550505050505092915050565b600060208201905081810360008301526135218184613492565b905092915050565b600080604083850312156135405761353f612d60565b5b600061354e85828601612f20565b925050602061355f85828601612f20565b9150509250929050565b600082825260208201905092915050565b60006135858261328d565b61358f8185613569565b935061359a836132a9565b8060005b838110156135cb5781516135b288826132b9565b97506135bd836132d1565b92505060018101905061359e565b5085935050505092915050565b600060208201905081810360008301526135f2818461357a565b905092915050565b600080fd5b7f4e487b7100000000000000000000000000000000000000000000000000000000600052604160045260246000fd5b61363782612e6b565b810181811067ffffffffffffffff82111715613656576136556135ff565b5b80604052505050565b6000613669612d56565b9050613675828261362e565b919050565b600080fd5b600080fd5b600080fd5b600067ffffffffffffffff8211156136a4576136a36135ff565b5b6136ad82612e6b565b9050602081019050919050565b82818337600083830152505050565b60006136dc6136d784613689565b61365f565b9050828152602081018484840111156136f8576136f7613684565b5b6137038482856136ba565b509392505050565b600082601f8301126137205761371f61367f565b5b81356137308482602086016136c9565b91505092915050565b600067ffffffffffffffff821115613754576137536135ff565b5b602082029050602081019050919050565b600080fd5b600061377d61377884613739565b61365f565b905080838252602082019050602084028301858111156137a05761379f613765565b5b835b818110156137e757803567ffffffffffffffff8111156137c5576137c461367f565b5b8086016137d2898261370b565b855260208501945050506020810190506137a2565b5050509392505050565b600082601f8301126138065761380561367f565b5b813561381684826020860161376a565b91505092915050565b600067ffffffffffffffff82111561383a576138396135ff565b5b602082029050602081019050919050565b600061385e6138598461381f565b61365f565b9050808382526020820190506020840283018581111561388157613880613765565b5b835b818110156138aa57806138968882612f56565b845260208401935050602081019050613883565b5050509392505050565b600082601f8301126138c9576138c861367f565b5b81356138d984826020860161384b565b91505092915050565b600061018082840312156138f9576138f86135fa565b5b61390461018061365f565b9050600061391484828501612f56565b600083015250602082013567ffffffffffffffff8111156139385761393761367a565b5b6139448482850161370b565b602083015250604082013567ffffffffffffffff8111156139685761396761367a565b5b6139748482850161370b565b604083015250606082013567ffffffffffffffff8111156139985761399761367a565b5b6139a48482850161370b565b606083015250608082013567ffffffffffffffff8111156139c8576139c761367a565b5b6139d4848285016137f1565b60808301525060a082013567ffffffffffffffff8111156139f8576139f761367a565b5b613a04848285016138b4565b60a08301525060c082013567ffffffffffffffff811115613a2857613a2761367a565b5b613a34848285016138b4565b60c08301525060e082013567ffffffffffffffff811115613a5857613a5761367a565b5b613a64848285016138b4565b60e083015250610100613a7984828501612f56565b61010083015250610120613a8f84828501612f56565b61012083015250610140613aa584828501612f56565b6101408301525061016082013567ffffffffffffffff811115613acb57613aca61367a565b5b613ad78482850161370b565b6101608301525092915050565b600060208284031215613afa57613af9612d60565b5b600082013567ffffffffffffffff811115613b1857613b17612d65565b5b613b24848285016138e2565b91505092915050565b7f4e487b7100000000000000000000000000000000000000000000000000000000600052602260045260246000fd5b60006002820490506001821680613b7457607f821691505b602082108103613b8757613b86613b2d565b5b50919050565b7f4572726f72202d20617070726f76616c20746f2063757272656e74206f776e6560008201527f7200000000000000000000000000000000000000000000000000000000000000602082015250565b6000613be9602183612e30565b9150613bf482613b8d565b604082019050919050565b60006020820190508181036000830152613c1881613bdc565b9050919050565b7f43757272656e742063616c6c6572206973206e6f7420746865206f776e65722060008201527f6f662074686520746f6b656e0000000000000000000000000000000000000000602082015250565b6000613c7b602c83612e30565b9150613c8682613c1f565b604082019050919050565b60006020820190508181036000830152613caa81613c6e565b9050919050565b7f4e487b7100000000000000000000000000000000000000000000000000000000600052601160045260246000fd5b6000613ceb82612f35565b9150613cf683612f35565b9250828203905081811115613d0e57613d0d613cb1565b5b92915050565b6000613d1f82612f35565b9150613d2a83612f35565b9250828201905080821115613d4257613d41613cb1565b5b92915050565b7f4e487b7100000000000000000000000000000000000000000000000000000000600052603260045260246000fd5b6000613d8282612f35565b915060008203613d9557613d94613cb1565b5b600182039050919050565b6000613dab82612f35565b91507fffffffffffffffffffffffffffffffffffffffffffffffffffffffffffffffff8203613ddd57613ddc613cb1565b5b600182019050919050565b7f4e487b7100000000000000000000000000000000000000000000000000000000600052603160045260246000fd5b7f6f776e657220696e646578206973206f7574206f6620626f756e647321000000600082015250565b6000613e4d601d83612e30565b9150613e5882613e17565b602082019050919050565b60006020820190508181036000830152613e7c81613e40565b9050919050565b7f676c6f62616c20696e646578206973206f7574206f6620626f756e6473210000600082015250565b6000613eb9601e83612e30565b9150613ec482613e83565b602082019050919050565b60006020820190508181036000830152613ee881613eac565b9050919050565b7f6f776e657220717565727920666f72206e6f6e2d6578697374656e7420746f6b60008201527f656e000000000000000000000000000000000000000000000000000000000000602082015250565b6000613f4b602283612e30565b9150613f5682613eef565b604082019050919050565b60006020820190508181036000830152613f7a81613f3e565b9050919050565b60008190508160005260206000209050919050565b60006020601f8301049050919050565b600082821b905092915050565b600060088302613fe37fffffffffffffffffffffffffffffffffffffffffffffffffffffffffffffffff82613fa6565b613fed8683613fa6565b95508019841693508086168417925050509392505050565b6000819050919050565b600061402a61402561402084612f35565b614005565b612f35565b9050919050565b6000819050919050565b6140448361400f565b61405861405082614031565b848454613fb3565b825550505050565b600090565b61406d614060565b61407881848461403b565b505050565b5b8181101561409c57614091600082614065565b60018101905061407e565b5050565b601f8211156140e1576140b281613f81565b6140bb84613f96565b810160208510156140ca578190505b6140de6140d685613f96565b83018261407d565b50505b505050565b600082821c905092915050565b6000614104600019846008026140e6565b1980831691505092915050565b600061411d83836140f3565b9150826002028217905092915050565b61413682612e25565b67ffffffffffffffff81111561414f5761414e6135ff565b5b6141598254613b5c565b6141648282856140a0565b600060209050601f8311600181146141975760008415614185578287015190505b61418f8582614111565b8655506141f7565b601f1984166141a586613f81565b60005b828110156141cd578489015182556001820191506020850194506020810190506141a8565b868310156141ea57848901516141e6601f8916826140f3565b8355505b6001600288020188555050505b505050505050565b60008154905061420e81613b5c565b9050919050565b8181036142235750506142fb565b61422c826141ff565b67ffffffffffffffff811115614245576142446135ff565b5b61424f8254613b5c565b61425a8282856140a0565b6000601f8311600181146142895760008415614277578287015490505b6142818582614111565b8655506142f4565b601f19841661429787613f81565b96506142a286613f81565b60005b828110156142ca578489015482556001820191506001850194506020810190506142a5565b868310156142e757848901546142e3601f8916826140f3565b8355505b6001600288020188555050505b5050505050505b565b7f4572726f72203a20616c72656164792065786973747320636f6e6669726d617460008201527f696f6e2000000000000000000000000000000000000000000000000000000000602082015250565b6000614359602483612e30565b9150614364826142fd565b604082019050919050565b600060208201905081810360008301526143888161434c565b9050919050565b7f746f6b656e20646f6573206e6f74206578697374000000000000000000000000600082015250565b60006143c5601483612e30565b91506143d08261438f565b602082019050919050565b600060208201905081810360008301526143f4816143b8565b9050919050565b7f4572726f72202d20455243373231205472616e7366657220746f20746865207a60008201527f65726f2061646472657373000000000000000000000000000000000000000000602082015250565b6000614457602b83612e30565b9150614462826143fb565b604082019050919050565b600060208201905081810360008301526144868161444a565b9050919050565b7f547279696e6720746f207472616e73666572206120746f6b656e20746865206160008201527f64647265737320646f6573206e6f74206f776e21000000000000000000000000602082015250565b60006144e9603483612e30565b91506144f48261448d565b604082019050919050565b60006020820190508181036000830152614518816144dc565b9050919050565b7f4552433732313a206d696e74696e6720746f20746865207a65726f206164647260008201527f6573000000000000000000000000000000000000000000000000000000000000602082015250565b600061457b602283612e30565b91506145868261451f565b604082019050919050565b600060208201905081810360008301526145aa8161456e565b9050919050565b7f4552433732313a20746f6b656e20616c7265616479206d696e74656400000000600082015250565b60006145e7601c83612e30565b91506145f2826145b1565b602082019050919050565b60006020820190508181036000830152614616816145da565b9050919050565b7f536166654d6174683a207375627472616374696f6e206f766572666c6f770000600082015250565b6000614653601e83612e30565b915061465e8261461d565b602082019050919050565b6000602082019050818103600083015261468281614646565b905091905056fea26469706673582212205ef0091c3a7d463de0187c26b8a588d682ed42bc9783d872ab25ec351b0d830564736f6c63430008110033",
  "immutableReferences": {},
  "source": "// SPDX-License-Identifier: MIT\r\npragma solidity ^0.8.0;\r\n\r\nimport './ERC721Connector.sol';\r\n\r\ncontract Confirmation is ERC721Connector {\r\n    \r\n    struct confirmation {\r\n        uint id; //  \r\n        string userName;\r\n        string hosName;\r\n        string pharName;\r\n        \r\n        string[] dName;\r\n        uint[] dosage; // \r\n        uint[] doseNum; //  \r\n        uint[] dosePeriod; // \r\n        uint prescriptionCount;\r\n        uint dispensingCount; //   \r\n        uint prepDate; //  \r\n        string howtoTake; // \r\n    }\r\n\r\n    \r\n\r\n\r\n    //  \r\n    confirmation[] public cfms;\r\n\r\n    mapping (address => uint[]) _allTokensOwned; //     ID \r\n    \r\n    mapping (address => confirmation[]) _cfmsFromAccount; //   \r\n\r\n    mapping (address => uint) _accountAuth; // \r\n\r\n    mapping (uint => uint) _countOfId;  //     \r\n    \r\n    mapping (address => mapping (address => confirmation[])) _patientListFromAccount;\r\n    modifier cfmExists ( \r\n        uint _no,\r\n        uint _dispensingcount)\r\n    {\r\n        bool check = false;\r\n        for (uint i = 0; i < cfms.length; i++){\r\n            if(cfms[i].id == _no && cfms[i].dispensingCount == _dispensingcount){\r\n                check = true;\r\n            }\r\n        }\r\n        require(!check, \"Error : already exists confirmation \");\r\n           _;\r\n    }\r\n    //  cfmExists (_confirmation.No, _confirmation.dispensingCount)\r\n    function mint(confirmation memory _confirmation)\r\n        public cfmExists (_confirmation.id, _confirmation.dispensingCount){\r\n            // require(_countOfNo[_confirmation.No] < _confirmation.prescriptionCount, 'Error : You cannot exceed the number of preparations');\r\n            cfms.push(_confirmation);\r\n\r\n            uint _id = cfms.length -1;\r\n            _countOfId[_confirmation.id] = 0;\r\n            //    \r\n            _cfmsFromAccount[msg.sender].push(_confirmation);\r\n            // _countOfNo[_confirmation.No] += 1;\r\n\r\n            _mint(msg.sender ,_id); \r\n        }\r\n\r\n        function transferconfirmation(address _from, address _to, uint _tokenId) public {\r\n            confirmation memory conf = cfms[_tokenId];\r\n            \r\n            _countOfId[_tokenId]++;\r\n            _cfmsFromAccount[_to].push(conf);\r\n            _patientListFromAccount[_from][_to].push(cfms[_tokenId]);\r\n            transferFrom(_from, _to, _tokenId);\r\n            \r\n        }\r\n        // address    \r\n        function getcfmsByAccount(address _address) public view returns (confirmation[] memory) {\r\n            return _cfmsFromAccount[_address];\r\n        }\r\n        // from -> to    \r\n        function getpatientListFromAccount(address _from, address _to) public view returns (confirmation[] memory){\r\n            return _patientListFromAccount[_from][_to];\r\n        }\r\n        //  tokenId   \r\n        function getcountOfprs(uint _tokenId) public view returns (uint){\r\n            return _countOfId[_tokenId];\r\n        }\r\n\r\n    constructor() ERC721Connector('Confirmation','Cfm') {}\r\n}",
  "sourcePath": "C:\\Users\\SSAFY\\Documents\\GitHub\\S07P22E205\\smart-contract\\src\\contracts\\Confirmation.sol",
  "compiler": {
    "name": "solc",
    "version": "0.8.17+commit.8df45f5f.Emscripten.clang"
  },
  "schemaVersion": "3.4.10",
  "updatedAt": "2022-10-06T19:09:24.627Z",
  "networkType": "ethereum",
  "devdoc": {
    "kind": "dev",
    "methods": {
      "ownerOf(uint256)": {
        "details": "NFTs assigned to zero address are considered invalid, and queries  about them do throw.",
        "params": {
          "_tokenId": "The identifier for an NFT"
        },
        "returns": {
          "_0": "The address of the owner of the NFT"
        }
      },
      "supportsInterface(bytes4)": {
        "details": "Interface identification is specified in ERC-165. This function  uses less than 30,000 gas.",
        "params": {
          "interfaceID": "The interface identifier, as specified in ERC-165"
        },
        "returns": {
          "_0": "`true` if the contract implements `interfaceID` and  `interfaceID` is not 0xffffffff, `false` otherwise"
        }
      }
    },
    "version": 1
  },
  "userdoc": {
    "kind": "user",
    "methods": {
      "ownerOf(uint256)": {
        "notice": "Find the owner of an NFT"
      },
      "supportsInterface(bytes4)": {
        "notice": "Query if a contract implements an interface"
      }
    },
    "version": 1
  }
}