{
  "contractName": "Confirmation",
  "abi": [
    {
      "inputs": [],
      "stateMutability": "nonpayable",
      "type": "constructor"
    },
    {
      "anonymous": false,
      "inputs": [
        {
          "indexed": true,
          "internalType": "address",
          "name": "_owner",
          "type": "address"
        },
        {
          "indexed": true,
          "internalType": "address",
          "name": "_approved",
          "type": "address"
        },
        {
          "indexed": true,
          "internalType": "uint256",
          "name": "_tokenId",
          "type": "uint256"
        }
      ],
      "name": "Approval",
      "type": "event"
    },
    {
      "anonymous": false,
      "inputs": [
        {
          "indexed": true,
          "internalType": "address",
          "name": "_from",
          "type": "address"
        },
        {
          "indexed": true,
          "internalType": "address",
          "name": "_to",
          "type": "address"
        },
        {
          "indexed": true,
          "internalType": "uint256",
          "name": "_tokenId",
          "type": "uint256"
        }
      ],
      "name": "Transfer",
      "type": "event"
    },
    {
      "inputs": [
        {
          "internalType": "address",
          "name": "owner",
          "type": "address"
        }
      ],
      "name": "alltokenOfOwner",
      "outputs": [
        {
          "internalType": "uint256[]",
          "name": "",
          "type": "uint256[]"
        }
      ],
      "stateMutability": "view",
      "type": "function",
      "constant": true
    },
    {
      "inputs": [
        {
          "internalType": "address",
          "name": "_to",
          "type": "address"
        },
        {
          "internalType": "uint256",
          "name": "tokenId",
          "type": "uint256"
        }
      ],
      "name": "approve",
      "outputs": [],
      "stateMutability": "nonpayable",
      "type": "function"
    },
    {
      "inputs": [
        {
          "internalType": "address",
          "name": "_owner",
          "type": "address"
        }
      ],
      "name": "balanceOf",
      "outputs": [
        {
          "internalType": "uint256",
          "name": "",
          "type": "uint256"
        }
      ],
      "stateMutability": "view",
      "type": "function",
      "constant": true
    },
    {
      "inputs": [
        {
          "internalType": "uint256",
          "name": "",
          "type": "uint256"
        }
      ],
      "name": "cfms",
      "outputs": [
        {
          "internalType": "uint256",
          "name": "id",
          "type": "uint256"
        },
        {
          "internalType": "string",
          "name": "userName",
          "type": "string"
        },
        {
          "internalType": "string",
          "name": "hosName",
          "type": "string"
        },
        {
          "internalType": "string",
          "name": "pharName",
          "type": "string"
        },
        {
          "internalType": "uint256",
          "name": "prescriptionCount",
          "type": "uint256"
        },
        {
          "internalType": "uint256",
          "name": "dispensingCount",
          "type": "uint256"
        },
        {
          "internalType": "uint256",
          "name": "prepDate",
          "type": "uint256"
        },
        {
          "internalType": "string",
          "name": "howtoTake",
          "type": "string"
        }
      ],
      "stateMutability": "view",
      "type": "function",
      "constant": true
    },
    {
      "inputs": [],
      "name": "name",
      "outputs": [
        {
          "internalType": "string",
          "name": "",
          "type": "string"
        }
      ],
      "stateMutability": "view",
      "type": "function",
      "constant": true
    },
    {
      "inputs": [
        {
          "internalType": "uint256",
          "name": "_tokenId",
          "type": "uint256"
        }
      ],
      "name": "ownerOf",
      "outputs": [
        {
          "internalType": "address",
          "name": "",
          "type": "address"
        }
      ],
      "stateMutability": "view",
      "type": "function",
      "constant": true
    },
    {
      "inputs": [
        {
          "internalType": "bytes4",
          "name": "interfaceID",
          "type": "bytes4"
        }
      ],
      "name": "supportsInterface",
      "outputs": [
        {
          "internalType": "bool",
          "name": "",
          "type": "bool"
        }
      ],
      "stateMutability": "view",
      "type": "function"
    },
    {
      "inputs": [],
      "name": "symbol",
      "outputs": [
        {
          "internalType": "string",
          "name": "",
          "type": "string"
        }
      ],
      "stateMutability": "view",
      "type": "function"
    },
    {
      "inputs": [
        {
          "internalType": "uint256",
          "name": "index",
          "type": "uint256"
        }
      ],
      "name": "tokenByIndex",
      "outputs": [
        {
          "internalType": "uint256",
          "name": "",
          "type": "uint256"
        }
      ],
      "stateMutability": "view",
      "type": "function"
    },
    {
      "inputs": [
        {
          "internalType": "address",
          "name": "owner",
          "type": "address"
        },
        {
          "internalType": "uint256",
          "name": "index",
          "type": "uint256"
        }
      ],
      "name": "tokenOfOwnerByIndex",
      "outputs": [
        {
          "internalType": "uint256",
          "name": "",
          "type": "uint256"
        }
      ],
      "stateMutability": "view",
      "type": "function"
    },
    {
      "inputs": [],
      "name": "totalSupply",
      "outputs": [
        {
          "internalType": "uint256",
          "name": "",
          "type": "uint256"
        }
      ],
      "stateMutability": "view",
      "type": "function"
    },
    {
      "inputs": [
        {
          "internalType": "address",
          "name": "_from",
          "type": "address"
        },
        {
          "internalType": "address",
          "name": "_to",
          "type": "address"
        },
        {
          "internalType": "uint256",
          "name": "_tokenId",
          "type": "uint256"
        }
      ],
      "name": "transferFrom",
      "outputs": [],
      "stateMutability": "nonpayable",
      "type": "function"
    },
    {
      "inputs": [
        {
          "internalType": "address",
          "name": "_from",
          "type": "address"
        },
        {
          "internalType": "address",
          "name": "_to",
          "type": "address"
        },
        {
          "internalType": "uint256",
          "name": "_tokenId",
          "type": "uint256"
        }
      ],
      "name": "transferPrs",
      "outputs": [],
      "stateMutability": "nonpayable",
      "type": "function"
    },
    {
      "inputs": [
        {
          "components": [
            {
              "internalType": "uint256",
              "name": "id",
              "type": "uint256"
            },
            {
              "internalType": "string",
              "name": "userName",
              "type": "string"
            },
            {
              "internalType": "string",
              "name": "hosName",
              "type": "string"
            },
            {
              "internalType": "string",
              "name": "pharName",
              "type": "string"
            },
            {
              "internalType": "uint256[]",
              "name": "dosage",
              "type": "uint256[]"
            },
            {
              "internalType": "uint256[]",
              "name": "doseNum",
              "type": "uint256[]"
            },
            {
              "internalType": "uint256[]",
              "name": "dosePeriod",
              "type": "uint256[]"
            },
            {
              "internalType": "uint256",
              "name": "prescriptionCount",
              "type": "uint256"
            },
            {
              "internalType": "uint256",
              "name": "dispensingCount",
              "type": "uint256"
            },
            {
              "internalType": "uint256",
              "name": "prepDate",
              "type": "uint256"
            },
            {
              "internalType": "string",
              "name": "howtoTake",
              "type": "string"
            }
          ],
          "internalType": "struct Confirmation.confirmation",
          "name": "_confirmation",
          "type": "tuple"
        }
      ],
      "name": "mint",
      "outputs": [],
      "stateMutability": "nonpayable",
      "type": "function"
    },
    {
      "inputs": [
        {
          "internalType": "address",
          "name": "_from",
          "type": "address"
        },
        {
          "internalType": "address",
          "name": "_to",
          "type": "address"
        },
        {
          "internalType": "uint256",
          "name": "_tokenId",
          "type": "uint256"
        }
      ],
      "name": "transferconfirmation",
      "outputs": [],
      "stateMutability": "nonpayable",
      "type": "function"
    },
    {
      "inputs": [
        {
          "internalType": "address",
          "name": "_address",
          "type": "address"
        }
      ],
      "name": "getcfmsByAccount",
      "outputs": [
        {
          "components": [
            {
              "internalType": "uint256",
              "name": "id",
              "type": "uint256"
            },
            {
              "internalType": "string",
              "name": "userName",
              "type": "string"
            },
            {
              "internalType": "string",
              "name": "hosName",
              "type": "string"
            },
            {
              "internalType": "string",
              "name": "pharName",
              "type": "string"
            },
            {
              "internalType": "uint256[]",
              "name": "dosage",
              "type": "uint256[]"
            },
            {
              "internalType": "uint256[]",
              "name": "doseNum",
              "type": "uint256[]"
            },
            {
              "internalType": "uint256[]",
              "name": "dosePeriod",
              "type": "uint256[]"
            },
            {
              "internalType": "uint256",
              "name": "prescriptionCount",
              "type": "uint256"
            },
            {
              "internalType": "uint256",
              "name": "dispensingCount",
              "type": "uint256"
            },
            {
              "internalType": "uint256",
              "name": "prepDate",
              "type": "uint256"
            },
            {
              "internalType": "string",
              "name": "howtoTake",
              "type": "string"
            }
          ],
          "internalType": "struct Confirmation.confirmation[]",
          "name": "",
          "type": "tuple[]"
        }
      ],
      "stateMutability": "view",
      "type": "function"
    },
    {
      "inputs": [
        {
          "internalType": "address",
          "name": "_from",
          "type": "address"
        },
        {
          "internalType": "address",
          "name": "_to",
          "type": "address"
        }
      ],
      "name": "getpatientListFromAccount",
      "outputs": [
        {
          "components": [
            {
              "internalType": "uint256",
              "name": "id",
              "type": "uint256"
            },
            {
              "internalType": "string",
              "name": "userName",
              "type": "string"
            },
            {
              "internalType": "string",
              "name": "hosName",
              "type": "string"
            },
            {
              "internalType": "string",
              "name": "pharName",
              "type": "string"
            },
            {
              "internalType": "uint256[]",
              "name": "dosage",
              "type": "uint256[]"
            },
            {
              "internalType": "uint256[]",
              "name": "doseNum",
              "type": "uint256[]"
            },
            {
              "internalType": "uint256[]",
              "name": "dosePeriod",
              "type": "uint256[]"
            },
            {
              "internalType": "uint256",
              "name": "prescriptionCount",
              "type": "uint256"
            },
            {
              "internalType": "uint256",
              "name": "dispensingCount",
              "type": "uint256"
            },
            {
              "internalType": "uint256",
              "name": "prepDate",
              "type": "uint256"
            },
            {
              "internalType": "string",
              "name": "howtoTake",
              "type": "string"
            }
          ],
          "internalType": "struct Confirmation.confirmation[]",
          "name": "",
          "type": "tuple[]"
        }
      ],
      "stateMutability": "view",
      "type": "function"
    },
    {
      "inputs": [
        {
          "internalType": "uint256",
          "name": "_tokenId",
          "type": "uint256"
        }
      ],
      "name": "getcountOfprs",
      "outputs": [
        {
          "internalType": "uint256",
          "name": "",
          "type": "uint256"
        }
      ],
      "stateMutability": "view",
      "type": "function"
    }
  ],
  "bytecode": "0x60806040523480156200001157600080fd5b506040518060400160405280600c81526020017f436f6e6669726d6174696f6e00000000000000000000000000000000000000008152506040518060400160405280600381526020017f43666d00000000000000000000000000000000000000000000000000000000008152508181620000b17f01ffc9a7a5cef8baa21ed3c5c0d7e23accb804b619e9333b597f47a0d84076e26200021c60201b60201c565b620001047f13b182f4c0e5b2efbac0efe6cf6d756c8b89f4b79c5707a043ed9ea740574ee97f7feaf19471f34a12a7eaf32d5f3090aa2260ea8624dc8a138e74e0bf0f623076186200021c60201b60201c565b81600190816200011591906200056d565b5080600290816200012791906200056d565b5050506200019f7f22c82707ba960a14c7592ffb6b8cfaa073fed0048a84cc7fa41f6b5bd8e7f2e47f3a6eb71757dfc6e784c1459d26270140c2c147d95ca985c80026fc5301c3eca17f8a7e378434598edc36d108689a030cbc9d7d465de4f74c71bae1028eed6a881b18186200021c60201b60201c565b620002147f8230223f691b981717299fae9549350a0d894555723531f02108b1f522c1a7977f6da5e1284143cdd2d15038a59bde3be031250f00291d64494c12d967b3a4e0c37fc53637662700e6c65104059db8bba34439e0c32483ab7c34e3ccae52c739549518186200021c60201b60201c565b5050620006d7565b63ffffffff60e01b817bffffffffffffffffffffffffffffffffffffffffffffffffffffffff19160362000287576040517f08c379a00000000000000000000000000000000000000000000000000000000081526004016200027e90620006b5565b60405180910390fd5b6001600080837bffffffffffffffffffffffffffffffffffffffffffffffffffffffff19167bffffffffffffffffffffffffffffffffffffffffffffffffffffffff1916815260200190815260200160002060006101000a81548160ff02191690831515021790555050565b600081519050919050565b7f4e487b7100000000000000000000000000000000000000000000000000000000600052604160045260246000fd5b7f4e487b7100000000000000000000000000000000000000000000000000000000600052602260045260246000fd5b600060028204905060018216806200037557607f821691505b6020821081036200038b576200038a6200032d565b5b50919050565b60008190508160005260206000209050919050565b60006020601f8301049050919050565b600082821b905092915050565b600060088302620003f57fffffffffffffffffffffffffffffffffffffffffffffffffffffffffffffffff82620003b6565b620004018683620003b6565b95508019841693508086168417925050509392505050565b6000819050919050565b6000819050919050565b60006200044e62000448620004428462000419565b62000423565b62000419565b9050919050565b6000819050919050565b6200046a836200042d565b62000482620004798262000455565b848454620003c3565b825550505050565b600090565b620004996200048a565b620004a68184846200045f565b505050565b5b81811015620004ce57620004c26000826200048f565b600181019050620004ac565b5050565b601f8211156200051d57620004e78162000391565b620004f284620003a6565b8101602085101562000502578190505b6200051a6200051185620003a6565b830182620004ab565b50505b505050565b600082821c905092915050565b6000620005426000198460080262000522565b1980831691505092915050565b60006200055d83836200052f565b9150826002028217905092915050565b6200057882620002f3565b67ffffffffffffffff811115620005945762000593620002fe565b5b620005a082546200035c565b620005ad828285620004d2565b600060209050601f831160018114620005e55760008415620005d0578287015190505b620005dc85826200054f565b8655506200064c565b601f198416620005f58662000391565b60005b828110156200061f57848901518255600182019150602085019450602081019050620005f8565b868310156200063f57848901516200063b601f8916826200052f565b8355505b6001600288020188555050505b505050505050565b600082825260208201905092915050565b7f496e76616c696420696e74657266616365207265717565737400000000000000600082015250565b60006200069d60198362000654565b9150620006aa8262000665565b602082019050919050565b60006020820190508181036000830152620006d0816200068e565b9050919050565b6140b880620006e76000396000f3fe608060405234801561001057600080fd5b50600436106101165760003560e01c8063566dd911116100a2578063806982f111610071578063806982f114610332578063890ec7441461034e57806395d89b411461037e578063d309b7721461039c578063e241ff48146103b857610116565b8063566dd911146102725780636352211e146102a25780636e03a06a146102d257806370a082311461030257610116565b80631c18c246116100e95780631c18c246146101a35780631d161887146101bf57806323b872dd146101f65780632f745c59146102125780634f6ccce71461024257610116565b806301ffc9a71461011b57806306fdde031461014b578063095ea7b31461016957806318160ddd14610185575b600080fd5b610135600480360381019061013091906129ac565b6103e8565b60405161014291906129f4565b60405180910390f35b61015361044f565b6040516101609190612a9f565b60405180910390f35b610183600480360381019061017e9190612b55565b6104e1565b005b61018d61067c565b60405161019a9190612ba4565b60405180910390f35b6101bd60048036038101906101b89190612bbf565b610689565b005b6101d960048036038101906101d49190612c12565b6108dc565b6040516101ed989796959493929190612c3f565b60405180910390f35b610210600480360381019061020b9190612bbf565b610b54565b005b61022c60048036038101906102279190612b55565b610b77565b6040516102399190612ba4565b60405180910390f35b61025c60048036038101906102579190612c12565b610c27565b6040516102699190612ba4565b60405180910390f35b61028c60048036038101906102879190612c12565b610c98565b6040516102999190612ba4565b60405180910390f35b6102bc60048036038101906102b79190612c12565b610cb5565b6040516102c99190612ce8565b60405180910390f35b6102ec60048036038101906102e79190612d03565b610d66565b6040516102f99190613013565b60405180910390f35b61031c60048036038101906103179190612d03565b61117d565b6040516103299190612ba4565b60405180910390f35b61034c6004803603810190610347919061340c565b61123b565b005b61036860048036038101906103639190613455565b61159f565b6040516103759190613013565b60405180910390f35b6103866119f4565b6040516103939190612a9f565b60405180910390f35b6103b660048036038101906103b19190612bbf565b611a86565b005b6103d260048036038101906103cd9190612d03565b612139565b6040516103df9190613504565b60405180910390f35b6000806000837bffffffffffffffffffffffffffffffffffffffffffffffffffffffff19167bffffffffffffffffffffffffffffffffffffffffffffffffffffffff1916815260200190815260200160002060009054906101000a900460ff169050919050565b60606001805461045e90613555565b80601f016020809104026020016040519081016040528092919081815260200182805461048a90613555565b80156104d75780601f106104ac576101008083540402835291602001916104d7565b820191906000526020600020905b8154815290600101906020018083116104ba57829003601f168201915b5050505050905090565b60006104ec82610cb5565b90508073ffffffffffffffffffffffffffffffffffffffff168373ffffffffffffffffffffffffffffffffffffffff160361055c576040517f08c379a0000000000000000000000000000000000000000000000000000000008152600401610553906135f8565b60405180910390fd5b8073ffffffffffffffffffffffffffffffffffffffff163373ffffffffffffffffffffffffffffffffffffffff16146105ca576040517f08c379a00000000000000000000000000000000000000000000000000000000081526004016105c19061368a565b60405180910390fd5b826005600084815260200190815260200160002060006101000a81548173ffffffffffffffffffffffffffffffffffffffff021916908373ffffffffffffffffffffffffffffffffffffffff160217905550818373ffffffffffffffffffffffffffffffffffffffff168273ffffffffffffffffffffffffffffffffffffffff167f8c5be1e5ebec7d5bd14f71427d1e84f3dd0314c0f7b2291e5b200ac8c7c3b92560405160405180910390a4505050565b6000600680549050905090565b610694838383610b54565b60006009600083815260200190815260200160002054905060008190505b6001600860008773ffffffffffffffffffffffffffffffffffffffff1673ffffffffffffffffffffffffffffffffffffffff1681526020019081526020016000208054905061070191906136d9565b81101561086657600860008673ffffffffffffffffffffffffffffffffffffffff1673ffffffffffffffffffffffffffffffffffffffff168152602001908152602001600020600182610754919061370d565b8154811061076557610764613741565b5b9060005260206000200154600860008773ffffffffffffffffffffffffffffffffffffffff1673ffffffffffffffffffffffffffffffffffffffff16815260200190815260200160002082815481106107c1576107c0613741565b5b906000526020600020018190555060096000600860008873ffffffffffffffffffffffffffffffffffffffff1673ffffffffffffffffffffffffffffffffffffffff168152602001908152602001600020838154811061082457610823613741565b5b90600052602060002001548152602001908152602001600020600081548092919061084e90613770565b9190505550808061085e90613799565b9150506106b2565b50600860008573ffffffffffffffffffffffffffffffffffffffff1673ffffffffffffffffffffffffffffffffffffffff1681526020019081526020016000208054806108b6576108b56137e1565b5b600190038181906000526020600020016000905590556108d683836121d0565b50505050565b600a81815481106108ec57600080fd5b90600052602060002090600b020160009150905080600001549080600101805461091590613555565b80601f016020809104026020016040519081016040528092919081815260200182805461094190613555565b801561098e5780601f106109635761010080835404028352916020019161098e565b820191906000526020600020905b81548152906001019060200180831161097157829003601f168201915b5050505050908060020180546109a390613555565b80601f01602080910402602001604051908101604052809291908181526020018280546109cf90613555565b8015610a1c5780601f106109f157610100808354040283529160200191610a1c565b820191906000526020600020905b8154815290600101906020018083116109ff57829003601f168201915b505050505090806003018054610a3190613555565b80601f0160208091040260200160405190810160405280929190818152602001828054610a5d90613555565b8015610aaa5780601f10610a7f57610100808354040283529160200191610aaa565b820191906000526020600020905b815481529060010190602001808311610a8d57829003601f168201915b50505050509080600701549080600801549080600901549080600a018054610ad190613555565b80601f0160208091040260200160405190810160405280929190818152602001828054610afd90613555565b8015610b4a5780601f10610b1f57610100808354040283529160200191610b4a565b820191906000526020600020905b815481529060010190602001808311610b2d57829003601f168201915b5050505050905088565b610b5e3382612294565b610b6757600080fd5b610b72838383612323565b505050565b6000610b828361117d565b8210610bc3576040517f08c379a0000000000000000000000000000000000000000000000000000000008152600401610bba9061385c565b60405180910390fd5b600860008473ffffffffffffffffffffffffffffffffffffffff1673ffffffffffffffffffffffffffffffffffffffff1681526020019081526020016000208281548110610c1457610c13613741565b5b9060005260206000200154905092915050565b6000610c3161067c565b8210610c72576040517f08c379a0000000000000000000000000000000000000000000000000000000008152600401610c69906138c8565b60405180910390fd5b60068281548110610c8657610c85613741565b5b90600052602060002001549050919050565b6000600e6000838152602001908152602001600020549050919050565b6000806003600084815260200190815260200160002060009054906101000a900473ffffffffffffffffffffffffffffffffffffffff169050600073ffffffffffffffffffffffffffffffffffffffff168173ffffffffffffffffffffffffffffffffffffffff1603610d5d576040517f08c379a0000000000000000000000000000000000000000000000000000000008152600401610d549061395a565b60405180910390fd5b80915050919050565b6060600c60008373ffffffffffffffffffffffffffffffffffffffff1673ffffffffffffffffffffffffffffffffffffffff168152602001908152602001600020805480602002602001604051908101604052809291908181526020016000905b8282101561117257838290600052602060002090600b02016040518061016001604052908160008201548152602001600182018054610e0590613555565b80601f0160208091040260200160405190810160405280929190818152602001828054610e3190613555565b8015610e7e5780601f10610e5357610100808354040283529160200191610e7e565b820191906000526020600020905b815481529060010190602001808311610e6157829003601f168201915b50505050508152602001600282018054610e9790613555565b80601f0160208091040260200160405190810160405280929190818152602001828054610ec390613555565b8015610f105780601f10610ee557610100808354040283529160200191610f10565b820191906000526020600020905b815481529060010190602001808311610ef357829003601f168201915b50505050508152602001600382018054610f2990613555565b80601f0160208091040260200160405190810160405280929190818152602001828054610f5590613555565b8015610fa25780601f10610f7757610100808354040283529160200191610fa2565b820191906000526020600020905b815481529060010190602001808311610f8557829003601f168201915b5050505050815260200160048201805480602002602001604051908101604052809291908181526020018280548015610ffa57602002820191906000526020600020905b815481526020019060010190808311610fe6575b505050505081526020016005820180548060200260200160405190810160405280929190818152602001828054801561105257602002820191906000526020600020905b81548152602001906001019080831161103e575b50505050508152602001600682018054806020026020016040519081016040528092919081815260200182805480156110aa57602002820191906000526020600020905b815481526020019060010190808311611096575b50505050508152602001600782015481526020016008820154815260200160098201548152602001600a820180546110e190613555565b80601f016020809104026020016040519081016040528092919081815260200182805461110d90613555565b801561115a5780601f1061112f5761010080835404028352916020019161115a565b820191906000526020600020905b81548152906001019060200180831161113d57829003601f168201915b50505050508152505081526020019060010190610dc7565b505050509050919050565b60008073ffffffffffffffffffffffffffffffffffffffff168273ffffffffffffffffffffffffffffffffffffffff16036111ed576040517f08c379a00000000000000000000000000000000000000000000000000000000081526004016111e49061395a565b60405180910390fd5b611234600460008473ffffffffffffffffffffffffffffffffffffffff1673ffffffffffffffffffffffffffffffffffffffff168152602001908152602001600020612548565b9050919050565b80600001518161010001516000805b600a805490508110156112cc5783600a828154811061126c5761126b613741565b5b90600052602060002090600b0201600001541480156112af575082600a828154811061129b5761129a613741565b5b90600052602060002090600b020160080154145b156112b957600191505b80806112c490613799565b91505061124a565b50801561130e576040517f08c379a0000000000000000000000000000000000000000000000000000000008152600401611305906139ec565b60405180910390fd5b600a8490806001815401808255809150506001900390600052602060002090600b02016000909190919091506000820151816000015560208201518160010190816113599190613bb8565b50604082015181600201908161136f9190613bb8565b5060608201518160030190816113859190613bb8565b5060808201518160040190805190602001906113a2929190612884565b5060a08201518160050190805190602001906113bf929190612884565b5060c08201518160060190805190602001906113dc929190612884565b5060e082015181600701556101008201518160080155610120820151816009015561014082015181600a0190816114139190613bb8565b50505060006001600a8054905061142a91906136d9565b90506000600e60008760000151815260200190815260200160002081905550600c60003373ffffffffffffffffffffffffffffffffffffffff1673ffffffffffffffffffffffffffffffffffffffff1681526020019081526020016000208590806001815401808255809150506001900390600052602060002090600b02016000909190919091506000820151816000015560208201518160010190816114d19190613bb8565b5060408201518160020190816114e79190613bb8565b5060608201518160030190816114fd9190613bb8565b50608082015181600401908051906020019061151a929190612884565b5060a0820151816005019080519060200190611537929190612884565b5060c0820151816006019080519060200190611554929190612884565b5060e082015181600701556101008201518160080155610120820151816009015561014082015181600a01908161158b9190613bb8565b5050506115983382612556565b5050505050565b6060600f60008473ffffffffffffffffffffffffffffffffffffffff1673ffffffffffffffffffffffffffffffffffffffff16815260200190815260200160002060008373ffffffffffffffffffffffffffffffffffffffff1673ffffffffffffffffffffffffffffffffffffffff168152602001908152602001600020805480602002602001604051908101604052809291908181526020016000905b828210156119e857838290600052602060002090600b0201604051806101600160405290816000820154815260200160018201805461167b90613555565b80601f01602080910402602001604051908101604052809291908181526020018280546116a790613555565b80156116f45780601f106116c9576101008083540402835291602001916116f4565b820191906000526020600020905b8154815290600101906020018083116116d757829003601f168201915b5050505050815260200160028201805461170d90613555565b80601f016020809104026020016040519081016040528092919081815260200182805461173990613555565b80156117865780601f1061175b57610100808354040283529160200191611786565b820191906000526020600020905b81548152906001019060200180831161176957829003601f168201915b5050505050815260200160038201805461179f90613555565b80601f01602080910402602001604051908101604052809291908181526020018280546117cb90613555565b80156118185780601f106117ed57610100808354040283529160200191611818565b820191906000526020600020905b8154815290600101906020018083116117fb57829003601f168201915b505050505081526020016004820180548060200260200160405190810160405280929190818152602001828054801561187057602002820191906000526020600020905b81548152602001906001019080831161185c575b50505050508152602001600582018054806020026020016040519081016040528092919081815260200182805480156118c857602002820191906000526020600020905b8154815260200190600101908083116118b4575b505050505081526020016006820180548060200260200160405190810160405280929190818152602001828054801561192057602002820191906000526020600020905b81548152602001906001019080831161190c575b50505050508152602001600782015481526020016008820154815260200160098201548152602001600a8201805461195790613555565b80601f016020809104026020016040519081016040528092919081815260200182805461198390613555565b80156119d05780601f106119a5576101008083540402835291602001916119d0565b820191906000526020600020905b8154815290600101906020018083116119b357829003601f168201915b5050505050815250508152602001906001019061163d565b50505050905092915050565b606060028054611a0390613555565b80601f0160208091040260200160405190810160405280929190818152602001828054611a2f90613555565b8015611a7c5780601f10611a5157610100808354040283529160200191611a7c565b820191906000526020600020905b815481529060010190602001808311611a5f57829003601f168201915b5050505050905090565b6000600a8281548110611a9c57611a9b613741565b5b90600052602060002090600b02016040518061016001604052908160008201548152602001600182018054611ad090613555565b80601f0160208091040260200160405190810160405280929190818152602001828054611afc90613555565b8015611b495780601f10611b1e57610100808354040283529160200191611b49565b820191906000526020600020905b815481529060010190602001808311611b2c57829003601f168201915b50505050508152602001600282018054611b6290613555565b80601f0160208091040260200160405190810160405280929190818152602001828054611b8e90613555565b8015611bdb5780601f10611bb057610100808354040283529160200191611bdb565b820191906000526020600020905b815481529060010190602001808311611bbe57829003601f168201915b50505050508152602001600382018054611bf490613555565b80601f0160208091040260200160405190810160405280929190818152602001828054611c2090613555565b8015611c6d5780601f10611c4257610100808354040283529160200191611c6d565b820191906000526020600020905b815481529060010190602001808311611c5057829003601f168201915b5050505050815260200160048201805480602002602001604051908101604052809291908181526020018280548015611cc557602002820191906000526020600020905b815481526020019060010190808311611cb1575b5050505050815260200160058201805480602002602001604051908101604052809291908181526020018280548015611d1d57602002820191906000526020600020905b815481526020019060010190808311611d09575b5050505050815260200160068201805480602002602001604051908101604052809291908181526020018280548015611d7557602002820191906000526020600020905b815481526020019060010190808311611d61575b50505050508152602001600782015481526020016008820154815260200160098201548152602001600a82018054611dac90613555565b80601f0160208091040260200160405190810160405280929190818152602001828054611dd890613555565b8015611e255780601f10611dfa57610100808354040283529160200191611e25565b820191906000526020600020905b815481529060010190602001808311611e0857829003601f168201915b5050505050815250509050600e60008381526020019081526020016000206000815480929190611e5490613799565b9190505550600c60008473ffffffffffffffffffffffffffffffffffffffff1673ffffffffffffffffffffffffffffffffffffffff1681526020019081526020016000208190806001815401808255809150506001900390600052602060002090600b0201600090919091909150600082015181600001556020820151816001019081611ee19190613bb8565b506040820151816002019081611ef79190613bb8565b506060820151816003019081611f0d9190613bb8565b506080820151816004019080519060200190611f2a929190612884565b5060a0820151816005019080519060200190611f47929190612884565b5060c0820151816006019080519060200190611f64929190612884565b5060e082015181600701556101008201518160080155610120820151816009015561014082015181600a019081611f9b9190613bb8565b505050600f60008573ffffffffffffffffffffffffffffffffffffffff1673ffffffffffffffffffffffffffffffffffffffff16815260200190815260200160002060008473ffffffffffffffffffffffffffffffffffffffff1673ffffffffffffffffffffffffffffffffffffffff168152602001908152602001600020600a838154811061202e5761202d613741565b5b90600052602060002090600b020190806001815401808255809150506001900390600052602060002090600b020160009091909190915060008201548160000155600182018160010190816120839190613ca0565b50600282018160020190816120989190613ca0565b50600382018160030190816120ad9190613ca0565b5060048201816004019080546120c49291906128d1565b5060058201816005019080546120db9291906128d1565b5060068201816006019080546120f29291906128d1565b50600782015481600701556008820154816008015560098201548160090155600a820181600a0190816121259190613ca0565b505050612133848484610b54565b50505050565b6060600860008373ffffffffffffffffffffffffffffffffffffffff1673ffffffffffffffffffffffffffffffffffffffff1681526020019081526020016000208054806020026020016040519081016040528092919081815260200182805480156121c457602002820191906000526020600020905b8154815260200190600101908083116121b0575b50505050509050919050565b600860008373ffffffffffffffffffffffffffffffffffffffff1673ffffffffffffffffffffffffffffffffffffffff168152602001908152602001600020805490506009600083815260200190815260200160002081905550600860008373ffffffffffffffffffffffffffffffffffffffff1673ffffffffffffffffffffffffffffffffffffffff1681526020019081526020016000208190806001815401808255809150506001900390600052602060002001600090919091909150555050565b600061229f82612577565b6122de576040517f08c379a00000000000000000000000000000000000000000000000000000000081526004016122d590613dd4565b60405180910390fd5b60006122e983610cb5565b90508073ffffffffffffffffffffffffffffffffffffffff168473ffffffffffffffffffffffffffffffffffffffff161491505092915050565b600073ffffffffffffffffffffffffffffffffffffffff168273ffffffffffffffffffffffffffffffffffffffff1603612392576040517f08c379a000000000000000000000000000000000000000000000000000000000815260040161238990613e66565b60405180910390fd5b8273ffffffffffffffffffffffffffffffffffffffff166123b282610cb5565b73ffffffffffffffffffffffffffffffffffffffff1614612408576040517f08c379a00000000000000000000000000000000000000000000000000000000081526004016123ff90613ef8565b60405180910390fd5b61244f600460008573ffffffffffffffffffffffffffffffffffffffff1673ffffffffffffffffffffffffffffffffffffffff1681526020019081526020016000206125e9565b612496600460008473ffffffffffffffffffffffffffffffffffffffff1673ffffffffffffffffffffffffffffffffffffffff16815260200190815260200160002061260c565b816003600083815260200190815260200160002060006101000a81548173ffffffffffffffffffffffffffffffffffffffff021916908373ffffffffffffffffffffffffffffffffffffffff160217905550808273ffffffffffffffffffffffffffffffffffffffff168473ffffffffffffffffffffffffffffffffffffffff167fddf252ad1be2c89b69c2b068fc378daa952ba7f163c4a11628f55a4df523b3ef60405160405180910390a4505050565b600081600001549050919050565b612560828261262b565b612569816127dc565b61257382826121d0565b5050565b6000806003600084815260200190815260200160002060009054906101000a900473ffffffffffffffffffffffffffffffffffffffff169050600073ffffffffffffffffffffffffffffffffffffffff168173ffffffffffffffffffffffffffffffffffffffff161415915050919050565b6126016001826000015461282590919063ffffffff16565b816000018190555050565b6001816000016000828254612621919061370d565b9250508190555050565b600073ffffffffffffffffffffffffffffffffffffffff168273ffffffffffffffffffffffffffffffffffffffff160361269a576040517f08c379a000000000000000000000000000000000000000000000000000000000815260040161269190613f8a565b60405180910390fd5b6126a381612577565b156126e3576040517f08c379a00000000000000000000000000000000000000000000000000000000081526004016126da90613ff6565b60405180910390fd5b816003600083815260200190815260200160002060006101000a81548173ffffffffffffffffffffffffffffffffffffffff021916908373ffffffffffffffffffffffffffffffffffffffff16021790555061277c600460008473ffffffffffffffffffffffffffffffffffffffff1673ffffffffffffffffffffffffffffffffffffffff16815260200190815260200160002061260c565b808273ffffffffffffffffffffffffffffffffffffffff16600073ffffffffffffffffffffffffffffffffffffffff167fddf252ad1be2c89b69c2b068fc378daa952ba7f163c4a11628f55a4df523b3ef60405160405180910390a45050565b6006805490506007600083815260200190815260200160002081905550600681908060018154018082558091505060019003906000526020600020016000909190919091505550565b60008282111561286a576040517f08c379a000000000000000000000000000000000000000000000000000000000815260040161286190614062565b60405180910390fd5b6000828461287891906136d9565b90508091505092915050565b8280548282559060005260206000209081019282156128c0579160200282015b828111156128bf5782518255916020019190600101906128a4565b5b5090506128cd9190612923565b5090565b8280548282559060005260206000209081019282156129125760005260206000209182015b828111156129115782548255916001019190600101906128f6565b5b50905061291f9190612923565b5090565b5b8082111561293c576000816000905550600101612924565b5090565b6000604051905090565b600080fd5b600080fd5b60007fffffffff0000000000000000000000000000000000000000000000000000000082169050919050565b61298981612954565b811461299457600080fd5b50565b6000813590506129a681612980565b92915050565b6000602082840312156129c2576129c161294a565b5b60006129d084828501612997565b91505092915050565b60008115159050919050565b6129ee816129d9565b82525050565b6000602082019050612a0960008301846129e5565b92915050565b600081519050919050565b600082825260208201905092915050565b60005b83811015612a49578082015181840152602081019050612a2e565b60008484015250505050565b6000601f19601f8301169050919050565b6000612a7182612a0f565b612a7b8185612a1a565b9350612a8b818560208601612a2b565b612a9481612a55565b840191505092915050565b60006020820190508181036000830152612ab98184612a66565b905092915050565b600073ffffffffffffffffffffffffffffffffffffffff82169050919050565b6000612aec82612ac1565b9050919050565b612afc81612ae1565b8114612b0757600080fd5b50565b600081359050612b1981612af3565b92915050565b6000819050919050565b612b3281612b1f565b8114612b3d57600080fd5b50565b600081359050612b4f81612b29565b92915050565b60008060408385031215612b6c57612b6b61294a565b5b6000612b7a85828601612b0a565b9250506020612b8b85828601612b40565b9150509250929050565b612b9e81612b1f565b82525050565b6000602082019050612bb96000830184612b95565b92915050565b600080600060608486031215612bd857612bd761294a565b5b6000612be686828701612b0a565b9350506020612bf786828701612b0a565b9250506040612c0886828701612b40565b9150509250925092565b600060208284031215612c2857612c2761294a565b5b6000612c3684828501612b40565b91505092915050565b600061010082019050612c55600083018b612b95565b8181036020830152612c67818a612a66565b90508181036040830152612c7b8189612a66565b90508181036060830152612c8f8188612a66565b9050612c9e6080830187612b95565b612cab60a0830186612b95565b612cb860c0830185612b95565b81810360e0830152612cca8184612a66565b90509998505050505050505050565b612ce281612ae1565b82525050565b6000602082019050612cfd6000830184612cd9565b92915050565b600060208284031215612d1957612d1861294a565b5b6000612d2784828501612b0a565b91505092915050565b600081519050919050565b600082825260208201905092915050565b6000819050602082019050919050565b612d6581612b1f565b82525050565b600082825260208201905092915050565b6000612d8782612a0f565b612d918185612d6b565b9350612da1818560208601612a2b565b612daa81612a55565b840191505092915050565b600081519050919050565b600082825260208201905092915050565b6000819050602082019050919050565b6000612ded8383612d5c565b60208301905092915050565b6000602082019050919050565b6000612e1182612db5565b612e1b8185612dc0565b9350612e2683612dd1565b8060005b83811015612e57578151612e3e8882612de1565b9750612e4983612df9565b925050600181019050612e2a565b5085935050505092915050565b600061016083016000830151612e7d6000860182612d5c565b5060208301518482036020860152612e958282612d7c565b91505060408301518482036040860152612eaf8282612d7c565b91505060608301518482036060860152612ec98282612d7c565b91505060808301518482036080860152612ee38282612e06565b91505060a083015184820360a0860152612efd8282612e06565b91505060c083015184820360c0860152612f178282612e06565b91505060e0830151612f2c60e0860182612d5c565b50610100830151612f41610100860182612d5c565b50610120830151612f56610120860182612d5c565b50610140830151848203610140860152612f708282612d7c565b9150508091505092915050565b6000612f898383612e64565b905092915050565b6000602082019050919050565b6000612fa982612d30565b612fb38185612d3b565b935083602082028501612fc585612d4c565b8060005b858110156130015784840389528151612fe28582612f7d565b9450612fed83612f91565b925060208a01995050600181019050612fc9565b50829750879550505050505092915050565b6000602082019050818103600083015261302d8184612f9e565b905092915050565b600080fd5b7f4e487b7100000000000000000000000000000000000000000000000000000000600052604160045260246000fd5b61307282612a55565b810181811067ffffffffffffffff821117156130915761309061303a565b5b80604052505050565b60006130a4612940565b90506130b08282613069565b919050565b600080fd5b600080fd5b600080fd5b600067ffffffffffffffff8211156130df576130de61303a565b5b6130e882612a55565b9050602081019050919050565b82818337600083830152505050565b6000613117613112846130c4565b61309a565b905082815260208101848484011115613133576131326130bf565b5b61313e8482856130f5565b509392505050565b600082601f83011261315b5761315a6130ba565b5b813561316b848260208601613104565b91505092915050565b600067ffffffffffffffff82111561318f5761318e61303a565b5b602082029050602081019050919050565b600080fd5b60006131b86131b384613174565b61309a565b905080838252602082019050602084028301858111156131db576131da6131a0565b5b835b8181101561320457806131f08882612b40565b8452602084019350506020810190506131dd565b5050509392505050565b600082601f830112613223576132226130ba565b5b81356132338482602086016131a5565b91505092915050565b6000610160828403121561325357613252613035565b5b61325e61016061309a565b9050600061326e84828501612b40565b600083015250602082013567ffffffffffffffff811115613292576132916130b5565b5b61329e84828501613146565b602083015250604082013567ffffffffffffffff8111156132c2576132c16130b5565b5b6132ce84828501613146565b604083015250606082013567ffffffffffffffff8111156132f2576132f16130b5565b5b6132fe84828501613146565b606083015250608082013567ffffffffffffffff811115613322576133216130b5565b5b61332e8482850161320e565b60808301525060a082013567ffffffffffffffff811115613352576133516130b5565b5b61335e8482850161320e565b60a08301525060c082013567ffffffffffffffff811115613382576133816130b5565b5b61338e8482850161320e565b60c08301525060e06133a284828501612b40565b60e0830152506101006133b784828501612b40565b610100830152506101206133cd84828501612b40565b6101208301525061014082013567ffffffffffffffff8111156133f3576133f26130b5565b5b6133ff84828501613146565b6101408301525092915050565b6000602082840312156134225761342161294a565b5b600082013567ffffffffffffffff8111156134405761343f61294f565b5b61344c8482850161323c565b91505092915050565b6000806040838503121561346c5761346b61294a565b5b600061347a85828601612b0a565b925050602061348b85828601612b0a565b9150509250929050565b600082825260208201905092915050565b60006134b182612db5565b6134bb8185613495565b93506134c683612dd1565b8060005b838110156134f75781516134de8882612de1565b97506134e983612df9565b9250506001810190506134ca565b5085935050505092915050565b6000602082019050818103600083015261351e81846134a6565b905092915050565b7f4e487b7100000000000000000000000000000000000000000000000000000000600052602260045260246000fd5b6000600282049050600182168061356d57607f821691505b6020821081036135805761357f613526565b5b50919050565b7f4572726f72202d20617070726f76616c20746f2063757272656e74206f776e6560008201527f7200000000000000000000000000000000000000000000000000000000000000602082015250565b60006135e2602183612a1a565b91506135ed82613586565b604082019050919050565b60006020820190508181036000830152613611816135d5565b9050919050565b7f43757272656e742063616c6c6572206973206e6f7420746865206f776e65722060008201527f6f662074686520746f6b656e0000000000000000000000000000000000000000602082015250565b6000613674602c83612a1a565b915061367f82613618565b604082019050919050565b600060208201905081810360008301526136a381613667565b9050919050565b7f4e487b7100000000000000000000000000000000000000000000000000000000600052601160045260246000fd5b60006136e482612b1f565b91506136ef83612b1f565b9250828203905081811115613707576137066136aa565b5b92915050565b600061371882612b1f565b915061372383612b1f565b925082820190508082111561373b5761373a6136aa565b5b92915050565b7f4e487b7100000000000000000000000000000000000000000000000000000000600052603260045260246000fd5b600061377b82612b1f565b91506000820361378e5761378d6136aa565b5b600182039050919050565b60006137a482612b1f565b91507fffffffffffffffffffffffffffffffffffffffffffffffffffffffffffffffff82036137d6576137d56136aa565b5b600182019050919050565b7f4e487b7100000000000000000000000000000000000000000000000000000000600052603160045260246000fd5b7f6f776e657220696e646578206973206f7574206f6620626f756e647321000000600082015250565b6000613846601d83612a1a565b915061385182613810565b602082019050919050565b6000602082019050818103600083015261387581613839565b9050919050565b7f676c6f62616c20696e646578206973206f7574206f6620626f756e6473210000600082015250565b60006138b2601e83612a1a565b91506138bd8261387c565b602082019050919050565b600060208201905081810360008301526138e1816138a5565b9050919050565b7f6f776e657220717565727920666f72206e6f6e2d6578697374656e7420746f6b60008201527f656e000000000000000000000000000000000000000000000000000000000000602082015250565b6000613944602283612a1a565b915061394f826138e8565b604082019050919050565b6000602082019050818103600083015261397381613937565b9050919050565b7f4572726f72203a20616c72656164792065786973747320636f6e6669726d617460008201527f696f6e2000000000000000000000000000000000000000000000000000000000602082015250565b60006139d6602483612a1a565b91506139e18261397a565b604082019050919050565b60006020820190508181036000830152613a05816139c9565b9050919050565b60008190508160005260206000209050919050565b60006020601f8301049050919050565b600082821b905092915050565b600060088302613a6e7fffffffffffffffffffffffffffffffffffffffffffffffffffffffffffffffff82613a31565b613a788683613a31565b95508019841693508086168417925050509392505050565b6000819050919050565b6000613ab5613ab0613aab84612b1f565b613a90565b612b1f565b9050919050565b6000819050919050565b613acf83613a9a565b613ae3613adb82613abc565b848454613a3e565b825550505050565b600090565b613af8613aeb565b613b03818484613ac6565b505050565b5b81811015613b2757613b1c600082613af0565b600181019050613b09565b5050565b601f821115613b6c57613b3d81613a0c565b613b4684613a21565b81016020851015613b55578190505b613b69613b6185613a21565b830182613b08565b50505b505050565b600082821c905092915050565b6000613b8f60001984600802613b71565b1980831691505092915050565b6000613ba88383613b7e565b9150826002028217905092915050565b613bc182612a0f565b67ffffffffffffffff811115613bda57613bd961303a565b5b613be48254613555565b613bef828285613b2b565b600060209050601f831160018114613c225760008415613c10578287015190505b613c1a8582613b9c565b865550613c82565b601f198416613c3086613a0c565b60005b82811015613c5857848901518255600182019150602085019450602081019050613c33565b86831015613c755784890151613c71601f891682613b7e565b8355505b6001600288020188555050505b505050505050565b600081549050613c9981613555565b9050919050565b818103613cae575050613d86565b613cb782613c8a565b67ffffffffffffffff811115613cd057613ccf61303a565b5b613cda8254613555565b613ce5828285613b2b565b6000601f831160018114613d145760008415613d02578287015490505b613d0c8582613b9c565b865550613d7f565b601f198416613d2287613a0c565b9650613d2d86613a0c565b60005b82811015613d5557848901548255600182019150600185019450602081019050613d30565b86831015613d725784890154613d6e601f891682613b7e565b8355505b6001600288020188555050505b5050505050505b565b7f746f6b656e20646f6573206e6f74206578697374000000000000000000000000600082015250565b6000613dbe601483612a1a565b9150613dc982613d88565b602082019050919050565b60006020820190508181036000830152613ded81613db1565b9050919050565b7f4572726f72202d20455243373231205472616e7366657220746f20746865207a60008201527f65726f2061646472657373000000000000000000000000000000000000000000602082015250565b6000613e50602b83612a1a565b9150613e5b82613df4565b604082019050919050565b60006020820190508181036000830152613e7f81613e43565b9050919050565b7f547279696e6720746f207472616e73666572206120746f6b656e20746865206160008201527f64647265737320646f6573206e6f74206f776e21000000000000000000000000602082015250565b6000613ee2603483612a1a565b9150613eed82613e86565b604082019050919050565b60006020820190508181036000830152613f1181613ed5565b9050919050565b7f4552433732313a206d696e74696e6720746f20746865207a65726f206164647260008201527f6573000000000000000000000000000000000000000000000000000000000000602082015250565b6000613f74602283612a1a565b9150613f7f82613f18565b604082019050919050565b60006020820190508181036000830152613fa381613f67565b9050919050565b7f4552433732313a20746f6b656e20616c7265616479206d696e74656400000000600082015250565b6000613fe0601c83612a1a565b9150613feb82613faa565b602082019050919050565b6000602082019050818103600083015261400f81613fd3565b9050919050565b7f536166654d6174683a207375627472616374696f6e206f766572666c6f770000600082015250565b600061404c601e83612a1a565b915061405782614016565b602082019050919050565b6000602082019050818103600083015261407b8161403f565b905091905056fea26469706673582212208e06f7d9f21e77f001fee6937840d892cb21267bc185316e05055f9f516ca88164736f6c63430008110033",
  "immutableReferences": {},
  "source": "// SPDX-License-Identifier: MIT\r\npragma solidity ^0.8.0;\r\n\r\nimport './ERC721Connector.sol';\r\n\r\ncontract Confirmation is ERC721Connector {\r\n    \r\n    struct confirmation {\r\n        uint id; //  \r\n        string userName;\r\n        string hosName;\r\n        string pharName;\r\n        \r\n        // string[] dName;\r\n        uint[] dosage; // \r\n        uint[] doseNum; //  \r\n        uint[] dosePeriod; // \r\n        uint prescriptionCount;\r\n        uint dispensingCount; //   \r\n        uint prepDate; //  \r\n        string howtoTake; // \r\n    }\r\n\r\n    \r\n\r\n\r\n    //  \r\n    confirmation[] public cfms;\r\n\r\n    mapping (address => uint[]) _allTokensOwned; //     ID \r\n    \r\n    mapping (address => confirmation[]) _cfmsFromAccount; //   \r\n\r\n    mapping (address => uint) _accountAuth; // \r\n\r\n    mapping (uint => uint) _countOfId;  //     \r\n    \r\n    mapping (address => mapping (address => confirmation[])) _patientListFromAccount;\r\n    modifier cfmExists ( \r\n        uint _no,\r\n        uint _dispensingcount)\r\n    {\r\n        bool check = false;\r\n        for (uint i = 0; i < cfms.length; i++){\r\n            if(cfms[i].id == _no && cfms[i].dispensingCount == _dispensingcount){\r\n                check = true;\r\n            }\r\n        }\r\n        require(!check, \"Error : already exists confirmation \");\r\n           _;\r\n    }\r\n    //  cfmExists (_confirmation.No, _confirmation.dispensingCount)\r\n    function mint(confirmation memory _confirmation)\r\n        public cfmExists (_confirmation.id, _confirmation.dispensingCount){\r\n            // require(_countOfNo[_confirmation.No] < _confirmation.prescriptionCount, 'Error : You cannot exceed the number of preparations');\r\n            cfms.push(_confirmation);\r\n\r\n            uint _id = cfms.length -1;\r\n            _countOfId[_confirmation.id] = 0;\r\n            //    \r\n            _cfmsFromAccount[msg.sender].push(_confirmation);\r\n            // _countOfNo[_confirmation.No] += 1;\r\n\r\n            _mint(msg.sender ,_id); \r\n        }\r\n\r\n        function transferconfirmation(address _from, address _to, uint _tokenId) public {\r\n            confirmation memory conf = cfms[_tokenId];\r\n            \r\n            _countOfId[_tokenId]++;\r\n            _cfmsFromAccount[_to].push(conf);\r\n            _patientListFromAccount[_from][_to].push(cfms[_tokenId]);\r\n            transferFrom(_from, _to, _tokenId);\r\n            \r\n        }\r\n        // address    \r\n        function getcfmsByAccount(address _address) public view returns (confirmation[] memory) {\r\n            return _cfmsFromAccount[_address];\r\n        }\r\n        // from -> to    \r\n        function getpatientListFromAccount(address _from, address _to) public view returns (confirmation[] memory){\r\n            return _patientListFromAccount[_from][_to];\r\n        }\r\n        //  tokenId   \r\n        function getcountOfprs(uint _tokenId) public view returns (uint){\r\n            return _countOfId[_tokenId];\r\n        }\r\n\r\n    constructor() ERC721Connector('Confirmation','Cfm') {}\r\n}",
  "sourcePath": "C:\\Users\\SSAFY\\S07P22E205\\smart-contract\\src\\contracts\\Confirmation.sol",
  "compiler": {
    "name": "solc",
    "version": "0.8.17+commit.8df45f5f.Emscripten.clang"
  },
  "schemaVersion": "3.4.10",
  "updatedAt": "2022-10-06T13:32:03.769Z",
  "devdoc": {
    "kind": "dev",
    "methods": {
      "ownerOf(uint256)": {
        "details": "NFTs assigned to zero address are considered invalid, and queries  about them do throw.",
        "params": {
          "_tokenId": "The identifier for an NFT"
        },
        "returns": {
          "_0": "The address of the owner of the NFT"
        }
      },
      "supportsInterface(bytes4)": {
        "details": "Interface identification is specified in ERC-165. This function  uses less than 30,000 gas.",
        "params": {
          "interfaceID": "The interface identifier, as specified in ERC-165"
        },
        "returns": {
          "_0": "`true` if the contract implements `interfaceID` and  `interfaceID` is not 0xffffffff, `false` otherwise"
        }
      }
    },
    "version": 1
  },
  "userdoc": {
    "kind": "user",
    "methods": {
      "ownerOf(uint256)": {
        "notice": "Find the owner of an NFT"
      },
      "supportsInterface(bytes4)": {
        "notice": "Query if a contract implements an interface"
      }
    },
    "version": 1
  }
}