{
  "contractName": "ERC721Connector",
  "abi": [
    {
      "inputs": [
        {
          "internalType": "string",
          "name": "name",
          "type": "string"
        },
        {
          "internalType": "string",
          "name": "symbol",
          "type": "string"
        }
      ],
      "stateMutability": "nonpayable",
      "type": "constructor"
    },
    {
      "anonymous": false,
      "inputs": [
        {
          "indexed": true,
          "internalType": "address",
          "name": "_owner",
          "type": "address"
        },
        {
          "indexed": true,
          "internalType": "address",
          "name": "_approved",
          "type": "address"
        },
        {
          "indexed": true,
          "internalType": "uint256",
          "name": "_tokenId",
          "type": "uint256"
        }
      ],
      "name": "Approval",
      "type": "event"
    },
    {
      "anonymous": false,
      "inputs": [
        {
          "indexed": true,
          "internalType": "address",
          "name": "_from",
          "type": "address"
        },
        {
          "indexed": true,
          "internalType": "address",
          "name": "_to",
          "type": "address"
        },
        {
          "indexed": true,
          "internalType": "uint256",
          "name": "_tokenId",
          "type": "uint256"
        }
      ],
      "name": "Transfer",
      "type": "event"
    },
    {
      "inputs": [
        {
          "internalType": "address",
          "name": "owner",
          "type": "address"
        }
      ],
      "name": "alltokenOfOwner",
      "outputs": [
        {
          "internalType": "uint256[]",
          "name": "",
          "type": "uint256[]"
        }
      ],
      "stateMutability": "view",
      "type": "function"
    },
    {
      "inputs": [
        {
          "internalType": "address",
          "name": "_to",
          "type": "address"
        },
        {
          "internalType": "uint256",
          "name": "tokenId",
          "type": "uint256"
        }
      ],
      "name": "approve",
      "outputs": [],
      "stateMutability": "nonpayable",
      "type": "function"
    },
    {
      "inputs": [
        {
          "internalType": "address",
          "name": "_owner",
          "type": "address"
        }
      ],
      "name": "balanceOf",
      "outputs": [
        {
          "internalType": "uint256",
          "name": "",
          "type": "uint256"
        }
      ],
      "stateMutability": "view",
      "type": "function"
    },
    {
      "inputs": [],
      "name": "name",
      "outputs": [
        {
          "internalType": "string",
          "name": "",
          "type": "string"
        }
      ],
      "stateMutability": "view",
      "type": "function"
    },
    {
      "inputs": [
        {
          "internalType": "uint256",
          "name": "_tokenId",
          "type": "uint256"
        }
      ],
      "name": "ownerOf",
      "outputs": [
        {
          "internalType": "address",
          "name": "",
          "type": "address"
        }
      ],
      "stateMutability": "view",
      "type": "function"
    },
    {
      "inputs": [
        {
          "internalType": "bytes4",
          "name": "interfaceID",
          "type": "bytes4"
        }
      ],
      "name": "supportsInterface",
      "outputs": [
        {
          "internalType": "bool",
          "name": "",
          "type": "bool"
        }
      ],
      "stateMutability": "view",
      "type": "function"
    },
    {
      "inputs": [],
      "name": "symbol",
      "outputs": [
        {
          "internalType": "string",
          "name": "",
          "type": "string"
        }
      ],
      "stateMutability": "view",
      "type": "function"
    },
    {
      "inputs": [
        {
          "internalType": "uint256",
          "name": "index",
          "type": "uint256"
        }
      ],
      "name": "tokenByIndex",
      "outputs": [
        {
          "internalType": "uint256",
          "name": "",
          "type": "uint256"
        }
      ],
      "stateMutability": "view",
      "type": "function"
    },
    {
      "inputs": [
        {
          "internalType": "address",
          "name": "owner",
          "type": "address"
        },
        {
          "internalType": "uint256",
          "name": "index",
          "type": "uint256"
        }
      ],
      "name": "tokenOfOwnerByIndex",
      "outputs": [
        {
          "internalType": "uint256",
          "name": "",
          "type": "uint256"
        }
      ],
      "stateMutability": "view",
      "type": "function"
    },
    {
      "inputs": [],
      "name": "totalSupply",
      "outputs": [
        {
          "internalType": "uint256",
          "name": "",
          "type": "uint256"
        }
      ],
      "stateMutability": "view",
      "type": "function"
    },
    {
      "inputs": [
        {
          "internalType": "address",
          "name": "_from",
          "type": "address"
        },
        {
          "internalType": "address",
          "name": "_to",
          "type": "address"
        },
        {
          "internalType": "uint256",
          "name": "_tokenId",
          "type": "uint256"
        }
      ],
      "name": "transferFrom",
      "outputs": [],
      "stateMutability": "nonpayable",
      "type": "function"
    }
  ],
  "bytecode": "0x60806040523480156200001157600080fd5b5060405162001fc638038062001fc683398181016040528101906200003791906200043f565b81816200006a7f01ffc9a7a5cef8baa21ed3c5c0d7e23accb804b619e9333b597f47a0d84076e2620001d560201b60201c565b620000bd7f13b182f4c0e5b2efbac0efe6cf6d756c8b89f4b79c5707a043ed9ea740574ee97f7feaf19471f34a12a7eaf32d5f3090aa2260ea8624dc8a138e74e0bf0f62307618620001d560201b60201c565b8160019081620000ce91906200070f565b508060029081620000e091906200070f565b505050620001587f22c82707ba960a14c7592ffb6b8cfaa073fed0048a84cc7fa41f6b5bd8e7f2e47f3a6eb71757dfc6e784c1459d26270140c2c147d95ca985c80026fc5301c3eca17f8a7e378434598edc36d108689a030cbc9d7d465de4f74c71bae1028eed6a881b1818620001d560201b60201c565b620001cd7f8230223f691b981717299fae9549350a0d894555723531f02108b1f522c1a7977f6da5e1284143cdd2d15038a59bde3be031250f00291d64494c12d967b3a4e0c37fc53637662700e6c65104059db8bba34439e0c32483ab7c34e3ccae52c73954951818620001d560201b60201c565b505062000879565b63ffffffff60e01b817bffffffffffffffffffffffffffffffffffffffffffffffffffffffff19160362000240576040517f08c379a0000000000000000000000000000000000000000000000000000000008152600401620002379062000857565b60405180910390fd5b6001600080837bffffffffffffffffffffffffffffffffffffffffffffffffffffffff19167bffffffffffffffffffffffffffffffffffffffffffffffffffffffff1916815260200190815260200160002060006101000a81548160ff02191690831515021790555050565b6000604051905090565b600080fd5b600080fd5b600080fd5b600080fd5b6000601f19601f8301169050919050565b7f4e487b7100000000000000000000000000000000000000000000000000000000600052604160045260246000fd5b6200031582620002ca565b810181811067ffffffffffffffff82111715620003375762000336620002db565b5b80604052505050565b60006200034c620002ac565b90506200035a82826200030a565b919050565b600067ffffffffffffffff8211156200037d576200037c620002db565b5b6200038882620002ca565b9050602081019050919050565b60005b83811015620003b557808201518184015260208101905062000398565b60008484015250505050565b6000620003d8620003d2846200035f565b62000340565b905082815260208101848484011115620003f757620003f6620002c5565b5b6200040484828562000395565b509392505050565b600082601f830112620004245762000423620002c0565b5b815162000436848260208601620003c1565b91505092915050565b60008060408385031215620004595762000458620002b6565b5b600083015167ffffffffffffffff8111156200047a5762000479620002bb565b5b62000488858286016200040c565b925050602083015167ffffffffffffffff811115620004ac57620004ab620002bb565b5b620004ba858286016200040c565b9150509250929050565b600081519050919050565b7f4e487b7100000000000000000000000000000000000000000000000000000000600052602260045260246000fd5b600060028204905060018216806200051757607f821691505b6020821081036200052d576200052c620004cf565b5b50919050565b60008190508160005260206000209050919050565b60006020601f8301049050919050565b600082821b905092915050565b600060088302620005977fffffffffffffffffffffffffffffffffffffffffffffffffffffffffffffffff8262000558565b620005a3868362000558565b95508019841693508086168417925050509392505050565b6000819050919050565b6000819050919050565b6000620005f0620005ea620005e484620005bb565b620005c5565b620005bb565b9050919050565b6000819050919050565b6200060c83620005cf565b620006246200061b82620005f7565b84845462000565565b825550505050565b600090565b6200063b6200062c565b6200064881848462000601565b505050565b5b8181101562000670576200066460008262000631565b6001810190506200064e565b5050565b601f821115620006bf57620006898162000533565b620006948462000548565b81016020851015620006a4578190505b620006bc620006b38562000548565b8301826200064d565b50505b505050565b600082821c905092915050565b6000620006e460001984600802620006c4565b1980831691505092915050565b6000620006ff8383620006d1565b9150826002028217905092915050565b6200071a82620004c4565b67ffffffffffffffff811115620007365762000735620002db565b5b620007428254620004fe565b6200074f82828562000674565b600060209050601f83116001811462000787576000841562000772578287015190505b6200077e8582620006f1565b865550620007ee565b601f198416620007978662000533565b60005b82811015620007c1578489015182556001820191506020850194506020810190506200079a565b86831015620007e15784890151620007dd601f891682620006d1565b8355505b6001600288020188555050505b505050505050565b600082825260208201905092915050565b7f496e76616c696420696e74657266616365207265717565737400000000000000600082015250565b60006200083f601983620007f6565b91506200084c8262000807565b602082019050919050565b60006020820190508181036000830152620008728162000830565b9050919050565b61173d80620008896000396000f3fe608060405234801561001057600080fd5b50600436106100a95760003560e01c80632f745c59116100715780632f745c59146101525780634f6ccce7146101825780636352211e146101b257806370a08231146101e257806395d89b4114610212578063e241ff4814610230576100a9565b806301ffc9a7146100ae57806306fdde03146100de578063095ea7b3146100fc57806318160ddd1461011857806323b872dd14610136575b600080fd5b6100c860048036038101906100c39190610d8d565b610260565b6040516100d59190610dd5565b60405180910390f35b6100e66102c7565b6040516100f39190610e80565b60405180910390f35b61011660048036038101906101119190610f36565b610359565b005b6101206104f4565b60405161012d9190610f85565b60405180910390f35b610150600480360381019061014b9190610fa0565b610501565b005b61016c60048036038101906101679190610f36565b610524565b6040516101799190610f85565b60405180910390f35b61019c60048036038101906101979190610ff3565b6105d4565b6040516101a99190610f85565b60405180910390f35b6101cc60048036038101906101c79190610ff3565b610645565b6040516101d9919061102f565b60405180910390f35b6101fc60048036038101906101f7919061104a565b6106f6565b6040516102099190610f85565b60405180910390f35b61021a6107b4565b6040516102279190610e80565b60405180910390f35b61024a6004803603810190610245919061104a565b610846565b6040516102579190611135565b60405180910390f35b6000806000837bffffffffffffffffffffffffffffffffffffffffffffffffffffffff19167bffffffffffffffffffffffffffffffffffffffffffffffffffffffff1916815260200190815260200160002060009054906101000a900460ff169050919050565b6060600180546102d690611186565b80601f016020809104026020016040519081016040528092919081815260200182805461030290611186565b801561034f5780601f106103245761010080835404028352916020019161034f565b820191906000526020600020905b81548152906001019060200180831161033257829003601f168201915b5050505050905090565b600061036482610645565b90508073ffffffffffffffffffffffffffffffffffffffff168373ffffffffffffffffffffffffffffffffffffffff16036103d4576040517f08c379a00000000000000000000000000000000000000000000000000000000081526004016103cb90611229565b60405180910390fd5b8073ffffffffffffffffffffffffffffffffffffffff163373ffffffffffffffffffffffffffffffffffffffff1614610442576040517f08c379a0000000000000000000000000000000000000000000000000000000008152600401610439906112bb565b60405180910390fd5b826005600084815260200190815260200160002060006101000a81548173ffffffffffffffffffffffffffffffffffffffff021916908373ffffffffffffffffffffffffffffffffffffffff160217905550818373ffffffffffffffffffffffffffffffffffffffff168273ffffffffffffffffffffffffffffffffffffffff167f8c5be1e5ebec7d5bd14f71427d1e84f3dd0314c0f7b2291e5b200ac8c7c3b92560405160405180910390a4505050565b6000600980549050905090565b61050b33826108dd565b61051457600080fd5b61051f83838361096c565b505050565b600061052f836106f6565b8210610570576040517f08c379a000000000000000000000000000000000000000000000000000000000815260040161056790611327565b60405180910390fd5b600b60008473ffffffffffffffffffffffffffffffffffffffff1673ffffffffffffffffffffffffffffffffffffffff16815260200190815260200160002082815481106105c1576105c0611347565b5b9060005260206000200154905092915050565b60006105de6104f4565b821061061f576040517f08c379a0000000000000000000000000000000000000000000000000000000008152600401610616906113c2565b60405180910390fd5b6009828154811061063357610632611347565b5b90600052602060002001549050919050565b6000806003600084815260200190815260200160002060009054906101000a900473ffffffffffffffffffffffffffffffffffffffff169050600073ffffffffffffffffffffffffffffffffffffffff168173ffffffffffffffffffffffffffffffffffffffff16036106ed576040517f08c379a00000000000000000000000000000000000000000000000000000000081526004016106e490611454565b60405180910390fd5b80915050919050565b60008073ffffffffffffffffffffffffffffffffffffffff168273ffffffffffffffffffffffffffffffffffffffff1603610766576040517f08c379a000000000000000000000000000000000000000000000000000000000815260040161075d90611454565b60405180910390fd5b6107ad600460008473ffffffffffffffffffffffffffffffffffffffff1673ffffffffffffffffffffffffffffffffffffffff168152602001908152602001600020610c0f565b9050919050565b6060600280546107c390611186565b80601f01602080910402602001604051908101604052809291908181526020018280546107ef90611186565b801561083c5780601f106108115761010080835404028352916020019161083c565b820191906000526020600020905b81548152906001019060200180831161081f57829003601f168201915b5050505050905090565b6060600b60008373ffffffffffffffffffffffffffffffffffffffff1673ffffffffffffffffffffffffffffffffffffffff1681526020019081526020016000208054806020026020016040519081016040528092919081815260200182805480156108d157602002820191906000526020600020905b8154815260200190600101908083116108bd575b50505050509050919050565b60006108e882610c1d565b610927576040517f08c379a000000000000000000000000000000000000000000000000000000000815260040161091e906114c0565b60405180910390fd5b600061093283610645565b90508073ffffffffffffffffffffffffffffffffffffffff168473ffffffffffffffffffffffffffffffffffffffff161491505092915050565b600073ffffffffffffffffffffffffffffffffffffffff168273ffffffffffffffffffffffffffffffffffffffff16036109db576040517f08c379a00000000000000000000000000000000000000000000000000000000081526004016109d290611552565b60405180910390fd5b8273ffffffffffffffffffffffffffffffffffffffff166109fb82610645565b73ffffffffffffffffffffffffffffffffffffffff1614610a51576040517f08c379a0000000000000000000000000000000000000000000000000000000008152600401610a48906115e4565b60405180910390fd5b610a98600460008573ffffffffffffffffffffffffffffffffffffffff1673ffffffffffffffffffffffffffffffffffffffff168152602001908152602001600020610c8f565b610adf600460008473ffffffffffffffffffffffffffffffffffffffff1673ffffffffffffffffffffffffffffffffffffffff168152602001908152602001600020610cb2565b816003600083815260200190815260200160002060006101000a81548173ffffffffffffffffffffffffffffffffffffffff021916908373ffffffffffffffffffffffffffffffffffffffff160217905550806006600043815260200190815260200160002081905550600760008473ffffffffffffffffffffffffffffffffffffffff1673ffffffffffffffffffffffffffffffffffffffff168152602001908152602001600020439080600181540180825580915050600190039060005260206000200160009091909190915055808273ffffffffffffffffffffffffffffffffffffffff168473ffffffffffffffffffffffffffffffffffffffff167fddf252ad1be2c89b69c2b068fc378daa952ba7f163c4a11628f55a4df523b3ef60405160405180910390a4505050565b600081600001549050919050565b6000806003600084815260200190815260200160002060009054906101000a900473ffffffffffffffffffffffffffffffffffffffff169050600073ffffffffffffffffffffffffffffffffffffffff168173ffffffffffffffffffffffffffffffffffffffff161415915050919050565b610ca760018260000154610cd190919063ffffffff16565b816000018190555050565b6001816000016000828254610cc79190611633565b9250508190555050565b600082821115610d16576040517f08c379a0000000000000000000000000000000000000000000000000000000008152600401610d0d906116b3565b60405180910390fd5b60008284610d2491906116d3565b90508091505092915050565b600080fd5b60007fffffffff0000000000000000000000000000000000000000000000000000000082169050919050565b610d6a81610d35565b8114610d7557600080fd5b50565b600081359050610d8781610d61565b92915050565b600060208284031215610da357610da2610d30565b5b6000610db184828501610d78565b91505092915050565b60008115159050919050565b610dcf81610dba565b82525050565b6000602082019050610dea6000830184610dc6565b92915050565b600081519050919050565b600082825260208201905092915050565b60005b83811015610e2a578082015181840152602081019050610e0f565b60008484015250505050565b6000601f19601f8301169050919050565b6000610e5282610df0565b610e5c8185610dfb565b9350610e6c818560208601610e0c565b610e7581610e36565b840191505092915050565b60006020820190508181036000830152610e9a8184610e47565b905092915050565b600073ffffffffffffffffffffffffffffffffffffffff82169050919050565b6000610ecd82610ea2565b9050919050565b610edd81610ec2565b8114610ee857600080fd5b50565b600081359050610efa81610ed4565b92915050565b6000819050919050565b610f1381610f00565b8114610f1e57600080fd5b50565b600081359050610f3081610f0a565b92915050565b60008060408385031215610f4d57610f4c610d30565b5b6000610f5b85828601610eeb565b9250506020610f6c85828601610f21565b9150509250929050565b610f7f81610f00565b82525050565b6000602082019050610f9a6000830184610f76565b92915050565b600080600060608486031215610fb957610fb8610d30565b5b6000610fc786828701610eeb565b9350506020610fd886828701610eeb565b9250506040610fe986828701610f21565b9150509250925092565b60006020828403121561100957611008610d30565b5b600061101784828501610f21565b91505092915050565b61102981610ec2565b82525050565b60006020820190506110446000830184611020565b92915050565b6000602082840312156110605761105f610d30565b5b600061106e84828501610eeb565b91505092915050565b600081519050919050565b600082825260208201905092915050565b6000819050602082019050919050565b6110ac81610f00565b82525050565b60006110be83836110a3565b60208301905092915050565b6000602082019050919050565b60006110e282611077565b6110ec8185611082565b93506110f783611093565b8060005b8381101561112857815161110f88826110b2565b975061111a836110ca565b9250506001810190506110fb565b5085935050505092915050565b6000602082019050818103600083015261114f81846110d7565b905092915050565b7f4e487b7100000000000000000000000000000000000000000000000000000000600052602260045260246000fd5b6000600282049050600182168061119e57607f821691505b6020821081036111b1576111b0611157565b5b50919050565b7f4572726f72202d20617070726f76616c20746f2063757272656e74206f776e6560008201527f7200000000000000000000000000000000000000000000000000000000000000602082015250565b6000611213602183610dfb565b915061121e826111b7565b604082019050919050565b6000602082019050818103600083015261124281611206565b9050919050565b7f43757272656e742063616c6c6572206973206e6f7420746865206f776e65722060008201527f6f662074686520746f6b656e0000000000000000000000000000000000000000602082015250565b60006112a5602c83610dfb565b91506112b082611249565b604082019050919050565b600060208201905081810360008301526112d481611298565b9050919050565b7f6f776e657220696e646578206973206f7574206f6620626f756e647321000000600082015250565b6000611311601d83610dfb565b915061131c826112db565b602082019050919050565b6000602082019050818103600083015261134081611304565b9050919050565b7f4e487b7100000000000000000000000000000000000000000000000000000000600052603260045260246000fd5b7f676c6f62616c20696e646578206973206f7574206f6620626f756e6473210000600082015250565b60006113ac601e83610dfb565b91506113b782611376565b602082019050919050565b600060208201905081810360008301526113db8161139f565b9050919050565b7f6f776e657220717565727920666f72206e6f6e2d6578697374656e7420746f6b60008201527f656e000000000000000000000000000000000000000000000000000000000000602082015250565b600061143e602283610dfb565b9150611449826113e2565b604082019050919050565b6000602082019050818103600083015261146d81611431565b9050919050565b7f746f6b656e20646f6573206e6f74206578697374000000000000000000000000600082015250565b60006114aa601483610dfb565b91506114b582611474565b602082019050919050565b600060208201905081810360008301526114d98161149d565b9050919050565b7f4572726f72202d20455243373231205472616e7366657220746f20746865207a60008201527f65726f2061646472657373000000000000000000000000000000000000000000602082015250565b600061153c602b83610dfb565b9150611547826114e0565b604082019050919050565b6000602082019050818103600083015261156b8161152f565b9050919050565b7f547279696e6720746f207472616e73666572206120746f6b656e20746865206160008201527f64647265737320646f6573206e6f74206f776e21000000000000000000000000602082015250565b60006115ce603483610dfb565b91506115d982611572565b604082019050919050565b600060208201905081810360008301526115fd816115c1565b9050919050565b7f4e487b7100000000000000000000000000000000000000000000000000000000600052601160045260246000fd5b600061163e82610f00565b915061164983610f00565b925082820190508082111561166157611660611604565b5b92915050565b7f536166654d6174683a207375627472616374696f6e206f766572666c6f770000600082015250565b600061169d601e83610dfb565b91506116a882611667565b602082019050919050565b600060208201905081810360008301526116cc81611690565b9050919050565b60006116de82610f00565b91506116e983610f00565b925082820390508181111561170157611700611604565b5b9291505056fea26469706673582212202be8569034b774377e54f6e2dc2b6d96946bc352533f0ea60613b552983cc10364736f6c63430008110033",
  "immutableReferences": {},
  "source": "// SPDX-License-Identifier: MIT\npragma solidity ^0.8.0;\n\nimport './ERC721Metadata.sol';\nimport './ERC721Enumerable.sol';\n\ncontract ERC721Connector is ERC721Metadata, ERC721Enumerable {\n    //  ,   \n\n    constructor(string memory name, string memory symbol)  \n    ERC721Metadata(name, symbol) {\n        \n    }\n\n}",
  "sourcePath": "C:\\Users\\SSAFY\\Desktop\\ \\S07P22E205\\smart-contract\\src\\contracts\\ERC721Connector.sol",
  "compiler": {
    "name": "solc",
    "version": "0.8.17+commit.8df45f5f.Emscripten.clang"
  },
  "schemaVersion": "3.4.9",
  "updatedAt": "2022-09-25T17:56:23.842Z",
  "devdoc": {
    "kind": "dev",
    "methods": {
      "ownerOf(uint256)": {
        "details": "NFTs assigned to zero address are considered invalid, and queries  about them do throw.",
        "params": {
          "_tokenId": "The identifier for an NFT"
        },
        "returns": {
          "_0": "The address of the owner of the NFT"
        }
      },
      "supportsInterface(bytes4)": {
        "details": "Interface identification is specified in ERC-165. This function  uses less than 30,000 gas.",
        "params": {
          "interfaceID": "The interface identifier, as specified in ERC-165"
        },
        "returns": {
          "_0": "`true` if the contract implements `interfaceID` and  `interfaceID` is not 0xffffffff, `false` otherwise"
        }
      }
    },
    "version": 1
  },
  "userdoc": {
    "kind": "user",
    "methods": {
      "ownerOf(uint256)": {
        "notice": "Find the owner of an NFT"
      },
      "supportsInterface(bytes4)": {
        "notice": "Query if a contract implements an interface"
      }
    },
    "version": 1
  }
}