{
  "contractName": "PreScription",
  "abi": [
    {
      "inputs": [],
      "stateMutability": "nonpayable",
      "type": "constructor"
    },
    {
      "anonymous": false,
      "inputs": [
        {
          "indexed": true,
          "internalType": "address",
          "name": "_owner",
          "type": "address"
        },
        {
          "indexed": true,
          "internalType": "address",
          "name": "_approved",
          "type": "address"
        },
        {
          "indexed": true,
          "internalType": "uint256",
          "name": "_tokenId",
          "type": "uint256"
        }
      ],
      "name": "Approval",
      "type": "event"
    },
    {
      "anonymous": false,
      "inputs": [
        {
          "indexed": true,
          "internalType": "address",
          "name": "_from",
          "type": "address"
        },
        {
          "indexed": true,
          "internalType": "address",
          "name": "_to",
          "type": "address"
        },
        {
          "indexed": true,
          "internalType": "uint256",
          "name": "_tokenId",
          "type": "uint256"
        }
      ],
      "name": "Transfer",
      "type": "event"
    },
    {
      "inputs": [
        {
          "internalType": "address",
          "name": "owner",
          "type": "address"
        }
      ],
      "name": "alltokenOfOwner",
      "outputs": [
        {
          "internalType": "uint256[]",
          "name": "",
          "type": "uint256[]"
        }
      ],
      "stateMutability": "view",
      "type": "function"
    },
    {
      "inputs": [
        {
          "internalType": "address",
          "name": "_to",
          "type": "address"
        },
        {
          "internalType": "uint256",
          "name": "tokenId",
          "type": "uint256"
        }
      ],
      "name": "approve",
      "outputs": [],
      "stateMutability": "nonpayable",
      "type": "function"
    },
    {
      "inputs": [
        {
          "internalType": "address",
          "name": "_owner",
          "type": "address"
        }
      ],
      "name": "balanceOf",
      "outputs": [
        {
          "internalType": "uint256",
          "name": "",
          "type": "uint256"
        }
      ],
      "stateMutability": "view",
      "type": "function"
    },
    {
      "inputs": [],
      "name": "name",
      "outputs": [
        {
          "internalType": "string",
          "name": "",
          "type": "string"
        }
      ],
      "stateMutability": "view",
      "type": "function"
    },
    {
      "inputs": [
        {
          "internalType": "uint256",
          "name": "_tokenId",
          "type": "uint256"
        }
      ],
      "name": "ownerOf",
      "outputs": [
        {
          "internalType": "address",
          "name": "",
          "type": "address"
        }
      ],
      "stateMutability": "view",
      "type": "function"
    },
    {
      "inputs": [
        {
          "internalType": "uint256",
          "name": "",
          "type": "uint256"
        }
      ],
      "name": "preScriptions",
      "outputs": [
        {
          "internalType": "string",
          "name": "userName",
          "type": "string"
        },
        {
          "internalType": "string",
          "name": "hosName",
          "type": "string"
        },
        {
          "internalType": "string",
          "name": "pharName",
          "type": "string"
        },
        {
          "internalType": "string",
          "name": "dCode",
          "type": "string"
        },
        {
          "internalType": "uint256",
          "name": "dispensingCount",
          "type": "uint256"
        },
        {
          "internalType": "uint256",
          "name": "prescriptionCount",
          "type": "uint256"
        },
        {
          "internalType": "uint256",
          "name": "pubDate",
          "type": "uint256"
        },
        {
          "internalType": "uint256",
          "name": "prepDate",
          "type": "uint256"
        }
      ],
      "stateMutability": "view",
      "type": "function"
    },
    {
      "inputs": [
        {
          "internalType": "bytes4",
          "name": "interfaceID",
          "type": "bytes4"
        }
      ],
      "name": "supportsInterface",
      "outputs": [
        {
          "internalType": "bool",
          "name": "",
          "type": "bool"
        }
      ],
      "stateMutability": "view",
      "type": "function"
    },
    {
      "inputs": [],
      "name": "symbol",
      "outputs": [
        {
          "internalType": "string",
          "name": "",
          "type": "string"
        }
      ],
      "stateMutability": "view",
      "type": "function"
    },
    {
      "inputs": [
        {
          "internalType": "uint256",
          "name": "index",
          "type": "uint256"
        }
      ],
      "name": "tokenByIndex",
      "outputs": [
        {
          "internalType": "uint256",
          "name": "",
          "type": "uint256"
        }
      ],
      "stateMutability": "view",
      "type": "function"
    },
    {
      "inputs": [
        {
          "internalType": "address",
          "name": "owner",
          "type": "address"
        },
        {
          "internalType": "uint256",
          "name": "index",
          "type": "uint256"
        }
      ],
      "name": "tokenOfOwnerByIndex",
      "outputs": [
        {
          "internalType": "uint256",
          "name": "",
          "type": "uint256"
        }
      ],
      "stateMutability": "view",
      "type": "function"
    },
    {
      "inputs": [],
      "name": "totalSupply",
      "outputs": [
        {
          "internalType": "uint256",
          "name": "",
          "type": "uint256"
        }
      ],
      "stateMutability": "view",
      "type": "function"
    },
    {
      "inputs": [
        {
          "internalType": "address",
          "name": "_from",
          "type": "address"
        },
        {
          "internalType": "address",
          "name": "_to",
          "type": "address"
        },
        {
          "internalType": "uint256",
          "name": "_tokenId",
          "type": "uint256"
        }
      ],
      "name": "transferFrom",
      "outputs": [],
      "stateMutability": "nonpayable",
      "type": "function"
    },
    {
      "inputs": [
        {
          "internalType": "address",
          "name": "_from",
          "type": "address"
        },
        {
          "internalType": "address",
          "name": "_to",
          "type": "address"
        },
        {
          "internalType": "uint256",
          "name": "_tokenId",
          "type": "uint256"
        }
      ],
      "name": "transferPrs",
      "outputs": [],
      "stateMutability": "nonpayable",
      "type": "function"
    },
    {
      "inputs": [
        {
          "internalType": "address",
          "name": "_address",
          "type": "address"
        }
      ],
      "name": "getAllListFromAccount",
      "outputs": [
        {
          "components": [
            {
              "internalType": "string",
              "name": "userName",
              "type": "string"
            },
            {
              "internalType": "string",
              "name": "hosName",
              "type": "string"
            },
            {
              "internalType": "string",
              "name": "pharName",
              "type": "string"
            },
            {
              "internalType": "string",
              "name": "dCode",
              "type": "string"
            },
            {
              "internalType": "string[]",
              "name": "dName",
              "type": "string[]"
            },
            {
              "internalType": "uint256[]",
              "name": "dosage",
              "type": "uint256[]"
            },
            {
              "internalType": "uint256[]",
              "name": "doseNum",
              "type": "uint256[]"
            },
            {
              "internalType": "uint256[]",
              "name": "dosePeriod",
              "type": "uint256[]"
            },
            {
              "internalType": "uint256",
              "name": "dispensingCount",
              "type": "uint256"
            },
            {
              "internalType": "uint256",
              "name": "prescriptionCount",
              "type": "uint256"
            },
            {
              "internalType": "string[]",
              "name": "howtoTake",
              "type": "string[]"
            },
            {
              "internalType": "uint256",
              "name": "pubDate",
              "type": "uint256"
            },
            {
              "internalType": "uint256",
              "name": "prepDate",
              "type": "uint256"
            }
          ],
          "internalType": "struct PreScription.preScription[]",
          "name": "",
          "type": "tuple[]"
        }
      ],
      "stateMutability": "view",
      "type": "function"
    },
    {
      "inputs": [
        {
          "internalType": "address",
          "name": "_from",
          "type": "address"
        },
        {
          "internalType": "address",
          "name": "_to",
          "type": "address"
        }
      ],
      "name": "getPatientListFromAccount",
      "outputs": [
        {
          "components": [
            {
              "internalType": "string",
              "name": "userName",
              "type": "string"
            },
            {
              "internalType": "string",
              "name": "hosName",
              "type": "string"
            },
            {
              "internalType": "string",
              "name": "pharName",
              "type": "string"
            },
            {
              "internalType": "string",
              "name": "dCode",
              "type": "string"
            },
            {
              "internalType": "string[]",
              "name": "dName",
              "type": "string[]"
            },
            {
              "internalType": "uint256[]",
              "name": "dosage",
              "type": "uint256[]"
            },
            {
              "internalType": "uint256[]",
              "name": "doseNum",
              "type": "uint256[]"
            },
            {
              "internalType": "uint256[]",
              "name": "dosePeriod",
              "type": "uint256[]"
            },
            {
              "internalType": "uint256",
              "name": "dispensingCount",
              "type": "uint256"
            },
            {
              "internalType": "uint256",
              "name": "prescriptionCount",
              "type": "uint256"
            },
            {
              "internalType": "string[]",
              "name": "howtoTake",
              "type": "string[]"
            },
            {
              "internalType": "uint256",
              "name": "pubDate",
              "type": "uint256"
            },
            {
              "internalType": "uint256",
              "name": "prepDate",
              "type": "uint256"
            }
          ],
          "internalType": "struct PreScription.preScription[]",
          "name": "",
          "type": "tuple[]"
        }
      ],
      "stateMutability": "view",
      "type": "function"
    },
    {
      "inputs": [
        {
          "internalType": "uint256",
          "name": "_tokenId",
          "type": "uint256"
        }
      ],
      "name": "getOfferCountOfToken",
      "outputs": [
        {
          "internalType": "uint256",
          "name": "",
          "type": "uint256"
        }
      ],
      "stateMutability": "view",
      "type": "function"
    },
    {
      "inputs": [
        {
          "internalType": "address",
          "name": "_address",
          "type": "address"
        }
      ],
      "name": "setPatientAuth",
      "outputs": [],
      "stateMutability": "nonpayable",
      "type": "function"
    },
    {
      "inputs": [
        {
          "internalType": "address",
          "name": "_address",
          "type": "address"
        }
      ],
      "name": "setDoctorAuth",
      "outputs": [],
      "stateMutability": "nonpayable",
      "type": "function"
    },
    {
      "inputs": [
        {
          "internalType": "address",
          "name": "_address",
          "type": "address"
        }
      ],
      "name": "setPharmacyAuth",
      "outputs": [],
      "stateMutability": "nonpayable",
      "type": "function"
    },
    {
      "inputs": [
        {
          "internalType": "address",
          "name": "_address",
          "type": "address"
        }
      ],
      "name": "getAuthOfAccount",
      "outputs": [
        {
          "internalType": "uint256",
          "name": "",
          "type": "uint256"
        }
      ],
      "stateMutability": "view",
      "type": "function"
    },
    {
      "inputs": [
        {
          "internalType": "uint256",
          "name": "_tokenId",
          "type": "uint256"
        }
      ],
      "name": "setMintedTokens",
      "outputs": [],
      "stateMutability": "nonpayable",
      "type": "function"
    },
    {
      "inputs": [],
      "name": "getMintedTokens",
      "outputs": [
        {
          "internalType": "uint256[]",
          "name": "",
          "type": "uint256[]"
        }
      ],
      "stateMutability": "view",
      "type": "function"
    },
    {
      "inputs": [
        {
          "internalType": "address",
          "name": "_address",
          "type": "address"
        }
      ],
      "name": "getBalanceOf",
      "outputs": [
        {
          "internalType": "uint256",
          "name": "",
          "type": "uint256"
        }
      ],
      "stateMutability": "view",
      "type": "function"
    },
    {
      "inputs": [
        {
          "internalType": "address",
          "name": "_from",
          "type": "address"
        },
        {
          "internalType": "address",
          "name": "_to",
          "type": "address"
        },
        {
          "internalType": "uint256",
          "name": "_tokenId",
          "type": "uint256"
        }
      ],
      "name": "transferPreScription",
      "outputs": [],
      "stateMutability": "nonpayable",
      "type": "function"
    },
    {
      "inputs": [
        {
          "internalType": "address",
          "name": "_from",
          "type": "address"
        },
        {
          "internalType": "address",
          "name": "_to",
          "type": "address"
        },
        {
          "internalType": "uint256",
          "name": "_tokenId",
          "type": "uint256"
        }
      ],
      "name": "transferDoctorToPatient",
      "outputs": [],
      "stateMutability": "nonpayable",
      "type": "function"
    },
    {
      "inputs": [
        {
          "internalType": "address",
          "name": "_from",
          "type": "address"
        },
        {
          "internalType": "address",
          "name": "_to",
          "type": "address"
        },
        {
          "internalType": "uint256",
          "name": "_tokenId",
          "type": "uint256"
        }
      ],
      "name": "transferPharmacyToPatient",
      "outputs": [],
      "stateMutability": "nonpayable",
      "type": "function"
    },
    {
      "inputs": [
        {
          "components": [
            {
              "internalType": "string",
              "name": "userName",
              "type": "string"
            },
            {
              "internalType": "string",
              "name": "hosName",
              "type": "string"
            },
            {
              "internalType": "string",
              "name": "pharName",
              "type": "string"
            },
            {
              "internalType": "string",
              "name": "dCode",
              "type": "string"
            },
            {
              "internalType": "string[]",
              "name": "dName",
              "type": "string[]"
            },
            {
              "internalType": "uint256[]",
              "name": "dosage",
              "type": "uint256[]"
            },
            {
              "internalType": "uint256[]",
              "name": "doseNum",
              "type": "uint256[]"
            },
            {
              "internalType": "uint256[]",
              "name": "dosePeriod",
              "type": "uint256[]"
            },
            {
              "internalType": "uint256",
              "name": "dispensingCount",
              "type": "uint256"
            },
            {
              "internalType": "uint256",
              "name": "prescriptionCount",
              "type": "uint256"
            },
            {
              "internalType": "string[]",
              "name": "howtoTake",
              "type": "string[]"
            },
            {
              "internalType": "uint256",
              "name": "pubDate",
              "type": "uint256"
            },
            {
              "internalType": "uint256",
              "name": "prepDate",
              "type": "uint256"
            }
          ],
          "internalType": "struct PreScription.preScription",
          "name": "_preScription",
          "type": "tuple"
        }
      ],
      "name": "mint",
      "outputs": [],
      "stateMutability": "nonpayable",
      "type": "function"
    },
    {
      "inputs": [
        {
          "internalType": "uint256",
          "name": "index",
          "type": "uint256"
        }
      ],
      "name": "getPreScriptionByIndex",
      "outputs": [
        {
          "components": [
            {
              "internalType": "string",
              "name": "userName",
              "type": "string"
            },
            {
              "internalType": "string",
              "name": "hosName",
              "type": "string"
            },
            {
              "internalType": "string",
              "name": "pharName",
              "type": "string"
            },
            {
              "internalType": "string",
              "name": "dCode",
              "type": "string"
            },
            {
              "internalType": "string[]",
              "name": "dName",
              "type": "string[]"
            },
            {
              "internalType": "uint256[]",
              "name": "dosage",
              "type": "uint256[]"
            },
            {
              "internalType": "uint256[]",
              "name": "doseNum",
              "type": "uint256[]"
            },
            {
              "internalType": "uint256[]",
              "name": "dosePeriod",
              "type": "uint256[]"
            },
            {
              "internalType": "uint256",
              "name": "dispensingCount",
              "type": "uint256"
            },
            {
              "internalType": "uint256",
              "name": "prescriptionCount",
              "type": "uint256"
            },
            {
              "internalType": "string[]",
              "name": "howtoTake",
              "type": "string[]"
            },
            {
              "internalType": "uint256",
              "name": "pubDate",
              "type": "uint256"
            },
            {
              "internalType": "uint256",
              "name": "prepDate",
              "type": "uint256"
            }
          ],
          "internalType": "struct PreScription.preScription",
          "name": "",
          "type": "tuple"
        }
      ],
      "stateMutability": "view",
      "type": "function"
    }
  ],
  "bytecode": "0x60806040523480156200001157600080fd5b506040518060400160405280600c81526020017f507265536372697074696f6e00000000000000000000000000000000000000008152506040518060400160405280600681526020017f53637269707400000000000000000000000000000000000000000000000000008152508181620000b17f01ffc9a7a5cef8baa21ed3c5c0d7e23accb804b619e9333b597f47a0d84076e26200021c60201b60201c565b620001047f13b182f4c0e5b2efbac0efe6cf6d756c8b89f4b79c5707a043ed9ea740574ee97f7feaf19471f34a12a7eaf32d5f3090aa2260ea8624dc8a138e74e0bf0f623076186200021c60201b60201c565b81600190816200011591906200056d565b5080600290816200012791906200056d565b5050506200019f7f22c82707ba960a14c7592ffb6b8cfaa073fed0048a84cc7fa41f6b5bd8e7f2e47f3a6eb71757dfc6e784c1459d26270140c2c147d95ca985c80026fc5301c3eca17f8a7e378434598edc36d108689a030cbc9d7d465de4f74c71bae1028eed6a881b18186200021c60201b60201c565b620002147f8230223f691b981717299fae9549350a0d894555723531f02108b1f522c1a7977f6da5e1284143cdd2d15038a59bde3be031250f00291d64494c12d967b3a4e0c37fc53637662700e6c65104059db8bba34439e0c32483ab7c34e3ccae52c739549518186200021c60201b60201c565b5050620006d7565b63ffffffff60e01b817bffffffffffffffffffffffffffffffffffffffffffffffffffffffff19160362000287576040517f08c379a00000000000000000000000000000000000000000000000000000000081526004016200027e90620006b5565b60405180910390fd5b6001600080837bffffffffffffffffffffffffffffffffffffffffffffffffffffffff19167bffffffffffffffffffffffffffffffffffffffffffffffffffffffff1916815260200190815260200160002060006101000a81548160ff02191690831515021790555050565b600081519050919050565b7f4e487b7100000000000000000000000000000000000000000000000000000000600052604160045260246000fd5b7f4e487b7100000000000000000000000000000000000000000000000000000000600052602260045260246000fd5b600060028204905060018216806200037557607f821691505b6020821081036200038b576200038a6200032d565b5b50919050565b60008190508160005260206000209050919050565b60006020601f8301049050919050565b600082821b905092915050565b600060088302620003f57fffffffffffffffffffffffffffffffffffffffffffffffffffffffffffffffff82620003b6565b620004018683620003b6565b95508019841693508086168417925050509392505050565b6000819050919050565b6000819050919050565b60006200044e62000448620004428462000419565b62000423565b62000419565b9050919050565b6000819050919050565b6200046a836200042d565b62000482620004798262000455565b848454620003c3565b825550505050565b600090565b620004996200048a565b620004a68184846200045f565b505050565b5b81811015620004ce57620004c26000826200048f565b600181019050620004ac565b5050565b601f8211156200051d57620004e78162000391565b620004f284620003a6565b8101602085101562000502578190505b6200051a6200051185620003a6565b830182620004ab565b50505b505050565b600082821c905092915050565b6000620005426000198460080262000522565b1980831691505092915050565b60006200055d83836200052f565b9150826002028217905092915050565b6200057882620002f3565b67ffffffffffffffff811115620005945762000593620002fe565b5b620005a082546200035c565b620005ad828285620004d2565b600060209050601f831160018114620005e55760008415620005d0578287015190505b620005dc85826200054f565b8655506200064c565b601f198416620005f58662000391565b60005b828110156200061f57848901518255600182019150602085019450602081019050620005f8565b868310156200063f57848901516200063b601f8916826200052f565b8355505b6001600288020188555050505b505050505050565b600082825260208201905092915050565b7f496e76616c696420696e74657266616365207265717565737400000000000000600082015250565b60006200069d60198362000654565b9150620006aa8262000665565b602082019050919050565b60006020820190508181036000830152620006d0816200068e565b9050919050565b615f7580620006e76000396000f3fe608060405234801561001057600080fd5b50600436106101c45760003560e01c80636f9886b0116100f9578063952d580411610097578063aba55a8611610071578063aba55a8614610566578063d6204d2814610582578063dc9652901461059e578063e241ff48146105bc576101c4565b8063952d5804146104fc57806395d89b41146105185780639b96eece14610536576101c4565b80637a38699b116100d35780637a38699b14610464578063818a6a4e1461048057806383103433146104b0578063892a18ba146104cc576101c4565b80636f9886b0146103fc57806370a0823114610418578063785e320d14610448576101c4565b806322986c26116101665780634f6ccce7116101405780634f6ccce71461035057806358c7c531146103805780636352211e1461039c57806369c5e936146103cc576101c4565b806322986c26146102d457806323b872dd146103045780632f745c5914610320576101c4565b80630a54de1a116101a25780630a54de1a1461023357806311bb5e7a1461026357806318160ddd1461029a5780631c18c246146102b8576101c4565b806301ffc9a7146101c957806306fdde03146101f9578063095ea7b314610217575b600080fd5b6101e360048036038101906101de9190614293565b6105ec565b6040516101f091906142db565b60405180910390f35b610201610653565b60405161020e9190614386565b60405180910390f35b610231600480360381019061022c919061443c565b6106e5565b005b61024d6004803603810190610248919061447c565b610880565b60405161025a91906147c4565b60405180910390f35b61027d6004803603810190610278919061447c565b610de7565b6040516102919897969594939291906147f5565b60405180910390f35b6102a261105f565b6040516102af919061488f565b60405180910390f35b6102d260048036038101906102cd91906148aa565b61106c565b005b6102ee60048036038101906102e991906148fd565b6112bf565b6040516102fb9190614b50565b60405180910390f35b61031e600480360381019061031991906148aa565b6118c6565b005b61033a6004803603810190610335919061443c565b6118e9565b604051610347919061488f565b60405180910390f35b61036a6004803603810190610365919061447c565b611999565b604051610377919061488f565b60405180910390f35b61039a600480360381019061039591906148aa565b611a0a565b005b6103b660048036038101906103b1919061447c565b611cd3565b6040516103c39190614b81565b60405180910390f35b6103e660048036038101906103e19190614b9c565b611d84565b6040516103f39190614b50565b60405180910390f35b610416600480360381019061041191906148aa565b61234d565b005b610432600480360381019061042d9190614b9c565b612c53565b60405161043f919061488f565b60405180910390f35b610462600480360381019061045d919061447c565b612d11565b005b61047e60048036038101906104799190614b9c565b612d7a565b005b61049a6004803603810190610495919061447c565b612dc2565b6040516104a7919061488f565b60405180910390f35b6104ca60048036038101906104c59190614b9c565b612ddf565b005b6104e660048036038101906104e19190614b9c565b612e27565b6040516104f3919061488f565b60405180910390f35b610516600480360381019061051191906150e5565b612e70565b005b6105206134d6565b60405161052d9190614386565b60405180910390f35b610550600480360381019061054b9190614b9c565b613568565b60405161055d919061488f565b60405180910390f35b610580600480360381019061057b91906148aa565b61357a565b005b61059c60048036038101906105979190614b9c565b6137c1565b005b6105a6613809565b6040516105b3919061519d565b60405180910390f35b6105d660048036038101906105d19190614b9c565b61389e565b6040516105e3919061519d565b60405180910390f35b6000806000837bffffffffffffffffffffffffffffffffffffffffffffffffffffffff19167bffffffffffffffffffffffffffffffffffffffffffffffffffffffff1916815260200190815260200160002060009054906101000a900460ff169050919050565b606060018054610662906151ee565b80601f016020809104026020016040519081016040528092919081815260200182805461068e906151ee565b80156106db5780601f106106b0576101008083540402835291602001916106db565b820191906000526020600020905b8154815290600101906020018083116106be57829003601f168201915b5050505050905090565b60006106f082611cd3565b90508073ffffffffffffffffffffffffffffffffffffffff168373ffffffffffffffffffffffffffffffffffffffff1603610760576040517f08c379a000000000000000000000000000000000000000000000000000000000815260040161075790615291565b60405180910390fd5b8073ffffffffffffffffffffffffffffffffffffffff163373ffffffffffffffffffffffffffffffffffffffff16146107ce576040517f08c379a00000000000000000000000000000000000000000000000000000000081526004016107c590615323565b60405180910390fd5b826005600084815260200190815260200160002060006101000a81548173ffffffffffffffffffffffffffffffffffffffff021916908373ffffffffffffffffffffffffffffffffffffffff160217905550818373ffffffffffffffffffffffffffffffffffffffff168273ffffffffffffffffffffffffffffffffffffffff167f8c5be1e5ebec7d5bd14f71427d1e84f3dd0314c0f7b2291e5b200ac8c7c3b92560405160405180910390a4505050565b610888613fe9565b600a828154811061089c5761089b615343565b5b90600052602060002090600d0201604051806101a00160405290816000820180546108c6906151ee565b80601f01602080910402602001604051908101604052809291908181526020018280546108f2906151ee565b801561093f5780601f106109145761010080835404028352916020019161093f565b820191906000526020600020905b81548152906001019060200180831161092257829003601f168201915b50505050508152602001600182018054610958906151ee565b80601f0160208091040260200160405190810160405280929190818152602001828054610984906151ee565b80156109d15780601f106109a6576101008083540402835291602001916109d1565b820191906000526020600020905b8154815290600101906020018083116109b457829003601f168201915b505050505081526020016002820180546109ea906151ee565b80601f0160208091040260200160405190810160405280929190818152602001828054610a16906151ee565b8015610a635780601f10610a3857610100808354040283529160200191610a63565b820191906000526020600020905b815481529060010190602001808311610a4657829003601f168201915b50505050508152602001600382018054610a7c906151ee565b80601f0160208091040260200160405190810160405280929190818152602001828054610aa8906151ee565b8015610af55780601f10610aca57610100808354040283529160200191610af5565b820191906000526020600020905b815481529060010190602001808311610ad857829003601f168201915b5050505050815260200160048201805480602002602001604051908101604052809291908181526020016000905b82821015610bcf578382906000526020600020018054610b42906151ee565b80601f0160208091040260200160405190810160405280929190818152602001828054610b6e906151ee565b8015610bbb5780601f10610b9057610100808354040283529160200191610bbb565b820191906000526020600020905b815481529060010190602001808311610b9e57829003601f168201915b505050505081526020019060010190610b23565b50505050815260200160058201805480602002602001604051908101604052809291908181526020018280548015610c2657602002820191906000526020600020905b815481526020019060010190808311610c12575b5050505050815260200160068201805480602002602001604051908101604052809291908181526020018280548015610c7e57602002820191906000526020600020905b815481526020019060010190808311610c6a575b5050505050815260200160078201805480602002602001604051908101604052809291908181526020018280548015610cd657602002820191906000526020600020905b815481526020019060010190808311610cc2575b505050505081526020016008820154815260200160098201548152602001600a8201805480602002602001604051908101604052809291908181526020016000905b82821015610dc4578382906000526020600020018054610d37906151ee565b80601f0160208091040260200160405190810160405280929190818152602001828054610d63906151ee565b8015610db05780601f10610d8557610100808354040283529160200191610db0565b820191906000526020600020905b815481529060010190602001808311610d9357829003601f168201915b505050505081526020019060010190610d18565b505050508152602001600b8201548152602001600c820154815250509050919050565b600a8181548110610df757600080fd5b90600052602060002090600d0201600091509050806000018054610e1a906151ee565b80601f0160208091040260200160405190810160405280929190818152602001828054610e46906151ee565b8015610e935780601f10610e6857610100808354040283529160200191610e93565b820191906000526020600020905b815481529060010190602001808311610e7657829003601f168201915b505050505090806001018054610ea8906151ee565b80601f0160208091040260200160405190810160405280929190818152602001828054610ed4906151ee565b8015610f215780601f10610ef657610100808354040283529160200191610f21565b820191906000526020600020905b815481529060010190602001808311610f0457829003601f168201915b505050505090806002018054610f36906151ee565b80601f0160208091040260200160405190810160405280929190818152602001828054610f62906151ee565b8015610faf5780601f10610f8457610100808354040283529160200191610faf565b820191906000526020600020905b815481529060010190602001808311610f9257829003601f168201915b505050505090806003018054610fc4906151ee565b80601f0160208091040260200160405190810160405280929190818152602001828054610ff0906151ee565b801561103d5780601f106110125761010080835404028352916020019161103d565b820191906000526020600020905b81548152906001019060200180831161102057829003601f168201915b50505050509080600801549080600901549080600b01549080600c0154905088565b6000600680549050905090565b6110778383836118c6565b60006009600083815260200190815260200160002054905060008190505b6001600860008773ffffffffffffffffffffffffffffffffffffffff1673ffffffffffffffffffffffffffffffffffffffff168152602001908152602001600020805490506110e491906153a1565b81101561124957600860008673ffffffffffffffffffffffffffffffffffffffff1673ffffffffffffffffffffffffffffffffffffffff16815260200190815260200160002060018261113791906153d5565b8154811061114857611147615343565b5b9060005260206000200154600860008773ffffffffffffffffffffffffffffffffffffffff1673ffffffffffffffffffffffffffffffffffffffff16815260200190815260200160002082815481106111a4576111a3615343565b5b906000526020600020018190555060096000600860008873ffffffffffffffffffffffffffffffffffffffff1673ffffffffffffffffffffffffffffffffffffffff168152602001908152602001600020838154811061120757611206615343565b5b90600052602060002001548152602001908152602001600020600081548092919061123190615409565b9190505550808061124190615432565b915050611095565b50600860008573ffffffffffffffffffffffffffffffffffffffff1673ffffffffffffffffffffffffffffffffffffffff1681526020019081526020016000208054806112995761129861547a565b5b600190038181906000526020600020016000905590556112b98383613935565b50505050565b6060601060008473ffffffffffffffffffffffffffffffffffffffff1673ffffffffffffffffffffffffffffffffffffffff16815260200190815260200160002060008373ffffffffffffffffffffffffffffffffffffffff1673ffffffffffffffffffffffffffffffffffffffff168152602001908152602001600020805480602002602001604051908101604052809291908181526020016000905b828210156118ba57838290600052602060002090600d0201604051806101a0016040529081600082018054611391906151ee565b80601f01602080910402602001604051908101604052809291908181526020018280546113bd906151ee565b801561140a5780601f106113df5761010080835404028352916020019161140a565b820191906000526020600020905b8154815290600101906020018083116113ed57829003601f168201915b50505050508152602001600182018054611423906151ee565b80601f016020809104026020016040519081016040528092919081815260200182805461144f906151ee565b801561149c5780601f106114715761010080835404028352916020019161149c565b820191906000526020600020905b81548152906001019060200180831161147f57829003601f168201915b505050505081526020016002820180546114b5906151ee565b80601f01602080910402602001604051908101604052809291908181526020018280546114e1906151ee565b801561152e5780601f106115035761010080835404028352916020019161152e565b820191906000526020600020905b81548152906001019060200180831161151157829003601f168201915b50505050508152602001600382018054611547906151ee565b80601f0160208091040260200160405190810160405280929190818152602001828054611573906151ee565b80156115c05780601f10611595576101008083540402835291602001916115c0565b820191906000526020600020905b8154815290600101906020018083116115a357829003601f168201915b5050505050815260200160048201805480602002602001604051908101604052809291908181526020016000905b8282101561169a57838290600052602060002001805461160d906151ee565b80601f0160208091040260200160405190810160405280929190818152602001828054611639906151ee565b80156116865780601f1061165b57610100808354040283529160200191611686565b820191906000526020600020905b81548152906001019060200180831161166957829003601f168201915b5050505050815260200190600101906115ee565b505050508152602001600582018054806020026020016040519081016040528092919081815260200182805480156116f157602002820191906000526020600020905b8154815260200190600101908083116116dd575b505050505081526020016006820180548060200260200160405190810160405280929190818152602001828054801561174957602002820191906000526020600020905b815481526020019060010190808311611735575b50505050508152602001600782018054806020026020016040519081016040528092919081815260200182805480156117a157602002820191906000526020600020905b81548152602001906001019080831161178d575b505050505081526020016008820154815260200160098201548152602001600a8201805480602002602001604051908101604052809291908181526020016000905b8282101561188f578382906000526020600020018054611802906151ee565b80601f016020809104026020016040519081016040528092919081815260200182805461182e906151ee565b801561187b5780601f106118505761010080835404028352916020019161187b565b820191906000526020600020905b81548152906001019060200180831161185e57829003601f168201915b5050505050815260200190600101906117e3565b505050508152602001600b8201548152602001600c820154815250508152602001906001019061135d565b50505050905092915050565b6118d033826139f9565b6118d957600080fd5b6118e4838383613a88565b505050565b60006118f483612c53565b8210611935576040517f08c379a000000000000000000000000000000000000000000000000000000000815260040161192c906154f5565b60405180910390fd5b600860008473ffffffffffffffffffffffffffffffffffffffff1673ffffffffffffffffffffffffffffffffffffffff168152602001908152602001600020828154811061198657611985615343565b5b9060005260206000200154905092915050565b60006119a361105f565b82106119e4576040517f08c379a00000000000000000000000000000000000000000000000000000000081526004016119db90615561565b60405180910390fd5b600682815481106119f8576119f7615343565b5b90600052602060002001549050919050565b6003600d60008573ffffffffffffffffffffffffffffffffffffffff1673ffffffffffffffffffffffffffffffffffffffff1681526020019081526020016000205414611a8c576040517f08c379a0000000000000000000000000000000000000000000000000000000008152600401611a83906155cd565b60405180910390fd5b6000601260008381526020019081526020016000205403611ae2576040517f08c379a0000000000000000000000000000000000000000000000000000000008152600401611ad99061565f565b60405180910390fd5b611aed83838361106c565b601260008281526020019081526020016000206000815480929190611b1190615409565b9190505550601060008473ffffffffffffffffffffffffffffffffffffffff1673ffffffffffffffffffffffffffffffffffffffff16815260200190815260200160002060008373ffffffffffffffffffffffffffffffffffffffff1673ffffffffffffffffffffffffffffffffffffffff168152602001908152602001600020600a8281548110611ba657611ba5615343565b5b90600052602060002090600d020190806001815401808255809150506001900390600052602060002090600d020160009091909190915060008201816000019081611bf19190615841565b5060018201816001019081611c069190615841565b5060028201816002019081611c1b9190615841565b5060038201816003019081611c309190615841565b506004820181600401908054611c47929190614051565b506005820181600501908054611c5e9291906140ae565b506006820181600601908054611c759291906140ae565b506007820181600701908054611c8c9291906140ae565b506008820154816008015560098201548160090155600a820181600a01908054611cb7929190614051565b50600b82015481600b0155600c82015481600c01555050505050565b6000806003600084815260200190815260200160002060009054906101000a900473ffffffffffffffffffffffffffffffffffffffff169050600073ffffffffffffffffffffffffffffffffffffffff168173ffffffffffffffffffffffffffffffffffffffff1603611d7b576040517f08c379a0000000000000000000000000000000000000000000000000000000008152600401611d729061599b565b60405180910390fd5b80915050919050565b6060600c60008373ffffffffffffffffffffffffffffffffffffffff1673ffffffffffffffffffffffffffffffffffffffff168152602001908152602001600020805480602002602001604051908101604052809291908181526020016000905b8282101561234257838290600052602060002090600d0201604051806101a0016040529081600082018054611e19906151ee565b80601f0160208091040260200160405190810160405280929190818152602001828054611e45906151ee565b8015611e925780601f10611e6757610100808354040283529160200191611e92565b820191906000526020600020905b815481529060010190602001808311611e7557829003601f168201915b50505050508152602001600182018054611eab906151ee565b80601f0160208091040260200160405190810160405280929190818152602001828054611ed7906151ee565b8015611f245780601f10611ef957610100808354040283529160200191611f24565b820191906000526020600020905b815481529060010190602001808311611f0757829003601f168201915b50505050508152602001600282018054611f3d906151ee565b80601f0160208091040260200160405190810160405280929190818152602001828054611f69906151ee565b8015611fb65780601f10611f8b57610100808354040283529160200191611fb6565b820191906000526020600020905b815481529060010190602001808311611f9957829003601f168201915b50505050508152602001600382018054611fcf906151ee565b80601f0160208091040260200160405190810160405280929190818152602001828054611ffb906151ee565b80156120485780601f1061201d57610100808354040283529160200191612048565b820191906000526020600020905b81548152906001019060200180831161202b57829003601f168201915b5050505050815260200160048201805480602002602001604051908101604052809291908181526020016000905b82821015612122578382906000526020600020018054612095906151ee565b80601f01602080910402602001604051908101604052809291908181526020018280546120c1906151ee565b801561210e5780601f106120e35761010080835404028352916020019161210e565b820191906000526020600020905b8154815290600101906020018083116120f157829003601f168201915b505050505081526020019060010190612076565b5050505081526020016005820180548060200260200160405190810160405280929190818152602001828054801561217957602002820191906000526020600020905b815481526020019060010190808311612165575b50505050508152602001600682018054806020026020016040519081016040528092919081815260200182805480156121d157602002820191906000526020600020905b8154815260200190600101908083116121bd575b505050505081526020016007820180548060200260200160405190810160405280929190818152602001828054801561222957602002820191906000526020600020905b815481526020019060010190808311612215575b505050505081526020016008820154815260200160098201548152602001600a8201805480602002602001604051908101604052809291908181526020016000905b8282101561231757838290600052602060002001805461228a906151ee565b80601f01602080910402602001604051908101604052809291908181526020018280546122b6906151ee565b80156123035780601f106122d857610100808354040283529160200191612303565b820191906000526020600020905b8154815290600101906020018083116122e657829003601f168201915b50505050508152602001906001019061226b565b505050508152602001600b8201548152602001600c8201548152505081526020019060010190611de5565b505050509050919050565b61235883838361106c565b600b60008373ffffffffffffffffffffffffffffffffffffffff1673ffffffffffffffffffffffffffffffffffffffff168152602001908152602001600020819080600181540180825580915050600190039060005260206000200160009091909190915055600c60008373ffffffffffffffffffffffffffffffffffffffff1673ffffffffffffffffffffffffffffffffffffffff168152602001908152602001600020600a828154811061241157612410615343565b5b90600052602060002090600d020190806001815401808255809150506001900390600052602060002090600d02016000909190919091506000820181600001908161245c9190615841565b50600182018160010190816124719190615841565b50600282018160020190816124869190615841565b506003820181600301908161249b9190615841565b5060048201816004019080546124b2929190614051565b5060058201816005019080546124c99291906140ae565b5060068201816006019080546124e09291906140ae565b5060078201816007019080546124f79291906140ae565b506008820154816008015560098201548160090155600a820181600a01908054612522929190614051565b50600b82015481600b0155600c82015481600c015550506000600a828154811061254f5761254e615343565b5b90600052602060002090600d0201604051806101a0016040529081600082018054612579906151ee565b80601f01602080910402602001604051908101604052809291908181526020018280546125a5906151ee565b80156125f25780601f106125c7576101008083540402835291602001916125f2565b820191906000526020600020905b8154815290600101906020018083116125d557829003601f168201915b5050505050815260200160018201805461260b906151ee565b80601f0160208091040260200160405190810160405280929190818152602001828054612637906151ee565b80156126845780601f1061265957610100808354040283529160200191612684565b820191906000526020600020905b81548152906001019060200180831161266757829003601f168201915b5050505050815260200160028201805461269d906151ee565b80601f01602080910402602001604051908101604052809291908181526020018280546126c9906151ee565b80156127165780601f106126eb57610100808354040283529160200191612716565b820191906000526020600020905b8154815290600101906020018083116126f957829003601f168201915b5050505050815260200160038201805461272f906151ee565b80601f016020809104026020016040519081016040528092919081815260200182805461275b906151ee565b80156127a85780601f1061277d576101008083540402835291602001916127a8565b820191906000526020600020905b81548152906001019060200180831161278b57829003601f168201915b5050505050815260200160048201805480602002602001604051908101604052809291908181526020016000905b828210156128825783829060005260206000200180546127f5906151ee565b80601f0160208091040260200160405190810160405280929190818152602001828054612821906151ee565b801561286e5780601f106128435761010080835404028352916020019161286e565b820191906000526020600020905b81548152906001019060200180831161285157829003601f168201915b5050505050815260200190600101906127d6565b505050508152602001600582018054806020026020016040519081016040528092919081815260200182805480156128d957602002820191906000526020600020905b8154815260200190600101908083116128c5575b505050505081526020016006820180548060200260200160405190810160405280929190818152602001828054801561293157602002820191906000526020600020905b81548152602001906001019080831161291d575b505050505081526020016007820180548060200260200160405190810160405280929190818152602001828054801561298957602002820191906000526020600020905b815481526020019060010190808311612975575b505050505081526020016008820154815260200160098201548152602001600a8201805480602002602001604051908101604052809291908181526020016000905b82821015612a775783829060005260206000200180546129ea906151ee565b80601f0160208091040260200160405190810160405280929190818152602001828054612a16906151ee565b8015612a635780601f10612a3857610100808354040283529160200191612a63565b820191906000526020600020905b815481529060010190602001808311612a4657829003601f168201915b5050505050815260200190600101906129cb565b505050508152602001600b8201548152602001600c820154815250509050601060008573ffffffffffffffffffffffffffffffffffffffff1673ffffffffffffffffffffffffffffffffffffffff16815260200190815260200160002060008473ffffffffffffffffffffffffffffffffffffffff1673ffffffffffffffffffffffffffffffffffffffff168152602001908152602001600020600a8381548110612b2557612b24615343565b5b90600052602060002090600d020190806001815401808255809150506001900390600052602060002090600d020160009091909190915060008201816000019081612b709190615841565b5060018201816001019081612b859190615841565b5060028201816002019081612b9a9190615841565b5060038201816003019081612baf9190615841565b506004820181600401908054612bc6929190614051565b506005820181600501908054612bdd9291906140ae565b506006820181600601908054612bf49291906140ae565b506007820181600701908054612c0b9291906140ae565b506008820154816008015560098201548160090155600a820181600a01908054612c36929190614051565b50600b82015481600b0155600c82015481600c0155505050505050565b60008073ffffffffffffffffffffffffffffffffffffffff168273ffffffffffffffffffffffffffffffffffffffff1603612cc3576040517f08c379a0000000000000000000000000000000000000000000000000000000008152600401612cba9061599b565b60405180910390fd5b612d0a600460008473ffffffffffffffffffffffffffffffffffffffff1673ffffffffffffffffffffffffffffffffffffffff168152602001908152602001600020613cad565b9050919050565b601360003373ffffffffffffffffffffffffffffffffffffffff1673ffffffffffffffffffffffffffffffffffffffff16815260200190815260200160002081908060018154018082558091505060019003906000526020600020016000909190919091505550565b6003600d60008373ffffffffffffffffffffffffffffffffffffffff1673ffffffffffffffffffffffffffffffffffffffff1681526020019081526020016000208190555050565b600060126000838152602001908152602001600020549050919050565b6001600d60008373ffffffffffffffffffffffffffffffffffffffff1673ffffffffffffffffffffffffffffffffffffffff1681526020019081526020016000208190555050565b6000600d60008373ffffffffffffffffffffffffffffffffffffffff1673ffffffffffffffffffffffffffffffffffffffff168152602001908152602001600020549050919050565b80600001518160200151826060015183608001518461016001516000805b600a805490508110156130fd576000805b600a8381548110612eb357612eb2615343565b5b90600052602060002090600d020160040180549050811015612f6e57858181518110612ee257612ee1615343565b5b602002602001015180519060200120600a8481548110612f0557612f04615343565b5b90600052602060002090600d02016004018281548110612f2857612f27615343565b5b90600052602060002001604051612f3f9190615a5e565b604051809103902003612f5b578180612f5790615432565b9250505b8080612f6690615432565b915050612e9f565b508451600a8381548110612f8557612f84615343565b5b90600052602060002090600d020160040180549050148015612fce5750600a8281548110612fb657612fb5615343565b5b90600052602060002090600d02016004018054905081145b8015612ffe575083600a8381548110612fea57612fe9615343565b5b90600052602060002090600d0201600b0154145b801561304957508780519060200120600a838154811061302157613020615343565b5b90600052602060002090600d020160000160405161303f9190615a5e565b6040518091039020145b801561309457508680519060200120600a838154811061306c5761306b615343565b5b90600052602060002090600d020160010160405161308a9190615a5e565b6040518091039020145b80156130df57508580519060200120600a83815481106130b7576130b6615343565b5b90600052602060002090600d02016003016040516130d59190615a5e565b6040518091039020145b156130e957600192505b5080806130f590615432565b915050612e8e565b50801561313f576040517f08c379a000000000000000000000000000000000000000000000000000000000815260040161313690615ae7565b60405180910390fd5b6002600d60003373ffffffffffffffffffffffffffffffffffffffff1673ffffffffffffffffffffffffffffffffffffffff16815260200190815260200160002054146131c1576040517f08c379a00000000000000000000000000000000000000000000000000000000081526004016131b890615b53565b60405180910390fd5b600a8790806001815401808255809150506001900390600052602060002090600d020160009091909190915060008201518160000190816132029190615b73565b5060208201518160010190816132189190615b73565b50604082015181600201908161322e9190615b73565b5060608201518160030190816132449190615b73565b506080820151816004019080519060200190613261929190614100565b5060a082015181600501908051906020019061327e929190614159565b5060c082015181600601908051906020019061329b929190614159565b5060e08201518160070190805190602001906132b8929190614159565b506101008201518160080155610120820151816009015561014082015181600a0190805190602001906132ec929190614100565b5061016082015181600b015561018082015181600c0155505060006001600a8054905061331991906153a1565b9050600c60003373ffffffffffffffffffffffffffffffffffffffff1673ffffffffffffffffffffffffffffffffffffffff1681526020019081526020016000208890806001815401808255809150506001900390600052602060002090600d020160009091909190915060008201518160000190816133999190615b73565b5060208201518160010190816133af9190615b73565b5060408201518160020190816133c59190615b73565b5060608201518160030190816133db9190615b73565b5060808201518160040190805190602001906133f8929190614100565b5060a0820151816005019080519060200190613415929190614159565b5060c0820151816006019080519060200190613432929190614159565b5060e082015181600701908051906020019061344f929190614159565b506101008201518160080155610120820151816009015561014082015181600a019080519060200190613483929190614100565b5061016082015181600b015561018082015181600c0155505087610120015160126000838152602001908152602001600020819055506134c33382613cbb565b6134cc81612d11565b5050505050505050565b6060600280546134e5906151ee565b80601f0160208091040260200160405190810160405280929190818152602001828054613511906151ee565b801561355e5780601f106135335761010080835404028352916020019161355e565b820191906000526020600020905b81548152906001019060200180831161354157829003601f168201915b5050505050905090565b600061357382612c53565b9050919050565b60006012600083815260200190815260200160002054036135d0576040517f08c379a00000000000000000000000000000000000000000000000000000000081526004016135c79061565f565b60405180910390fd5b600b60008373ffffffffffffffffffffffffffffffffffffffff1673ffffffffffffffffffffffffffffffffffffffff168152602001908152602001600020819080600181540180825580915050600190039060005260206000200160009091909190915055600c60008373ffffffffffffffffffffffffffffffffffffffff1673ffffffffffffffffffffffffffffffffffffffff168152602001908152602001600020600a828154811061368957613688615343565b5b90600052602060002090600d020190806001815401808255809150506001900390600052602060002090600d0201600090919091909150600082018160000190816136d49190615841565b50600182018160010190816136e99190615841565b50600282018160020190816136fe9190615841565b50600382018160030190816137139190615841565b50600482018160040190805461372a929190614051565b5060058201816005019080546137419291906140ae565b5060068201816006019080546137589291906140ae565b50600782018160070190805461376f9291906140ae565b506008820154816008015560098201548160090155600a820181600a0190805461379a929190614051565b50600b82015481600b0155600c82015481600c015550506137bc83838361106c565b505050565b6002600d60008373ffffffffffffffffffffffffffffffffffffffff1673ffffffffffffffffffffffffffffffffffffffff1681526020019081526020016000208190555050565b6060601360003373ffffffffffffffffffffffffffffffffffffffff1673ffffffffffffffffffffffffffffffffffffffff16815260200190815260200160002080548060200260200160405190810160405280929190818152602001828054801561389457602002820191906000526020600020905b815481526020019060010190808311613880575b5050505050905090565b6060600860008373ffffffffffffffffffffffffffffffffffffffff1673ffffffffffffffffffffffffffffffffffffffff16815260200190815260200160002080548060200260200160405190810160405280929190818152602001828054801561392957602002820191906000526020600020905b815481526020019060010190808311613915575b50505050509050919050565b600860008373ffffffffffffffffffffffffffffffffffffffff1673ffffffffffffffffffffffffffffffffffffffff168152602001908152602001600020805490506009600083815260200190815260200160002081905550600860008373ffffffffffffffffffffffffffffffffffffffff1673ffffffffffffffffffffffffffffffffffffffff1681526020019081526020016000208190806001815401808255809150506001900390600052602060002001600090919091909150555050565b6000613a0482613cdc565b613a43576040517f08c379a0000000000000000000000000000000000000000000000000000000008152600401613a3a90615c91565b60405180910390fd5b6000613a4e83611cd3565b90508073ffffffffffffffffffffffffffffffffffffffff168473ffffffffffffffffffffffffffffffffffffffff161491505092915050565b600073ffffffffffffffffffffffffffffffffffffffff168273ffffffffffffffffffffffffffffffffffffffff1603613af7576040517f08c379a0000000000000000000000000000000000000000000000000000000008152600401613aee90615d23565b60405180910390fd5b8273ffffffffffffffffffffffffffffffffffffffff16613b1782611cd3565b73ffffffffffffffffffffffffffffffffffffffff1614613b6d576040517f08c379a0000000000000000000000000000000000000000000000000000000008152600401613b6490615db5565b60405180910390fd5b613bb4600460008573ffffffffffffffffffffffffffffffffffffffff1673ffffffffffffffffffffffffffffffffffffffff168152602001908152602001600020613d4e565b613bfb600460008473ffffffffffffffffffffffffffffffffffffffff1673ffffffffffffffffffffffffffffffffffffffff168152602001908152602001600020613d71565b816003600083815260200190815260200160002060006101000a81548173ffffffffffffffffffffffffffffffffffffffff021916908373ffffffffffffffffffffffffffffffffffffffff160217905550808273ffffffffffffffffffffffffffffffffffffffff168473ffffffffffffffffffffffffffffffffffffffff167fddf252ad1be2c89b69c2b068fc378daa952ba7f163c4a11628f55a4df523b3ef60405160405180910390a4505050565b600081600001549050919050565b613cc58282613d90565b613cce81613f41565b613cd88282613935565b5050565b6000806003600084815260200190815260200160002060009054906101000a900473ffffffffffffffffffffffffffffffffffffffff169050600073ffffffffffffffffffffffffffffffffffffffff168173ffffffffffffffffffffffffffffffffffffffff161415915050919050565b613d6660018260000154613f8a90919063ffffffff16565b816000018190555050565b6001816000016000828254613d8691906153d5565b9250508190555050565b600073ffffffffffffffffffffffffffffffffffffffff168273ffffffffffffffffffffffffffffffffffffffff1603613dff576040517f08c379a0000000000000000000000000000000000000000000000000000000008152600401613df690615e47565b60405180910390fd5b613e0881613cdc565b15613e48576040517f08c379a0000000000000000000000000000000000000000000000000000000008152600401613e3f90615eb3565b60405180910390fd5b816003600083815260200190815260200160002060006101000a81548173ffffffffffffffffffffffffffffffffffffffff021916908373ffffffffffffffffffffffffffffffffffffffff160217905550613ee1600460008473ffffffffffffffffffffffffffffffffffffffff1673ffffffffffffffffffffffffffffffffffffffff168152602001908152602001600020613d71565b808273ffffffffffffffffffffffffffffffffffffffff16600073ffffffffffffffffffffffffffffffffffffffff167fddf252ad1be2c89b69c2b068fc378daa952ba7f163c4a11628f55a4df523b3ef60405160405180910390a45050565b6006805490506007600083815260200190815260200160002081905550600681908060018154018082558091505060019003906000526020600020016000909190919091505550565b600082821115613fcf576040517f08c379a0000000000000000000000000000000000000000000000000000000008152600401613fc690615f1f565b60405180910390fd5b60008284613fdd91906153a1565b90508091505092915050565b604051806101a00160405280606081526020016060815260200160608152602001606081526020016060815260200160608152602001606081526020016060815260200160008152602001600081526020016060815260200160008152602001600081525090565b82805482825590600052602060002090810192821561409d5760005260206000209182015b8281111561409c578282908161408c9190615841565b5091600101919060010190614076565b5b5090506140aa91906141a6565b5090565b8280548282559060005260206000209081019282156140ef5760005260206000209182015b828111156140ee5782548255916001019190600101906140d3565b5b5090506140fc91906141ca565b5090565b828054828255906000526020600020908101928215614148579160200282015b828111156141475782518290816141379190615b73565b5091602001919060010190614120565b5b50905061415591906141a6565b5090565b828054828255906000526020600020908101928215614195579160200282015b82811115614194578251825591602001919060010190614179565b5b5090506141a291906141ca565b5090565b5b808211156141c657600081816141bd91906141e7565b506001016141a7565b5090565b5b808211156141e35760008160009055506001016141cb565b5090565b5080546141f3906151ee565b6000825580601f106142055750614224565b601f01602090049060005260206000209081019061422391906141ca565b5b50565b6000604051905090565b600080fd5b600080fd5b60007fffffffff0000000000000000000000000000000000000000000000000000000082169050919050565b6142708161423b565b811461427b57600080fd5b50565b60008135905061428d81614267565b92915050565b6000602082840312156142a9576142a8614231565b5b60006142b78482850161427e565b91505092915050565b60008115159050919050565b6142d5816142c0565b82525050565b60006020820190506142f060008301846142cc565b92915050565b600081519050919050565b600082825260208201905092915050565b60005b83811015614330578082015181840152602081019050614315565b60008484015250505050565b6000601f19601f8301169050919050565b6000614358826142f6565b6143628185614301565b9350614372818560208601614312565b61437b8161433c565b840191505092915050565b600060208201905081810360008301526143a0818461434d565b905092915050565b600073ffffffffffffffffffffffffffffffffffffffff82169050919050565b60006143d3826143a8565b9050919050565b6143e3816143c8565b81146143ee57600080fd5b50565b600081359050614400816143da565b92915050565b6000819050919050565b61441981614406565b811461442457600080fd5b50565b60008135905061443681614410565b92915050565b6000806040838503121561445357614452614231565b5b6000614461858286016143f1565b925050602061447285828601614427565b9150509250929050565b60006020828403121561449257614491614231565b5b60006144a084828501614427565b91505092915050565b600082825260208201905092915050565b60006144c5826142f6565b6144cf81856144a9565b93506144df818560208601614312565b6144e88161433c565b840191505092915050565b600081519050919050565b600082825260208201905092915050565b6000819050602082019050919050565b600061452b83836144ba565b905092915050565b6000602082019050919050565b600061454b826144f3565b61455581856144fe565b9350836020820285016145678561450f565b8060005b858110156145a35784840389528151614584858261451f565b945061458f83614533565b925060208a0199505060018101905061456b565b50829750879550505050505092915050565b600081519050919050565b600082825260208201905092915050565b6000819050602082019050919050565b6145ea81614406565b82525050565b60006145fc83836145e1565b60208301905092915050565b6000602082019050919050565b6000614620826145b5565b61462a81856145c0565b9350614635836145d1565b8060005b8381101561466657815161464d88826145f0565b975061465883614608565b925050600181019050614639565b5085935050505092915050565b60006101a083016000830151848203600086015261469182826144ba565b915050602083015184820360208601526146ab82826144ba565b915050604083015184820360408601526146c582826144ba565b915050606083015184820360608601526146df82826144ba565b915050608083015184820360808601526146f98282614540565b91505060a083015184820360a08601526147138282614615565b91505060c083015184820360c086015261472d8282614615565b91505060e083015184820360e08601526147478282614615565b91505061010083015161475e6101008601826145e1565b506101208301516147736101208601826145e1565b5061014083015184820361014086015261478d8282614540565b9150506101608301516147a46101608601826145e1565b506101808301516147b96101808601826145e1565b508091505092915050565b600060208201905081810360008301526147de8184614673565b905092915050565b6147ef81614406565b82525050565b6000610100820190508181036000830152614810818b61434d565b90508181036020830152614824818a61434d565b90508181036040830152614838818961434d565b9050818103606083015261484c818861434d565b905061485b60808301876147e6565b61486860a08301866147e6565b61487560c08301856147e6565b61488260e08301846147e6565b9998505050505050505050565b60006020820190506148a460008301846147e6565b92915050565b6000806000606084860312156148c3576148c2614231565b5b60006148d1868287016143f1565b93505060206148e2868287016143f1565b92505060406148f386828701614427565b9150509250925092565b6000806040838503121561491457614913614231565b5b6000614922858286016143f1565b9250506020614933858286016143f1565b9150509250929050565b600081519050919050565b600082825260208201905092915050565b6000819050602082019050919050565b60006101a083016000830151848203600086015261498782826144ba565b915050602083015184820360208601526149a182826144ba565b915050604083015184820360408601526149bb82826144ba565b915050606083015184820360608601526149d582826144ba565b915050608083015184820360808601526149ef8282614540565b91505060a083015184820360a0860152614a098282614615565b91505060c083015184820360c0860152614a238282614615565b91505060e083015184820360e0860152614a3d8282614615565b915050610100830151614a546101008601826145e1565b50610120830151614a696101208601826145e1565b50610140830151848203610140860152614a838282614540565b915050610160830151614a9a6101608601826145e1565b50610180830151614aaf6101808601826145e1565b508091505092915050565b6000614ac68383614969565b905092915050565b6000602082019050919050565b6000614ae68261493d565b614af08185614948565b935083602082028501614b0285614959565b8060005b85811015614b3e5784840389528151614b1f8582614aba565b9450614b2a83614ace565b925060208a01995050600181019050614b06565b50829750879550505050505092915050565b60006020820190508181036000830152614b6a8184614adb565b905092915050565b614b7b816143c8565b82525050565b6000602082019050614b966000830184614b72565b92915050565b600060208284031215614bb257614bb1614231565b5b6000614bc0848285016143f1565b91505092915050565b600080fd5b7f4e487b7100000000000000000000000000000000000000000000000000000000600052604160045260246000fd5b614c068261433c565b810181811067ffffffffffffffff82111715614c2557614c24614bce565b5b80604052505050565b6000614c38614227565b9050614c448282614bfd565b919050565b600080fd5b600080fd5b600080fd5b600067ffffffffffffffff821115614c7357614c72614bce565b5b614c7c8261433c565b9050602081019050919050565b82818337600083830152505050565b6000614cab614ca684614c58565b614c2e565b905082815260208101848484011115614cc757614cc6614c53565b5b614cd2848285614c89565b509392505050565b600082601f830112614cef57614cee614c4e565b5b8135614cff848260208601614c98565b91505092915050565b600067ffffffffffffffff821115614d2357614d22614bce565b5b602082029050602081019050919050565b600080fd5b6000614d4c614d4784614d08565b614c2e565b90508083825260208201905060208402830185811115614d6f57614d6e614d34565b5b835b81811015614db657803567ffffffffffffffff811115614d9457614d93614c4e565b5b808601614da18982614cda565b85526020850194505050602081019050614d71565b5050509392505050565b600082601f830112614dd557614dd4614c4e565b5b8135614de5848260208601614d39565b91505092915050565b600067ffffffffffffffff821115614e0957614e08614bce565b5b602082029050602081019050919050565b6000614e2d614e2884614dee565b614c2e565b90508083825260208201905060208402830185811115614e5057614e4f614d34565b5b835b81811015614e795780614e658882614427565b845260208401935050602081019050614e52565b5050509392505050565b600082601f830112614e9857614e97614c4e565b5b8135614ea8848260208601614e1a565b91505092915050565b60006101a08284031215614ec857614ec7614bc9565b5b614ed36101a0614c2e565b9050600082013567ffffffffffffffff811115614ef357614ef2614c49565b5b614eff84828501614cda565b600083015250602082013567ffffffffffffffff811115614f2357614f22614c49565b5b614f2f84828501614cda565b602083015250604082013567ffffffffffffffff811115614f5357614f52614c49565b5b614f5f84828501614cda565b604083015250606082013567ffffffffffffffff811115614f8357614f82614c49565b5b614f8f84828501614cda565b606083015250608082013567ffffffffffffffff811115614fb357614fb2614c49565b5b614fbf84828501614dc0565b60808301525060a082013567ffffffffffffffff811115614fe357614fe2614c49565b5b614fef84828501614e83565b60a08301525060c082013567ffffffffffffffff81111561501357615012614c49565b5b61501f84828501614e83565b60c08301525060e082013567ffffffffffffffff81111561504357615042614c49565b5b61504f84828501614e83565b60e08301525061010061506484828501614427565b6101008301525061012061507a84828501614427565b6101208301525061014082013567ffffffffffffffff8111156150a05761509f614c49565b5b6150ac84828501614dc0565b610140830152506101606150c284828501614427565b610160830152506101806150d884828501614427565b6101808301525092915050565b6000602082840312156150fb576150fa614231565b5b600082013567ffffffffffffffff81111561511957615118614236565b5b61512584828501614eb1565b91505092915050565b600082825260208201905092915050565b600061514a826145b5565b615154818561512e565b935061515f836145d1565b8060005b8381101561519057815161517788826145f0565b975061518283614608565b925050600181019050615163565b5085935050505092915050565b600060208201905081810360008301526151b7818461513f565b905092915050565b7f4e487b7100000000000000000000000000000000000000000000000000000000600052602260045260246000fd5b6000600282049050600182168061520657607f821691505b602082108103615219576152186151bf565b5b50919050565b7f4572726f72202d20617070726f76616c20746f2063757272656e74206f776e6560008201527f7200000000000000000000000000000000000000000000000000000000000000602082015250565b600061527b602183614301565b91506152868261521f565b604082019050919050565b600060208201905081810360008301526152aa8161526e565b9050919050565b7f43757272656e742063616c6c6572206973206e6f7420746865206f776e65722060008201527f6f662074686520746f6b656e0000000000000000000000000000000000000000602082015250565b600061530d602c83614301565b9150615318826152b1565b604082019050919050565b6000602082019050818103600083015261533c81615300565b9050919050565b7f4e487b7100000000000000000000000000000000000000000000000000000000600052603260045260246000fd5b7f4e487b7100000000000000000000000000000000000000000000000000000000600052601160045260246000fd5b60006153ac82614406565b91506153b783614406565b92508282039050818111156153cf576153ce615372565b5b92915050565b60006153e082614406565b91506153eb83614406565b925082820190508082111561540357615402615372565b5b92915050565b600061541482614406565b91506000820361542757615426615372565b5b600182039050919050565b600061543d82614406565b91507fffffffffffffffffffffffffffffffffffffffffffffffffffffffffffffffff820361546f5761546e615372565b5b600182019050919050565b7f4e487b7100000000000000000000000000000000000000000000000000000000600052603160045260246000fd5b7f6f776e657220696e646578206973206f7574206f6620626f756e647321000000600082015250565b60006154df601d83614301565b91506154ea826154a9565b602082019050919050565b6000602082019050818103600083015261550e816154d2565b9050919050565b7f676c6f62616c20696e646578206973206f7574206f6620626f756e6473210000600082015250565b600061554b601e83614301565b915061555682615515565b602082019050919050565b6000602082019050818103600083015261557a8161553e565b9050919050565b7f596f7520646f206e6f74207065726d697474696f6e0000000000000000000000600082015250565b60006155b7601583614301565b91506155c282615581565b602082019050919050565b600060208201905081810360008301526155e6816155aa565b9050919050565b7f546865206e756d626572206f662064697370656e73696e67206861732062656560008201527f6e2065786365656465642e000000000000000000000000000000000000000000602082015250565b6000615649602b83614301565b9150615654826155ed565b604082019050919050565b600060208201905081810360008301526156788161563c565b9050919050565b60008154905061568e816151ee565b9050919050565b60008190508160005260206000209050919050565b60006020601f8301049050919050565b600082821b905092915050565b6000600883026156f77fffffffffffffffffffffffffffffffffffffffffffffffffffffffffffffffff826156ba565b61570186836156ba565b95508019841693508086168417925050509392505050565b6000819050919050565b600061573e61573961573484614406565b615719565b614406565b9050919050565b6000819050919050565b61575883615723565b61576c61576482615745565b8484546156c7565b825550505050565b600090565b615781615774565b61578c81848461574f565b505050565b5b818110156157b0576157a5600082615779565b600181019050615792565b5050565b601f8211156157f5576157c681615695565b6157cf846156aa565b810160208510156157de578190505b6157f26157ea856156aa565b830182615791565b50505b505050565b600082821c905092915050565b6000615818600019846008026157fa565b1980831691505092915050565b60006158318383615807565b9150826002028217905092915050565b81810361584f575050615927565b6158588261567f565b67ffffffffffffffff81111561587157615870614bce565b5b61587b82546151ee565b6158868282856157b4565b6000601f8311600181146158b557600084156158a3578287015490505b6158ad8582615825565b865550615920565b601f1984166158c387615695565b96506158ce86615695565b60005b828110156158f6578489015482556001820191506001850194506020810190506158d1565b86831015615913578489015461590f601f891682615807565b8355505b6001600288020188555050505b5050505050505b565b7f6f776e657220717565727920666f72206e6f6e2d6578697374656e7420746f6b60008201527f656e000000000000000000000000000000000000000000000000000000000000602082015250565b6000615985602283614301565b915061599082615929565b604082019050919050565b600060208201905081810360008301526159b481615978565b9050919050565b600081905092915050565b60008190508160005260206000209050919050565b600081546159e8816151ee565b6159f281866159bb565b94506001821660008114615a0d5760018114615a2257615a55565b60ff1983168652811515820286019350615a55565b615a2b856159c6565b60005b83811015615a4d57815481890152600182019150602081019050615a2e565b838801955050505b50505092915050565b6000615a6a82846159db565b915081905092915050565b7f4572726f72203a20616c7265616479206578697374732070726553637269707460008201527f696f6e2000000000000000000000000000000000000000000000000000000000602082015250565b6000615ad1602483614301565b9150615adc82615a75565b604082019050919050565b60006020820190508181036000830152615b0081615ac4565b9050919050565b7f596f7520646f206e6f742068617665207065726d697373696f6e000000000000600082015250565b6000615b3d601a83614301565b9150615b4882615b07565b602082019050919050565b60006020820190508181036000830152615b6c81615b30565b9050919050565b615b7c826142f6565b67ffffffffffffffff811115615b9557615b94614bce565b5b615b9f82546151ee565b615baa8282856157b4565b600060209050601f831160018114615bdd5760008415615bcb578287015190505b615bd58582615825565b865550615c3d565b601f198416615beb86615695565b60005b82811015615c1357848901518255600182019150602085019450602081019050615bee565b86831015615c305784890151615c2c601f891682615807565b8355505b6001600288020188555050505b505050505050565b7f746f6b656e20646f6573206e6f74206578697374000000000000000000000000600082015250565b6000615c7b601483614301565b9150615c8682615c45565b602082019050919050565b60006020820190508181036000830152615caa81615c6e565b9050919050565b7f4572726f72202d20455243373231205472616e7366657220746f20746865207a60008201527f65726f2061646472657373000000000000000000000000000000000000000000602082015250565b6000615d0d602b83614301565b9150615d1882615cb1565b604082019050919050565b60006020820190508181036000830152615d3c81615d00565b9050919050565b7f547279696e6720746f207472616e73666572206120746f6b656e20746865206160008201527f64647265737320646f6573206e6f74206f776e21000000000000000000000000602082015250565b6000615d9f603483614301565b9150615daa82615d43565b604082019050919050565b60006020820190508181036000830152615dce81615d92565b9050919050565b7f4552433732313a206d696e74696e6720746f20746865207a65726f206164647260008201527f6573000000000000000000000000000000000000000000000000000000000000602082015250565b6000615e31602283614301565b9150615e3c82615dd5565b604082019050919050565b60006020820190508181036000830152615e6081615e24565b9050919050565b7f4552433732313a20746f6b656e20616c7265616479206d696e74656400000000600082015250565b6000615e9d601c83614301565b9150615ea882615e67565b602082019050919050565b60006020820190508181036000830152615ecc81615e90565b9050919050565b7f536166654d6174683a207375627472616374696f6e206f766572666c6f770000600082015250565b6000615f09601e83614301565b9150615f1482615ed3565b602082019050919050565b60006020820190508181036000830152615f3881615efc565b905091905056fea26469706673582212201dc2a9db957d6f49238f76ee96f1753db5afdc86dd97f609626f56e99465bbe464736f6c63430008110033",
  "immutableReferences": {},
  "source": "// SPDX-License-Identifier: MIT\r\npragma solidity ^0.8.0;\r\n\r\nimport './ERC721Connector.sol';\r\n\r\ncontract PreScription is ERC721Connector {\r\n\r\n    // array to store our nfts\r\n    //  \r\n   struct  preScription {\r\n        // preScriptionExists        ?   .\r\n        string userName; //  \r\n        string hosName; //  \r\n        string pharName; //  \r\n        string dCode; // \r\n        string[] dName; // \r\n\r\n        uint[] dosage; // \r\n        uint[] doseNum; //  \r\n        uint[] dosePeriod; // \r\n        uint dispensingCount; //   \r\n        uint prescriptionCount; // \r\n        // uint period; //  ? .\r\n        string[] howtoTake; // \r\n        uint pubDate; // \r\n        uint prepDate; //  \r\n        \r\n        }\r\n        \r\n        //        \r\n   \r\n   //  \r\n\r\n   \r\n    preScription[] public preScriptions;\r\n    // preScription pp;\r\n    \r\n   \r\n\r\n    \r\n    mapping (address => uint[]) _allTokensOwned; //     ID \r\n\r\n    mapping (address => preScription[]) _allListFromAccount; //    \r\n    \r\n    mapping (address => uint) _accountAuth;  //   (1 , 2 , 3 )\r\n    \r\n    mapping(string => bool) _preScriptionsExists;\r\n\r\n    \r\n    // mapping (uint256 => uint ) _blockTotokenid;\r\n\r\n    // mapping (address => uint[]) _addToblock;\r\n    //  =>   =>  ID\r\n    mapping (address => mapping (address => uint[])) _patientListFromAccount2;\r\n\r\n    mapping (address => mapping (address => preScription[])) _patientListFromAccount;\r\n\r\n    //  \r\n    //mapping (address => preScription[]) _regularPrescription;\r\n\r\n     \r\n    // //   ->    \r\n    // mapping(address => address[])\r\n    // //   \r\n    // mapping(address => uint[])\r\n\r\n    //   \r\n    mapping (uint256 => uint256) _prsCountOfTokenId;\r\n    //   \r\n    mapping (uint256 => uint256) _offerCountOfTokenId;\r\n\r\n        // _address    \r\n        function getAllListFromAccount(address _address) public view returns(preScription[] memory){\r\n            return _allListFromAccount[_address];\r\n        }\r\n\r\n         //     \r\n        // function getAllTokensOwned(address _address) public view returns(uint[] memory){\r\n        //     return _allTokensOwned[_address];\r\n        // }\r\n        // _from _to     \r\n        function getPatientListFromAccount(address _from, address _to) public view returns(preScription[] memory) {\r\n            return _patientListFromAccount[_from][_to];\r\n        }\r\n        function getOfferCountOfToken(uint _tokenId) public view returns(uint){\r\n            return _offerCountOfTokenId[_tokenId];\r\n        }\r\n        //  \r\n        // function getRegularPreScription(address _address) public view returns(preScription[] memory) {\r\n        //     return _regularPrescription[_address];\r\n        // }\r\n       \r\n\r\n\r\n       \r\n        // \r\n        function setPatientAuth(address _address) public {\r\n        _accountAuth[_address] = 1;\r\n    }\r\n        // \r\n        function setDoctorAuth(address _address) public {\r\n        _accountAuth[_address] = 2;\r\n    }\r\n        //\r\n        function setPharmacyAuth(address _address) public {\r\n        _accountAuth[_address] = 3;\r\n    }\r\n        //    \r\n        function getAuthOfAccount(address _address) public view returns(uint){\r\n            return _accountAuth[_address];\r\n        }\r\n\r\n\r\n    //    ?\r\n    //   (  ID)\r\n    mapping (address => uint256[]) _mintedTokens;\r\n\r\n  \r\n    mapping (address => uint256[]) _alltokensOfphaccount;\r\n   \r\n    //       ????\r\n    \r\n    \r\n    //   (msg.sender)      \r\n\r\n    function setMintedTokens(uint _tokenId) public {\r\n        _mintedTokens[msg.sender].push(_tokenId);\r\n    }\r\n    function getMintedTokens() public view returns (uint256[] memory){\r\n        return _mintedTokens[msg.sender];\r\n    }\r\n    \r\n    \r\n\r\n\r\n    \r\n    //   \r\n    modifier prsExists( \r\n        string memory _userName, \r\n        string memory _hosName,\r\n        string memory _dCode,\r\n        string[] memory _dName, // \r\n        uint _pubDate // \r\n  \r\n        ) {\r\n           bool check = false;\r\n           for (uint i = 0; i < preScriptions.length; i++){\r\n                uint cnt = 0; \r\n                for(uint j = 0; j < preScriptions[i].dName.length; j++){\r\n                    if(\r\n                         keccak256(bytes(preScriptions[i].dName[j])) == keccak256(bytes(_dName[j])) \r\n                    ){\r\n                           cnt++;\r\n                    }\r\n                }\r\n            if(preScriptions[i].dName.length == _dName.length && \r\n                    cnt == preScriptions[i].dName.length && \r\n                    preScriptions[i].pubDate == _pubDate &&\r\n                keccak256(bytes(preScriptions[i].userName)) == keccak256(bytes(_userName)) &&\r\n                keccak256(bytes(preScriptions[i].hosName)) == keccak256(bytes(_hosName)) &&\r\n                keccak256(bytes(preScriptions[i].dCode)) == keccak256(bytes(_dCode))\r\n           \r\n            ) {\r\n                check =true;\r\n            }\r\n           } \r\n           require(!check, \"Error : already exists preScription \");\r\n           _;\r\n        }\r\n   \r\n        function getBalanceOf(address _address) public view returns(uint256) {\r\n            return balanceOf(_address);\r\n        }\r\n\r\n        //   / /  \r\n\r\n        // \r\n        function transferPreScription(address _from, address _to, uint _tokenId) public {\r\n            //     \r\n            require(_offerCountOfTokenId[_tokenId] != 0, 'The number of dispensing has been exceeded.');\r\n            //       ex)    \r\n            //      ID\r\n            _allTokensOwned[_to].push(_tokenId);\r\n            _allListFromAccount[_to].push(preScriptions[_tokenId]);\r\n           transferPrs(_from, _to, _tokenId);\r\n        }\r\n\r\n        \r\n        //    \r\n        function transferDoctorToPatient(address _from, address _to, uint _tokenId) public {\r\n              \r\n              transferPrs(_from, _to, _tokenId);\r\n            _allTokensOwned[_to].push(_tokenId);\r\n            _allListFromAccount[_to].push(preScriptions[_tokenId]);\r\n            preScription memory prs = preScriptions[_tokenId];\r\n\r\n        //     //   1    .\r\n        //       if(prs.prescriptionCount > 1){\r\n        //     _regularPrescription[_to].push(prs);\r\n        // }\r\n        //     // _patientListFromAccount[_from][_to].push(_tokenId);\r\n            _patientListFromAccount[_from][_to].push(preScriptions[_tokenId]);\r\n\r\n        }\r\n        //   \r\n        function transferPharmacyToPatient(address _from, address _to, uint _tokenId) public {\r\n            require(_accountAuth[_from] == 3, 'You do not permittion');\r\n            require(_offerCountOfTokenId[_tokenId] != 0, 'The number of dispensing has been exceeded.');\r\n            transferPrs(_from, _to, _tokenId);\r\n            _offerCountOfTokenId[_tokenId]--;\r\n           // _patientListFromAccount[_from][_to].push(_tokenId);\r\n            _patientListFromAccount[_from][_to].push(preScriptions[_tokenId]);\r\n        }\r\n    \r\n//     ()\r\n  function mint(\r\n   \r\n        preScription memory _preScription\r\n         ) \r\n        public prsExists ( _preScription.userName, _preScription.hosName,  _preScription.dCode, _preScription.dName, _preScription.pubDate ) {\r\n            require(_accountAuth[msg.sender] == 2, 'You do not have permission');\r\n          \r\n        preScriptions.push(_preScription);\r\n        \r\n      \r\n        uint _id = preScriptions.length - 1;\r\n\r\n        _allListFromAccount[msg.sender].push(_preScription);\r\n        // _blockTotokenid[block.number] = _id;\r\n        // _addToblock[msg.sender].push(block.number);\r\n        //     0   .\r\n      \r\n        _offerCountOfTokenId[_id] = _preScription.prescriptionCount;\r\n        // .push no longer returns the length but a ref to the added element\r\n        _mint(msg.sender, _id);\r\n        //  (  )\r\n        setMintedTokens(_id);\r\n\r\n        // _preScriptionsExists[_preScription] = true;\r\n\r\n    }\r\n\r\n    function getPreScriptionByIndex(uint index) public view returns(preScription memory) {\r\n        return preScriptions[index];\r\n    }\r\n\r\n    \r\n\r\n\r\n    constructor() ERC721Connector('PreScription','Script') {}\r\n\r\n}\r\n\r\n\r\n",
  "sourcePath": "C:\\Users\\SSAFY\\Documents\\GitHub\\S07P22E205\\smart-contract\\src\\contracts\\PreSciption.sol",
  "compiler": {
    "name": "solc",
    "version": "0.8.17+commit.8df45f5f.Emscripten.clang"
  },
  "schemaVersion": "3.4.10",
  "updatedAt": "2022-10-06T19:09:21.415Z",
  "devdoc": {
    "kind": "dev",
    "methods": {
      "ownerOf(uint256)": {
        "details": "NFTs assigned to zero address are considered invalid, and queries  about them do throw.",
        "params": {
          "_tokenId": "The identifier for an NFT"
        },
        "returns": {
          "_0": "The address of the owner of the NFT"
        }
      },
      "supportsInterface(bytes4)": {
        "details": "Interface identification is specified in ERC-165. This function  uses less than 30,000 gas.",
        "params": {
          "interfaceID": "The interface identifier, as specified in ERC-165"
        },
        "returns": {
          "_0": "`true` if the contract implements `interfaceID` and  `interfaceID` is not 0xffffffff, `false` otherwise"
        }
      }
    },
    "version": 1
  },
  "userdoc": {
    "kind": "user",
    "methods": {
      "ownerOf(uint256)": {
        "notice": "Find the owner of an NFT"
      },
      "supportsInterface(bytes4)": {
        "notice": "Query if a contract implements an interface"
      }
    },
    "version": 1
  }
}