{
  "contractName": "PreScription",
  "abi": [
    {
      "inputs": [],
      "stateMutability": "nonpayable",
      "type": "constructor"
    },
    {
      "anonymous": false,
      "inputs": [
        {
          "indexed": true,
          "internalType": "address",
          "name": "_owner",
          "type": "address"
        },
        {
          "indexed": true,
          "internalType": "address",
          "name": "_approved",
          "type": "address"
        },
        {
          "indexed": true,
          "internalType": "uint256",
          "name": "_tokenId",
          "type": "uint256"
        }
      ],
      "name": "Approval",
      "type": "event"
    },
    {
      "anonymous": false,
      "inputs": [
        {
          "indexed": true,
          "internalType": "address",
          "name": "_from",
          "type": "address"
        },
        {
          "indexed": true,
          "internalType": "address",
          "name": "_to",
          "type": "address"
        },
        {
          "indexed": true,
          "internalType": "uint256",
          "name": "_tokenId",
          "type": "uint256"
        }
      ],
      "name": "Transfer",
      "type": "event"
    },
    {
      "inputs": [
        {
          "internalType": "address",
          "name": "owner",
          "type": "address"
        }
      ],
      "name": "alltokenOfOwner",
      "outputs": [
        {
          "internalType": "uint256[]",
          "name": "",
          "type": "uint256[]"
        }
      ],
      "stateMutability": "view",
      "type": "function",
      "constant": true
    },
    {
      "inputs": [
        {
          "internalType": "address",
          "name": "_to",
          "type": "address"
        },
        {
          "internalType": "uint256",
          "name": "tokenId",
          "type": "uint256"
        }
      ],
      "name": "approve",
      "outputs": [],
      "stateMutability": "nonpayable",
      "type": "function"
    },
    {
      "inputs": [
        {
          "internalType": "address",
          "name": "_owner",
          "type": "address"
        }
      ],
      "name": "balanceOf",
      "outputs": [
        {
          "internalType": "uint256",
          "name": "",
          "type": "uint256"
        }
      ],
      "stateMutability": "view",
      "type": "function",
      "constant": true
    },
    {
      "inputs": [],
      "name": "name",
      "outputs": [
        {
          "internalType": "string",
          "name": "",
          "type": "string"
        }
      ],
      "stateMutability": "view",
      "type": "function",
      "constant": true
    },
    {
      "inputs": [
        {
          "internalType": "uint256",
          "name": "_tokenId",
          "type": "uint256"
        }
      ],
      "name": "ownerOf",
      "outputs": [
        {
          "internalType": "address",
          "name": "",
          "type": "address"
        }
      ],
      "stateMutability": "view",
      "type": "function",
      "constant": true
    },
    {
      "inputs": [
        {
          "internalType": "uint256",
          "name": "",
          "type": "uint256"
        }
      ],
      "name": "preScriptions",
      "outputs": [
        {
          "internalType": "string",
          "name": "userName",
          "type": "string"
        },
        {
          "internalType": "string",
          "name": "hosName",
          "type": "string"
        },
        {
          "internalType": "string",
          "name": "pharName",
          "type": "string"
        },
        {
          "internalType": "string",
          "name": "dCode",
          "type": "string"
        },
        {
          "internalType": "uint256",
          "name": "dispensingCount",
          "type": "uint256"
        },
        {
          "internalType": "uint256",
          "name": "prescriptionCount",
          "type": "uint256"
        },
        {
          "internalType": "uint256",
          "name": "pubDate",
          "type": "uint256"
        },
        {
          "internalType": "uint256",
          "name": "prepDate",
          "type": "uint256"
        }
      ],
      "stateMutability": "view",
      "type": "function",
      "constant": true
    },
    {
      "inputs": [
        {
          "internalType": "bytes4",
          "name": "interfaceID",
          "type": "bytes4"
        }
      ],
      "name": "supportsInterface",
      "outputs": [
        {
          "internalType": "bool",
          "name": "",
          "type": "bool"
        }
      ],
      "stateMutability": "view",
      "type": "function",
      "constant": true
    },
    {
      "inputs": [],
      "name": "symbol",
      "outputs": [
        {
          "internalType": "string",
          "name": "",
          "type": "string"
        }
      ],
      "stateMutability": "view",
      "type": "function",
      "constant": true
    },
    {
      "inputs": [
        {
          "internalType": "uint256",
          "name": "index",
          "type": "uint256"
        }
      ],
      "name": "tokenByIndex",
      "outputs": [
        {
          "internalType": "uint256",
          "name": "",
          "type": "uint256"
        }
      ],
      "stateMutability": "view",
      "type": "function",
      "constant": true
    },
    {
      "inputs": [
        {
          "internalType": "address",
          "name": "owner",
          "type": "address"
        },
        {
          "internalType": "uint256",
          "name": "index",
          "type": "uint256"
        }
      ],
      "name": "tokenOfOwnerByIndex",
      "outputs": [
        {
          "internalType": "uint256",
          "name": "",
          "type": "uint256"
        }
      ],
      "stateMutability": "view",
      "type": "function",
      "constant": true
    },
    {
      "inputs": [],
      "name": "totalSupply",
      "outputs": [
        {
          "internalType": "uint256",
          "name": "",
          "type": "uint256"
        }
      ],
      "stateMutability": "view",
      "type": "function",
      "constant": true
    },
    {
      "inputs": [
        {
          "internalType": "address",
          "name": "_from",
          "type": "address"
        },
        {
          "internalType": "address",
          "name": "_to",
          "type": "address"
        },
        {
          "internalType": "uint256",
          "name": "_tokenId",
          "type": "uint256"
        }
      ],
      "name": "transferFrom",
      "outputs": [],
      "stateMutability": "nonpayable",
      "type": "function"
    },
    {
      "inputs": [
        {
          "internalType": "address",
          "name": "_from",
          "type": "address"
        },
        {
          "internalType": "address",
          "name": "_to",
          "type": "address"
        },
        {
          "internalType": "uint256",
          "name": "_tokenId",
          "type": "uint256"
        }
      ],
      "name": "transferPrs",
      "outputs": [],
      "stateMutability": "nonpayable",
      "type": "function"
    },
    {
      "inputs": [
        {
          "internalType": "address",
          "name": "_address",
          "type": "address"
        }
      ],
      "name": "getAllListFromAccount",
      "outputs": [
        {
          "components": [
            {
              "internalType": "string",
              "name": "userName",
              "type": "string"
            },
            {
              "internalType": "string",
              "name": "hosName",
              "type": "string"
            },
            {
              "internalType": "string",
              "name": "pharName",
              "type": "string"
            },
            {
              "internalType": "string",
              "name": "dCode",
              "type": "string"
            },
            {
              "internalType": "string[]",
              "name": "dName",
              "type": "string[]"
            },
            {
              "internalType": "uint256[]",
              "name": "dosage",
              "type": "uint256[]"
            },
            {
              "internalType": "uint256[]",
              "name": "doseNum",
              "type": "uint256[]"
            },
            {
              "internalType": "uint256[]",
              "name": "dosePeriod",
              "type": "uint256[]"
            },
            {
              "internalType": "uint256",
              "name": "dispensingCount",
              "type": "uint256"
            },
            {
              "internalType": "uint256",
              "name": "prescriptionCount",
              "type": "uint256"
            },
            {
              "internalType": "string[]",
              "name": "howtoTake",
              "type": "string[]"
            },
            {
              "internalType": "uint256",
              "name": "pubDate",
              "type": "uint256"
            },
            {
              "internalType": "uint256",
              "name": "prepDate",
              "type": "uint256"
            }
          ],
          "internalType": "struct PreScription.preScription[]",
          "name": "",
          "type": "tuple[]"
        }
      ],
      "stateMutability": "view",
      "type": "function",
      "constant": true
    },
    {
      "inputs": [
        {
          "internalType": "address",
          "name": "_address",
          "type": "address"
        }
      ],
      "name": "getAllTokensOwned",
      "outputs": [
        {
          "internalType": "uint256[]",
          "name": "",
          "type": "uint256[]"
        }
      ],
      "stateMutability": "view",
      "type": "function",
      "constant": true
    },
    {
      "inputs": [
        {
          "internalType": "address",
          "name": "_from",
          "type": "address"
        },
        {
          "internalType": "address",
          "name": "_to",
          "type": "address"
        }
      ],
      "name": "getPatientListFromAccount",
      "outputs": [
        {
          "components": [
            {
              "internalType": "string",
              "name": "userName",
              "type": "string"
            },
            {
              "internalType": "string",
              "name": "hosName",
              "type": "string"
            },
            {
              "internalType": "string",
              "name": "pharName",
              "type": "string"
            },
            {
              "internalType": "string",
              "name": "dCode",
              "type": "string"
            },
            {
              "internalType": "string[]",
              "name": "dName",
              "type": "string[]"
            },
            {
              "internalType": "uint256[]",
              "name": "dosage",
              "type": "uint256[]"
            },
            {
              "internalType": "uint256[]",
              "name": "doseNum",
              "type": "uint256[]"
            },
            {
              "internalType": "uint256[]",
              "name": "dosePeriod",
              "type": "uint256[]"
            },
            {
              "internalType": "uint256",
              "name": "dispensingCount",
              "type": "uint256"
            },
            {
              "internalType": "uint256",
              "name": "prescriptionCount",
              "type": "uint256"
            },
            {
              "internalType": "string[]",
              "name": "howtoTake",
              "type": "string[]"
            },
            {
              "internalType": "uint256",
              "name": "pubDate",
              "type": "uint256"
            },
            {
              "internalType": "uint256",
              "name": "prepDate",
              "type": "uint256"
            }
          ],
          "internalType": "struct PreScription.preScription[]",
          "name": "",
          "type": "tuple[]"
        }
      ],
      "stateMutability": "view",
      "type": "function",
      "constant": true
    },
    {
      "inputs": [
        {
          "internalType": "uint256",
          "name": "_tokenId",
          "type": "uint256"
        }
      ],
      "name": "getOfferCountOfToken",
      "outputs": [
        {
          "internalType": "uint256",
          "name": "",
          "type": "uint256"
        }
      ],
      "stateMutability": "view",
      "type": "function",
      "constant": true
    },
    {
      "inputs": [
        {
          "internalType": "address",
          "name": "_address",
          "type": "address"
        }
      ],
      "name": "setPatientAuth",
      "outputs": [],
      "stateMutability": "nonpayable",
      "type": "function"
    },
    {
      "inputs": [
        {
          "internalType": "address",
          "name": "_address",
          "type": "address"
        }
      ],
      "name": "setDoctorAuth",
      "outputs": [],
      "stateMutability": "nonpayable",
      "type": "function"
    },
    {
      "inputs": [
        {
          "internalType": "address",
          "name": "_address",
          "type": "address"
        }
      ],
      "name": "setPharmacyAuth",
      "outputs": [],
      "stateMutability": "nonpayable",
      "type": "function"
    },
    {
      "inputs": [
        {
          "internalType": "uint256",
          "name": "_tokenId",
          "type": "uint256"
        }
      ],
      "name": "setMintedTokens",
      "outputs": [],
      "stateMutability": "nonpayable",
      "type": "function"
    },
    {
      "inputs": [],
      "name": "getMintedTokens",
      "outputs": [
        {
          "internalType": "uint256[]",
          "name": "",
          "type": "uint256[]"
        }
      ],
      "stateMutability": "view",
      "type": "function",
      "constant": true
    },
    {
      "inputs": [
        {
          "internalType": "address",
          "name": "_address",
          "type": "address"
        }
      ],
      "name": "getBalanceOf",
      "outputs": [
        {
          "internalType": "uint256",
          "name": "",
          "type": "uint256"
        }
      ],
      "stateMutability": "view",
      "type": "function",
      "constant": true
    },
    {
      "inputs": [
        {
          "internalType": "address",
          "name": "_from",
          "type": "address"
        },
        {
          "internalType": "address",
          "name": "_to",
          "type": "address"
        },
        {
          "internalType": "uint256",
          "name": "_tokenId",
          "type": "uint256"
        }
      ],
      "name": "transferPreScription",
      "outputs": [],
      "stateMutability": "nonpayable",
      "type": "function"
    },
    {
      "inputs": [
        {
          "internalType": "address",
          "name": "_from",
          "type": "address"
        },
        {
          "internalType": "address",
          "name": "_to",
          "type": "address"
        },
        {
          "internalType": "uint256",
          "name": "_tokenId",
          "type": "uint256"
        }
      ],
      "name": "transferDoctorToPatient",
      "outputs": [],
      "stateMutability": "nonpayable",
      "type": "function"
    },
    {
      "inputs": [
        {
          "internalType": "address",
          "name": "_from",
          "type": "address"
        },
        {
          "internalType": "address",
          "name": "_to",
          "type": "address"
        },
        {
          "internalType": "uint256",
          "name": "_tokenId",
          "type": "uint256"
        }
      ],
      "name": "transferPharmacyToPatient",
      "outputs": [],
      "stateMutability": "nonpayable",
      "type": "function"
    },
    {
      "inputs": [
        {
          "components": [
            {
              "internalType": "string",
              "name": "userName",
              "type": "string"
            },
            {
              "internalType": "string",
              "name": "hosName",
              "type": "string"
            },
            {
              "internalType": "string",
              "name": "pharName",
              "type": "string"
            },
            {
              "internalType": "string",
              "name": "dCode",
              "type": "string"
            },
            {
              "internalType": "string[]",
              "name": "dName",
              "type": "string[]"
            },
            {
              "internalType": "uint256[]",
              "name": "dosage",
              "type": "uint256[]"
            },
            {
              "internalType": "uint256[]",
              "name": "doseNum",
              "type": "uint256[]"
            },
            {
              "internalType": "uint256[]",
              "name": "dosePeriod",
              "type": "uint256[]"
            },
            {
              "internalType": "uint256",
              "name": "dispensingCount",
              "type": "uint256"
            },
            {
              "internalType": "uint256",
              "name": "prescriptionCount",
              "type": "uint256"
            },
            {
              "internalType": "string[]",
              "name": "howtoTake",
              "type": "string[]"
            },
            {
              "internalType": "uint256",
              "name": "pubDate",
              "type": "uint256"
            },
            {
              "internalType": "uint256",
              "name": "prepDate",
              "type": "uint256"
            }
          ],
          "internalType": "struct PreScription.preScription",
          "name": "_preScription",
          "type": "tuple"
        }
      ],
      "name": "mint",
      "outputs": [],
      "stateMutability": "nonpayable",
      "type": "function"
    },
    {
      "inputs": [
        {
          "internalType": "uint256",
          "name": "index",
          "type": "uint256"
        }
      ],
      "name": "getPreScriptionByIndex",
      "outputs": [
        {
          "components": [
            {
              "internalType": "string",
              "name": "userName",
              "type": "string"
            },
            {
              "internalType": "string",
              "name": "hosName",
              "type": "string"
            },
            {
              "internalType": "string",
              "name": "pharName",
              "type": "string"
            },
            {
              "internalType": "string",
              "name": "dCode",
              "type": "string"
            },
            {
              "internalType": "string[]",
              "name": "dName",
              "type": "string[]"
            },
            {
              "internalType": "uint256[]",
              "name": "dosage",
              "type": "uint256[]"
            },
            {
              "internalType": "uint256[]",
              "name": "doseNum",
              "type": "uint256[]"
            },
            {
              "internalType": "uint256[]",
              "name": "dosePeriod",
              "type": "uint256[]"
            },
            {
              "internalType": "uint256",
              "name": "dispensingCount",
              "type": "uint256"
            },
            {
              "internalType": "uint256",
              "name": "prescriptionCount",
              "type": "uint256"
            },
            {
              "internalType": "string[]",
              "name": "howtoTake",
              "type": "string[]"
            },
            {
              "internalType": "uint256",
              "name": "pubDate",
              "type": "uint256"
            },
            {
              "internalType": "uint256",
              "name": "prepDate",
              "type": "uint256"
            }
          ],
          "internalType": "struct PreScription.preScription",
          "name": "",
          "type": "tuple"
        }
      ],
      "stateMutability": "view",
      "type": "function",
      "constant": true
    }
  ],
  "bytecode": "0x60806040523480156200001157600080fd5b506040518060400160405280600c81526020017f507265536372697074696f6e00000000000000000000000000000000000000008152506040518060400160405280600681526020017f53637269707400000000000000000000000000000000000000000000000000008152508181620000b17f01ffc9a7a5cef8baa21ed3c5c0d7e23accb804b619e9333b597f47a0d84076e26200021c60201b60201c565b620001047f13b182f4c0e5b2efbac0efe6cf6d756c8b89f4b79c5707a043ed9ea740574ee97f7feaf19471f34a12a7eaf32d5f3090aa2260ea8624dc8a138e74e0bf0f623076186200021c60201b60201c565b81600190816200011591906200056d565b5080600290816200012791906200056d565b5050506200019f7f22c82707ba960a14c7592ffb6b8cfaa073fed0048a84cc7fa41f6b5bd8e7f2e47f3a6eb71757dfc6e784c1459d26270140c2c147d95ca985c80026fc5301c3eca17f8a7e378434598edc36d108689a030cbc9d7d465de4f74c71bae1028eed6a881b18186200021c60201b60201c565b620002147f8230223f691b981717299fae9549350a0d894555723531f02108b1f522c1a7977f6da5e1284143cdd2d15038a59bde3be031250f00291d64494c12d967b3a4e0c37fc53637662700e6c65104059db8bba34439e0c32483ab7c34e3ccae52c739549518186200021c60201b60201c565b5050620006d7565b63ffffffff60e01b817bffffffffffffffffffffffffffffffffffffffffffffffffffffffff19160362000287576040517f08c379a00000000000000000000000000000000000000000000000000000000081526004016200027e90620006b5565b60405180910390fd5b6001600080837bffffffffffffffffffffffffffffffffffffffffffffffffffffffff19167bffffffffffffffffffffffffffffffffffffffffffffffffffffffff1916815260200190815260200160002060006101000a81548160ff02191690831515021790555050565b600081519050919050565b7f4e487b7100000000000000000000000000000000000000000000000000000000600052604160045260246000fd5b7f4e487b7100000000000000000000000000000000000000000000000000000000600052602260045260246000fd5b600060028204905060018216806200037557607f821691505b6020821081036200038b576200038a6200032d565b5b50919050565b60008190508160005260206000209050919050565b60006020601f8301049050919050565b600082821b905092915050565b600060088302620003f57fffffffffffffffffffffffffffffffffffffffffffffffffffffffffffffffff82620003b6565b620004018683620003b6565b95508019841693508086168417925050509392505050565b6000819050919050565b6000819050919050565b60006200044e62000448620004428462000419565b62000423565b62000419565b9050919050565b6000819050919050565b6200046a836200042d565b62000482620004798262000455565b848454620003c3565b825550505050565b600090565b620004996200048a565b620004a68184846200045f565b505050565b5b81811015620004ce57620004c26000826200048f565b600181019050620004ac565b5050565b601f8211156200051d57620004e78162000391565b620004f284620003a6565b8101602085101562000502578190505b6200051a6200051185620003a6565b830182620004ab565b50505b505050565b600082821c905092915050565b6000620005426000198460080262000522565b1980831691505092915050565b60006200055d83836200052f565b9150826002028217905092915050565b6200057882620002f3565b67ffffffffffffffff811115620005945762000593620002fe565b5b620005a082546200035c565b620005ad828285620004d2565b600060209050601f831160018114620005e55760008415620005d0578287015190505b620005dc85826200054f565b8655506200064c565b601f198416620005f58662000391565b60005b828110156200061f57848901518255600182019150602085019450602081019050620005f8565b868310156200063f57848901516200063b601f8916826200052f565b8355505b6001600288020188555050505b505050505050565b600082825260208201905092915050565b7f496e76616c696420696e74657266616365207265717565737400000000000000600082015250565b60006200069d60198362000654565b9150620006aa8262000665565b602082019050919050565b60006020820190508181036000830152620006d0816200068e565b9050919050565b615ae480620006e76000396000f3fe608060405234801561001057600080fd5b50600436106101c45760003560e01c80636f9886b0116100f9578063952d580411610097578063aba55a8611610071578063aba55a8614610566578063d6204d2814610582578063dc9652901461059e578063e241ff48146105bc576101c4565b8063952d5804146104fc57806395d89b41146105185780639b96eece14610536576101c4565b8063785e320d116100d3578063785e320d146104785780637a38699b14610494578063818a6a4e146104b057806383103433146104e0576101c4565b80636f9886b0146103fc57806370a0823114610418578063729efebf14610448576101c4565b806322986c26116101665780634f6ccce7116101405780634f6ccce71461035057806358c7c531146103805780636352211e1461039c57806369c5e936146103cc576101c4565b806322986c26146102d457806323b872dd146103045780632f745c5914610320576101c4565b80630a54de1a116101a25780630a54de1a1461023357806311bb5e7a1461026357806318160ddd1461029a5780631c18c246146102b8576101c4565b806301ffc9a7146101c957806306fdde03146101f9578063095ea7b314610217575b600080fd5b6101e360048036038101906101de9190613e02565b6105ec565b6040516101f09190613e4a565b60405180910390f35b610201610653565b60405161020e9190613ef5565b60405180910390f35b610231600480360381019061022c9190613fab565b6106e5565b005b61024d60048036038101906102489190613feb565b610880565b60405161025a9190614333565b60405180910390f35b61027d60048036038101906102789190613feb565b610de7565b604051610291989796959493929190614364565b60405180910390f35b6102a261105f565b6040516102af91906143fe565b60405180910390f35b6102d260048036038101906102cd9190614419565b61106c565b005b6102ee60048036038101906102e9919061446c565b6112bf565b6040516102fb91906146bf565b60405180910390f35b61031e60048036038101906103199190614419565b6118c6565b005b61033a60048036038101906103359190613fab565b6118e9565b60405161034791906143fe565b60405180910390f35b61036a60048036038101906103659190613feb565b611999565b60405161037791906143fe565b60405180910390f35b61039a60048036038101906103959190614419565b611a0a565b005b6103b660048036038101906103b19190613feb565b611cd3565b6040516103c391906146f0565b60405180910390f35b6103e660048036038101906103e1919061470b565b611d84565b6040516103f391906146bf565b60405180910390f35b61041660048036038101906104119190614419565b61234d565b005b610432600480360381019061042d919061470b565b6126f6565b60405161043f91906143fe565b60405180910390f35b610462600480360381019061045d919061470b565b6127b4565b60405161046f91906147a7565b60405180910390f35b610492600480360381019061048d9190613feb565b61284b565b005b6104ae60048036038101906104a9919061470b565b6128b4565b005b6104ca60048036038101906104c59190613feb565b6128fc565b6040516104d791906143fe565b60405180910390f35b6104fa60048036038101906104f5919061470b565b612919565b005b61051660048036038101906105119190614ce5565b612961565b005b610520613045565b60405161052d9190613ef5565b60405180910390f35b610550600480360381019061054b919061470b565b6130d7565b60405161055d91906143fe565b60405180910390f35b610580600480360381019061057b9190614419565b6130e9565b005b61059c6004803603810190610597919061470b565b613330565b005b6105a6613378565b6040516105b391906147a7565b60405180910390f35b6105d660048036038101906105d1919061470b565b61340d565b6040516105e391906147a7565b60405180910390f35b6000806000837bffffffffffffffffffffffffffffffffffffffffffffffffffffffff19167bffffffffffffffffffffffffffffffffffffffffffffffffffffffff1916815260200190815260200160002060009054906101000a900460ff169050919050565b60606001805461066290614d5d565b80601f016020809104026020016040519081016040528092919081815260200182805461068e90614d5d565b80156106db5780601f106106b0576101008083540402835291602001916106db565b820191906000526020600020905b8154815290600101906020018083116106be57829003601f168201915b5050505050905090565b60006106f082611cd3565b90508073ffffffffffffffffffffffffffffffffffffffff168373ffffffffffffffffffffffffffffffffffffffff1603610760576040517f08c379a000000000000000000000000000000000000000000000000000000000815260040161075790614e00565b60405180910390fd5b8073ffffffffffffffffffffffffffffffffffffffff163373ffffffffffffffffffffffffffffffffffffffff16146107ce576040517f08c379a00000000000000000000000000000000000000000000000000000000081526004016107c590614e92565b60405180910390fd5b826005600084815260200190815260200160002060006101000a81548173ffffffffffffffffffffffffffffffffffffffff021916908373ffffffffffffffffffffffffffffffffffffffff160217905550818373ffffffffffffffffffffffffffffffffffffffff168273ffffffffffffffffffffffffffffffffffffffff167f8c5be1e5ebec7d5bd14f71427d1e84f3dd0314c0f7b2291e5b200ac8c7c3b92560405160405180910390a4505050565b610888613b58565b600a828154811061089c5761089b614eb2565b5b90600052602060002090600d0201604051806101a00160405290816000820180546108c690614d5d565b80601f01602080910402602001604051908101604052809291908181526020018280546108f290614d5d565b801561093f5780601f106109145761010080835404028352916020019161093f565b820191906000526020600020905b81548152906001019060200180831161092257829003601f168201915b5050505050815260200160018201805461095890614d5d565b80601f016020809104026020016040519081016040528092919081815260200182805461098490614d5d565b80156109d15780601f106109a6576101008083540402835291602001916109d1565b820191906000526020600020905b8154815290600101906020018083116109b457829003601f168201915b505050505081526020016002820180546109ea90614d5d565b80601f0160208091040260200160405190810160405280929190818152602001828054610a1690614d5d565b8015610a635780601f10610a3857610100808354040283529160200191610a63565b820191906000526020600020905b815481529060010190602001808311610a4657829003601f168201915b50505050508152602001600382018054610a7c90614d5d565b80601f0160208091040260200160405190810160405280929190818152602001828054610aa890614d5d565b8015610af55780601f10610aca57610100808354040283529160200191610af5565b820191906000526020600020905b815481529060010190602001808311610ad857829003601f168201915b5050505050815260200160048201805480602002602001604051908101604052809291908181526020016000905b82821015610bcf578382906000526020600020018054610b4290614d5d565b80601f0160208091040260200160405190810160405280929190818152602001828054610b6e90614d5d565b8015610bbb5780601f10610b9057610100808354040283529160200191610bbb565b820191906000526020600020905b815481529060010190602001808311610b9e57829003601f168201915b505050505081526020019060010190610b23565b50505050815260200160058201805480602002602001604051908101604052809291908181526020018280548015610c2657602002820191906000526020600020905b815481526020019060010190808311610c12575b5050505050815260200160068201805480602002602001604051908101604052809291908181526020018280548015610c7e57602002820191906000526020600020905b815481526020019060010190808311610c6a575b5050505050815260200160078201805480602002602001604051908101604052809291908181526020018280548015610cd657602002820191906000526020600020905b815481526020019060010190808311610cc2575b505050505081526020016008820154815260200160098201548152602001600a8201805480602002602001604051908101604052809291908181526020016000905b82821015610dc4578382906000526020600020018054610d3790614d5d565b80601f0160208091040260200160405190810160405280929190818152602001828054610d6390614d5d565b8015610db05780601f10610d8557610100808354040283529160200191610db0565b820191906000526020600020905b815481529060010190602001808311610d9357829003601f168201915b505050505081526020019060010190610d18565b505050508152602001600b8201548152602001600c820154815250509050919050565b600a8181548110610df757600080fd5b90600052602060002090600d0201600091509050806000018054610e1a90614d5d565b80601f0160208091040260200160405190810160405280929190818152602001828054610e4690614d5d565b8015610e935780601f10610e6857610100808354040283529160200191610e93565b820191906000526020600020905b815481529060010190602001808311610e7657829003601f168201915b505050505090806001018054610ea890614d5d565b80601f0160208091040260200160405190810160405280929190818152602001828054610ed490614d5d565b8015610f215780601f10610ef657610100808354040283529160200191610f21565b820191906000526020600020905b815481529060010190602001808311610f0457829003601f168201915b505050505090806002018054610f3690614d5d565b80601f0160208091040260200160405190810160405280929190818152602001828054610f6290614d5d565b8015610faf5780601f10610f8457610100808354040283529160200191610faf565b820191906000526020600020905b815481529060010190602001808311610f9257829003601f168201915b505050505090806003018054610fc490614d5d565b80601f0160208091040260200160405190810160405280929190818152602001828054610ff090614d5d565b801561103d5780601f106110125761010080835404028352916020019161103d565b820191906000526020600020905b81548152906001019060200180831161102057829003601f168201915b50505050509080600801549080600901549080600b01549080600c0154905088565b6000600680549050905090565b6110778383836118c6565b60006009600083815260200190815260200160002054905060008190505b6001600860008773ffffffffffffffffffffffffffffffffffffffff1673ffffffffffffffffffffffffffffffffffffffff168152602001908152602001600020805490506110e49190614f10565b81101561124957600860008673ffffffffffffffffffffffffffffffffffffffff1673ffffffffffffffffffffffffffffffffffffffff1681526020019081526020016000206001826111379190614f44565b8154811061114857611147614eb2565b5b9060005260206000200154600860008773ffffffffffffffffffffffffffffffffffffffff1673ffffffffffffffffffffffffffffffffffffffff16815260200190815260200160002082815481106111a4576111a3614eb2565b5b906000526020600020018190555060096000600860008873ffffffffffffffffffffffffffffffffffffffff1673ffffffffffffffffffffffffffffffffffffffff168152602001908152602001600020838154811061120757611206614eb2565b5b90600052602060002001548152602001908152602001600020600081548092919061123190614f78565b9190505550808061124190614fa1565b915050611095565b50600860008573ffffffffffffffffffffffffffffffffffffffff1673ffffffffffffffffffffffffffffffffffffffff16815260200190815260200160002080548061129957611298614fe9565b5b600190038181906000526020600020016000905590556112b983836134a4565b50505050565b6060601260008473ffffffffffffffffffffffffffffffffffffffff1673ffffffffffffffffffffffffffffffffffffffff16815260200190815260200160002060008373ffffffffffffffffffffffffffffffffffffffff1673ffffffffffffffffffffffffffffffffffffffff168152602001908152602001600020805480602002602001604051908101604052809291908181526020016000905b828210156118ba57838290600052602060002090600d0201604051806101a001604052908160008201805461139190614d5d565b80601f01602080910402602001604051908101604052809291908181526020018280546113bd90614d5d565b801561140a5780601f106113df5761010080835404028352916020019161140a565b820191906000526020600020905b8154815290600101906020018083116113ed57829003601f168201915b5050505050815260200160018201805461142390614d5d565b80601f016020809104026020016040519081016040528092919081815260200182805461144f90614d5d565b801561149c5780601f106114715761010080835404028352916020019161149c565b820191906000526020600020905b81548152906001019060200180831161147f57829003601f168201915b505050505081526020016002820180546114b590614d5d565b80601f01602080910402602001604051908101604052809291908181526020018280546114e190614d5d565b801561152e5780601f106115035761010080835404028352916020019161152e565b820191906000526020600020905b81548152906001019060200180831161151157829003601f168201915b5050505050815260200160038201805461154790614d5d565b80601f016020809104026020016040519081016040528092919081815260200182805461157390614d5d565b80156115c05780601f10611595576101008083540402835291602001916115c0565b820191906000526020600020905b8154815290600101906020018083116115a357829003601f168201915b5050505050815260200160048201805480602002602001604051908101604052809291908181526020016000905b8282101561169a57838290600052602060002001805461160d90614d5d565b80601f016020809104026020016040519081016040528092919081815260200182805461163990614d5d565b80156116865780601f1061165b57610100808354040283529160200191611686565b820191906000526020600020905b81548152906001019060200180831161166957829003601f168201915b5050505050815260200190600101906115ee565b505050508152602001600582018054806020026020016040519081016040528092919081815260200182805480156116f157602002820191906000526020600020905b8154815260200190600101908083116116dd575b505050505081526020016006820180548060200260200160405190810160405280929190818152602001828054801561174957602002820191906000526020600020905b815481526020019060010190808311611735575b50505050508152602001600782018054806020026020016040519081016040528092919081815260200182805480156117a157602002820191906000526020600020905b81548152602001906001019080831161178d575b505050505081526020016008820154815260200160098201548152602001600a8201805480602002602001604051908101604052809291908181526020016000905b8282101561188f57838290600052602060002001805461180290614d5d565b80601f016020809104026020016040519081016040528092919081815260200182805461182e90614d5d565b801561187b5780601f106118505761010080835404028352916020019161187b565b820191906000526020600020905b81548152906001019060200180831161185e57829003601f168201915b5050505050815260200190600101906117e3565b505050508152602001600b8201548152602001600c820154815250508152602001906001019061135d565b50505050905092915050565b6118d03382613568565b6118d957600080fd5b6118e48383836135f7565b505050565b60006118f4836126f6565b8210611935576040517f08c379a000000000000000000000000000000000000000000000000000000000815260040161192c90615064565b60405180910390fd5b600860008473ffffffffffffffffffffffffffffffffffffffff1673ffffffffffffffffffffffffffffffffffffffff168152602001908152602001600020828154811061198657611985614eb2565b5b9060005260206000200154905092915050565b60006119a361105f565b82106119e4576040517f08c379a00000000000000000000000000000000000000000000000000000000081526004016119db906150d0565b60405180910390fd5b600682815481106119f8576119f7614eb2565b5b90600052602060002001549050919050565b6003600d60008573ffffffffffffffffffffffffffffffffffffffff1673ffffffffffffffffffffffffffffffffffffffff1681526020019081526020016000205414611a8c576040517f08c379a0000000000000000000000000000000000000000000000000000000008152600401611a839061513c565b60405180910390fd5b6000601560008381526020019081526020016000205403611ae2576040517f08c379a0000000000000000000000000000000000000000000000000000000008152600401611ad9906151ce565b60405180910390fd5b611aed83838361106c565b601560008281526020019081526020016000206000815480929190611b1190614f78565b9190505550601260008473ffffffffffffffffffffffffffffffffffffffff1673ffffffffffffffffffffffffffffffffffffffff16815260200190815260200160002060008373ffffffffffffffffffffffffffffffffffffffff1673ffffffffffffffffffffffffffffffffffffffff168152602001908152602001600020600a8281548110611ba657611ba5614eb2565b5b90600052602060002090600d020190806001815401808255809150506001900390600052602060002090600d020160009091909190915060008201816000019081611bf191906153b0565b5060018201816001019081611c0691906153b0565b5060028201816002019081611c1b91906153b0565b5060038201816003019081611c3091906153b0565b506004820181600401908054611c47929190613bc0565b506005820181600501908054611c5e929190613c1d565b506006820181600601908054611c75929190613c1d565b506007820181600701908054611c8c929190613c1d565b506008820154816008015560098201548160090155600a820181600a01908054611cb7929190613bc0565b50600b82015481600b0155600c82015481600c01555050505050565b6000806003600084815260200190815260200160002060009054906101000a900473ffffffffffffffffffffffffffffffffffffffff169050600073ffffffffffffffffffffffffffffffffffffffff168173ffffffffffffffffffffffffffffffffffffffff1603611d7b576040517f08c379a0000000000000000000000000000000000000000000000000000000008152600401611d729061550a565b60405180910390fd5b80915050919050565b6060600c60008373ffffffffffffffffffffffffffffffffffffffff1673ffffffffffffffffffffffffffffffffffffffff168152602001908152602001600020805480602002602001604051908101604052809291908181526020016000905b8282101561234257838290600052602060002090600d0201604051806101a0016040529081600082018054611e1990614d5d565b80601f0160208091040260200160405190810160405280929190818152602001828054611e4590614d5d565b8015611e925780601f10611e6757610100808354040283529160200191611e92565b820191906000526020600020905b815481529060010190602001808311611e7557829003601f168201915b50505050508152602001600182018054611eab90614d5d565b80601f0160208091040260200160405190810160405280929190818152602001828054611ed790614d5d565b8015611f245780601f10611ef957610100808354040283529160200191611f24565b820191906000526020600020905b815481529060010190602001808311611f0757829003601f168201915b50505050508152602001600282018054611f3d90614d5d565b80601f0160208091040260200160405190810160405280929190818152602001828054611f6990614d5d565b8015611fb65780601f10611f8b57610100808354040283529160200191611fb6565b820191906000526020600020905b815481529060010190602001808311611f9957829003601f168201915b50505050508152602001600382018054611fcf90614d5d565b80601f0160208091040260200160405190810160405280929190818152602001828054611ffb90614d5d565b80156120485780601f1061201d57610100808354040283529160200191612048565b820191906000526020600020905b81548152906001019060200180831161202b57829003601f168201915b5050505050815260200160048201805480602002602001604051908101604052809291908181526020016000905b8282101561212257838290600052602060002001805461209590614d5d565b80601f01602080910402602001604051908101604052809291908181526020018280546120c190614d5d565b801561210e5780601f106120e35761010080835404028352916020019161210e565b820191906000526020600020905b8154815290600101906020018083116120f157829003601f168201915b505050505081526020019060010190612076565b5050505081526020016005820180548060200260200160405190810160405280929190818152602001828054801561217957602002820191906000526020600020905b815481526020019060010190808311612165575b50505050508152602001600682018054806020026020016040519081016040528092919081815260200182805480156121d157602002820191906000526020600020905b8154815260200190600101908083116121bd575b505050505081526020016007820180548060200260200160405190810160405280929190818152602001828054801561222957602002820191906000526020600020905b815481526020019060010190808311612215575b505050505081526020016008820154815260200160098201548152602001600a8201805480602002602001604051908101604052809291908181526020016000905b8282101561231757838290600052602060002001805461228a90614d5d565b80601f01602080910402602001604051908101604052809291908181526020018280546122b690614d5d565b80156123035780601f106122d857610100808354040283529160200191612303565b820191906000526020600020905b8154815290600101906020018083116122e657829003601f168201915b50505050508152602001906001019061226b565b505050508152602001600b8201548152602001600c8201548152505081526020019060010190611de5565b505050509050919050565b61235883838361106c565b600b60008373ffffffffffffffffffffffffffffffffffffffff1673ffffffffffffffffffffffffffffffffffffffff168152602001908152602001600020819080600181540180825580915050600190039060005260206000200160009091909190915055600c60008373ffffffffffffffffffffffffffffffffffffffff1673ffffffffffffffffffffffffffffffffffffffff168152602001908152602001600020600a828154811061241157612410614eb2565b5b90600052602060002090600d020190806001815401808255809150506001900390600052602060002090600d02016000909190919091506000820181600001908161245c91906153b0565b506001820181600101908161247191906153b0565b506002820181600201908161248691906153b0565b506003820181600301908161249b91906153b0565b5060048201816004019080546124b2929190613bc0565b5060058201816005019080546124c9929190613c1d565b5060068201816006019080546124e0929190613c1d565b5060078201816007019080546124f7929190613c1d565b506008820154816008015560098201548160090155600a820181600a01908054612522929190613bc0565b50600b82015481600b0155600c82015481600c01555050601260008473ffffffffffffffffffffffffffffffffffffffff1673ffffffffffffffffffffffffffffffffffffffff16815260200190815260200160002060008373ffffffffffffffffffffffffffffffffffffffff1673ffffffffffffffffffffffffffffffffffffffff168152602001908152602001600020600a82815481106125c9576125c8614eb2565b5b90600052602060002090600d020190806001815401808255809150506001900390600052602060002090600d02016000909190919091506000820181600001908161261491906153b0565b506001820181600101908161262991906153b0565b506002820181600201908161263e91906153b0565b506003820181600301908161265391906153b0565b50600482018160040190805461266a929190613bc0565b506005820181600501908054612681929190613c1d565b506006820181600601908054612698929190613c1d565b5060078201816007019080546126af929190613c1d565b506008820154816008015560098201548160090155600a820181600a019080546126da929190613bc0565b50600b82015481600b0155600c82015481600c01555050505050565b60008073ffffffffffffffffffffffffffffffffffffffff168273ffffffffffffffffffffffffffffffffffffffff1603612766576040517f08c379a000000000000000000000000000000000000000000000000000000000815260040161275d9061550a565b60405180910390fd5b6127ad600460008473ffffffffffffffffffffffffffffffffffffffff1673ffffffffffffffffffffffffffffffffffffffff16815260200190815260200160002061381c565b9050919050565b6060600b60008373ffffffffffffffffffffffffffffffffffffffff1673ffffffffffffffffffffffffffffffffffffffff16815260200190815260200160002080548060200260200160405190810160405280929190818152602001828054801561283f57602002820191906000526020600020905b81548152602001906001019080831161282b575b50505050509050919050565b601660003373ffffffffffffffffffffffffffffffffffffffff1673ffffffffffffffffffffffffffffffffffffffff16815260200190815260200160002081908060018154018082558091505060019003906000526020600020016000909190919091505550565b6003600d60008373ffffffffffffffffffffffffffffffffffffffff1673ffffffffffffffffffffffffffffffffffffffff1681526020019081526020016000208190555050565b600060156000838152602001908152602001600020549050919050565b6001600d60008373ffffffffffffffffffffffffffffffffffffffff1673ffffffffffffffffffffffffffffffffffffffff1681526020019081526020016000208190555050565b80600001518160200151826060015183608001518461016001516000805b600a80549050811015612bee576000805b600a83815481106129a4576129a3614eb2565b5b90600052602060002090600d020160040180549050811015612a5f578581815181106129d3576129d2614eb2565b5b602002602001015180519060200120600a84815481106129f6576129f5614eb2565b5b90600052602060002090600d02016004018281548110612a1957612a18614eb2565b5b90600052602060002001604051612a3091906155cd565b604051809103902003612a4c578180612a4890614fa1565b9250505b8080612a5790614fa1565b915050612990565b508451600a8381548110612a7657612a75614eb2565b5b90600052602060002090600d020160040180549050148015612abf5750600a8281548110612aa757612aa6614eb2565b5b90600052602060002090600d02016004018054905081145b8015612aef575083600a8381548110612adb57612ada614eb2565b5b90600052602060002090600d0201600b0154145b8015612b3a57508780519060200120600a8381548110612b1257612b11614eb2565b5b90600052602060002090600d0201600001604051612b3091906155cd565b6040518091039020145b8015612b8557508680519060200120600a8381548110612b5d57612b5c614eb2565b5b90600052602060002090600d0201600101604051612b7b91906155cd565b6040518091039020145b8015612bd057508580519060200120600a8381548110612ba857612ba7614eb2565b5b90600052602060002090600d0201600301604051612bc691906155cd565b6040518091039020145b15612bda57600192505b508080612be690614fa1565b91505061297f565b508015612c30576040517f08c379a0000000000000000000000000000000000000000000000000000000008152600401612c2790615656565b60405180910390fd5b6002600d60003373ffffffffffffffffffffffffffffffffffffffff1673ffffffffffffffffffffffffffffffffffffffff1681526020019081526020016000205414612cb2576040517f08c379a0000000000000000000000000000000000000000000000000000000008152600401612ca9906156c2565b60405180910390fd5b600a8790806001815401808255809150506001900390600052602060002090600d02016000909190919091506000820151816000019081612cf391906156e2565b506020820151816001019081612d0991906156e2565b506040820151816002019081612d1f91906156e2565b506060820151816003019081612d3591906156e2565b506080820151816004019080519060200190612d52929190613c6f565b5060a0820151816005019080519060200190612d6f929190613cc8565b5060c0820151816006019080519060200190612d8c929190613cc8565b5060e0820151816007019080519060200190612da9929190613cc8565b506101008201518160080155610120820151816009015561014082015181600a019080519060200190612ddd929190613c6f565b5061016082015181600b015561018082015181600c0155505060006001600a80549050612e0a9190614f10565b9050600c60003373ffffffffffffffffffffffffffffffffffffffff1673ffffffffffffffffffffffffffffffffffffffff1681526020019081526020016000208890806001815401808255809150506001900390600052602060002090600d02016000909190919091506000820151816000019081612e8a91906156e2565b506020820151816001019081612ea091906156e2565b506040820151816002019081612eb691906156e2565b506060820151816003019081612ecc91906156e2565b506080820151816004019080519060200190612ee9929190613c6f565b5060a0820151816005019080519060200190612f06929190613cc8565b5060c0820151816006019080519060200190612f23929190613cc8565b5060e0820151816007019080519060200190612f40929190613cc8565b506101008201518160080155610120820151816009015561014082015181600a019080519060200190612f74929190613c6f565b5061016082015181600b015561018082015181600c0155505080600f600043815260200190815260200160002081905550601060003373ffffffffffffffffffffffffffffffffffffffff1673ffffffffffffffffffffffffffffffffffffffff1681526020019081526020016000204390806001815401808255809150506001900390600052602060002001600090919091909150558761012001516015600083815260200190815260200160002081905550613032338261382a565b61303b8161284b565b5050505050505050565b60606002805461305490614d5d565b80601f016020809104026020016040519081016040528092919081815260200182805461308090614d5d565b80156130cd5780601f106130a2576101008083540402835291602001916130cd565b820191906000526020600020905b8154815290600101906020018083116130b057829003601f168201915b5050505050905090565b60006130e2826126f6565b9050919050565b600060156000838152602001908152602001600020540361313f576040517f08c379a0000000000000000000000000000000000000000000000000000000008152600401613136906151ce565b60405180910390fd5b600b60008373ffffffffffffffffffffffffffffffffffffffff1673ffffffffffffffffffffffffffffffffffffffff168152602001908152602001600020819080600181540180825580915050600190039060005260206000200160009091909190915055600c60008373ffffffffffffffffffffffffffffffffffffffff1673ffffffffffffffffffffffffffffffffffffffff168152602001908152602001600020600a82815481106131f8576131f7614eb2565b5b90600052602060002090600d020190806001815401808255809150506001900390600052602060002090600d02016000909190919091506000820181600001908161324391906153b0565b506001820181600101908161325891906153b0565b506002820181600201908161326d91906153b0565b506003820181600301908161328291906153b0565b506004820181600401908054613299929190613bc0565b5060058201816005019080546132b0929190613c1d565b5060068201816006019080546132c7929190613c1d565b5060078201816007019080546132de929190613c1d565b506008820154816008015560098201548160090155600a820181600a01908054613309929190613bc0565b50600b82015481600b0155600c82015481600c0155505061332b83838361106c565b505050565b6002600d60008373ffffffffffffffffffffffffffffffffffffffff1673ffffffffffffffffffffffffffffffffffffffff1681526020019081526020016000208190555050565b6060601660003373ffffffffffffffffffffffffffffffffffffffff1673ffffffffffffffffffffffffffffffffffffffff16815260200190815260200160002080548060200260200160405190810160405280929190818152602001828054801561340357602002820191906000526020600020905b8154815260200190600101908083116133ef575b5050505050905090565b6060600860008373ffffffffffffffffffffffffffffffffffffffff1673ffffffffffffffffffffffffffffffffffffffff16815260200190815260200160002080548060200260200160405190810160405280929190818152602001828054801561349857602002820191906000526020600020905b815481526020019060010190808311613484575b50505050509050919050565b600860008373ffffffffffffffffffffffffffffffffffffffff1673ffffffffffffffffffffffffffffffffffffffff168152602001908152602001600020805490506009600083815260200190815260200160002081905550600860008373ffffffffffffffffffffffffffffffffffffffff1673ffffffffffffffffffffffffffffffffffffffff1681526020019081526020016000208190806001815401808255809150506001900390600052602060002001600090919091909150555050565b60006135738261384b565b6135b2576040517f08c379a00000000000000000000000000000000000000000000000000000000081526004016135a990615800565b60405180910390fd5b60006135bd83611cd3565b90508073ffffffffffffffffffffffffffffffffffffffff168473ffffffffffffffffffffffffffffffffffffffff161491505092915050565b600073ffffffffffffffffffffffffffffffffffffffff168273ffffffffffffffffffffffffffffffffffffffff1603613666576040517f08c379a000000000000000000000000000000000000000000000000000000000815260040161365d90615892565b60405180910390fd5b8273ffffffffffffffffffffffffffffffffffffffff1661368682611cd3565b73ffffffffffffffffffffffffffffffffffffffff16146136dc576040517f08c379a00000000000000000000000000000000000000000000000000000000081526004016136d390615924565b60405180910390fd5b613723600460008573ffffffffffffffffffffffffffffffffffffffff1673ffffffffffffffffffffffffffffffffffffffff1681526020019081526020016000206138bd565b61376a600460008473ffffffffffffffffffffffffffffffffffffffff1673ffffffffffffffffffffffffffffffffffffffff1681526020019081526020016000206138e0565b816003600083815260200190815260200160002060006101000a81548173ffffffffffffffffffffffffffffffffffffffff021916908373ffffffffffffffffffffffffffffffffffffffff160217905550808273ffffffffffffffffffffffffffffffffffffffff168473ffffffffffffffffffffffffffffffffffffffff167fddf252ad1be2c89b69c2b068fc378daa952ba7f163c4a11628f55a4df523b3ef60405160405180910390a4505050565b600081600001549050919050565b61383482826138ff565b61383d81613ab0565b61384782826134a4565b5050565b6000806003600084815260200190815260200160002060009054906101000a900473ffffffffffffffffffffffffffffffffffffffff169050600073ffffffffffffffffffffffffffffffffffffffff168173ffffffffffffffffffffffffffffffffffffffff161415915050919050565b6138d560018260000154613af990919063ffffffff16565b816000018190555050565b60018160000160008282546138f59190614f44565b9250508190555050565b600073ffffffffffffffffffffffffffffffffffffffff168273ffffffffffffffffffffffffffffffffffffffff160361396e576040517f08c379a0000000000000000000000000000000000000000000000000000000008152600401613965906159b6565b60405180910390fd5b6139778161384b565b156139b7576040517f08c379a00000000000000000000000000000000000000000000000000000000081526004016139ae90615a22565b60405180910390fd5b816003600083815260200190815260200160002060006101000a81548173ffffffffffffffffffffffffffffffffffffffff021916908373ffffffffffffffffffffffffffffffffffffffff160217905550613a50600460008473ffffffffffffffffffffffffffffffffffffffff1673ffffffffffffffffffffffffffffffffffffffff1681526020019081526020016000206138e0565b808273ffffffffffffffffffffffffffffffffffffffff16600073ffffffffffffffffffffffffffffffffffffffff167fddf252ad1be2c89b69c2b068fc378daa952ba7f163c4a11628f55a4df523b3ef60405160405180910390a45050565b6006805490506007600083815260200190815260200160002081905550600681908060018154018082558091505060019003906000526020600020016000909190919091505550565b600082821115613b3e576040517f08c379a0000000000000000000000000000000000000000000000000000000008152600401613b3590615a8e565b60405180910390fd5b60008284613b4c9190614f10565b90508091505092915050565b604051806101a00160405280606081526020016060815260200160608152602001606081526020016060815260200160608152602001606081526020016060815260200160008152602001600081526020016060815260200160008152602001600081525090565b828054828255906000526020600020908101928215613c0c5760005260206000209182015b82811115613c0b5782829081613bfb91906153b0565b5091600101919060010190613be5565b5b509050613c199190613d15565b5090565b828054828255906000526020600020908101928215613c5e5760005260206000209182015b82811115613c5d578254825591600101919060010190613c42565b5b509050613c6b9190613d39565b5090565b828054828255906000526020600020908101928215613cb7579160200282015b82811115613cb6578251829081613ca691906156e2565b5091602001919060010190613c8f565b5b509050613cc49190613d15565b5090565b828054828255906000526020600020908101928215613d04579160200282015b82811115613d03578251825591602001919060010190613ce8565b5b509050613d119190613d39565b5090565b5b80821115613d355760008181613d2c9190613d56565b50600101613d16565b5090565b5b80821115613d52576000816000905550600101613d3a565b5090565b508054613d6290614d5d565b6000825580601f10613d745750613d93565b601f016020900490600052602060002090810190613d929190613d39565b5b50565b6000604051905090565b600080fd5b600080fd5b60007fffffffff0000000000000000000000000000000000000000000000000000000082169050919050565b613ddf81613daa565b8114613dea57600080fd5b50565b600081359050613dfc81613dd6565b92915050565b600060208284031215613e1857613e17613da0565b5b6000613e2684828501613ded565b91505092915050565b60008115159050919050565b613e4481613e2f565b82525050565b6000602082019050613e5f6000830184613e3b565b92915050565b600081519050919050565b600082825260208201905092915050565b60005b83811015613e9f578082015181840152602081019050613e84565b60008484015250505050565b6000601f19601f8301169050919050565b6000613ec782613e65565b613ed18185613e70565b9350613ee1818560208601613e81565b613eea81613eab565b840191505092915050565b60006020820190508181036000830152613f0f8184613ebc565b905092915050565b600073ffffffffffffffffffffffffffffffffffffffff82169050919050565b6000613f4282613f17565b9050919050565b613f5281613f37565b8114613f5d57600080fd5b50565b600081359050613f6f81613f49565b92915050565b6000819050919050565b613f8881613f75565b8114613f9357600080fd5b50565b600081359050613fa581613f7f565b92915050565b60008060408385031215613fc257613fc1613da0565b5b6000613fd085828601613f60565b9250506020613fe185828601613f96565b9150509250929050565b60006020828403121561400157614000613da0565b5b600061400f84828501613f96565b91505092915050565b600082825260208201905092915050565b600061403482613e65565b61403e8185614018565b935061404e818560208601613e81565b61405781613eab565b840191505092915050565b600081519050919050565b600082825260208201905092915050565b6000819050602082019050919050565b600061409a8383614029565b905092915050565b6000602082019050919050565b60006140ba82614062565b6140c4818561406d565b9350836020820285016140d68561407e565b8060005b8581101561411257848403895281516140f3858261408e565b94506140fe836140a2565b925060208a019950506001810190506140da565b50829750879550505050505092915050565b600081519050919050565b600082825260208201905092915050565b6000819050602082019050919050565b61415981613f75565b82525050565b600061416b8383614150565b60208301905092915050565b6000602082019050919050565b600061418f82614124565b614199818561412f565b93506141a483614140565b8060005b838110156141d55781516141bc888261415f565b97506141c783614177565b9250506001810190506141a8565b5085935050505092915050565b60006101a08301600083015184820360008601526142008282614029565b9150506020830151848203602086015261421a8282614029565b915050604083015184820360408601526142348282614029565b9150506060830151848203606086015261424e8282614029565b9150506080830151848203608086015261426882826140af565b91505060a083015184820360a08601526142828282614184565b91505060c083015184820360c086015261429c8282614184565b91505060e083015184820360e08601526142b68282614184565b9150506101008301516142cd610100860182614150565b506101208301516142e2610120860182614150565b506101408301518482036101408601526142fc82826140af565b915050610160830151614313610160860182614150565b50610180830151614328610180860182614150565b508091505092915050565b6000602082019050818103600083015261434d81846141e2565b905092915050565b61435e81613f75565b82525050565b600061010082019050818103600083015261437f818b613ebc565b90508181036020830152614393818a613ebc565b905081810360408301526143a78189613ebc565b905081810360608301526143bb8188613ebc565b90506143ca6080830187614355565b6143d760a0830186614355565b6143e460c0830185614355565b6143f160e0830184614355565b9998505050505050505050565b60006020820190506144136000830184614355565b92915050565b60008060006060848603121561443257614431613da0565b5b600061444086828701613f60565b935050602061445186828701613f60565b925050604061446286828701613f96565b9150509250925092565b6000806040838503121561448357614482613da0565b5b600061449185828601613f60565b92505060206144a285828601613f60565b9150509250929050565b600081519050919050565b600082825260208201905092915050565b6000819050602082019050919050565b60006101a08301600083015184820360008601526144f68282614029565b915050602083015184820360208601526145108282614029565b9150506040830151848203604086015261452a8282614029565b915050606083015184820360608601526145448282614029565b9150506080830151848203608086015261455e82826140af565b91505060a083015184820360a08601526145788282614184565b91505060c083015184820360c08601526145928282614184565b91505060e083015184820360e08601526145ac8282614184565b9150506101008301516145c3610100860182614150565b506101208301516145d8610120860182614150565b506101408301518482036101408601526145f282826140af565b915050610160830151614609610160860182614150565b5061018083015161461e610180860182614150565b508091505092915050565b600061463583836144d8565b905092915050565b6000602082019050919050565b6000614655826144ac565b61465f81856144b7565b935083602082028501614671856144c8565b8060005b858110156146ad578484038952815161468e8582614629565b94506146998361463d565b925060208a01995050600181019050614675565b50829750879550505050505092915050565b600060208201905081810360008301526146d9818461464a565b905092915050565b6146ea81613f37565b82525050565b600060208201905061470560008301846146e1565b92915050565b60006020828403121561472157614720613da0565b5b600061472f84828501613f60565b91505092915050565b600082825260208201905092915050565b600061475482614124565b61475e8185614738565b935061476983614140565b8060005b8381101561479a578151614781888261415f565b975061478c83614177565b92505060018101905061476d565b5085935050505092915050565b600060208201905081810360008301526147c18184614749565b905092915050565b600080fd5b7f4e487b7100000000000000000000000000000000000000000000000000000000600052604160045260246000fd5b61480682613eab565b810181811067ffffffffffffffff82111715614825576148246147ce565b5b80604052505050565b6000614838613d96565b905061484482826147fd565b919050565b600080fd5b600080fd5b600080fd5b600067ffffffffffffffff821115614873576148726147ce565b5b61487c82613eab565b9050602081019050919050565b82818337600083830152505050565b60006148ab6148a684614858565b61482e565b9050828152602081018484840111156148c7576148c6614853565b5b6148d2848285614889565b509392505050565b600082601f8301126148ef576148ee61484e565b5b81356148ff848260208601614898565b91505092915050565b600067ffffffffffffffff821115614923576149226147ce565b5b602082029050602081019050919050565b600080fd5b600061494c61494784614908565b61482e565b9050808382526020820190506020840283018581111561496f5761496e614934565b5b835b818110156149b657803567ffffffffffffffff8111156149945761499361484e565b5b8086016149a189826148da565b85526020850194505050602081019050614971565b5050509392505050565b600082601f8301126149d5576149d461484e565b5b81356149e5848260208601614939565b91505092915050565b600067ffffffffffffffff821115614a0957614a086147ce565b5b602082029050602081019050919050565b6000614a2d614a28846149ee565b61482e565b90508083825260208201905060208402830185811115614a5057614a4f614934565b5b835b81811015614a795780614a658882613f96565b845260208401935050602081019050614a52565b5050509392505050565b600082601f830112614a9857614a9761484e565b5b8135614aa8848260208601614a1a565b91505092915050565b60006101a08284031215614ac857614ac76147c9565b5b614ad36101a061482e565b9050600082013567ffffffffffffffff811115614af357614af2614849565b5b614aff848285016148da565b600083015250602082013567ffffffffffffffff811115614b2357614b22614849565b5b614b2f848285016148da565b602083015250604082013567ffffffffffffffff811115614b5357614b52614849565b5b614b5f848285016148da565b604083015250606082013567ffffffffffffffff811115614b8357614b82614849565b5b614b8f848285016148da565b606083015250608082013567ffffffffffffffff811115614bb357614bb2614849565b5b614bbf848285016149c0565b60808301525060a082013567ffffffffffffffff811115614be357614be2614849565b5b614bef84828501614a83565b60a08301525060c082013567ffffffffffffffff811115614c1357614c12614849565b5b614c1f84828501614a83565b60c08301525060e082013567ffffffffffffffff811115614c4357614c42614849565b5b614c4f84828501614a83565b60e083015250610100614c6484828501613f96565b61010083015250610120614c7a84828501613f96565b6101208301525061014082013567ffffffffffffffff811115614ca057614c9f614849565b5b614cac848285016149c0565b61014083015250610160614cc284828501613f96565b61016083015250610180614cd884828501613f96565b6101808301525092915050565b600060208284031215614cfb57614cfa613da0565b5b600082013567ffffffffffffffff811115614d1957614d18613da5565b5b614d2584828501614ab1565b91505092915050565b7f4e487b7100000000000000000000000000000000000000000000000000000000600052602260045260246000fd5b60006002820490506001821680614d7557607f821691505b602082108103614d8857614d87614d2e565b5b50919050565b7f4572726f72202d20617070726f76616c20746f2063757272656e74206f776e6560008201527f7200000000000000000000000000000000000000000000000000000000000000602082015250565b6000614dea602183613e70565b9150614df582614d8e565b604082019050919050565b60006020820190508181036000830152614e1981614ddd565b9050919050565b7f43757272656e742063616c6c6572206973206e6f7420746865206f776e65722060008201527f6f662074686520746f6b656e0000000000000000000000000000000000000000602082015250565b6000614e7c602c83613e70565b9150614e8782614e20565b604082019050919050565b60006020820190508181036000830152614eab81614e6f565b9050919050565b7f4e487b7100000000000000000000000000000000000000000000000000000000600052603260045260246000fd5b7f4e487b7100000000000000000000000000000000000000000000000000000000600052601160045260246000fd5b6000614f1b82613f75565b9150614f2683613f75565b9250828203905081811115614f3e57614f3d614ee1565b5b92915050565b6000614f4f82613f75565b9150614f5a83613f75565b9250828201905080821115614f7257614f71614ee1565b5b92915050565b6000614f8382613f75565b915060008203614f9657614f95614ee1565b5b600182039050919050565b6000614fac82613f75565b91507fffffffffffffffffffffffffffffffffffffffffffffffffffffffffffffffff8203614fde57614fdd614ee1565b5b600182019050919050565b7f4e487b7100000000000000000000000000000000000000000000000000000000600052603160045260246000fd5b7f6f776e657220696e646578206973206f7574206f6620626f756e647321000000600082015250565b600061504e601d83613e70565b915061505982615018565b602082019050919050565b6000602082019050818103600083015261507d81615041565b9050919050565b7f676c6f62616c20696e646578206973206f7574206f6620626f756e6473210000600082015250565b60006150ba601e83613e70565b91506150c582615084565b602082019050919050565b600060208201905081810360008301526150e9816150ad565b9050919050565b7f596f7520646f206e6f74207065726d697474696f6e0000000000000000000000600082015250565b6000615126601583613e70565b9150615131826150f0565b602082019050919050565b6000602082019050818103600083015261515581615119565b9050919050565b7f546865206e756d626572206f662064697370656e73696e67206861732062656560008201527f6e2065786365656465642e000000000000000000000000000000000000000000602082015250565b60006151b8602b83613e70565b91506151c38261515c565b604082019050919050565b600060208201905081810360008301526151e7816151ab565b9050919050565b6000815490506151fd81614d5d565b9050919050565b60008190508160005260206000209050919050565b60006020601f8301049050919050565b600082821b905092915050565b6000600883026152667fffffffffffffffffffffffffffffffffffffffffffffffffffffffffffffffff82615229565b6152708683615229565b95508019841693508086168417925050509392505050565b6000819050919050565b60006152ad6152a86152a384613f75565b615288565b613f75565b9050919050565b6000819050919050565b6152c783615292565b6152db6152d3826152b4565b848454615236565b825550505050565b600090565b6152f06152e3565b6152fb8184846152be565b505050565b5b8181101561531f576153146000826152e8565b600181019050615301565b5050565b601f8211156153645761533581615204565b61533e84615219565b8101602085101561534d578190505b61536161535985615219565b830182615300565b50505b505050565b600082821c905092915050565b600061538760001984600802615369565b1980831691505092915050565b60006153a08383615376565b9150826002028217905092915050565b8181036153be575050615496565b6153c7826151ee565b67ffffffffffffffff8111156153e0576153df6147ce565b5b6153ea8254614d5d565b6153f5828285615323565b6000601f8311600181146154245760008415615412578287015490505b61541c8582615394565b86555061548f565b601f19841661543287615204565b965061543d86615204565b60005b8281101561546557848901548255600182019150600185019450602081019050615440565b86831015615482578489015461547e601f891682615376565b8355505b6001600288020188555050505b5050505050505b565b7f6f776e657220717565727920666f72206e6f6e2d6578697374656e7420746f6b60008201527f656e000000000000000000000000000000000000000000000000000000000000602082015250565b60006154f4602283613e70565b91506154ff82615498565b604082019050919050565b60006020820190508181036000830152615523816154e7565b9050919050565b600081905092915050565b60008190508160005260206000209050919050565b6000815461555781614d5d565b615561818661552a565b9450600182166000811461557c5760018114615591576155c4565b60ff19831686528115158202860193506155c4565b61559a85615535565b60005b838110156155bc5781548189015260018201915060208101905061559d565b838801955050505b50505092915050565b60006155d9828461554a565b915081905092915050565b7f4572726f72203a20616c7265616479206578697374732070726553637269707460008201527f696f6e2000000000000000000000000000000000000000000000000000000000602082015250565b6000615640602483613e70565b915061564b826155e4565b604082019050919050565b6000602082019050818103600083015261566f81615633565b9050919050565b7f596f7520646f206e6f742068617665207065726d697373696f6e000000000000600082015250565b60006156ac601a83613e70565b91506156b782615676565b602082019050919050565b600060208201905081810360008301526156db8161569f565b9050919050565b6156eb82613e65565b67ffffffffffffffff811115615704576157036147ce565b5b61570e8254614d5d565b615719828285615323565b600060209050601f83116001811461574c576000841561573a578287015190505b6157448582615394565b8655506157ac565b601f19841661575a86615204565b60005b828110156157825784890151825560018201915060208501945060208101905061575d565b8683101561579f578489015161579b601f891682615376565b8355505b6001600288020188555050505b505050505050565b7f746f6b656e20646f6573206e6f74206578697374000000000000000000000000600082015250565b60006157ea601483613e70565b91506157f5826157b4565b602082019050919050565b60006020820190508181036000830152615819816157dd565b9050919050565b7f4572726f72202d20455243373231205472616e7366657220746f20746865207a60008201527f65726f2061646472657373000000000000000000000000000000000000000000602082015250565b600061587c602b83613e70565b915061588782615820565b604082019050919050565b600060208201905081810360008301526158ab8161586f565b9050919050565b7f547279696e6720746f207472616e73666572206120746f6b656e20746865206160008201527f64647265737320646f6573206e6f74206f776e21000000000000000000000000602082015250565b600061590e603483613e70565b9150615919826158b2565b604082019050919050565b6000602082019050818103600083015261593d81615901565b9050919050565b7f4552433732313a206d696e74696e6720746f20746865207a65726f206164647260008201527f6573000000000000000000000000000000000000000000000000000000000000602082015250565b60006159a0602283613e70565b91506159ab82615944565b604082019050919050565b600060208201905081810360008301526159cf81615993565b9050919050565b7f4552433732313a20746f6b656e20616c7265616479206d696e74656400000000600082015250565b6000615a0c601c83613e70565b9150615a17826159d6565b602082019050919050565b60006020820190508181036000830152615a3b816159ff565b9050919050565b7f536166654d6174683a207375627472616374696f6e206f766572666c6f770000600082015250565b6000615a78601e83613e70565b9150615a8382615a42565b602082019050919050565b60006020820190508181036000830152615aa781615a6b565b905091905056fea264697066735822122036d4b79b16065a0c7c69545361756546266ca89f496dbf29831b699a4a88716d64736f6c63430008110033",
  "immutableReferences": {},
  "source": "// SPDX-License-Identifier: MIT\r\npragma solidity ^0.8.0;\r\n\r\nimport './ERC721Connector.sol';\r\n\r\ncontract PreScription is ERC721Connector {\r\n\r\n    // array to store our nfts\r\n    //  \r\n   struct  preScription {\r\n        // preScriptionExists        ?   .\r\n        string userName; //  \r\n        string hosName; //  \r\n        string pharName; //  \r\n        string dCode; // \r\n        string[] dName; // \r\n\r\n        uint[] dosage; // \r\n        uint[] doseNum; //  \r\n        uint[] dosePeriod; // \r\n        uint dispensingCount; //   \r\n        uint prescriptionCount; // \r\n        // uint period; //  ? .\r\n        string[] howtoTake; // \r\n        uint pubDate; // \r\n        uint prepDate; //  \r\n        \r\n        }\r\n        \r\n        //        \r\n   \r\n   //  \r\n\r\n   \r\n    preScription[] public preScriptions;\r\n    // preScription pp;\r\n    \r\n   \r\n\r\n    \r\n    mapping (address => uint[]) _allTokensOwned; //     ID \r\n\r\n    mapping (address => preScription[]) _allListFromAccount; //    \r\n    \r\n    mapping (address => uint) _accountAuth;  //   (1 , 2 , 3 )\r\n    \r\n    mapping(string => bool) _preScriptionsExists;\r\n\r\n    \r\n    mapping (uint256 => uint ) _blockTotokenid;\r\n\r\n    mapping (address => uint[]) _addToblock;\r\n    //  =>   =>  ID\r\n    mapping (address => mapping (address => uint[])) _patientListFromAccount2;\r\n\r\n    mapping (address => mapping (address => preScription[])) _patientListFromAccount;\r\n\r\n    //  \r\n    mapping (address => preScription[]) _regularPrescription;\r\n\r\n     \r\n    // //   ->    \r\n    // mapping(address => address[])\r\n    // //   \r\n    // mapping(address => uint[])\r\n\r\n    //   \r\n    mapping (uint256 => uint256) _prsCountOfTokenId;\r\n    //   \r\n    mapping (uint256 => uint256) _offerCountOfTokenId;\r\n\r\n        // _address    \r\n        function getAllListFromAccount(address _address) public view returns(preScription[] memory){\r\n            return _allListFromAccount[_address];\r\n        }\r\n\r\n         //     \r\n        function getAllTokensOwned(address _address) public view returns(uint[] memory){\r\n            return _allTokensOwned[_address];\r\n        }\r\n        // _from _to     \r\n        function getPatientListFromAccount(address _from, address _to) public view returns(preScription[] memory) {\r\n            return _patientListFromAccount[_from][_to];\r\n        }\r\n        function getOfferCountOfToken(uint _tokenId) public view returns(uint){\r\n            return _offerCountOfTokenId[_tokenId];\r\n        }\r\n\r\n        // function getRegularPreScription(address _address) public view returns(preScription[] memory) {\r\n        //     return _regularPrescription[_address];\r\n        // }\r\n       \r\n\r\n\r\n       \r\n        // \r\n        function setPatientAuth(address _address) public {\r\n        _accountAuth[_address] = 1;\r\n    }\r\n        // \r\n        function setDoctorAuth(address _address) public {\r\n        _accountAuth[_address] = 2;\r\n    }\r\n        //\r\n        function setPharmacyAuth(address _address) public {\r\n        _accountAuth[_address] = 3;\r\n    }\r\n        //   \r\n        // function getAuthOfAccount(address _address) public view returns(uint){\r\n        //     return _accountAuth[_address];\r\n        // }\r\n        // function getAllPrescription(address _address) public view returns(preScription[] memory){\r\n        //     preScription[] memory prs;\r\n        //     for(uint i = 0; i < _allTokensOwned[_address].length; i++){\r\n        //         prs[i] = (preScriptions[_allTokensOwned[_address][i]]);\r\n        //     }\r\n        //     return prs;\r\n        // }\r\n\r\n  \r\n\r\n        // function getListOfPatient(address _from, address _to) public returns(preScription[] memory){\r\n        //     uint[] memory idList = _patientListFromAccount[_from][_to];\r\n        //     preScription[] memory  prsList;\r\n        //     for(uint i = 0; i < idList.length; i++){\r\n        //         prsList.push(idList[i]);\r\n        //     }\r\n        // }\r\n\r\n\r\n\r\n\r\n\r\n    //    ?\r\n    //   (  ID)\r\n    mapping (address => uint256[]) _mintedTokens;\r\n\r\n  \r\n    mapping (address => uint256[]) _alltokensOfphaccount;\r\n   \r\n    //       ????\r\n    \r\n    \r\n    //   (msg.sender)      \r\n\r\n    function setMintedTokens(uint _tokenId) public {\r\n        _mintedTokens[msg.sender].push(_tokenId);\r\n    }\r\n    function getMintedTokens() public view returns (uint256[] memory){\r\n        return _mintedTokens[msg.sender];\r\n    }\r\n\r\n\r\n    \r\n    //   \r\n    modifier prsExists( \r\n        string memory _userName, \r\n        string memory _hosName,\r\n        string memory _dCode,\r\n        string[] memory _dName, // \r\n        uint _pubDate // \r\n  \r\n        ) {\r\n           bool check = false;\r\n           for (uint i = 0; i < preScriptions.length; i++){\r\n                uint cnt = 0; \r\n                for(uint j = 0; j < preScriptions[i].dName.length; j++){\r\n                    if(\r\n                         keccak256(bytes(preScriptions[i].dName[j])) == keccak256(bytes(_dName[j])) \r\n                    ){\r\n                           cnt++;\r\n                    }\r\n                }\r\n            if(preScriptions[i].dName.length == _dName.length && \r\n                    cnt == preScriptions[i].dName.length && \r\n                    preScriptions[i].pubDate == _pubDate &&\r\n                keccak256(bytes(preScriptions[i].userName)) == keccak256(bytes(_userName)) &&\r\n                keccak256(bytes(preScriptions[i].hosName)) == keccak256(bytes(_hosName)) &&\r\n                keccak256(bytes(preScriptions[i].dCode)) == keccak256(bytes(_dCode))\r\n           \r\n            ) {\r\n                check =true;\r\n            }\r\n           } \r\n           require(!check, \"Error : already exists preScription \");\r\n           _;\r\n        }\r\n        // //  ,   \r\n        //  modifier prsnmExists(string[] memory _dName, uint256 _pubDate) {\r\n        //     bool check = false;\r\n        //    for (uint i = 0; i < preScriptions.length; i++){\r\n        //     uint cnt = 0; \r\n        //         for(uint j = 0; j < preScriptions[i].dName.length; j++){\r\n        //             if(\r\n        //                  keccak256(bytes(preScriptions[i].dName[j])) == keccak256(bytes(_dName[j])) \r\n                      \r\n        //             ){\r\n        //                    cnt++;\r\n        //             }\r\n        //         }\r\n         \r\n        //         if( preScriptions[i].dName.length == _dName.length && \r\n        //             cnt == preScriptions[i].dName.length && \r\n        //             preScriptions[i].pubDate == _pubDate )\r\n        //      {\r\n        //         check =true;\r\n        //     }\r\n        //    } \r\n        //    require(!check, \"Error : already exists preScription \");\r\n        //    _;\r\n        //  }\r\n        //     \r\n        function getBalanceOf(address _address) public view returns(uint256) {\r\n            return balanceOf(_address);\r\n        }\r\n\r\n        //   / /  \r\n\r\n        // \r\n        function transferPreScription(address _from, address _to, uint _tokenId) public {\r\n            //     \r\n            require(_offerCountOfTokenId[_tokenId] != 0, 'The number of dispensing has been exceeded.');\r\n            //       ex)    \r\n            //      ID\r\n            _allTokensOwned[_to].push(_tokenId);\r\n            _allListFromAccount[_to].push(preScriptions[_tokenId]);\r\n           transferPrs(_from, _to, _tokenId);\r\n        }\r\n\r\n        \r\n        //    \r\n        function transferDoctorToPatient(address _from, address _to, uint _tokenId) public {\r\n              \r\n              transferPrs(_from, _to, _tokenId);\r\n            _allTokensOwned[_to].push(_tokenId);\r\n            _allListFromAccount[_to].push(preScriptions[_tokenId]);\r\n        //     preScription memory prs = preScriptions[_tokenId];\r\n\r\n        //     //   1    .\r\n        //       if(prs.prescriptionCount > 1){\r\n        //     _regularPrescription[_to].push(prs);\r\n        // }\r\n        //     // _patientListFromAccount[_from][_to].push(_tokenId);\r\n            _patientListFromAccount[_from][_to].push(preScriptions[_tokenId]);\r\n\r\n        }\r\n        //   \r\n        function transferPharmacyToPatient(address _from, address _to, uint _tokenId) public {\r\n            require(_accountAuth[_from] == 3, 'You do not permittion');\r\n            require(_offerCountOfTokenId[_tokenId] != 0, 'The number of dispensing has been exceeded.');\r\n            transferPrs(_from, _to, _tokenId);\r\n            _offerCountOfTokenId[_tokenId]--;\r\n           // _patientListFromAccount[_from][_to].push(_tokenId);\r\n            _patientListFromAccount[_from][_to].push(preScriptions[_tokenId]);\r\n        }\r\n    \r\n//     ()\r\n  function mint(\r\n   \r\n        preScription memory _preScription\r\n         ) \r\n        public prsExists ( _preScription.userName, _preScription.hosName,  _preScription.dCode, _preScription.dName, _preScription.pubDate ) {\r\n            require(_accountAuth[msg.sender] == 2, 'You do not have permission');\r\n          \r\n        preScriptions.push(_preScription);\r\n        \r\n      \r\n        uint _id = preScriptions.length - 1;\r\n\r\n        _allListFromAccount[msg.sender].push(_preScription);\r\n        _blockTotokenid[block.number] = _id;\r\n        _addToblock[msg.sender].push(block.number);\r\n        //     0   .\r\n        _offerCountOfTokenId[_id] = _preScription.prescriptionCount;\r\n        // .push no longer returns the length but a ref to the added element\r\n        _mint(msg.sender, _id);\r\n        //  (  )\r\n        setMintedTokens(_id);\r\n\r\n        // _preScriptionsExists[_preScription] = true;\r\n\r\n    }\r\n\r\n    function getPreScriptionByIndex(uint index) public view returns(preScription memory) {\r\n        return preScriptions[index];\r\n    }\r\n\r\n    \r\n\r\n\r\n    constructor() ERC721Connector('PreScription','Script') {}\r\n\r\n}\r\n\r\n\r\n",
  "sourcePath": "C:\\Users\\SSAFY\\Desktop\\YakSSoak\\S07P22E205\\smart-contract\\src\\contracts\\PreSciption.sol",
  "compiler": {
    "name": "solc",
    "version": "0.8.17+commit.8df45f5f.Emscripten.clang"
  },
  "schemaVersion": "3.4.9",
  "updatedAt": "2022-10-05T01:39:43.714Z",
  "networkType": "ethereum",
  "devdoc": {
    "kind": "dev",
    "methods": {
      "ownerOf(uint256)": {
        "details": "NFTs assigned to zero address are considered invalid, and queries  about them do throw.",
        "params": {
          "_tokenId": "The identifier for an NFT"
        },
        "returns": {
          "_0": "The address of the owner of the NFT"
        }
      },
      "supportsInterface(bytes4)": {
        "details": "Interface identification is specified in ERC-165. This function  uses less than 30,000 gas.",
        "params": {
          "interfaceID": "The interface identifier, as specified in ERC-165"
        },
        "returns": {
          "_0": "`true` if the contract implements `interfaceID` and  `interfaceID` is not 0xffffffff, `false` otherwise"
        }
      }
    },
    "version": 1
  },
  "userdoc": {
    "kind": "user",
    "methods": {
      "ownerOf(uint256)": {
        "notice": "Find the owner of an NFT"
      },
      "supportsInterface(bytes4)": {
        "notice": "Query if a contract implements an interface"
      }
    },
    "version": 1
  }
}