{
  "contractName": "PreScription",
  "abi": [
    {
      "inputs": [],
      "stateMutability": "nonpayable",
      "type": "constructor"
    },
    {
      "anonymous": false,
      "inputs": [
        {
          "indexed": true,
          "internalType": "address",
          "name": "_owner",
          "type": "address"
        },
        {
          "indexed": true,
          "internalType": "address",
          "name": "_approved",
          "type": "address"
        },
        {
          "indexed": true,
          "internalType": "uint256",
          "name": "_tokenId",
          "type": "uint256"
        }
      ],
      "name": "Approval",
      "type": "event"
    },
    {
      "anonymous": false,
      "inputs": [
        {
          "indexed": true,
          "internalType": "address",
          "name": "_from",
          "type": "address"
        },
        {
          "indexed": true,
          "internalType": "address",
          "name": "_to",
          "type": "address"
        },
        {
          "indexed": true,
          "internalType": "uint256",
          "name": "_tokenId",
          "type": "uint256"
        }
      ],
      "name": "Transfer",
      "type": "event"
    },
    {
      "inputs": [
        {
          "internalType": "address",
          "name": "owner",
          "type": "address"
        }
      ],
      "name": "alltokenOfOwner",
      "outputs": [
        {
          "internalType": "uint256[]",
          "name": "",
          "type": "uint256[]"
        }
      ],
      "stateMutability": "view",
      "type": "function",
      "constant": true
    },
    {
      "inputs": [
        {
          "internalType": "address",
          "name": "_to",
          "type": "address"
        },
        {
          "internalType": "uint256",
          "name": "tokenId",
          "type": "uint256"
        }
      ],
      "name": "approve",
      "outputs": [],
      "stateMutability": "nonpayable",
      "type": "function"
    },
    {
      "inputs": [
        {
          "internalType": "address",
          "name": "_owner",
          "type": "address"
        }
      ],
      "name": "balanceOf",
      "outputs": [
        {
          "internalType": "uint256",
          "name": "",
          "type": "uint256"
        }
      ],
      "stateMutability": "view",
      "type": "function",
      "constant": true
    },
    {
      "inputs": [],
      "name": "name",
      "outputs": [
        {
          "internalType": "string",
          "name": "",
          "type": "string"
        }
      ],
      "stateMutability": "view",
      "type": "function",
      "constant": true
    },
    {
      "inputs": [
        {
          "internalType": "uint256",
          "name": "_tokenId",
          "type": "uint256"
        }
      ],
      "name": "ownerOf",
      "outputs": [
        {
          "internalType": "address",
          "name": "",
          "type": "address"
        }
      ],
      "stateMutability": "view",
      "type": "function",
      "constant": true
    },
    {
      "inputs": [
        {
          "internalType": "uint256",
          "name": "",
          "type": "uint256"
        }
      ],
      "name": "preScriptions",
      "outputs": [
        {
          "internalType": "string",
          "name": "userName",
          "type": "string"
        },
        {
          "internalType": "string",
          "name": "hosName",
          "type": "string"
        },
        {
          "internalType": "string",
          "name": "pharName",
          "type": "string"
        },
        {
          "internalType": "string",
          "name": "dCode",
          "type": "string"
        },
        {
          "internalType": "uint256",
          "name": "dispensingCount",
          "type": "uint256"
        },
        {
          "internalType": "uint256",
          "name": "prescriptionCount",
          "type": "uint256"
        },
        {
          "internalType": "uint256",
          "name": "pubDate",
          "type": "uint256"
        },
        {
          "internalType": "uint256",
          "name": "prepDate",
          "type": "uint256"
        }
      ],
      "stateMutability": "view",
      "type": "function",
      "constant": true
    },
    {
      "inputs": [
        {
          "internalType": "bytes4",
          "name": "interfaceID",
          "type": "bytes4"
        }
      ],
      "name": "supportsInterface",
      "outputs": [
        {
          "internalType": "bool",
          "name": "",
          "type": "bool"
        }
      ],
      "stateMutability": "view",
      "type": "function",
      "constant": true
    },
    {
      "inputs": [],
      "name": "symbol",
      "outputs": [
        {
          "internalType": "string",
          "name": "",
          "type": "string"
        }
      ],
      "stateMutability": "view",
      "type": "function",
      "constant": true
    },
    {
      "inputs": [
        {
          "internalType": "uint256",
          "name": "index",
          "type": "uint256"
        }
      ],
      "name": "tokenByIndex",
      "outputs": [
        {
          "internalType": "uint256",
          "name": "",
          "type": "uint256"
        }
      ],
      "stateMutability": "view",
      "type": "function",
      "constant": true
    },
    {
      "inputs": [
        {
          "internalType": "address",
          "name": "owner",
          "type": "address"
        },
        {
          "internalType": "uint256",
          "name": "index",
          "type": "uint256"
        }
      ],
      "name": "tokenOfOwnerByIndex",
      "outputs": [
        {
          "internalType": "uint256",
          "name": "",
          "type": "uint256"
        }
      ],
      "stateMutability": "view",
      "type": "function",
      "constant": true
    },
    {
      "inputs": [],
      "name": "totalSupply",
      "outputs": [
        {
          "internalType": "uint256",
          "name": "",
          "type": "uint256"
        }
      ],
      "stateMutability": "view",
      "type": "function",
      "constant": true
    },
    {
      "inputs": [
        {
          "internalType": "address",
          "name": "_from",
          "type": "address"
        },
        {
          "internalType": "address",
          "name": "_to",
          "type": "address"
        },
        {
          "internalType": "uint256",
          "name": "_tokenId",
          "type": "uint256"
        }
      ],
      "name": "transferFrom",
      "outputs": [],
      "stateMutability": "nonpayable",
      "type": "function"
    },
    {
      "inputs": [
        {
          "internalType": "address",
          "name": "_from",
          "type": "address"
        },
        {
          "internalType": "address",
          "name": "_to",
          "type": "address"
        },
        {
          "internalType": "uint256",
          "name": "_tokenId",
          "type": "uint256"
        }
      ],
      "name": "transferPrs",
      "outputs": [],
      "stateMutability": "nonpayable",
      "type": "function"
    },
    {
      "inputs": [
        {
          "internalType": "address",
          "name": "_address",
          "type": "address"
        }
      ],
      "name": "getAllListFromAccount",
      "outputs": [
        {
          "components": [
            {
              "internalType": "string",
              "name": "userName",
              "type": "string"
            },
            {
              "internalType": "string",
              "name": "hosName",
              "type": "string"
            },
            {
              "internalType": "string",
              "name": "pharName",
              "type": "string"
            },
            {
              "internalType": "string",
              "name": "dCode",
              "type": "string"
            },
            {
              "internalType": "string[]",
              "name": "dName",
              "type": "string[]"
            },
            {
              "internalType": "uint256[]",
              "name": "dosage",
              "type": "uint256[]"
            },
            {
              "internalType": "uint256[]",
              "name": "doseNum",
              "type": "uint256[]"
            },
            {
              "internalType": "uint256[]",
              "name": "dosePeriod",
              "type": "uint256[]"
            },
            {
              "internalType": "uint256",
              "name": "dispensingCount",
              "type": "uint256"
            },
            {
              "internalType": "uint256",
              "name": "prescriptionCount",
              "type": "uint256"
            },
            {
              "internalType": "string[]",
              "name": "howtoTake",
              "type": "string[]"
            },
            {
              "internalType": "uint256",
              "name": "pubDate",
              "type": "uint256"
            },
            {
              "internalType": "uint256",
              "name": "prepDate",
              "type": "uint256"
            }
          ],
          "internalType": "struct PreScription.preScription[]",
          "name": "",
          "type": "tuple[]"
        }
      ],
      "stateMutability": "view",
      "type": "function",
      "constant": true
    },
    {
      "inputs": [
        {
          "internalType": "address",
          "name": "_address",
          "type": "address"
        }
      ],
      "name": "getAllTokensOwned",
      "outputs": [
        {
          "internalType": "uint256[]",
          "name": "",
          "type": "uint256[]"
        }
      ],
      "stateMutability": "view",
      "type": "function",
      "constant": true
    },
    {
      "inputs": [
        {
          "internalType": "address",
          "name": "_from",
          "type": "address"
        },
        {
          "internalType": "address",
          "name": "_to",
          "type": "address"
        }
      ],
      "name": "getPatientListFromAccount",
      "outputs": [
        {
          "components": [
            {
              "internalType": "string",
              "name": "userName",
              "type": "string"
            },
            {
              "internalType": "string",
              "name": "hosName",
              "type": "string"
            },
            {
              "internalType": "string",
              "name": "pharName",
              "type": "string"
            },
            {
              "internalType": "string",
              "name": "dCode",
              "type": "string"
            },
            {
              "internalType": "string[]",
              "name": "dName",
              "type": "string[]"
            },
            {
              "internalType": "uint256[]",
              "name": "dosage",
              "type": "uint256[]"
            },
            {
              "internalType": "uint256[]",
              "name": "doseNum",
              "type": "uint256[]"
            },
            {
              "internalType": "uint256[]",
              "name": "dosePeriod",
              "type": "uint256[]"
            },
            {
              "internalType": "uint256",
              "name": "dispensingCount",
              "type": "uint256"
            },
            {
              "internalType": "uint256",
              "name": "prescriptionCount",
              "type": "uint256"
            },
            {
              "internalType": "string[]",
              "name": "howtoTake",
              "type": "string[]"
            },
            {
              "internalType": "uint256",
              "name": "pubDate",
              "type": "uint256"
            },
            {
              "internalType": "uint256",
              "name": "prepDate",
              "type": "uint256"
            }
          ],
          "internalType": "struct PreScription.preScription[]",
          "name": "",
          "type": "tuple[]"
        }
      ],
      "stateMutability": "view",
      "type": "function",
      "constant": true
    },
    {
      "inputs": [
        {
          "internalType": "uint256",
          "name": "_tokenId",
          "type": "uint256"
        }
      ],
      "name": "getOfferCountOfToken",
      "outputs": [
        {
          "internalType": "uint256",
          "name": "",
          "type": "uint256"
        }
      ],
      "stateMutability": "view",
      "type": "function",
      "constant": true
    },
    {
      "inputs": [
        {
          "internalType": "address",
          "name": "_address",
          "type": "address"
        }
      ],
      "name": "getRegularPreScription",
      "outputs": [
        {
          "components": [
            {
              "internalType": "string",
              "name": "userName",
              "type": "string"
            },
            {
              "internalType": "string",
              "name": "hosName",
              "type": "string"
            },
            {
              "internalType": "string",
              "name": "pharName",
              "type": "string"
            },
            {
              "internalType": "string",
              "name": "dCode",
              "type": "string"
            },
            {
              "internalType": "string[]",
              "name": "dName",
              "type": "string[]"
            },
            {
              "internalType": "uint256[]",
              "name": "dosage",
              "type": "uint256[]"
            },
            {
              "internalType": "uint256[]",
              "name": "doseNum",
              "type": "uint256[]"
            },
            {
              "internalType": "uint256[]",
              "name": "dosePeriod",
              "type": "uint256[]"
            },
            {
              "internalType": "uint256",
              "name": "dispensingCount",
              "type": "uint256"
            },
            {
              "internalType": "uint256",
              "name": "prescriptionCount",
              "type": "uint256"
            },
            {
              "internalType": "string[]",
              "name": "howtoTake",
              "type": "string[]"
            },
            {
              "internalType": "uint256",
              "name": "pubDate",
              "type": "uint256"
            },
            {
              "internalType": "uint256",
              "name": "prepDate",
              "type": "uint256"
            }
          ],
          "internalType": "struct PreScription.preScription[]",
          "name": "",
          "type": "tuple[]"
        }
      ],
      "stateMutability": "view",
      "type": "function",
      "constant": true
    },
    {
      "inputs": [
        {
          "internalType": "address",
          "name": "_address",
          "type": "address"
        }
      ],
      "name": "setPatientAuth",
      "outputs": [],
      "stateMutability": "nonpayable",
      "type": "function"
    },
    {
      "inputs": [
        {
          "internalType": "address",
          "name": "_address",
          "type": "address"
        }
      ],
      "name": "setDoctorAuth",
      "outputs": [],
      "stateMutability": "nonpayable",
      "type": "function"
    },
    {
      "inputs": [
        {
          "internalType": "address",
          "name": "_address",
          "type": "address"
        }
      ],
      "name": "setPharmacyAuth",
      "outputs": [],
      "stateMutability": "nonpayable",
      "type": "function"
    },
    {
      "inputs": [
        {
          "internalType": "address",
          "name": "_address",
          "type": "address"
        }
      ],
      "name": "getAuthOfAccount",
      "outputs": [
        {
          "internalType": "uint256",
          "name": "",
          "type": "uint256"
        }
      ],
      "stateMutability": "view",
      "type": "function",
      "constant": true
    },
    {
      "inputs": [
        {
          "internalType": "uint256",
          "name": "_tokenId",
          "type": "uint256"
        }
      ],
      "name": "setMintedTokens",
      "outputs": [],
      "stateMutability": "nonpayable",
      "type": "function"
    },
    {
      "inputs": [],
      "name": "getMintedTokens",
      "outputs": [
        {
          "internalType": "uint256[]",
          "name": "",
          "type": "uint256[]"
        }
      ],
      "stateMutability": "view",
      "type": "function",
      "constant": true
    },
    {
      "inputs": [
        {
          "internalType": "address",
          "name": "_address",
          "type": "address"
        }
      ],
      "name": "getBalanceOf",
      "outputs": [
        {
          "internalType": "uint256",
          "name": "",
          "type": "uint256"
        }
      ],
      "stateMutability": "view",
      "type": "function",
      "constant": true
    },
    {
      "inputs": [
        {
          "internalType": "address",
          "name": "_from",
          "type": "address"
        },
        {
          "internalType": "address",
          "name": "_to",
          "type": "address"
        },
        {
          "internalType": "uint256",
          "name": "_tokenId",
          "type": "uint256"
        }
      ],
      "name": "transferPreScription",
      "outputs": [],
      "stateMutability": "nonpayable",
      "type": "function"
    },
    {
      "inputs": [
        {
          "internalType": "address",
          "name": "_from",
          "type": "address"
        },
        {
          "internalType": "address",
          "name": "_to",
          "type": "address"
        },
        {
          "internalType": "uint256",
          "name": "_tokenId",
          "type": "uint256"
        }
      ],
      "name": "transferDoctorToPatient",
      "outputs": [],
      "stateMutability": "nonpayable",
      "type": "function"
    },
    {
      "inputs": [
        {
          "internalType": "address",
          "name": "_from",
          "type": "address"
        },
        {
          "internalType": "address",
          "name": "_to",
          "type": "address"
        },
        {
          "internalType": "uint256",
          "name": "_tokenId",
          "type": "uint256"
        }
      ],
      "name": "transferPharmacyToPatient",
      "outputs": [],
      "stateMutability": "nonpayable",
      "type": "function"
    },
    {
      "inputs": [
        {
          "components": [
            {
              "internalType": "string",
              "name": "userName",
              "type": "string"
            },
            {
              "internalType": "string",
              "name": "hosName",
              "type": "string"
            },
            {
              "internalType": "string",
              "name": "pharName",
              "type": "string"
            },
            {
              "internalType": "string",
              "name": "dCode",
              "type": "string"
            },
            {
              "internalType": "string[]",
              "name": "dName",
              "type": "string[]"
            },
            {
              "internalType": "uint256[]",
              "name": "dosage",
              "type": "uint256[]"
            },
            {
              "internalType": "uint256[]",
              "name": "doseNum",
              "type": "uint256[]"
            },
            {
              "internalType": "uint256[]",
              "name": "dosePeriod",
              "type": "uint256[]"
            },
            {
              "internalType": "uint256",
              "name": "dispensingCount",
              "type": "uint256"
            },
            {
              "internalType": "uint256",
              "name": "prescriptionCount",
              "type": "uint256"
            },
            {
              "internalType": "string[]",
              "name": "howtoTake",
              "type": "string[]"
            },
            {
              "internalType": "uint256",
              "name": "pubDate",
              "type": "uint256"
            },
            {
              "internalType": "uint256",
              "name": "prepDate",
              "type": "uint256"
            }
          ],
          "internalType": "struct PreScription.preScription",
          "name": "_preScription",
          "type": "tuple"
        }
      ],
      "name": "mint",
      "outputs": [],
      "stateMutability": "nonpayable",
      "type": "function"
    },
    {
      "inputs": [
        {
          "internalType": "uint256",
          "name": "index",
          "type": "uint256"
        }
      ],
      "name": "getPreScriptionByIndex",
      "outputs": [
        {
          "components": [
            {
              "internalType": "string",
              "name": "userName",
              "type": "string"
            },
            {
              "internalType": "string",
              "name": "hosName",
              "type": "string"
            },
            {
              "internalType": "string",
              "name": "pharName",
              "type": "string"
            },
            {
              "internalType": "string",
              "name": "dCode",
              "type": "string"
            },
            {
              "internalType": "string[]",
              "name": "dName",
              "type": "string[]"
            },
            {
              "internalType": "uint256[]",
              "name": "dosage",
              "type": "uint256[]"
            },
            {
              "internalType": "uint256[]",
              "name": "doseNum",
              "type": "uint256[]"
            },
            {
              "internalType": "uint256[]",
              "name": "dosePeriod",
              "type": "uint256[]"
            },
            {
              "internalType": "uint256",
              "name": "dispensingCount",
              "type": "uint256"
            },
            {
              "internalType": "uint256",
              "name": "prescriptionCount",
              "type": "uint256"
            },
            {
              "internalType": "string[]",
              "name": "howtoTake",
              "type": "string[]"
            },
            {
              "internalType": "uint256",
              "name": "pubDate",
              "type": "uint256"
            },
            {
              "internalType": "uint256",
              "name": "prepDate",
              "type": "uint256"
            }
          ],
          "internalType": "struct PreScription.preScription",
          "name": "",
          "type": "tuple"
        }
      ],
      "stateMutability": "view",
      "type": "function",
      "constant": true
    }
  ],
  "bytecode": "0x60806040523480156200001157600080fd5b506040518060400160405280600c81526020017f507265536372697074696f6e00000000000000000000000000000000000000008152506040518060400160405280600681526020017f53637269707400000000000000000000000000000000000000000000000000008152508181620000b17f01ffc9a7a5cef8baa21ed3c5c0d7e23accb804b619e9333b597f47a0d84076e26200021c60201b60201c565b620001047f13b182f4c0e5b2efbac0efe6cf6d756c8b89f4b79c5707a043ed9ea740574ee97f7feaf19471f34a12a7eaf32d5f3090aa2260ea8624dc8a138e74e0bf0f623076186200021c60201b60201c565b81600190816200011591906200056d565b5080600290816200012791906200056d565b5050506200019f7f22c82707ba960a14c7592ffb6b8cfaa073fed0048a84cc7fa41f6b5bd8e7f2e47f3a6eb71757dfc6e784c1459d26270140c2c147d95ca985c80026fc5301c3eca17f8a7e378434598edc36d108689a030cbc9d7d465de4f74c71bae1028eed6a881b18186200021c60201b60201c565b620002147f8230223f691b981717299fae9549350a0d894555723531f02108b1f522c1a7977f6da5e1284143cdd2d15038a59bde3be031250f00291d64494c12d967b3a4e0c37fc53637662700e6c65104059db8bba34439e0c32483ab7c34e3ccae52c739549518186200021c60201b60201c565b5050620006d7565b63ffffffff60e01b817bffffffffffffffffffffffffffffffffffffffffffffffffffffffff19160362000287576040517f08c379a00000000000000000000000000000000000000000000000000000000081526004016200027e90620006b5565b60405180910390fd5b6001600080837bffffffffffffffffffffffffffffffffffffffffffffffffffffffff19167bffffffffffffffffffffffffffffffffffffffffffffffffffffffff1916815260200190815260200160002060006101000a81548160ff02191690831515021790555050565b600081519050919050565b7f4e487b7100000000000000000000000000000000000000000000000000000000600052604160045260246000fd5b7f4e487b7100000000000000000000000000000000000000000000000000000000600052602260045260246000fd5b600060028204905060018216806200037557607f821691505b6020821081036200038b576200038a6200032d565b5b50919050565b60008190508160005260206000209050919050565b60006020601f8301049050919050565b600082821b905092915050565b600060088302620003f57fffffffffffffffffffffffffffffffffffffffffffffffffffffffffffffffff82620003b6565b620004018683620003b6565b95508019841693508086168417925050509392505050565b6000819050919050565b6000819050919050565b60006200044e62000448620004428462000419565b62000423565b62000419565b9050919050565b6000819050919050565b6200046a836200042d565b62000482620004798262000455565b848454620003c3565b825550505050565b600090565b620004996200048a565b620004a68184846200045f565b505050565b5b81811015620004ce57620004c26000826200048f565b600181019050620004ac565b5050565b601f8211156200051d57620004e78162000391565b620004f284620003a6565b8101602085101562000502578190505b6200051a6200051185620003a6565b830182620004ab565b50505b505050565b600082821c905092915050565b6000620005426000198460080262000522565b1980831691505092915050565b60006200055d83836200052f565b9150826002028217905092915050565b6200057882620002f3565b67ffffffffffffffff811115620005945762000593620002fe565b5b620005a082546200035c565b620005ad828285620004d2565b600060209050601f831160018114620005e55760008415620005d0578287015190505b620005dc85826200054f565b8655506200064c565b601f198416620005f58662000391565b60005b828110156200061f57848901518255600182019150602085019450602081019050620005f8565b868310156200063f57848901516200063b601f8916826200052f565b8355505b6001600288020188555050505b505050505050565b600082825260208201905092915050565b7f496e76616c696420696e74657266616365207265717565737400000000000000600082015250565b60006200069d60198362000654565b9150620006aa8262000665565b602082019050919050565b60006020820190508181036000830152620006d0816200068e565b9050919050565b6167db80620006e76000396000f3fe608060405234801561001057600080fd5b50600436106101da5760003560e01c806370a0823111610104578063952d5804116100a2578063b8c2477e11610071578063b8c2477e146105c8578063d6204d28146105f8578063dc96529014610614578063e241ff4814610632576101da565b8063952d58041461054257806395d89b411461055e5780639b96eece1461057c578063aba55a86146105ac576101da565b80637a38699b116100de5780637a38699b146104aa578063818a6a4e146104c657806383103433146104f6578063892a18ba14610512576101da565b806370a082311461042e578063729efebf1461045e578063785e320d1461048e576101da565b806322986c261161017c57806358c7c5311161014b57806358c7c531146103965780636352211e146103b257806369c5e936146103e25780636f9886b014610412576101da565b806322986c26146102ea57806323b872dd1461031a5780632f745c59146103365780634f6ccce714610366576101da565b80630a54de1a116101b85780630a54de1a1461024957806311bb5e7a1461027957806318160ddd146102b05780631c18c246146102ce576101da565b806301ffc9a7146101df57806306fdde031461020f578063095ea7b31461022d575b600080fd5b6101f960048036038101906101f49190614af9565b610662565b6040516102069190614b41565b60405180910390f35b6102176106c9565b6040516102249190614bec565b60405180910390f35b61024760048036038101906102429190614ca2565b61075b565b005b610263600480360381019061025e9190614ce2565b6108f6565b604051610270919061502a565b60405180910390f35b610293600480360381019061028e9190614ce2565b610e5d565b6040516102a798979695949392919061505b565b60405180910390f35b6102b86110d5565b6040516102c591906150f5565b60405180910390f35b6102e860048036038101906102e39190615110565b6110e2565b005b61030460048036038101906102ff9190615163565b611335565b60405161031191906153b6565b60405180910390f35b610334600480360381019061032f9190615110565b61193c565b005b610350600480360381019061034b9190614ca2565b61195f565b60405161035d91906150f5565b60405180910390f35b610380600480360381019061037b9190614ce2565b611a0f565b60405161038d91906150f5565b60405180910390f35b6103b060048036038101906103ab9190615110565b611a80565b005b6103cc60048036038101906103c79190614ce2565b611d49565b6040516103d991906153e7565b60405180910390f35b6103fc60048036038101906103f79190615402565b611dfa565b60405161040991906153b6565b60405180910390f35b61042c60048036038101906104279190615110565b6123c3565b005b61044860048036038101906104439190615402565b612e59565b60405161045591906150f5565b60405180910390f35b61047860048036038101906104739190615402565b612f17565b604051610485919061549e565b60405180910390f35b6104a860048036038101906104a39190614ce2565b612fae565b005b6104c460048036038101906104bf9190615402565b613017565b005b6104e060048036038101906104db9190614ce2565b61305f565b6040516104ed91906150f5565b60405180910390f35b610510600480360381019061050b9190615402565b61307c565b005b61052c60048036038101906105279190615402565b6130c4565b60405161053991906150f5565b60405180910390f35b61055c600480360381019061055791906159dc565b61310d565b005b610566613773565b6040516105739190614bec565b60405180910390f35b61059660048036038101906105919190615402565b613805565b6040516105a391906150f5565b60405180910390f35b6105c660048036038101906105c19190615110565b613817565b005b6105e260048036038101906105dd9190615402565b613a5e565b6040516105ef91906153b6565b60405180910390f35b610612600480360381019061060d9190615402565b614027565b005b61061c61406f565b604051610629919061549e565b60405180910390f35b61064c60048036038101906106479190615402565b614104565b604051610659919061549e565b60405180910390f35b6000806000837bffffffffffffffffffffffffffffffffffffffffffffffffffffffff19167bffffffffffffffffffffffffffffffffffffffffffffffffffffffff1916815260200190815260200160002060009054906101000a900460ff169050919050565b6060600180546106d890615a54565b80601f016020809104026020016040519081016040528092919081815260200182805461070490615a54565b80156107515780601f1061072657610100808354040283529160200191610751565b820191906000526020600020905b81548152906001019060200180831161073457829003601f168201915b5050505050905090565b600061076682611d49565b90508073ffffffffffffffffffffffffffffffffffffffff168373ffffffffffffffffffffffffffffffffffffffff16036107d6576040517f08c379a00000000000000000000000000000000000000000000000000000000081526004016107cd90615af7565b60405180910390fd5b8073ffffffffffffffffffffffffffffffffffffffff163373ffffffffffffffffffffffffffffffffffffffff1614610844576040517f08c379a000000000000000000000000000000000000000000000000000000000815260040161083b90615b89565b60405180910390fd5b826005600084815260200190815260200160002060006101000a81548173ffffffffffffffffffffffffffffffffffffffff021916908373ffffffffffffffffffffffffffffffffffffffff160217905550818373ffffffffffffffffffffffffffffffffffffffff168273ffffffffffffffffffffffffffffffffffffffff167f8c5be1e5ebec7d5bd14f71427d1e84f3dd0314c0f7b2291e5b200ac8c7c3b92560405160405180910390a4505050565b6108fe61484f565b600a828154811061091257610911615ba9565b5b90600052602060002090600d0201604051806101a001604052908160008201805461093c90615a54565b80601f016020809104026020016040519081016040528092919081815260200182805461096890615a54565b80156109b55780601f1061098a576101008083540402835291602001916109b5565b820191906000526020600020905b81548152906001019060200180831161099857829003601f168201915b505050505081526020016001820180546109ce90615a54565b80601f01602080910402602001604051908101604052809291908181526020018280546109fa90615a54565b8015610a475780601f10610a1c57610100808354040283529160200191610a47565b820191906000526020600020905b815481529060010190602001808311610a2a57829003601f168201915b50505050508152602001600282018054610a6090615a54565b80601f0160208091040260200160405190810160405280929190818152602001828054610a8c90615a54565b8015610ad95780601f10610aae57610100808354040283529160200191610ad9565b820191906000526020600020905b815481529060010190602001808311610abc57829003601f168201915b50505050508152602001600382018054610af290615a54565b80601f0160208091040260200160405190810160405280929190818152602001828054610b1e90615a54565b8015610b6b5780601f10610b4057610100808354040283529160200191610b6b565b820191906000526020600020905b815481529060010190602001808311610b4e57829003601f168201915b5050505050815260200160048201805480602002602001604051908101604052809291908181526020016000905b82821015610c45578382906000526020600020018054610bb890615a54565b80601f0160208091040260200160405190810160405280929190818152602001828054610be490615a54565b8015610c315780601f10610c0657610100808354040283529160200191610c31565b820191906000526020600020905b815481529060010190602001808311610c1457829003601f168201915b505050505081526020019060010190610b99565b50505050815260200160058201805480602002602001604051908101604052809291908181526020018280548015610c9c57602002820191906000526020600020905b815481526020019060010190808311610c88575b5050505050815260200160068201805480602002602001604051908101604052809291908181526020018280548015610cf457602002820191906000526020600020905b815481526020019060010190808311610ce0575b5050505050815260200160078201805480602002602001604051908101604052809291908181526020018280548015610d4c57602002820191906000526020600020905b815481526020019060010190808311610d38575b505050505081526020016008820154815260200160098201548152602001600a8201805480602002602001604051908101604052809291908181526020016000905b82821015610e3a578382906000526020600020018054610dad90615a54565b80601f0160208091040260200160405190810160405280929190818152602001828054610dd990615a54565b8015610e265780601f10610dfb57610100808354040283529160200191610e26565b820191906000526020600020905b815481529060010190602001808311610e0957829003601f168201915b505050505081526020019060010190610d8e565b505050508152602001600b8201548152602001600c820154815250509050919050565b600a8181548110610e6d57600080fd5b90600052602060002090600d0201600091509050806000018054610e9090615a54565b80601f0160208091040260200160405190810160405280929190818152602001828054610ebc90615a54565b8015610f095780601f10610ede57610100808354040283529160200191610f09565b820191906000526020600020905b815481529060010190602001808311610eec57829003601f168201915b505050505090806001018054610f1e90615a54565b80601f0160208091040260200160405190810160405280929190818152602001828054610f4a90615a54565b8015610f975780601f10610f6c57610100808354040283529160200191610f97565b820191906000526020600020905b815481529060010190602001808311610f7a57829003601f168201915b505050505090806002018054610fac90615a54565b80601f0160208091040260200160405190810160405280929190818152602001828054610fd890615a54565b80156110255780601f10610ffa57610100808354040283529160200191611025565b820191906000526020600020905b81548152906001019060200180831161100857829003601f168201915b50505050509080600301805461103a90615a54565b80601f016020809104026020016040519081016040528092919081815260200182805461106690615a54565b80156110b35780601f10611088576101008083540402835291602001916110b3565b820191906000526020600020905b81548152906001019060200180831161109657829003601f168201915b50505050509080600801549080600901549080600b01549080600c0154905088565b6000600680549050905090565b6110ed83838361193c565b60006009600083815260200190815260200160002054905060008190505b6001600860008773ffffffffffffffffffffffffffffffffffffffff1673ffffffffffffffffffffffffffffffffffffffff1681526020019081526020016000208054905061115a9190615c07565b8110156112bf57600860008673ffffffffffffffffffffffffffffffffffffffff1673ffffffffffffffffffffffffffffffffffffffff1681526020019081526020016000206001826111ad9190615c3b565b815481106111be576111bd615ba9565b5b9060005260206000200154600860008773ffffffffffffffffffffffffffffffffffffffff1673ffffffffffffffffffffffffffffffffffffffff168152602001908152602001600020828154811061121a57611219615ba9565b5b906000526020600020018190555060096000600860008873ffffffffffffffffffffffffffffffffffffffff1673ffffffffffffffffffffffffffffffffffffffff168152602001908152602001600020838154811061127d5761127c615ba9565b5b9060005260206000200154815260200190815260200160002060008154809291906112a790615c6f565b919050555080806112b790615c98565b91505061110b565b50600860008573ffffffffffffffffffffffffffffffffffffffff1673ffffffffffffffffffffffffffffffffffffffff16815260200190815260200160002080548061130f5761130e615ce0565b5b6001900381819060005260206000200160009055905561132f838361419b565b50505050565b6060601060008473ffffffffffffffffffffffffffffffffffffffff1673ffffffffffffffffffffffffffffffffffffffff16815260200190815260200160002060008373ffffffffffffffffffffffffffffffffffffffff1673ffffffffffffffffffffffffffffffffffffffff168152602001908152602001600020805480602002602001604051908101604052809291908181526020016000905b8282101561193057838290600052602060002090600d0201604051806101a001604052908160008201805461140790615a54565b80601f016020809104026020016040519081016040528092919081815260200182805461143390615a54565b80156114805780601f1061145557610100808354040283529160200191611480565b820191906000526020600020905b81548152906001019060200180831161146357829003601f168201915b5050505050815260200160018201805461149990615a54565b80601f01602080910402602001604051908101604052809291908181526020018280546114c590615a54565b80156115125780601f106114e757610100808354040283529160200191611512565b820191906000526020600020905b8154815290600101906020018083116114f557829003601f168201915b5050505050815260200160028201805461152b90615a54565b80601f016020809104026020016040519081016040528092919081815260200182805461155790615a54565b80156115a45780601f10611579576101008083540402835291602001916115a4565b820191906000526020600020905b81548152906001019060200180831161158757829003601f168201915b505050505081526020016003820180546115bd90615a54565b80601f01602080910402602001604051908101604052809291908181526020018280546115e990615a54565b80156116365780601f1061160b57610100808354040283529160200191611636565b820191906000526020600020905b81548152906001019060200180831161161957829003601f168201915b5050505050815260200160048201805480602002602001604051908101604052809291908181526020016000905b8282101561171057838290600052602060002001805461168390615a54565b80601f01602080910402602001604051908101604052809291908181526020018280546116af90615a54565b80156116fc5780601f106116d1576101008083540402835291602001916116fc565b820191906000526020600020905b8154815290600101906020018083116116df57829003601f168201915b505050505081526020019060010190611664565b5050505081526020016005820180548060200260200160405190810160405280929190818152602001828054801561176757602002820191906000526020600020905b815481526020019060010190808311611753575b50505050508152602001600682018054806020026020016040519081016040528092919081815260200182805480156117bf57602002820191906000526020600020905b8154815260200190600101908083116117ab575b505050505081526020016007820180548060200260200160405190810160405280929190818152602001828054801561181757602002820191906000526020600020905b815481526020019060010190808311611803575b505050505081526020016008820154815260200160098201548152602001600a8201805480602002602001604051908101604052809291908181526020016000905b8282101561190557838290600052602060002001805461187890615a54565b80601f01602080910402602001604051908101604052809291908181526020018280546118a490615a54565b80156118f15780601f106118c6576101008083540402835291602001916118f1565b820191906000526020600020905b8154815290600101906020018083116118d457829003601f168201915b505050505081526020019060010190611859565b505050508152602001600b8201548152602001600c82015481525050815260200190600101906113d3565b50505050905092915050565b611946338261425f565b61194f57600080fd5b61195a8383836142ee565b505050565b600061196a83612e59565b82106119ab576040517f08c379a00000000000000000000000000000000000000000000000000000000081526004016119a290615d5b565b60405180910390fd5b600860008473ffffffffffffffffffffffffffffffffffffffff1673ffffffffffffffffffffffffffffffffffffffff16815260200190815260200160002082815481106119fc576119fb615ba9565b5b9060005260206000200154905092915050565b6000611a196110d5565b8210611a5a576040517f08c379a0000000000000000000000000000000000000000000000000000000008152600401611a5190615dc7565b60405180910390fd5b60068281548110611a6e57611a6d615ba9565b5b90600052602060002001549050919050565b6003600d60008573ffffffffffffffffffffffffffffffffffffffff1673ffffffffffffffffffffffffffffffffffffffff1681526020019081526020016000205414611b02576040517f08c379a0000000000000000000000000000000000000000000000000000000008152600401611af990615e33565b60405180910390fd5b6000601360008381526020019081526020016000205403611b58576040517f08c379a0000000000000000000000000000000000000000000000000000000008152600401611b4f90615ec5565b60405180910390fd5b611b638383836110e2565b601360008281526020019081526020016000206000815480929190611b8790615c6f565b9190505550601060008473ffffffffffffffffffffffffffffffffffffffff1673ffffffffffffffffffffffffffffffffffffffff16815260200190815260200160002060008373ffffffffffffffffffffffffffffffffffffffff1673ffffffffffffffffffffffffffffffffffffffff168152602001908152602001600020600a8281548110611c1c57611c1b615ba9565b5b90600052602060002090600d020190806001815401808255809150506001900390600052602060002090600d020160009091909190915060008201816000019081611c6791906160a7565b5060018201816001019081611c7c91906160a7565b5060028201816002019081611c9191906160a7565b5060038201816003019081611ca691906160a7565b506004820181600401908054611cbd9291906148b7565b506005820181600501908054611cd4929190614914565b506006820181600601908054611ceb929190614914565b506007820181600701908054611d02929190614914565b506008820154816008015560098201548160090155600a820181600a01908054611d2d9291906148b7565b50600b82015481600b0155600c82015481600c01555050505050565b6000806003600084815260200190815260200160002060009054906101000a900473ffffffffffffffffffffffffffffffffffffffff169050600073ffffffffffffffffffffffffffffffffffffffff168173ffffffffffffffffffffffffffffffffffffffff1603611df1576040517f08c379a0000000000000000000000000000000000000000000000000000000008152600401611de890616201565b60405180910390fd5b80915050919050565b6060600c60008373ffffffffffffffffffffffffffffffffffffffff1673ffffffffffffffffffffffffffffffffffffffff168152602001908152602001600020805480602002602001604051908101604052809291908181526020016000905b828210156123b857838290600052602060002090600d0201604051806101a0016040529081600082018054611e8f90615a54565b80601f0160208091040260200160405190810160405280929190818152602001828054611ebb90615a54565b8015611f085780601f10611edd57610100808354040283529160200191611f08565b820191906000526020600020905b815481529060010190602001808311611eeb57829003601f168201915b50505050508152602001600182018054611f2190615a54565b80601f0160208091040260200160405190810160405280929190818152602001828054611f4d90615a54565b8015611f9a5780601f10611f6f57610100808354040283529160200191611f9a565b820191906000526020600020905b815481529060010190602001808311611f7d57829003601f168201915b50505050508152602001600282018054611fb390615a54565b80601f0160208091040260200160405190810160405280929190818152602001828054611fdf90615a54565b801561202c5780601f106120015761010080835404028352916020019161202c565b820191906000526020600020905b81548152906001019060200180831161200f57829003601f168201915b5050505050815260200160038201805461204590615a54565b80601f016020809104026020016040519081016040528092919081815260200182805461207190615a54565b80156120be5780601f10612093576101008083540402835291602001916120be565b820191906000526020600020905b8154815290600101906020018083116120a157829003601f168201915b5050505050815260200160048201805480602002602001604051908101604052809291908181526020016000905b8282101561219857838290600052602060002001805461210b90615a54565b80601f016020809104026020016040519081016040528092919081815260200182805461213790615a54565b80156121845780601f1061215957610100808354040283529160200191612184565b820191906000526020600020905b81548152906001019060200180831161216757829003601f168201915b5050505050815260200190600101906120ec565b505050508152602001600582018054806020026020016040519081016040528092919081815260200182805480156121ef57602002820191906000526020600020905b8154815260200190600101908083116121db575b505050505081526020016006820180548060200260200160405190810160405280929190818152602001828054801561224757602002820191906000526020600020905b815481526020019060010190808311612233575b505050505081526020016007820180548060200260200160405190810160405280929190818152602001828054801561229f57602002820191906000526020600020905b81548152602001906001019080831161228b575b505050505081526020016008820154815260200160098201548152602001600a8201805480602002602001604051908101604052809291908181526020016000905b8282101561238d57838290600052602060002001805461230090615a54565b80601f016020809104026020016040519081016040528092919081815260200182805461232c90615a54565b80156123795780601f1061234e57610100808354040283529160200191612379565b820191906000526020600020905b81548152906001019060200180831161235c57829003601f168201915b5050505050815260200190600101906122e1565b505050508152602001600b8201548152602001600c8201548152505081526020019060010190611e5b565b505050509050919050565b6123ce8383836110e2565b600b60008373ffffffffffffffffffffffffffffffffffffffff1673ffffffffffffffffffffffffffffffffffffffff168152602001908152602001600020819080600181540180825580915050600190039060005260206000200160009091909190915055600c60008373ffffffffffffffffffffffffffffffffffffffff1673ffffffffffffffffffffffffffffffffffffffff168152602001908152602001600020600a828154811061248757612486615ba9565b5b90600052602060002090600d020190806001815401808255809150506001900390600052602060002090600d0201600090919091909150600082018160000190816124d291906160a7565b50600182018160010190816124e791906160a7565b50600282018160020190816124fc91906160a7565b506003820181600301908161251191906160a7565b5060048201816004019080546125289291906148b7565b50600582018160050190805461253f929190614914565b506006820181600601908054612556929190614914565b50600782018160070190805461256d929190614914565b506008820154816008015560098201548160090155600a820181600a019080546125989291906148b7565b50600b82015481600b0155600c82015481600c015550506000600a82815481106125c5576125c4615ba9565b5b90600052602060002090600d0201604051806101a00160405290816000820180546125ef90615a54565b80601f016020809104026020016040519081016040528092919081815260200182805461261b90615a54565b80156126685780601f1061263d57610100808354040283529160200191612668565b820191906000526020600020905b81548152906001019060200180831161264b57829003601f168201915b5050505050815260200160018201805461268190615a54565b80601f01602080910402602001604051908101604052809291908181526020018280546126ad90615a54565b80156126fa5780601f106126cf576101008083540402835291602001916126fa565b820191906000526020600020905b8154815290600101906020018083116126dd57829003601f168201915b5050505050815260200160028201805461271390615a54565b80601f016020809104026020016040519081016040528092919081815260200182805461273f90615a54565b801561278c5780601f106127615761010080835404028352916020019161278c565b820191906000526020600020905b81548152906001019060200180831161276f57829003601f168201915b505050505081526020016003820180546127a590615a54565b80601f01602080910402602001604051908101604052809291908181526020018280546127d190615a54565b801561281e5780601f106127f35761010080835404028352916020019161281e565b820191906000526020600020905b81548152906001019060200180831161280157829003601f168201915b5050505050815260200160048201805480602002602001604051908101604052809291908181526020016000905b828210156128f857838290600052602060002001805461286b90615a54565b80601f016020809104026020016040519081016040528092919081815260200182805461289790615a54565b80156128e45780601f106128b9576101008083540402835291602001916128e4565b820191906000526020600020905b8154815290600101906020018083116128c757829003601f168201915b50505050508152602001906001019061284c565b5050505081526020016005820180548060200260200160405190810160405280929190818152602001828054801561294f57602002820191906000526020600020905b81548152602001906001019080831161293b575b50505050508152602001600682018054806020026020016040519081016040528092919081815260200182805480156129a757602002820191906000526020600020905b815481526020019060010190808311612993575b50505050508152602001600782018054806020026020016040519081016040528092919081815260200182805480156129ff57602002820191906000526020600020905b8154815260200190600101908083116129eb575b505050505081526020016008820154815260200160098201548152602001600a8201805480602002602001604051908101604052809291908181526020016000905b82821015612aed578382906000526020600020018054612a6090615a54565b80601f0160208091040260200160405190810160405280929190818152602001828054612a8c90615a54565b8015612ad95780601f10612aae57610100808354040283529160200191612ad9565b820191906000526020600020905b815481529060010190602001808311612abc57829003601f168201915b505050505081526020019060010190612a41565b505050508152602001600b8201548152602001600c82015481525050905060018161012001511115612c9b57601160008473ffffffffffffffffffffffffffffffffffffffff1673ffffffffffffffffffffffffffffffffffffffff1681526020019081526020016000208190806001815401808255809150506001900390600052602060002090600d02016000909190919091506000820151816000019081612b979190616221565b506020820151816001019081612bad9190616221565b506040820151816002019081612bc39190616221565b506060820151816003019081612bd99190616221565b506080820151816004019080519060200190612bf6929190614966565b5060a0820151816005019080519060200190612c139291906149bf565b5060c0820151816006019080519060200190612c309291906149bf565b5060e0820151816007019080519060200190612c4d9291906149bf565b506101008201518160080155610120820151816009015561014082015181600a019080519060200190612c81929190614966565b5061016082015181600b015561018082015181600c015550505b601060008573ffffffffffffffffffffffffffffffffffffffff1673ffffffffffffffffffffffffffffffffffffffff16815260200190815260200160002060008473ffffffffffffffffffffffffffffffffffffffff1673ffffffffffffffffffffffffffffffffffffffff168152602001908152602001600020600a8381548110612d2b57612d2a615ba9565b5b90600052602060002090600d020190806001815401808255809150506001900390600052602060002090600d020160009091909190915060008201816000019081612d7691906160a7565b5060018201816001019081612d8b91906160a7565b5060028201816002019081612da091906160a7565b5060038201816003019081612db591906160a7565b506004820181600401908054612dcc9291906148b7565b506005820181600501908054612de3929190614914565b506006820181600601908054612dfa929190614914565b506007820181600701908054612e11929190614914565b506008820154816008015560098201548160090155600a820181600a01908054612e3c9291906148b7565b50600b82015481600b0155600c82015481600c0155505050505050565b60008073ffffffffffffffffffffffffffffffffffffffff168273ffffffffffffffffffffffffffffffffffffffff1603612ec9576040517f08c379a0000000000000000000000000000000000000000000000000000000008152600401612ec090616201565b60405180910390fd5b612f10600460008473ffffffffffffffffffffffffffffffffffffffff1673ffffffffffffffffffffffffffffffffffffffff168152602001908152602001600020614513565b9050919050565b6060600b60008373ffffffffffffffffffffffffffffffffffffffff1673ffffffffffffffffffffffffffffffffffffffff168152602001908152602001600020805480602002602001604051908101604052809291908181526020018280548015612fa257602002820191906000526020600020905b815481526020019060010190808311612f8e575b50505050509050919050565b601460003373ffffffffffffffffffffffffffffffffffffffff1673ffffffffffffffffffffffffffffffffffffffff16815260200190815260200160002081908060018154018082558091505060019003906000526020600020016000909190919091505550565b6003600d60008373ffffffffffffffffffffffffffffffffffffffff1673ffffffffffffffffffffffffffffffffffffffff1681526020019081526020016000208190555050565b600060136000838152602001908152602001600020549050919050565b6001600d60008373ffffffffffffffffffffffffffffffffffffffff1673ffffffffffffffffffffffffffffffffffffffff1681526020019081526020016000208190555050565b6000600d60008373ffffffffffffffffffffffffffffffffffffffff1673ffffffffffffffffffffffffffffffffffffffff168152602001908152602001600020549050919050565b80600001518160200151826060015183608001518461016001516000805b600a8054905081101561339a576000805b600a83815481106131505761314f615ba9565b5b90600052602060002090600d02016004018054905081101561320b5785818151811061317f5761317e615ba9565b5b602002602001015180519060200120600a84815481106131a2576131a1615ba9565b5b90600052602060002090600d020160040182815481106131c5576131c4615ba9565b5b906000526020600020016040516131dc9190616396565b6040518091039020036131f85781806131f490615c98565b9250505b808061320390615c98565b91505061313c565b508451600a838154811061322257613221615ba9565b5b90600052602060002090600d02016004018054905014801561326b5750600a828154811061325357613252615ba9565b5b90600052602060002090600d02016004018054905081145b801561329b575083600a838154811061328757613286615ba9565b5b90600052602060002090600d0201600b0154145b80156132e657508780519060200120600a83815481106132be576132bd615ba9565b5b90600052602060002090600d02016000016040516132dc9190616396565b6040518091039020145b801561333157508680519060200120600a838154811061330957613308615ba9565b5b90600052602060002090600d02016001016040516133279190616396565b6040518091039020145b801561337c57508580519060200120600a838154811061335457613353615ba9565b5b90600052602060002090600d02016003016040516133729190616396565b6040518091039020145b1561338657600192505b50808061339290615c98565b91505061312b565b5080156133dc576040517f08c379a00000000000000000000000000000000000000000000000000000000081526004016133d39061641f565b60405180910390fd5b6002600d60003373ffffffffffffffffffffffffffffffffffffffff1673ffffffffffffffffffffffffffffffffffffffff168152602001908152602001600020541461345e576040517f08c379a00000000000000000000000000000000000000000000000000000000081526004016134559061648b565b60405180910390fd5b600a8790806001815401808255809150506001900390600052602060002090600d0201600090919091909150600082015181600001908161349f9190616221565b5060208201518160010190816134b59190616221565b5060408201518160020190816134cb9190616221565b5060608201518160030190816134e19190616221565b5060808201518160040190805190602001906134fe929190614966565b5060a082015181600501908051906020019061351b9291906149bf565b5060c08201518160060190805190602001906135389291906149bf565b5060e08201518160070190805190602001906135559291906149bf565b506101008201518160080155610120820151816009015561014082015181600a019080519060200190613589929190614966565b5061016082015181600b015561018082015181600c0155505060006001600a805490506135b69190615c07565b9050600c60003373ffffffffffffffffffffffffffffffffffffffff1673ffffffffffffffffffffffffffffffffffffffff1681526020019081526020016000208890806001815401808255809150506001900390600052602060002090600d020160009091909190915060008201518160000190816136369190616221565b50602082015181600101908161364c9190616221565b5060408201518160020190816136629190616221565b5060608201518160030190816136789190616221565b506080820151816004019080519060200190613695929190614966565b5060a08201518160050190805190602001906136b29291906149bf565b5060c08201518160060190805190602001906136cf9291906149bf565b5060e08201518160070190805190602001906136ec9291906149bf565b506101008201518160080155610120820151816009015561014082015181600a019080519060200190613720929190614966565b5061016082015181600b015561018082015181600c0155505087610120015160136000838152602001908152602001600020819055506137603382614521565b61376981612fae565b5050505050505050565b60606002805461378290615a54565b80601f01602080910402602001604051908101604052809291908181526020018280546137ae90615a54565b80156137fb5780601f106137d0576101008083540402835291602001916137fb565b820191906000526020600020905b8154815290600101906020018083116137de57829003601f168201915b5050505050905090565b600061381082612e59565b9050919050565b600060136000838152602001908152602001600020540361386d576040517f08c379a000000000000000000000000000000000000000000000000000000000815260040161386490615ec5565b60405180910390fd5b600b60008373ffffffffffffffffffffffffffffffffffffffff1673ffffffffffffffffffffffffffffffffffffffff168152602001908152602001600020819080600181540180825580915050600190039060005260206000200160009091909190915055600c60008373ffffffffffffffffffffffffffffffffffffffff1673ffffffffffffffffffffffffffffffffffffffff168152602001908152602001600020600a828154811061392657613925615ba9565b5b90600052602060002090600d020190806001815401808255809150506001900390600052602060002090600d02016000909190919091506000820181600001908161397191906160a7565b506001820181600101908161398691906160a7565b506002820181600201908161399b91906160a7565b50600382018160030190816139b091906160a7565b5060048201816004019080546139c79291906148b7565b5060058201816005019080546139de929190614914565b5060068201816006019080546139f5929190614914565b506007820181600701908054613a0c929190614914565b506008820154816008015560098201548160090155600a820181600a01908054613a379291906148b7565b50600b82015481600b0155600c82015481600c01555050613a598383836110e2565b505050565b6060601160008373ffffffffffffffffffffffffffffffffffffffff1673ffffffffffffffffffffffffffffffffffffffff168152602001908152602001600020805480602002602001604051908101604052809291908181526020016000905b8282101561401c57838290600052602060002090600d0201604051806101a0016040529081600082018054613af390615a54565b80601f0160208091040260200160405190810160405280929190818152602001828054613b1f90615a54565b8015613b6c5780601f10613b4157610100808354040283529160200191613b6c565b820191906000526020600020905b815481529060010190602001808311613b4f57829003601f168201915b50505050508152602001600182018054613b8590615a54565b80601f0160208091040260200160405190810160405280929190818152602001828054613bb190615a54565b8015613bfe5780601f10613bd357610100808354040283529160200191613bfe565b820191906000526020600020905b815481529060010190602001808311613be157829003601f168201915b50505050508152602001600282018054613c1790615a54565b80601f0160208091040260200160405190810160405280929190818152602001828054613c4390615a54565b8015613c905780601f10613c6557610100808354040283529160200191613c90565b820191906000526020600020905b815481529060010190602001808311613c7357829003601f168201915b50505050508152602001600382018054613ca990615a54565b80601f0160208091040260200160405190810160405280929190818152602001828054613cd590615a54565b8015613d225780601f10613cf757610100808354040283529160200191613d22565b820191906000526020600020905b815481529060010190602001808311613d0557829003601f168201915b5050505050815260200160048201805480602002602001604051908101604052809291908181526020016000905b82821015613dfc578382906000526020600020018054613d6f90615a54565b80601f0160208091040260200160405190810160405280929190818152602001828054613d9b90615a54565b8015613de85780601f10613dbd57610100808354040283529160200191613de8565b820191906000526020600020905b815481529060010190602001808311613dcb57829003601f168201915b505050505081526020019060010190613d50565b50505050815260200160058201805480602002602001604051908101604052809291908181526020018280548015613e5357602002820191906000526020600020905b815481526020019060010190808311613e3f575b5050505050815260200160068201805480602002602001604051908101604052809291908181526020018280548015613eab57602002820191906000526020600020905b815481526020019060010190808311613e97575b5050505050815260200160078201805480602002602001604051908101604052809291908181526020018280548015613f0357602002820191906000526020600020905b815481526020019060010190808311613eef575b505050505081526020016008820154815260200160098201548152602001600a8201805480602002602001604051908101604052809291908181526020016000905b82821015613ff1578382906000526020600020018054613f6490615a54565b80601f0160208091040260200160405190810160405280929190818152602001828054613f9090615a54565b8015613fdd5780601f10613fb257610100808354040283529160200191613fdd565b820191906000526020600020905b815481529060010190602001808311613fc057829003601f168201915b505050505081526020019060010190613f45565b505050508152602001600b8201548152602001600c8201548152505081526020019060010190613abf565b505050509050919050565b6002600d60008373ffffffffffffffffffffffffffffffffffffffff1673ffffffffffffffffffffffffffffffffffffffff1681526020019081526020016000208190555050565b6060601460003373ffffffffffffffffffffffffffffffffffffffff1673ffffffffffffffffffffffffffffffffffffffff1681526020019081526020016000208054806020026020016040519081016040528092919081815260200182805480156140fa57602002820191906000526020600020905b8154815260200190600101908083116140e6575b5050505050905090565b6060600860008373ffffffffffffffffffffffffffffffffffffffff1673ffffffffffffffffffffffffffffffffffffffff16815260200190815260200160002080548060200260200160405190810160405280929190818152602001828054801561418f57602002820191906000526020600020905b81548152602001906001019080831161417b575b50505050509050919050565b600860008373ffffffffffffffffffffffffffffffffffffffff1673ffffffffffffffffffffffffffffffffffffffff168152602001908152602001600020805490506009600083815260200190815260200160002081905550600860008373ffffffffffffffffffffffffffffffffffffffff1673ffffffffffffffffffffffffffffffffffffffff1681526020019081526020016000208190806001815401808255809150506001900390600052602060002001600090919091909150555050565b600061426a82614542565b6142a9576040517f08c379a00000000000000000000000000000000000000000000000000000000081526004016142a0906164f7565b60405180910390fd5b60006142b483611d49565b90508073ffffffffffffffffffffffffffffffffffffffff168473ffffffffffffffffffffffffffffffffffffffff161491505092915050565b600073ffffffffffffffffffffffffffffffffffffffff168273ffffffffffffffffffffffffffffffffffffffff160361435d576040517f08c379a000000000000000000000000000000000000000000000000000000000815260040161435490616589565b60405180910390fd5b8273ffffffffffffffffffffffffffffffffffffffff1661437d82611d49565b73ffffffffffffffffffffffffffffffffffffffff16146143d3576040517f08c379a00000000000000000000000000000000000000000000000000000000081526004016143ca9061661b565b60405180910390fd5b61441a600460008573ffffffffffffffffffffffffffffffffffffffff1673ffffffffffffffffffffffffffffffffffffffff1681526020019081526020016000206145b4565b614461600460008473ffffffffffffffffffffffffffffffffffffffff1673ffffffffffffffffffffffffffffffffffffffff1681526020019081526020016000206145d7565b816003600083815260200190815260200160002060006101000a81548173ffffffffffffffffffffffffffffffffffffffff021916908373ffffffffffffffffffffffffffffffffffffffff160217905550808273ffffffffffffffffffffffffffffffffffffffff168473ffffffffffffffffffffffffffffffffffffffff167fddf252ad1be2c89b69c2b068fc378daa952ba7f163c4a11628f55a4df523b3ef60405160405180910390a4505050565b600081600001549050919050565b61452b82826145f6565b614534816147a7565b61453e828261419b565b5050565b6000806003600084815260200190815260200160002060009054906101000a900473ffffffffffffffffffffffffffffffffffffffff169050600073ffffffffffffffffffffffffffffffffffffffff168173ffffffffffffffffffffffffffffffffffffffff161415915050919050565b6145cc600182600001546147f090919063ffffffff16565b816000018190555050565b60018160000160008282546145ec9190615c3b565b9250508190555050565b600073ffffffffffffffffffffffffffffffffffffffff168273ffffffffffffffffffffffffffffffffffffffff1603614665576040517f08c379a000000000000000000000000000000000000000000000000000000000815260040161465c906166ad565b60405180910390fd5b61466e81614542565b156146ae576040517f08c379a00000000000000000000000000000000000000000000000000000000081526004016146a590616719565b60405180910390fd5b816003600083815260200190815260200160002060006101000a81548173ffffffffffffffffffffffffffffffffffffffff021916908373ffffffffffffffffffffffffffffffffffffffff160217905550614747600460008473ffffffffffffffffffffffffffffffffffffffff1673ffffffffffffffffffffffffffffffffffffffff1681526020019081526020016000206145d7565b808273ffffffffffffffffffffffffffffffffffffffff16600073ffffffffffffffffffffffffffffffffffffffff167fddf252ad1be2c89b69c2b068fc378daa952ba7f163c4a11628f55a4df523b3ef60405160405180910390a45050565b6006805490506007600083815260200190815260200160002081905550600681908060018154018082558091505060019003906000526020600020016000909190919091505550565b600082821115614835576040517f08c379a000000000000000000000000000000000000000000000000000000000815260040161482c90616785565b60405180910390fd5b600082846148439190615c07565b90508091505092915050565b604051806101a00160405280606081526020016060815260200160608152602001606081526020016060815260200160608152602001606081526020016060815260200160008152602001600081526020016060815260200160008152602001600081525090565b8280548282559060005260206000209081019282156149035760005260206000209182015b8281111561490257828290816148f291906160a7565b50916001019190600101906148dc565b5b5090506149109190614a0c565b5090565b8280548282559060005260206000209081019282156149555760005260206000209182015b82811115614954578254825591600101919060010190614939565b5b5090506149629190614a30565b5090565b8280548282559060005260206000209081019282156149ae579160200282015b828111156149ad57825182908161499d9190616221565b5091602001919060010190614986565b5b5090506149bb9190614a0c565b5090565b8280548282559060005260206000209081019282156149fb579160200282015b828111156149fa5782518255916020019190600101906149df565b5b509050614a089190614a30565b5090565b5b80821115614a2c5760008181614a239190614a4d565b50600101614a0d565b5090565b5b80821115614a49576000816000905550600101614a31565b5090565b508054614a5990615a54565b6000825580601f10614a6b5750614a8a565b601f016020900490600052602060002090810190614a899190614a30565b5b50565b6000604051905090565b600080fd5b600080fd5b60007fffffffff0000000000000000000000000000000000000000000000000000000082169050919050565b614ad681614aa1565b8114614ae157600080fd5b50565b600081359050614af381614acd565b92915050565b600060208284031215614b0f57614b0e614a97565b5b6000614b1d84828501614ae4565b91505092915050565b60008115159050919050565b614b3b81614b26565b82525050565b6000602082019050614b566000830184614b32565b92915050565b600081519050919050565b600082825260208201905092915050565b60005b83811015614b96578082015181840152602081019050614b7b565b60008484015250505050565b6000601f19601f8301169050919050565b6000614bbe82614b5c565b614bc88185614b67565b9350614bd8818560208601614b78565b614be181614ba2565b840191505092915050565b60006020820190508181036000830152614c068184614bb3565b905092915050565b600073ffffffffffffffffffffffffffffffffffffffff82169050919050565b6000614c3982614c0e565b9050919050565b614c4981614c2e565b8114614c5457600080fd5b50565b600081359050614c6681614c40565b92915050565b6000819050919050565b614c7f81614c6c565b8114614c8a57600080fd5b50565b600081359050614c9c81614c76565b92915050565b60008060408385031215614cb957614cb8614a97565b5b6000614cc785828601614c57565b9250506020614cd885828601614c8d565b9150509250929050565b600060208284031215614cf857614cf7614a97565b5b6000614d0684828501614c8d565b91505092915050565b600082825260208201905092915050565b6000614d2b82614b5c565b614d358185614d0f565b9350614d45818560208601614b78565b614d4e81614ba2565b840191505092915050565b600081519050919050565b600082825260208201905092915050565b6000819050602082019050919050565b6000614d918383614d20565b905092915050565b6000602082019050919050565b6000614db182614d59565b614dbb8185614d64565b935083602082028501614dcd85614d75565b8060005b85811015614e095784840389528151614dea8582614d85565b9450614df583614d99565b925060208a01995050600181019050614dd1565b50829750879550505050505092915050565b600081519050919050565b600082825260208201905092915050565b6000819050602082019050919050565b614e5081614c6c565b82525050565b6000614e628383614e47565b60208301905092915050565b6000602082019050919050565b6000614e8682614e1b565b614e908185614e26565b9350614e9b83614e37565b8060005b83811015614ecc578151614eb38882614e56565b9750614ebe83614e6e565b925050600181019050614e9f565b5085935050505092915050565b60006101a0830160008301518482036000860152614ef78282614d20565b91505060208301518482036020860152614f118282614d20565b91505060408301518482036040860152614f2b8282614d20565b91505060608301518482036060860152614f458282614d20565b91505060808301518482036080860152614f5f8282614da6565b91505060a083015184820360a0860152614f798282614e7b565b91505060c083015184820360c0860152614f938282614e7b565b91505060e083015184820360e0860152614fad8282614e7b565b915050610100830151614fc4610100860182614e47565b50610120830151614fd9610120860182614e47565b50610140830151848203610140860152614ff38282614da6565b91505061016083015161500a610160860182614e47565b5061018083015161501f610180860182614e47565b508091505092915050565b600060208201905081810360008301526150448184614ed9565b905092915050565b61505581614c6c565b82525050565b6000610100820190508181036000830152615076818b614bb3565b9050818103602083015261508a818a614bb3565b9050818103604083015261509e8189614bb3565b905081810360608301526150b28188614bb3565b90506150c1608083018761504c565b6150ce60a083018661504c565b6150db60c083018561504c565b6150e860e083018461504c565b9998505050505050505050565b600060208201905061510a600083018461504c565b92915050565b60008060006060848603121561512957615128614a97565b5b600061513786828701614c57565b935050602061514886828701614c57565b925050604061515986828701614c8d565b9150509250925092565b6000806040838503121561517a57615179614a97565b5b600061518885828601614c57565b925050602061519985828601614c57565b9150509250929050565b600081519050919050565b600082825260208201905092915050565b6000819050602082019050919050565b60006101a08301600083015184820360008601526151ed8282614d20565b915050602083015184820360208601526152078282614d20565b915050604083015184820360408601526152218282614d20565b9150506060830151848203606086015261523b8282614d20565b915050608083015184820360808601526152558282614da6565b91505060a083015184820360a086015261526f8282614e7b565b91505060c083015184820360c08601526152898282614e7b565b91505060e083015184820360e08601526152a38282614e7b565b9150506101008301516152ba610100860182614e47565b506101208301516152cf610120860182614e47565b506101408301518482036101408601526152e98282614da6565b915050610160830151615300610160860182614e47565b50610180830151615315610180860182614e47565b508091505092915050565b600061532c83836151cf565b905092915050565b6000602082019050919050565b600061534c826151a3565b61535681856151ae565b935083602082028501615368856151bf565b8060005b858110156153a457848403895281516153858582615320565b945061539083615334565b925060208a0199505060018101905061536c565b50829750879550505050505092915050565b600060208201905081810360008301526153d08184615341565b905092915050565b6153e181614c2e565b82525050565b60006020820190506153fc60008301846153d8565b92915050565b60006020828403121561541857615417614a97565b5b600061542684828501614c57565b91505092915050565b600082825260208201905092915050565b600061544b82614e1b565b615455818561542f565b935061546083614e37565b8060005b838110156154915781516154788882614e56565b975061548383614e6e565b925050600181019050615464565b5085935050505092915050565b600060208201905081810360008301526154b88184615440565b905092915050565b600080fd5b7f4e487b7100000000000000000000000000000000000000000000000000000000600052604160045260246000fd5b6154fd82614ba2565b810181811067ffffffffffffffff8211171561551c5761551b6154c5565b5b80604052505050565b600061552f614a8d565b905061553b82826154f4565b919050565b600080fd5b600080fd5b600080fd5b600067ffffffffffffffff82111561556a576155696154c5565b5b61557382614ba2565b9050602081019050919050565b82818337600083830152505050565b60006155a261559d8461554f565b615525565b9050828152602081018484840111156155be576155bd61554a565b5b6155c9848285615580565b509392505050565b600082601f8301126155e6576155e5615545565b5b81356155f684826020860161558f565b91505092915050565b600067ffffffffffffffff82111561561a576156196154c5565b5b602082029050602081019050919050565b600080fd5b600061564361563e846155ff565b615525565b905080838252602082019050602084028301858111156156665761566561562b565b5b835b818110156156ad57803567ffffffffffffffff81111561568b5761568a615545565b5b80860161569889826155d1565b85526020850194505050602081019050615668565b5050509392505050565b600082601f8301126156cc576156cb615545565b5b81356156dc848260208601615630565b91505092915050565b600067ffffffffffffffff821115615700576156ff6154c5565b5b602082029050602081019050919050565b600061572461571f846156e5565b615525565b905080838252602082019050602084028301858111156157475761574661562b565b5b835b81811015615770578061575c8882614c8d565b845260208401935050602081019050615749565b5050509392505050565b600082601f83011261578f5761578e615545565b5b813561579f848260208601615711565b91505092915050565b60006101a082840312156157bf576157be6154c0565b5b6157ca6101a0615525565b9050600082013567ffffffffffffffff8111156157ea576157e9615540565b5b6157f6848285016155d1565b600083015250602082013567ffffffffffffffff81111561581a57615819615540565b5b615826848285016155d1565b602083015250604082013567ffffffffffffffff81111561584a57615849615540565b5b615856848285016155d1565b604083015250606082013567ffffffffffffffff81111561587a57615879615540565b5b615886848285016155d1565b606083015250608082013567ffffffffffffffff8111156158aa576158a9615540565b5b6158b6848285016156b7565b60808301525060a082013567ffffffffffffffff8111156158da576158d9615540565b5b6158e68482850161577a565b60a08301525060c082013567ffffffffffffffff81111561590a57615909615540565b5b6159168482850161577a565b60c08301525060e082013567ffffffffffffffff81111561593a57615939615540565b5b6159468482850161577a565b60e08301525061010061595b84828501614c8d565b6101008301525061012061597184828501614c8d565b6101208301525061014082013567ffffffffffffffff81111561599757615996615540565b5b6159a3848285016156b7565b610140830152506101606159b984828501614c8d565b610160830152506101806159cf84828501614c8d565b6101808301525092915050565b6000602082840312156159f2576159f1614a97565b5b600082013567ffffffffffffffff811115615a1057615a0f614a9c565b5b615a1c848285016157a8565b91505092915050565b7f4e487b7100000000000000000000000000000000000000000000000000000000600052602260045260246000fd5b60006002820490506001821680615a6c57607f821691505b602082108103615a7f57615a7e615a25565b5b50919050565b7f4572726f72202d20617070726f76616c20746f2063757272656e74206f776e6560008201527f7200000000000000000000000000000000000000000000000000000000000000602082015250565b6000615ae1602183614b67565b9150615aec82615a85565b604082019050919050565b60006020820190508181036000830152615b1081615ad4565b9050919050565b7f43757272656e742063616c6c6572206973206e6f7420746865206f776e65722060008201527f6f662074686520746f6b656e0000000000000000000000000000000000000000602082015250565b6000615b73602c83614b67565b9150615b7e82615b17565b604082019050919050565b60006020820190508181036000830152615ba281615b66565b9050919050565b7f4e487b7100000000000000000000000000000000000000000000000000000000600052603260045260246000fd5b7f4e487b7100000000000000000000000000000000000000000000000000000000600052601160045260246000fd5b6000615c1282614c6c565b9150615c1d83614c6c565b9250828203905081811115615c3557615c34615bd8565b5b92915050565b6000615c4682614c6c565b9150615c5183614c6c565b9250828201905080821115615c6957615c68615bd8565b5b92915050565b6000615c7a82614c6c565b915060008203615c8d57615c8c615bd8565b5b600182039050919050565b6000615ca382614c6c565b91507fffffffffffffffffffffffffffffffffffffffffffffffffffffffffffffffff8203615cd557615cd4615bd8565b5b600182019050919050565b7f4e487b7100000000000000000000000000000000000000000000000000000000600052603160045260246000fd5b7f6f776e657220696e646578206973206f7574206f6620626f756e647321000000600082015250565b6000615d45601d83614b67565b9150615d5082615d0f565b602082019050919050565b60006020820190508181036000830152615d7481615d38565b9050919050565b7f676c6f62616c20696e646578206973206f7574206f6620626f756e6473210000600082015250565b6000615db1601e83614b67565b9150615dbc82615d7b565b602082019050919050565b60006020820190508181036000830152615de081615da4565b9050919050565b7f596f7520646f206e6f74207065726d697474696f6e0000000000000000000000600082015250565b6000615e1d601583614b67565b9150615e2882615de7565b602082019050919050565b60006020820190508181036000830152615e4c81615e10565b9050919050565b7f546865206e756d626572206f662064697370656e73696e67206861732062656560008201527f6e2065786365656465642e000000000000000000000000000000000000000000602082015250565b6000615eaf602b83614b67565b9150615eba82615e53565b604082019050919050565b60006020820190508181036000830152615ede81615ea2565b9050919050565b600081549050615ef481615a54565b9050919050565b60008190508160005260206000209050919050565b60006020601f8301049050919050565b600082821b905092915050565b600060088302615f5d7fffffffffffffffffffffffffffffffffffffffffffffffffffffffffffffffff82615f20565b615f678683615f20565b95508019841693508086168417925050509392505050565b6000819050919050565b6000615fa4615f9f615f9a84614c6c565b615f7f565b614c6c565b9050919050565b6000819050919050565b615fbe83615f89565b615fd2615fca82615fab565b848454615f2d565b825550505050565b600090565b615fe7615fda565b615ff2818484615fb5565b505050565b5b818110156160165761600b600082615fdf565b600181019050615ff8565b5050565b601f82111561605b5761602c81615efb565b61603584615f10565b81016020851015616044578190505b61605861605085615f10565b830182615ff7565b50505b505050565b600082821c905092915050565b600061607e60001984600802616060565b1980831691505092915050565b6000616097838361606d565b9150826002028217905092915050565b8181036160b557505061618d565b6160be82615ee5565b67ffffffffffffffff8111156160d7576160d66154c5565b5b6160e18254615a54565b6160ec82828561601a565b6000601f83116001811461611b5760008415616109578287015490505b616113858261608b565b865550616186565b601f19841661612987615efb565b965061613486615efb565b60005b8281101561615c57848901548255600182019150600185019450602081019050616137565b868310156161795784890154616175601f89168261606d565b8355505b6001600288020188555050505b5050505050505b565b7f6f776e657220717565727920666f72206e6f6e2d6578697374656e7420746f6b60008201527f656e000000000000000000000000000000000000000000000000000000000000602082015250565b60006161eb602283614b67565b91506161f68261618f565b604082019050919050565b6000602082019050818103600083015261621a816161de565b9050919050565b61622a82614b5c565b67ffffffffffffffff811115616243576162426154c5565b5b61624d8254615a54565b61625882828561601a565b600060209050601f83116001811461628b5760008415616279578287015190505b616283858261608b565b8655506162eb565b601f19841661629986615efb565b60005b828110156162c15784890151825560018201915060208501945060208101905061629c565b868310156162de57848901516162da601f89168261606d565b8355505b6001600288020188555050505b505050505050565b600081905092915050565b60008190508160005260206000209050919050565b6000815461632081615a54565b61632a81866162f3565b94506001821660008114616345576001811461635a5761638d565b60ff198316865281151582028601935061638d565b616363856162fe565b60005b8381101561638557815481890152600182019150602081019050616366565b838801955050505b50505092915050565b60006163a28284616313565b915081905092915050565b7f4572726f72203a20616c7265616479206578697374732070726553637269707460008201527f696f6e2000000000000000000000000000000000000000000000000000000000602082015250565b6000616409602483614b67565b9150616414826163ad565b604082019050919050565b60006020820190508181036000830152616438816163fc565b9050919050565b7f596f7520646f206e6f742068617665207065726d697373696f6e000000000000600082015250565b6000616475601a83614b67565b91506164808261643f565b602082019050919050565b600060208201905081810360008301526164a481616468565b9050919050565b7f746f6b656e20646f6573206e6f74206578697374000000000000000000000000600082015250565b60006164e1601483614b67565b91506164ec826164ab565b602082019050919050565b60006020820190508181036000830152616510816164d4565b9050919050565b7f4572726f72202d20455243373231205472616e7366657220746f20746865207a60008201527f65726f2061646472657373000000000000000000000000000000000000000000602082015250565b6000616573602b83614b67565b915061657e82616517565b604082019050919050565b600060208201905081810360008301526165a281616566565b9050919050565b7f547279696e6720746f207472616e73666572206120746f6b656e20746865206160008201527f64647265737320646f6573206e6f74206f776e21000000000000000000000000602082015250565b6000616605603483614b67565b9150616610826165a9565b604082019050919050565b60006020820190508181036000830152616634816165f8565b9050919050565b7f4552433732313a206d696e74696e6720746f20746865207a65726f206164647260008201527f6573000000000000000000000000000000000000000000000000000000000000602082015250565b6000616697602283614b67565b91506166a28261663b565b604082019050919050565b600060208201905081810360008301526166c68161668a565b9050919050565b7f4552433732313a20746f6b656e20616c7265616479206d696e74656400000000600082015250565b6000616703601c83614b67565b915061670e826166cd565b602082019050919050565b60006020820190508181036000830152616732816166f6565b9050919050565b7f536166654d6174683a207375627472616374696f6e206f766572666c6f770000600082015250565b600061676f601e83614b67565b915061677a82616739565b602082019050919050565b6000602082019050818103600083015261679e81616762565b905091905056fea2646970667358221220d240100cb1586288b190f17c77e339abcd34e35ab2db26476bde7a57c1856f3764736f6c63430008110033",
  "immutableReferences": {},
  "source": "// SPDX-License-Identifier: MIT\r\npragma solidity ^0.8.0;\r\n\r\nimport './ERC721Connector.sol';\r\n\r\ncontract PreScription is ERC721Connector {\r\n\r\n    // array to store our nfts\r\n    //  \r\n   struct  preScription {\r\n        // preScriptionExists        ?   .\r\n        string userName; //  \r\n        string hosName; //  \r\n        string pharName; //  \r\n        string dCode; // \r\n        string[] dName; // \r\n\r\n        uint[] dosage; // \r\n        uint[] doseNum; //  \r\n        uint[] dosePeriod; // \r\n        uint dispensingCount; //   \r\n        uint prescriptionCount; // \r\n        // uint period; //  ? .\r\n        string[] howtoTake; // \r\n        uint pubDate; // \r\n        uint prepDate; //  \r\n        \r\n        }\r\n        \r\n        //        \r\n   \r\n   //  \r\n\r\n   \r\n    preScription[] public preScriptions;\r\n    // preScription pp;\r\n    \r\n   \r\n\r\n    \r\n    mapping (address => uint[]) _allTokensOwned; //     ID \r\n\r\n    mapping (address => preScription[]) _allListFromAccount; //    \r\n    \r\n    mapping (address => uint) _accountAuth;  //   (1 , 2 , 3 )\r\n    \r\n    mapping(string => bool) _preScriptionsExists;\r\n\r\n    \r\n    // mapping (uint256 => uint ) _blockTotokenid;\r\n\r\n    // mapping (address => uint[]) _addToblock;\r\n    //  =>   =>  ID\r\n    mapping (address => mapping (address => uint[])) _patientListFromAccount2;\r\n\r\n    mapping (address => mapping (address => preScription[])) _patientListFromAccount;\r\n\r\n    //  \r\n    mapping (address => preScription[]) _regularPrescription;\r\n\r\n     \r\n    // //   ->    \r\n    // mapping(address => address[])\r\n    // //   \r\n    // mapping(address => uint[])\r\n\r\n    //   \r\n    mapping (uint256 => uint256) _prsCountOfTokenId;\r\n    //   \r\n    mapping (uint256 => uint256) _offerCountOfTokenId;\r\n\r\n        // _address    \r\n        function getAllListFromAccount(address _address) public view returns(preScription[] memory){\r\n            return _allListFromAccount[_address];\r\n        }\r\n\r\n         //     \r\n        function getAllTokensOwned(address _address) public view returns(uint[] memory){\r\n            return _allTokensOwned[_address];\r\n        }\r\n        // _from _to     \r\n        function getPatientListFromAccount(address _from, address _to) public view returns(preScription[] memory) {\r\n            return _patientListFromAccount[_from][_to];\r\n        }\r\n        function getOfferCountOfToken(uint _tokenId) public view returns(uint){\r\n            return _offerCountOfTokenId[_tokenId];\r\n        }\r\n        //  \r\n        function getRegularPreScription(address _address) public view returns(preScription[] memory) {\r\n            return _regularPrescription[_address];\r\n        }\r\n       \r\n\r\n\r\n       \r\n        // \r\n        function setPatientAuth(address _address) public {\r\n        _accountAuth[_address] = 1;\r\n    }\r\n        // \r\n        function setDoctorAuth(address _address) public {\r\n        _accountAuth[_address] = 2;\r\n    }\r\n        //\r\n        function setPharmacyAuth(address _address) public {\r\n        _accountAuth[_address] = 3;\r\n    }\r\n        //    \r\n        function getAuthOfAccount(address _address) public view returns(uint){\r\n            return _accountAuth[_address];\r\n        }\r\n\r\n\r\n    //    ?\r\n    //   (  ID)\r\n    mapping (address => uint256[]) _mintedTokens;\r\n\r\n  \r\n    mapping (address => uint256[]) _alltokensOfphaccount;\r\n   \r\n    //       ????\r\n    \r\n    \r\n    //   (msg.sender)      \r\n\r\n    function setMintedTokens(uint _tokenId) public {\r\n        _mintedTokens[msg.sender].push(_tokenId);\r\n    }\r\n    function getMintedTokens() public view returns (uint256[] memory){\r\n        return _mintedTokens[msg.sender];\r\n    }\r\n\r\n\r\n    \r\n    //   \r\n    modifier prsExists( \r\n        string memory _userName, \r\n        string memory _hosName,\r\n        string memory _dCode,\r\n        string[] memory _dName, // \r\n        uint _pubDate // \r\n  \r\n        ) {\r\n           bool check = false;\r\n           for (uint i = 0; i < preScriptions.length; i++){\r\n                uint cnt = 0; \r\n                for(uint j = 0; j < preScriptions[i].dName.length; j++){\r\n                    if(\r\n                         keccak256(bytes(preScriptions[i].dName[j])) == keccak256(bytes(_dName[j])) \r\n                    ){\r\n                           cnt++;\r\n                    }\r\n                }\r\n            if(preScriptions[i].dName.length == _dName.length && \r\n                    cnt == preScriptions[i].dName.length && \r\n                    preScriptions[i].pubDate == _pubDate &&\r\n                keccak256(bytes(preScriptions[i].userName)) == keccak256(bytes(_userName)) &&\r\n                keccak256(bytes(preScriptions[i].hosName)) == keccak256(bytes(_hosName)) &&\r\n                keccak256(bytes(preScriptions[i].dCode)) == keccak256(bytes(_dCode))\r\n           \r\n            ) {\r\n                check =true;\r\n            }\r\n           } \r\n           require(!check, \"Error : already exists preScription \");\r\n           _;\r\n        }\r\n   \r\n        function getBalanceOf(address _address) public view returns(uint256) {\r\n            return balanceOf(_address);\r\n        }\r\n\r\n        //   / /  \r\n\r\n        // \r\n        function transferPreScription(address _from, address _to, uint _tokenId) public {\r\n            //     \r\n            require(_offerCountOfTokenId[_tokenId] != 0, 'The number of dispensing has been exceeded.');\r\n            //       ex)    \r\n            //      ID\r\n            _allTokensOwned[_to].push(_tokenId);\r\n            _allListFromAccount[_to].push(preScriptions[_tokenId]);\r\n           transferPrs(_from, _to, _tokenId);\r\n        }\r\n\r\n        \r\n        //    \r\n        function transferDoctorToPatient(address _from, address _to, uint _tokenId) public {\r\n              \r\n              transferPrs(_from, _to, _tokenId);\r\n            _allTokensOwned[_to].push(_tokenId);\r\n            _allListFromAccount[_to].push(preScriptions[_tokenId]);\r\n            preScription memory prs = preScriptions[_tokenId];\r\n\r\n        //     //   1    .\r\n              if(prs.prescriptionCount > 1){\r\n            _regularPrescription[_to].push(prs);\r\n        }\r\n        //     // _patientListFromAccount[_from][_to].push(_tokenId);\r\n            _patientListFromAccount[_from][_to].push(preScriptions[_tokenId]);\r\n\r\n        }\r\n        //   \r\n        function transferPharmacyToPatient(address _from, address _to, uint _tokenId) public {\r\n            require(_accountAuth[_from] == 3, 'You do not permittion');\r\n            require(_offerCountOfTokenId[_tokenId] != 0, 'The number of dispensing has been exceeded.');\r\n            transferPrs(_from, _to, _tokenId);\r\n            _offerCountOfTokenId[_tokenId]--;\r\n           // _patientListFromAccount[_from][_to].push(_tokenId);\r\n            _patientListFromAccount[_from][_to].push(preScriptions[_tokenId]);\r\n        }\r\n    \r\n//     ()\r\n  function mint(\r\n   \r\n        preScription memory _preScription\r\n         ) \r\n        public prsExists ( _preScription.userName, _preScription.hosName,  _preScription.dCode, _preScription.dName, _preScription.pubDate ) {\r\n            require(_accountAuth[msg.sender] == 2, 'You do not have permission');\r\n          \r\n        preScriptions.push(_preScription);\r\n        \r\n      \r\n        uint _id = preScriptions.length - 1;\r\n\r\n        _allListFromAccount[msg.sender].push(_preScription);\r\n        // _blockTotokenid[block.number] = _id;\r\n        // _addToblock[msg.sender].push(block.number);\r\n        //     0   .\r\n      \r\n        _offerCountOfTokenId[_id] = _preScription.prescriptionCount;\r\n        // .push no longer returns the length but a ref to the added element\r\n        _mint(msg.sender, _id);\r\n        //  (  )\r\n        setMintedTokens(_id);\r\n\r\n        // _preScriptionsExists[_preScription] = true;\r\n\r\n    }\r\n\r\n    function getPreScriptionByIndex(uint index) public view returns(preScription memory) {\r\n        return preScriptions[index];\r\n    }\r\n\r\n    \r\n\r\n\r\n    constructor() ERC721Connector('PreScription','Script') {}\r\n\r\n}\r\n\r\n\r\n",
  "sourcePath": "C:\\Users\\SSAFY\\Desktop\\YakSSoak\\S07P22E205\\smart-contract\\src\\contracts\\PreSciption.sol",
  "compiler": {
    "name": "solc",
    "version": "0.8.17+commit.8df45f5f.Emscripten.clang"
  },
  "schemaVersion": "3.4.9",
  "updatedAt": "2022-10-05T11:51:18.437Z",
  "networkType": "ethereum",
  "devdoc": {
    "kind": "dev",
    "methods": {
      "ownerOf(uint256)": {
        "details": "NFTs assigned to zero address are considered invalid, and queries  about them do throw.",
        "params": {
          "_tokenId": "The identifier for an NFT"
        },
        "returns": {
          "_0": "The address of the owner of the NFT"
        }
      },
      "supportsInterface(bytes4)": {
        "details": "Interface identification is specified in ERC-165. This function  uses less than 30,000 gas.",
        "params": {
          "interfaceID": "The interface identifier, as specified in ERC-165"
        },
        "returns": {
          "_0": "`true` if the contract implements `interfaceID` and  `interfaceID` is not 0xffffffff, `false` otherwise"
        }
      }
    },
    "version": 1
  },
  "userdoc": {
    "kind": "user",
    "methods": {
      "ownerOf(uint256)": {
        "notice": "Find the owner of an NFT"
      },
      "supportsInterface(bytes4)": {
        "notice": "Query if a contract implements an interface"
      }
    },
    "version": 1
  }
}