{
  "contractName": "PreScription",
  "abi": [
    {
      "inputs": [],
      "stateMutability": "nonpayable",
      "type": "constructor"
    },
    {
      "anonymous": false,
      "inputs": [
        {
          "indexed": true,
          "internalType": "address",
          "name": "_owner",
          "type": "address"
        },
        {
          "indexed": true,
          "internalType": "address",
          "name": "_approved",
          "type": "address"
        },
        {
          "indexed": true,
          "internalType": "uint256",
          "name": "_tokenId",
          "type": "uint256"
        }
      ],
      "name": "Approval",
      "type": "event"
    },
    {
      "anonymous": false,
      "inputs": [
        {
          "indexed": true,
          "internalType": "address",
          "name": "_from",
          "type": "address"
        },
        {
          "indexed": true,
          "internalType": "address",
          "name": "_to",
          "type": "address"
        },
        {
          "indexed": true,
          "internalType": "uint256",
          "name": "_tokenId",
          "type": "uint256"
        }
      ],
      "name": "Transfer",
      "type": "event"
    },
    {
      "inputs": [
        {
          "internalType": "address",
          "name": "owner",
          "type": "address"
        }
      ],
      "name": "alltokenOfOwner",
      "outputs": [
        {
          "internalType": "uint256[]",
          "name": "",
          "type": "uint256[]"
        }
      ],
      "stateMutability": "view",
      "type": "function",
      "constant": true
    },
    {
      "inputs": [
        {
          "internalType": "address",
          "name": "_to",
          "type": "address"
        },
        {
          "internalType": "uint256",
          "name": "tokenId",
          "type": "uint256"
        }
      ],
      "name": "approve",
      "outputs": [],
      "stateMutability": "nonpayable",
      "type": "function"
    },
    {
      "inputs": [
        {
          "internalType": "address",
          "name": "_owner",
          "type": "address"
        }
      ],
      "name": "balanceOf",
      "outputs": [
        {
          "internalType": "uint256",
          "name": "",
          "type": "uint256"
        }
      ],
      "stateMutability": "view",
      "type": "function",
      "constant": true
    },
    {
      "inputs": [],
      "name": "name",
      "outputs": [
        {
          "internalType": "string",
          "name": "",
          "type": "string"
        }
      ],
      "stateMutability": "view",
      "type": "function",
      "constant": true
    },
    {
      "inputs": [
        {
          "internalType": "uint256",
          "name": "_tokenId",
          "type": "uint256"
        }
      ],
      "name": "ownerOf",
      "outputs": [
        {
          "internalType": "address",
          "name": "",
          "type": "address"
        }
      ],
      "stateMutability": "view",
      "type": "function",
      "constant": true
    },
    {
      "inputs": [
        {
          "internalType": "uint256",
          "name": "",
          "type": "uint256"
        }
      ],
      "name": "preScriptions",
      "outputs": [
        {
          "internalType": "string",
          "name": "userName",
          "type": "string"
        },
        {
          "internalType": "string",
          "name": "hosName",
          "type": "string"
        },
        {
          "internalType": "string",
          "name": "pharName",
          "type": "string"
        },
        {
          "internalType": "string",
          "name": "dCode",
          "type": "string"
        },
        {
          "internalType": "uint256",
          "name": "dispensingCount",
          "type": "uint256"
        },
        {
          "internalType": "uint256",
          "name": "prescriptionCount",
          "type": "uint256"
        },
        {
          "internalType": "string",
          "name": "howtoTake",
          "type": "string"
        },
        {
          "internalType": "uint256",
          "name": "pubDate",
          "type": "uint256"
        },
        {
          "internalType": "uint256",
          "name": "prepDate",
          "type": "uint256"
        }
      ],
      "stateMutability": "view",
      "type": "function",
      "constant": true
    },
    {
      "inputs": [
        {
          "internalType": "bytes4",
          "name": "interfaceID",
          "type": "bytes4"
        }
      ],
      "name": "supportsInterface",
      "outputs": [
        {
          "internalType": "bool",
          "name": "",
          "type": "bool"
        }
      ],
      "stateMutability": "view",
      "type": "function",
      "constant": true
    },
    {
      "inputs": [],
      "name": "symbol",
      "outputs": [
        {
          "internalType": "string",
          "name": "",
          "type": "string"
        }
      ],
      "stateMutability": "view",
      "type": "function",
      "constant": true
    },
    {
      "inputs": [
        {
          "internalType": "uint256",
          "name": "index",
          "type": "uint256"
        }
      ],
      "name": "tokenByIndex",
      "outputs": [
        {
          "internalType": "uint256",
          "name": "",
          "type": "uint256"
        }
      ],
      "stateMutability": "view",
      "type": "function",
      "constant": true
    },
    {
      "inputs": [
        {
          "internalType": "address",
          "name": "owner",
          "type": "address"
        },
        {
          "internalType": "uint256",
          "name": "index",
          "type": "uint256"
        }
      ],
      "name": "tokenOfOwnerByIndex",
      "outputs": [
        {
          "internalType": "uint256",
          "name": "",
          "type": "uint256"
        }
      ],
      "stateMutability": "view",
      "type": "function",
      "constant": true
    },
    {
      "inputs": [],
      "name": "totalSupply",
      "outputs": [
        {
          "internalType": "uint256",
          "name": "",
          "type": "uint256"
        }
      ],
      "stateMutability": "view",
      "type": "function",
      "constant": true
    },
    {
      "inputs": [
        {
          "internalType": "address",
          "name": "_from",
          "type": "address"
        },
        {
          "internalType": "address",
          "name": "_to",
          "type": "address"
        },
        {
          "internalType": "uint256",
          "name": "_tokenId",
          "type": "uint256"
        }
      ],
      "name": "transferFrom",
      "outputs": [],
      "stateMutability": "nonpayable",
      "type": "function"
    },
    {
      "inputs": [
        {
          "internalType": "address",
          "name": "_address",
          "type": "address"
        }
      ],
      "name": "setPatientAuth",
      "outputs": [],
      "stateMutability": "nonpayable",
      "type": "function"
    },
    {
      "inputs": [
        {
          "internalType": "address",
          "name": "_address",
          "type": "address"
        }
      ],
      "name": "setDoctorAuth",
      "outputs": [],
      "stateMutability": "nonpayable",
      "type": "function"
    },
    {
      "inputs": [
        {
          "internalType": "address",
          "name": "_address",
          "type": "address"
        }
      ],
      "name": "setPharmacyAuth",
      "outputs": [],
      "stateMutability": "nonpayable",
      "type": "function"
    },
    {
      "inputs": [
        {
          "internalType": "uint256",
          "name": "_tokenId",
          "type": "uint256"
        }
      ],
      "name": "setMintedTokens",
      "outputs": [],
      "stateMutability": "nonpayable",
      "type": "function"
    },
    {
      "inputs": [],
      "name": "getMintedTokens",
      "outputs": [
        {
          "internalType": "uint256[]",
          "name": "",
          "type": "uint256[]"
        }
      ],
      "stateMutability": "view",
      "type": "function",
      "constant": true
    },
    {
      "inputs": [
        {
          "internalType": "address",
          "name": "_from",
          "type": "address"
        },
        {
          "internalType": "address",
          "name": "_to",
          "type": "address"
        },
        {
          "internalType": "uint256",
          "name": "_tokenId",
          "type": "uint256"
        }
      ],
      "name": "transferPreScription",
      "outputs": [],
      "stateMutability": "nonpayable",
      "type": "function"
    },
    {
      "inputs": [
        {
          "internalType": "address",
          "name": "_from",
          "type": "address"
        },
        {
          "internalType": "address",
          "name": "_to",
          "type": "address"
        },
        {
          "internalType": "uint256",
          "name": "_tokenId",
          "type": "uint256"
        }
      ],
      "name": "transferTopatient",
      "outputs": [],
      "stateMutability": "nonpayable",
      "type": "function"
    },
    {
      "inputs": [
        {
          "components": [
            {
              "internalType": "string",
              "name": "userName",
              "type": "string"
            },
            {
              "internalType": "string",
              "name": "hosName",
              "type": "string"
            },
            {
              "internalType": "string",
              "name": "pharName",
              "type": "string"
            },
            {
              "internalType": "string",
              "name": "dCode",
              "type": "string"
            },
            {
              "internalType": "string[]",
              "name": "dName",
              "type": "string[]"
            },
            {
              "internalType": "uint256[]",
              "name": "dosage",
              "type": "uint256[]"
            },
            {
              "internalType": "uint256[]",
              "name": "doseNum",
              "type": "uint256[]"
            },
            {
              "internalType": "uint256[]",
              "name": "dosePeriod",
              "type": "uint256[]"
            },
            {
              "internalType": "uint256",
              "name": "dispensingCount",
              "type": "uint256"
            },
            {
              "internalType": "uint256",
              "name": "prescriptionCount",
              "type": "uint256"
            },
            {
              "internalType": "string",
              "name": "howtoTake",
              "type": "string"
            },
            {
              "internalType": "uint256",
              "name": "pubDate",
              "type": "uint256"
            },
            {
              "internalType": "uint256",
              "name": "prepDate",
              "type": "uint256"
            }
          ],
          "internalType": "struct PreScription.preScription",
          "name": "_preScription",
          "type": "tuple"
        }
      ],
      "name": "mint",
      "outputs": [],
      "stateMutability": "nonpayable",
      "type": "function"
    },
    {
      "inputs": [
        {
          "internalType": "uint256",
          "name": "index",
          "type": "uint256"
        }
      ],
      "name": "getPreScriptionByIndex",
      "outputs": [
        {
          "components": [
            {
              "internalType": "string",
              "name": "userName",
              "type": "string"
            },
            {
              "internalType": "string",
              "name": "hosName",
              "type": "string"
            },
            {
              "internalType": "string",
              "name": "pharName",
              "type": "string"
            },
            {
              "internalType": "string",
              "name": "dCode",
              "type": "string"
            },
            {
              "internalType": "string[]",
              "name": "dName",
              "type": "string[]"
            },
            {
              "internalType": "uint256[]",
              "name": "dosage",
              "type": "uint256[]"
            },
            {
              "internalType": "uint256[]",
              "name": "doseNum",
              "type": "uint256[]"
            },
            {
              "internalType": "uint256[]",
              "name": "dosePeriod",
              "type": "uint256[]"
            },
            {
              "internalType": "uint256",
              "name": "dispensingCount",
              "type": "uint256"
            },
            {
              "internalType": "uint256",
              "name": "prescriptionCount",
              "type": "uint256"
            },
            {
              "internalType": "string",
              "name": "howtoTake",
              "type": "string"
            },
            {
              "internalType": "uint256",
              "name": "pubDate",
              "type": "uint256"
            },
            {
              "internalType": "uint256",
              "name": "prepDate",
              "type": "uint256"
            }
          ],
          "internalType": "struct PreScription.preScription",
          "name": "",
          "type": "tuple"
        }
      ],
      "stateMutability": "nonpayable",
      "type": "function"
    }
  ],
  "bytecode": "0x60806040526000600b553480156200001657600080fd5b506040518060400160405280600c81526020017f507265536372697074696f6e00000000000000000000000000000000000000008152506040518060400160405280600681526020017f53637269707400000000000000000000000000000000000000000000000000008152508181620000b67f01ffc9a7a5cef8baa21ed3c5c0d7e23accb804b619e9333b597f47a0d84076e26200022160201b60201c565b620001097f13b182f4c0e5b2efbac0efe6cf6d756c8b89f4b79c5707a043ed9ea740574ee97f7feaf19471f34a12a7eaf32d5f3090aa2260ea8624dc8a138e74e0bf0f623076186200022160201b60201c565b81600190816200011a919062000572565b5080600290816200012c919062000572565b505050620001a47f22c82707ba960a14c7592ffb6b8cfaa073fed0048a84cc7fa41f6b5bd8e7f2e47f3a6eb71757dfc6e784c1459d26270140c2c147d95ca985c80026fc5301c3eca17f8a7e378434598edc36d108689a030cbc9d7d465de4f74c71bae1028eed6a881b18186200022160201b60201c565b620002197f8230223f691b981717299fae9549350a0d894555723531f02108b1f522c1a7977f6da5e1284143cdd2d15038a59bde3be031250f00291d64494c12d967b3a4e0c37fc53637662700e6c65104059db8bba34439e0c32483ab7c34e3ccae52c739549518186200022160201b60201c565b5050620006dc565b63ffffffff60e01b817bffffffffffffffffffffffffffffffffffffffffffffffffffffffff1916036200028c576040517f08c379a00000000000000000000000000000000000000000000000000000000081526004016200028390620006ba565b60405180910390fd5b6001600080837bffffffffffffffffffffffffffffffffffffffffffffffffffffffff19167bffffffffffffffffffffffffffffffffffffffffffffffffffffffff1916815260200190815260200160002060006101000a81548160ff02191690831515021790555050565b600081519050919050565b7f4e487b7100000000000000000000000000000000000000000000000000000000600052604160045260246000fd5b7f4e487b7100000000000000000000000000000000000000000000000000000000600052602260045260246000fd5b600060028204905060018216806200037a57607f821691505b60208210810362000390576200038f62000332565b5b50919050565b60008190508160005260206000209050919050565b60006020601f8301049050919050565b600082821b905092915050565b600060088302620003fa7fffffffffffffffffffffffffffffffffffffffffffffffffffffffffffffffff82620003bb565b620004068683620003bb565b95508019841693508086168417925050509392505050565b6000819050919050565b6000819050919050565b6000620004536200044d62000447846200041e565b62000428565b6200041e565b9050919050565b6000819050919050565b6200046f8362000432565b620004876200047e826200045a565b848454620003c8565b825550505050565b600090565b6200049e6200048f565b620004ab81848462000464565b505050565b5b81811015620004d357620004c760008262000494565b600181019050620004b1565b5050565b601f8211156200052257620004ec8162000396565b620004f784620003ab565b8101602085101562000507578190505b6200051f6200051685620003ab565b830182620004b0565b50505b505050565b600082821c905092915050565b6000620005476000198460080262000527565b1980831691505092915050565b600062000562838362000534565b9150826002028217905092915050565b6200057d82620002f8565b67ffffffffffffffff81111562000599576200059862000303565b5b620005a5825462000361565b620005b2828285620004d7565b600060209050601f831160018114620005ea5760008415620005d5578287015190505b620005e1858262000554565b86555062000651565b601f198416620005fa8662000396565b60005b828110156200062457848901518255600182019150602085019450602081019050620005fd565b8683101562000644578489015162000640601f89168262000534565b8355505b6001600288020188555050505b505050505050565b600082825260208201905092915050565b7f496e76616c696420696e74657266616365207265717565737400000000000000600082015250565b6000620006a260198362000659565b9150620006af826200066a565b602082019050919050565b60006020820190508181036000830152620006d58162000693565b9050919050565b613b3d80620006ec6000396000f3fe608060405234801561001057600080fd5b50600436106101375760003560e01c80636352211e116100b857806395d89b411161007c57806395d89b4114610378578063aba55a8614610396578063b1085476146103b2578063d6204d28146103ce578063dc965290146103ea578063e241ff481461040857610137565b80636352211e146102c457806370a08231146102f4578063785e320d146103245780637a38699b14610340578063831034331461035c57610137565b806318160ddd116100ff57806318160ddd1461020e57806323b872dd1461022c5780632f745c59146102485780634933e56e146102785780634f6ccce71461029457610137565b806301ffc9a71461013c57806306fdde031461016c578063095ea7b31461018a5780630a54de1a146101a657806311bb5e7a146101d6575b600080fd5b6101566004803603810190610151919061230e565b610438565b6040516101639190612356565b60405180910390f35b61017461049f565b6040516101819190612401565b60405180910390f35b6101a4600480360381019061019f91906124b7565b610531565b005b6101c060048036038101906101bb91906124f7565b6106cc565b6040516101cd919061283f565b60405180910390f35b6101f060048036038101906101eb91906124f7565b610bec565b60405161020599989796959493929190612870565b60405180910390f35b610216610ef2565b6040516102239190612920565b60405180910390f35b6102466004803603810190610241919061293b565b610eff565b005b610262600480360381019061025d91906124b7565b610f22565b60405161026f9190612920565b60405180910390f35b610292600480360381019061028d9190612eaa565b610fd2565b005b6102ae60048036038101906102a991906124f7565b611457565b6040516102bb9190612920565b60405180910390f35b6102de60048036038101906102d991906124f7565b6114c8565b6040516102eb9190612f02565b60405180910390f35b61030e60048036038101906103099190612f1d565b611579565b60405161031b9190612920565b60405180910390f35b61033e600480360381019061033991906124f7565b611637565b005b61035a60048036038101906103559190612f1d565b6116a0565b005b61037660048036038101906103719190612f1d565b6116e8565b005b610380611730565b60405161038d9190612401565b60405180910390f35b6103b060048036038101906103ab919061293b565b6117c2565b005b6103cc60048036038101906103c7919061293b565b611838565b005b6103e860048036038101906103e39190612f1d565b6118eb565b005b6103f2611933565b6040516103ff9190612fb9565b60405180910390f35b610422600480360381019061041d9190612f1d565b6119c8565b60405161042f9190612fb9565b60405180910390f35b6000806000837bffffffffffffffffffffffffffffffffffffffffffffffffffffffff19167bffffffffffffffffffffffffffffffffffffffffffffffffffffffff1916815260200190815260200160002060009054906101000a900460ff169050919050565b6060600180546104ae9061300a565b80601f01602080910402602001604051908101604052809291908181526020018280546104da9061300a565b80156105275780601f106104fc57610100808354040283529160200191610527565b820191906000526020600020905b81548152906001019060200180831161050a57829003601f168201915b5050505050905090565b600061053c826114c8565b90508073ffffffffffffffffffffffffffffffffffffffff168373ffffffffffffffffffffffffffffffffffffffff16036105ac576040517f08c379a00000000000000000000000000000000000000000000000000000000081526004016105a3906130ad565b60405180910390fd5b8073ffffffffffffffffffffffffffffffffffffffff163373ffffffffffffffffffffffffffffffffffffffff161461061a576040517f08c379a00000000000000000000000000000000000000000000000000000000081526004016106119061313f565b60405180910390fd5b826005600084815260200190815260200160002060006101000a81548173ffffffffffffffffffffffffffffffffffffffff021916908373ffffffffffffffffffffffffffffffffffffffff160217905550818373ffffffffffffffffffffffffffffffffffffffff168273ffffffffffffffffffffffffffffffffffffffff167f8c5be1e5ebec7d5bd14f71427d1e84f3dd0314c0f7b2291e5b200ac8c7c3b92560405160405180910390a4505050565b6106d4612113565b600a82815481106106e8576106e761315f565b5b90600052602060002090600d0201604051806101a00160405290816000820180546107129061300a565b80601f016020809104026020016040519081016040528092919081815260200182805461073e9061300a565b801561078b5780601f106107605761010080835404028352916020019161078b565b820191906000526020600020905b81548152906001019060200180831161076e57829003601f168201915b505050505081526020016001820180546107a49061300a565b80601f01602080910402602001604051908101604052809291908181526020018280546107d09061300a565b801561081d5780601f106107f25761010080835404028352916020019161081d565b820191906000526020600020905b81548152906001019060200180831161080057829003601f168201915b505050505081526020016002820180546108369061300a565b80601f01602080910402602001604051908101604052809291908181526020018280546108629061300a565b80156108af5780601f10610884576101008083540402835291602001916108af565b820191906000526020600020905b81548152906001019060200180831161089257829003601f168201915b505050505081526020016003820180546108c89061300a565b80601f01602080910402602001604051908101604052809291908181526020018280546108f49061300a565b80156109415780601f1061091657610100808354040283529160200191610941565b820191906000526020600020905b81548152906001019060200180831161092457829003601f168201915b5050505050815260200160048201805480602002602001604051908101604052809291908181526020016000905b82821015610a1b57838290600052602060002001805461098e9061300a565b80601f01602080910402602001604051908101604052809291908181526020018280546109ba9061300a565b8015610a075780601f106109dc57610100808354040283529160200191610a07565b820191906000526020600020905b8154815290600101906020018083116109ea57829003601f168201915b50505050508152602001906001019061096f565b50505050815260200160058201805480602002602001604051908101604052809291908181526020018280548015610a7257602002820191906000526020600020905b815481526020019060010190808311610a5e575b5050505050815260200160068201805480602002602001604051908101604052809291908181526020018280548015610aca57602002820191906000526020600020905b815481526020019060010190808311610ab6575b5050505050815260200160078201805480602002602001604051908101604052809291908181526020018280548015610b2257602002820191906000526020600020905b815481526020019060010190808311610b0e575b505050505081526020016008820154815260200160098201548152602001600a82018054610b4f9061300a565b80601f0160208091040260200160405190810160405280929190818152602001828054610b7b9061300a565b8015610bc85780601f10610b9d57610100808354040283529160200191610bc8565b820191906000526020600020905b815481529060010190602001808311610bab57829003601f168201915b50505050508152602001600b8201548152602001600c820154815250509050919050565b600a8181548110610bfc57600080fd5b90600052602060002090600d0201600091509050806000018054610c1f9061300a565b80601f0160208091040260200160405190810160405280929190818152602001828054610c4b9061300a565b8015610c985780601f10610c6d57610100808354040283529160200191610c98565b820191906000526020600020905b815481529060010190602001808311610c7b57829003601f168201915b505050505090806001018054610cad9061300a565b80601f0160208091040260200160405190810160405280929190818152602001828054610cd99061300a565b8015610d265780601f10610cfb57610100808354040283529160200191610d26565b820191906000526020600020905b815481529060010190602001808311610d0957829003601f168201915b505050505090806002018054610d3b9061300a565b80601f0160208091040260200160405190810160405280929190818152602001828054610d679061300a565b8015610db45780601f10610d8957610100808354040283529160200191610db4565b820191906000526020600020905b815481529060010190602001808311610d9757829003601f168201915b505050505090806003018054610dc99061300a565b80601f0160208091040260200160405190810160405280929190818152602001828054610df59061300a565b8015610e425780601f10610e1757610100808354040283529160200191610e42565b820191906000526020600020905b815481529060010190602001808311610e2557829003601f168201915b50505050509080600801549080600901549080600a018054610e639061300a565b80601f0160208091040260200160405190810160405280929190818152602001828054610e8f9061300a565b8015610edc5780601f10610eb157610100808354040283529160200191610edc565b820191906000526020600020905b815481529060010190602001808311610ebf57829003601f168201915b50505050509080600b01549080600c0154905089565b6000600680549050905090565b610f093382611a5f565b610f1257600080fd5b610f1d838383611aee565b505050565b6000610f2d83611579565b8210610f6e576040517f08c379a0000000000000000000000000000000000000000000000000000000008152600401610f65906131da565b60405180910390fd5b600860008473ffffffffffffffffffffffffffffffffffffffff1673ffffffffffffffffffffffffffffffffffffffff1681526020019081526020016000208281548110610fbf57610fbe61315f565b5b9060005260206000200154905092915050565b80600001518160200151826040015183606001518461010001518561012001516000805b600a805490508110156111a4578780519060200120600a828154811061101f5761101e61315f565b5b90600052602060002090600d020160000160405161103d919061329d565b604051809103902014801561109157508680519060200120600a82815481106110695761106861315f565b5b90600052602060002090600d0201600101604051611087919061329d565b6040518091039020145b80156110dc57508580519060200120600a82815481106110b4576110b361315f565b5b90600052602060002090600d02016002016040516110d2919061329d565b6040518091039020145b801561112757508480519060200120600a82815481106110ff576110fe61315f565b5b90600052602060002090600d020160030160405161111d919061329d565b6040518091039020145b8015611157575083600a82815481106111435761114261315f565b5b90600052602060002090600d020160080154145b8015611187575082600a82815481106111735761117261315f565b5b90600052602060002090600d020160090154145b1561119157600191505b808061119c906132e3565b915050610ff6565b5080156111e6576040517f08c379a00000000000000000000000000000000000000000000000000000000081526004016111dd9061339d565b60405180910390fd5b6002600c60003373ffffffffffffffffffffffffffffffffffffffff1673ffffffffffffffffffffffffffffffffffffffff1681526020019081526020016000205414611268576040517f08c379a000000000000000000000000000000000000000000000000000000000815260040161125f90613409565b60405180910390fd5b600a8890806001815401808255809150506001900390600052602060002090600d020160009091909190915060008201518160000190816112a991906135d5565b5060208201518160010190816112bf91906135d5565b5060408201518160020190816112d591906135d5565b5060608201518160030190816112eb91906135d5565b50608082015181600401908051906020019061130892919061217b565b5060a08201518160050190805190602001906113259291906121d4565b5060c08201518160060190805190602001906113429291906121d4565b5060e082015181600701908051906020019061135f9291906121d4565b506101008201518160080155610120820151816009015561014082015181600a01908161138c91906135d5565b5061016082015181600b015561018082015181600c0155505060006001600a805490506113b991906136a7565b905080600e600043815260200190815260200160002081905550600f60003373ffffffffffffffffffffffffffffffffffffffff1673ffffffffffffffffffffffffffffffffffffffff1681526020019081526020016000204390806001815401808255809150506001900390600052602060002001600090919091909150556114433382611d13565b61144c81611637565b505050505050505050565b6000611461610ef2565b82106114a2576040517f08c379a000000000000000000000000000000000000000000000000000000000815260040161149990613727565b60405180910390fd5b600682815481106114b6576114b561315f565b5b90600052602060002001549050919050565b6000806003600084815260200190815260200160002060009054906101000a900473ffffffffffffffffffffffffffffffffffffffff169050600073ffffffffffffffffffffffffffffffffffffffff168173ffffffffffffffffffffffffffffffffffffffff1603611570576040517f08c379a0000000000000000000000000000000000000000000000000000000008152600401611567906137b9565b60405180910390fd5b80915050919050565b60008073ffffffffffffffffffffffffffffffffffffffff168273ffffffffffffffffffffffffffffffffffffffff16036115e9576040517f08c379a00000000000000000000000000000000000000000000000000000000081526004016115e0906137b9565b60405180910390fd5b611630600460008473ffffffffffffffffffffffffffffffffffffffff1673ffffffffffffffffffffffffffffffffffffffff168152602001908152602001600020611d34565b9050919050565b601e60003373ffffffffffffffffffffffffffffffffffffffff1673ffffffffffffffffffffffffffffffffffffffff16815260200190815260200160002081908060018154018082558091505060019003906000526020600020016000909190919091505550565b6003600c60008373ffffffffffffffffffffffffffffffffffffffff1673ffffffffffffffffffffffffffffffffffffffff1681526020019081526020016000208190555050565b6001600c60008373ffffffffffffffffffffffffffffffffffffffff1673ffffffffffffffffffffffffffffffffffffffff1681526020019081526020016000208190555050565b60606002805461173f9061300a565b80601f016020809104026020016040519081016040528092919081815260200182805461176b9061300a565b80156117b85780601f1061178d576101008083540402835291602001916117b8565b820191906000526020600020905b81548152906001019060200180831161179b57829003601f168201915b5050505050905090565b601f60008373ffffffffffffffffffffffffffffffffffffffff1673ffffffffffffffffffffffffffffffffffffffff168152602001908152602001600020819080600181540180825580915050600190039060005260206000200160009091909190915055611833838383610eff565b505050565b611843838383610eff565b601060008473ffffffffffffffffffffffffffffffffffffffff1673ffffffffffffffffffffffffffffffffffffffff16815260200190815260200160002060008373ffffffffffffffffffffffffffffffffffffffff1673ffffffffffffffffffffffffffffffffffffffff168152602001908152602001600020819080600181540180825580915050600190039060005260206000200160009091909190915055505050565b6002600c60008373ffffffffffffffffffffffffffffffffffffffff1673ffffffffffffffffffffffffffffffffffffffff1681526020019081526020016000208190555050565b6060601e60003373ffffffffffffffffffffffffffffffffffffffff1673ffffffffffffffffffffffffffffffffffffffff1681526020019081526020016000208054806020026020016040519081016040528092919081815260200182805480156119be57602002820191906000526020600020905b8154815260200190600101908083116119aa575b5050505050905090565b6060600860008373ffffffffffffffffffffffffffffffffffffffff1673ffffffffffffffffffffffffffffffffffffffff168152602001908152602001600020805480602002602001604051908101604052809291908181526020018280548015611a5357602002820191906000526020600020905b815481526020019060010190808311611a3f575b50505050509050919050565b6000611a6a82611d42565b611aa9576040517f08c379a0000000000000000000000000000000000000000000000000000000008152600401611aa090613825565b60405180910390fd5b6000611ab4836114c8565b90508073ffffffffffffffffffffffffffffffffffffffff168473ffffffffffffffffffffffffffffffffffffffff161491505092915050565b600073ffffffffffffffffffffffffffffffffffffffff168273ffffffffffffffffffffffffffffffffffffffff1603611b5d576040517f08c379a0000000000000000000000000000000000000000000000000000000008152600401611b54906138b7565b60405180910390fd5b8273ffffffffffffffffffffffffffffffffffffffff16611b7d826114c8565b73ffffffffffffffffffffffffffffffffffffffff1614611bd3576040517f08c379a0000000000000000000000000000000000000000000000000000000008152600401611bca90613949565b60405180910390fd5b611c1a600460008573ffffffffffffffffffffffffffffffffffffffff1673ffffffffffffffffffffffffffffffffffffffff168152602001908152602001600020611db4565b611c61600460008473ffffffffffffffffffffffffffffffffffffffff1673ffffffffffffffffffffffffffffffffffffffff168152602001908152602001600020611dd7565b816003600083815260200190815260200160002060006101000a81548173ffffffffffffffffffffffffffffffffffffffff021916908373ffffffffffffffffffffffffffffffffffffffff160217905550808273ffffffffffffffffffffffffffffffffffffffff168473ffffffffffffffffffffffffffffffffffffffff167fddf252ad1be2c89b69c2b068fc378daa952ba7f163c4a11628f55a4df523b3ef60405160405180910390a4505050565b611d1d8282611df6565b611d2681611fa7565b611d308282611ff0565b5050565b600081600001549050919050565b6000806003600084815260200190815260200160002060009054906101000a900473ffffffffffffffffffffffffffffffffffffffff169050600073ffffffffffffffffffffffffffffffffffffffff168173ffffffffffffffffffffffffffffffffffffffff161415915050919050565b611dcc600182600001546120b490919063ffffffff16565b816000018190555050565b6001816000016000828254611dec9190613969565b9250508190555050565b600073ffffffffffffffffffffffffffffffffffffffff168273ffffffffffffffffffffffffffffffffffffffff1603611e65576040517f08c379a0000000000000000000000000000000000000000000000000000000008152600401611e5c90613a0f565b60405180910390fd5b611e6e81611d42565b15611eae576040517f08c379a0000000000000000000000000000000000000000000000000000000008152600401611ea590613a7b565b60405180910390fd5b816003600083815260200190815260200160002060006101000a81548173ffffffffffffffffffffffffffffffffffffffff021916908373ffffffffffffffffffffffffffffffffffffffff160217905550611f47600460008473ffffffffffffffffffffffffffffffffffffffff1673ffffffffffffffffffffffffffffffffffffffff168152602001908152602001600020611dd7565b808273ffffffffffffffffffffffffffffffffffffffff16600073ffffffffffffffffffffffffffffffffffffffff167fddf252ad1be2c89b69c2b068fc378daa952ba7f163c4a11628f55a4df523b3ef60405160405180910390a45050565b6006805490506007600083815260200190815260200160002081905550600681908060018154018082558091505060019003906000526020600020016000909190919091505550565b600860008373ffffffffffffffffffffffffffffffffffffffff1673ffffffffffffffffffffffffffffffffffffffff168152602001908152602001600020805490506009600083815260200190815260200160002081905550600860008373ffffffffffffffffffffffffffffffffffffffff1673ffffffffffffffffffffffffffffffffffffffff1681526020019081526020016000208190806001815401808255809150506001900390600052602060002001600090919091909150555050565b6000828211156120f9576040517f08c379a00000000000000000000000000000000000000000000000000000000081526004016120f090613ae7565b60405180910390fd5b6000828461210791906136a7565b90508091505092915050565b604051806101a00160405280606081526020016060815260200160608152602001606081526020016060815260200160608152602001606081526020016060815260200160008152602001600081526020016060815260200160008152602001600081525090565b8280548282559060005260206000209081019282156121c3579160200282015b828111156121c25782518290816121b291906135d5565b509160200191906001019061219b565b5b5090506121d09190612221565b5090565b828054828255906000526020600020908101928215612210579160200282015b8281111561220f5782518255916020019190600101906121f4565b5b50905061221d9190612245565b5090565b5b8082111561224157600081816122389190612262565b50600101612222565b5090565b5b8082111561225e576000816000905550600101612246565b5090565b50805461226e9061300a565b6000825580601f10612280575061229f565b601f01602090049060005260206000209081019061229e9190612245565b5b50565b6000604051905090565b600080fd5b600080fd5b60007fffffffff0000000000000000000000000000000000000000000000000000000082169050919050565b6122eb816122b6565b81146122f657600080fd5b50565b600081359050612308816122e2565b92915050565b600060208284031215612324576123236122ac565b5b6000612332848285016122f9565b91505092915050565b60008115159050919050565b6123508161233b565b82525050565b600060208201905061236b6000830184612347565b92915050565b600081519050919050565b600082825260208201905092915050565b60005b838110156123ab578082015181840152602081019050612390565b60008484015250505050565b6000601f19601f8301169050919050565b60006123d382612371565b6123dd818561237c565b93506123ed81856020860161238d565b6123f6816123b7565b840191505092915050565b6000602082019050818103600083015261241b81846123c8565b905092915050565b600073ffffffffffffffffffffffffffffffffffffffff82169050919050565b600061244e82612423565b9050919050565b61245e81612443565b811461246957600080fd5b50565b60008135905061247b81612455565b92915050565b6000819050919050565b61249481612481565b811461249f57600080fd5b50565b6000813590506124b18161248b565b92915050565b600080604083850312156124ce576124cd6122ac565b5b60006124dc8582860161246c565b92505060206124ed858286016124a2565b9150509250929050565b60006020828403121561250d5761250c6122ac565b5b600061251b848285016124a2565b91505092915050565b600082825260208201905092915050565b600061254082612371565b61254a8185612524565b935061255a81856020860161238d565b612563816123b7565b840191505092915050565b600081519050919050565b600082825260208201905092915050565b6000819050602082019050919050565b60006125a68383612535565b905092915050565b6000602082019050919050565b60006125c68261256e565b6125d08185612579565b9350836020820285016125e28561258a565b8060005b8581101561261e57848403895281516125ff858261259a565b945061260a836125ae565b925060208a019950506001810190506125e6565b50829750879550505050505092915050565b600081519050919050565b600082825260208201905092915050565b6000819050602082019050919050565b61266581612481565b82525050565b6000612677838361265c565b60208301905092915050565b6000602082019050919050565b600061269b82612630565b6126a5818561263b565b93506126b08361264c565b8060005b838110156126e15781516126c8888261266b565b97506126d383612683565b9250506001810190506126b4565b5085935050505092915050565b60006101a083016000830151848203600086015261270c8282612535565b915050602083015184820360208601526127268282612535565b915050604083015184820360408601526127408282612535565b9150506060830151848203606086015261275a8282612535565b9150506080830151848203608086015261277482826125bb565b91505060a083015184820360a086015261278e8282612690565b91505060c083015184820360c08601526127a88282612690565b91505060e083015184820360e08601526127c28282612690565b9150506101008301516127d961010086018261265c565b506101208301516127ee61012086018261265c565b506101408301518482036101408601526128088282612535565b91505061016083015161281f61016086018261265c565b5061018083015161283461018086018261265c565b508091505092915050565b6000602082019050818103600083015261285981846126ee565b905092915050565b61286a81612481565b82525050565b600061012082019050818103600083015261288b818c6123c8565b9050818103602083015261289f818b6123c8565b905081810360408301526128b3818a6123c8565b905081810360608301526128c781896123c8565b90506128d66080830188612861565b6128e360a0830187612861565b81810360c08301526128f581866123c8565b905061290460e0830185612861565b612912610100830184612861565b9a9950505050505050505050565b60006020820190506129356000830184612861565b92915050565b600080600060608486031215612954576129536122ac565b5b60006129628682870161246c565b93505060206129738682870161246c565b9250506040612984868287016124a2565b9150509250925092565b600080fd5b7f4e487b7100000000000000000000000000000000000000000000000000000000600052604160045260246000fd5b6129cb826123b7565b810181811067ffffffffffffffff821117156129ea576129e9612993565b5b80604052505050565b60006129fd6122a2565b9050612a0982826129c2565b919050565b600080fd5b600080fd5b600080fd5b600067ffffffffffffffff821115612a3857612a37612993565b5b612a41826123b7565b9050602081019050919050565b82818337600083830152505050565b6000612a70612a6b84612a1d565b6129f3565b905082815260208101848484011115612a8c57612a8b612a18565b5b612a97848285612a4e565b509392505050565b600082601f830112612ab457612ab3612a13565b5b8135612ac4848260208601612a5d565b91505092915050565b600067ffffffffffffffff821115612ae857612ae7612993565b5b602082029050602081019050919050565b600080fd5b6000612b11612b0c84612acd565b6129f3565b90508083825260208201905060208402830185811115612b3457612b33612af9565b5b835b81811015612b7b57803567ffffffffffffffff811115612b5957612b58612a13565b5b808601612b668982612a9f565b85526020850194505050602081019050612b36565b5050509392505050565b600082601f830112612b9a57612b99612a13565b5b8135612baa848260208601612afe565b91505092915050565b600067ffffffffffffffff821115612bce57612bcd612993565b5b602082029050602081019050919050565b6000612bf2612bed84612bb3565b6129f3565b90508083825260208201905060208402830185811115612c1557612c14612af9565b5b835b81811015612c3e5780612c2a88826124a2565b845260208401935050602081019050612c17565b5050509392505050565b600082601f830112612c5d57612c5c612a13565b5b8135612c6d848260208601612bdf565b91505092915050565b60006101a08284031215612c8d57612c8c61298e565b5b612c986101a06129f3565b9050600082013567ffffffffffffffff811115612cb857612cb7612a0e565b5b612cc484828501612a9f565b600083015250602082013567ffffffffffffffff811115612ce857612ce7612a0e565b5b612cf484828501612a9f565b602083015250604082013567ffffffffffffffff811115612d1857612d17612a0e565b5b612d2484828501612a9f565b604083015250606082013567ffffffffffffffff811115612d4857612d47612a0e565b5b612d5484828501612a9f565b606083015250608082013567ffffffffffffffff811115612d7857612d77612a0e565b5b612d8484828501612b85565b60808301525060a082013567ffffffffffffffff811115612da857612da7612a0e565b5b612db484828501612c48565b60a08301525060c082013567ffffffffffffffff811115612dd857612dd7612a0e565b5b612de484828501612c48565b60c08301525060e082013567ffffffffffffffff811115612e0857612e07612a0e565b5b612e1484828501612c48565b60e083015250610100612e29848285016124a2565b61010083015250610120612e3f848285016124a2565b6101208301525061014082013567ffffffffffffffff811115612e6557612e64612a0e565b5b612e7184828501612a9f565b61014083015250610160612e87848285016124a2565b61016083015250610180612e9d848285016124a2565b6101808301525092915050565b600060208284031215612ec057612ebf6122ac565b5b600082013567ffffffffffffffff811115612ede57612edd6122b1565b5b612eea84828501612c76565b91505092915050565b612efc81612443565b82525050565b6000602082019050612f176000830184612ef3565b92915050565b600060208284031215612f3357612f326122ac565b5b6000612f418482850161246c565b91505092915050565b600082825260208201905092915050565b6000612f6682612630565b612f708185612f4a565b9350612f7b8361264c565b8060005b83811015612fac578151612f93888261266b565b9750612f9e83612683565b925050600181019050612f7f565b5085935050505092915050565b60006020820190508181036000830152612fd38184612f5b565b905092915050565b7f4e487b7100000000000000000000000000000000000000000000000000000000600052602260045260246000fd5b6000600282049050600182168061302257607f821691505b60208210810361303557613034612fdb565b5b50919050565b7f4572726f72202d20617070726f76616c20746f2063757272656e74206f776e6560008201527f7200000000000000000000000000000000000000000000000000000000000000602082015250565b600061309760218361237c565b91506130a28261303b565b604082019050919050565b600060208201905081810360008301526130c68161308a565b9050919050565b7f43757272656e742063616c6c6572206973206e6f7420746865206f776e65722060008201527f6f662074686520746f6b656e0000000000000000000000000000000000000000602082015250565b6000613129602c8361237c565b9150613134826130cd565b604082019050919050565b600060208201905081810360008301526131588161311c565b9050919050565b7f4e487b7100000000000000000000000000000000000000000000000000000000600052603260045260246000fd5b7f6f776e657220696e646578206973206f7574206f6620626f756e647321000000600082015250565b60006131c4601d8361237c565b91506131cf8261318e565b602082019050919050565b600060208201905081810360008301526131f3816131b7565b9050919050565b600081905092915050565b60008190508160005260206000209050919050565b600081546132278161300a565b61323181866131fa565b9450600182166000811461324c576001811461326157613294565b60ff1983168652811515820286019350613294565b61326a85613205565b60005b8381101561328c5781548189015260018201915060208101905061326d565b838801955050505b50505092915050565b60006132a9828461321a565b915081905092915050565b7f4e487b7100000000000000000000000000000000000000000000000000000000600052601160045260246000fd5b60006132ee82612481565b91507fffffffffffffffffffffffffffffffffffffffffffffffffffffffffffffffff82036133205761331f6132b4565b5b600182019050919050565b7f4572726f72203a20616c7265616479206578697374732070726553637269707460008201527f696f6e2000000000000000000000000000000000000000000000000000000000602082015250565b600061338760248361237c565b91506133928261332b565b604082019050919050565b600060208201905081810360008301526133b68161337a565b9050919050565b7f596f7520646f206e6f742068617665207065726d697373696f6e000000000000600082015250565b60006133f3601a8361237c565b91506133fe826133bd565b602082019050919050565b60006020820190508181036000830152613422816133e6565b9050919050565b60008190508160005260206000209050919050565b60006020601f8301049050919050565b600082821b905092915050565b60006008830261348b7fffffffffffffffffffffffffffffffffffffffffffffffffffffffffffffffff8261344e565b613495868361344e565b95508019841693508086168417925050509392505050565b6000819050919050565b60006134d26134cd6134c884612481565b6134ad565b612481565b9050919050565b6000819050919050565b6134ec836134b7565b6135006134f8826134d9565b84845461345b565b825550505050565b600090565b613515613508565b6135208184846134e3565b505050565b5b818110156135445761353960008261350d565b600181019050613526565b5050565b601f8211156135895761355a81613429565b6135638461343e565b81016020851015613572578190505b61358661357e8561343e565b830182613525565b50505b505050565b600082821c905092915050565b60006135ac6000198460080261358e565b1980831691505092915050565b60006135c5838361359b565b9150826002028217905092915050565b6135de82612371565b67ffffffffffffffff8111156135f7576135f6612993565b5b613601825461300a565b61360c828285613548565b600060209050601f83116001811461363f576000841561362d578287015190505b61363785826135b9565b86555061369f565b601f19841661364d86613429565b60005b8281101561367557848901518255600182019150602085019450602081019050613650565b86831015613692578489015161368e601f89168261359b565b8355505b6001600288020188555050505b505050505050565b60006136b282612481565b91506136bd83612481565b92508282039050818111156136d5576136d46132b4565b5b92915050565b7f676c6f62616c20696e646578206973206f7574206f6620626f756e6473210000600082015250565b6000613711601e8361237c565b915061371c826136db565b602082019050919050565b6000602082019050818103600083015261374081613704565b9050919050565b7f6f776e657220717565727920666f72206e6f6e2d6578697374656e7420746f6b60008201527f656e000000000000000000000000000000000000000000000000000000000000602082015250565b60006137a360228361237c565b91506137ae82613747565b604082019050919050565b600060208201905081810360008301526137d281613796565b9050919050565b7f746f6b656e20646f6573206e6f74206578697374000000000000000000000000600082015250565b600061380f60148361237c565b915061381a826137d9565b602082019050919050565b6000602082019050818103600083015261383e81613802565b9050919050565b7f4572726f72202d20455243373231205472616e7366657220746f20746865207a60008201527f65726f2061646472657373000000000000000000000000000000000000000000602082015250565b60006138a1602b8361237c565b91506138ac82613845565b604082019050919050565b600060208201905081810360008301526138d081613894565b9050919050565b7f547279696e6720746f207472616e73666572206120746f6b656e20746865206160008201527f64647265737320646f6573206e6f74206f776e21000000000000000000000000602082015250565b600061393360348361237c565b915061393e826138d7565b604082019050919050565b6000602082019050818103600083015261396281613926565b9050919050565b600061397482612481565b915061397f83612481565b9250828201905080821115613997576139966132b4565b5b92915050565b7f4552433732313a206d696e74696e6720746f20746865207a65726f206164647260008201527f6573000000000000000000000000000000000000000000000000000000000000602082015250565b60006139f960228361237c565b9150613a048261399d565b604082019050919050565b60006020820190508181036000830152613a28816139ec565b9050919050565b7f4552433732313a20746f6b656e20616c7265616479206d696e74656400000000600082015250565b6000613a65601c8361237c565b9150613a7082613a2f565b602082019050919050565b60006020820190508181036000830152613a9481613a58565b9050919050565b7f536166654d6174683a207375627472616374696f6e206f766572666c6f770000600082015250565b6000613ad1601e8361237c565b9150613adc82613a9b565b602082019050919050565b60006020820190508181036000830152613b0081613ac4565b905091905056fea2646970667358221220d60d4f2b4ceea911ae27ff07e2775e189ec900be9ddf4683c7f3cc9a1c0d3e5f64736f6c63430008110033",
  "immutableReferences": {},
  "source": "// SPDX-License-Identifier: MIT\npragma solidity ^0.8.0;\n\nimport './ERC721Connector.sol';\n\ncontract PreScription is ERC721Connector {\n\n    // array to store our nfts\n    //  \n   struct  preScription {\n        // preScriptionExists        ?   .\n        string userName; //  \n        string hosName; //  \n        string pharName; //  \n        string dCode; // \n        string[] dName; // \n\n        uint[] dosage; // \n        uint[] doseNum; //  \n        uint[] dosePeriod; // \n        uint dispensingCount; //   \n        uint prescriptionCount; // \n        // uint period; //  ? .\n        string howtoTake; // \n        uint pubDate; // \n        uint prepDate; //  \n        \n        }\n        \n        //  \n         \n   \n   //  \n\n   \n    preScription[] public preScriptions;\n    uint i = 0;\n    // preScription pp;\n    \n   \n\n    \n    \n    \n    mapping (address => uint) _accountAuth;  //   (1 , 2 , 3 )\n    \n    mapping(string => bool) _preScriptionsExists;\n\n    \n    mapping (uint256 => uint ) _blockTotokenid;\n\n    mapping (address => uint[]) _addToblock;\n    //  =>   =>  ID\n    mapping (address => mapping (address => uint[])) _patientlistOfdotcor;\n    // //   ->    \n    // mapping(address => address[])\n    // //   \n    // mapping(address => uint[])\n    \n\n\n\n\n        // \n        function setPatientAuth(address _address) public {\n        _accountAuth[_address] = 1;\n    }\n        // \n        function setDoctorAuth(address _address) public {\n        _accountAuth[_address] = 2;\n    }\n        //\n        function setPharmacyAuth(address _address) public {\n        _accountAuth[_address] = 3;\n    }\n\n\n    preScription Test;\n\n\n     \n\n    //    ?\n    //   (  ID)\n    mapping (address => uint256[]) _mintedTokens;\n\n  \n    mapping (address => uint256[]) _alltokensOfphaccount;\n   \n    //       ????\n    \n    \n    //   (msg.sender)      \n\n    function setMintedTokens(uint _tokenId) public {\n        _mintedTokens[msg.sender].push(_tokenId);\n    }\n    function getMintedTokens() public view returns (uint256[] memory){\n        return _mintedTokens[msg.sender];\n    }\n\n    \n    //   \n    modifier prsExists( \n        string memory _userName, \n        string memory _hosName,\n        string memory _pharName, \n        string memory _dCode, \n        uint _dispensingCount, \n        uint _prescriptionCount // 5  \n        // uint256 _period ,\n        // uint256 _pubDate,\n        // uint256 _prepDate \n        ) {\n           bool check = false;\n           for (uint i = 0; i < preScriptions.length; i++){\n            if(\n                keccak256(bytes(preScriptions[i].userName)) == keccak256(bytes(_userName)) &&\n                keccak256(bytes(preScriptions[i].hosName)) == keccak256(bytes(_hosName)) &&\n                keccak256(bytes(preScriptions[i].pharName)) == keccak256(bytes(_pharName)) &&\n                keccak256(bytes(preScriptions[i].dCode)) == keccak256(bytes(_dCode)) &&\n                preScriptions[i].dispensingCount == _dispensingCount &&\n                preScriptions[i].prescriptionCount == _prescriptionCount\n                // keccak256(bytes(preScriptions[i].dispensingCount)) == keccak256(bytes(_dispensingCount)) &&\n                // keccak256(bytes(preScriptions[i].prescriptionCount)) == keccak256(bytes(_prescriptionCount)) \n                // PreScriptions[i].period == _period &&\n                // PreScriptions[i].pubDate == _pubDate &&\n                // PreScriptions[i].prepDate == _prepDate\n            ) {\n                check =true;\n            }\n           } \n           require(!check, \"Error : already exists preScription \");\n           _;\n        }\n\n        //   / /  \n\n        // \n        function transferPreScription(address _from, address _to, uint _tokenId) public {\n\n            //       ex)    \n            //      ID\n            _alltokensOfphaccount[_to].push(_tokenId);\n            transferFrom(_from, _to, _tokenId);\n        }\n\n\n        // ,    \n        function transferTopatient(address _from, address _to, uint _tokenId) public {\n              \n              transferFrom(_from, _to, _tokenId);\n\n            _patientlistOfdotcor[_from][_to].push(_tokenId);\n\n        }\n  \n        //  \n//     ()\n  function mint(\n        // string memory _userName,//  \n        // string memory _hosName,//  \n        // string memory _pharName, //  \n        // string memory _dCode,  // \n        // string[] memory _dName, // \n\n        // uint[] memory _dosage, // \n        // uint[] memory _doseNum, //  \n        // uint[] memory _dosePeriod, // \n        // uint _dispensingCount, //   \n        // uint _prescriptionCount, // \n        // // uint period; //  ? .\n        // string memory _howtoTake, // \n        // uint _pubDate, // \n        // uint _prepDate,\n\n        preScription memory _preScription\n         ) \n        public prsExists( _preScription.userName, _preScription.hosName, _preScription.pharName, _preScription.dCode, _preScription.dispensingCount, _preScription.prescriptionCount ){\n            require(_accountAuth[msg.sender] == 2, 'You do not have permission');\n            // preScription memory _preScription = preScription( _userName,  _hosName, _pharName, _dCode, _dName,  _dosage, _doseNum, _dosePeriod,  _dispensingCount, _prescriptionCount,  _howtoTake, _pubDate, _prepDate);\n            \n        // require(!_preScriptionsExists[_preScription],\n        // 'Error - preScription already exists');\n        // this is deprecated - uint _id = KryptoBirdz.push(_kryptoBird);\n        preScriptions.push(_preScription);\n        uint _id = preScriptions.length - 1;\n\n        _blockTotokenid[block.number] = _id;\n        _addToblock[msg.sender].push(block.number);\n        // .push no longer returns the length but a ref to the added element\n        _mint(msg.sender, _id);\n        //  (  )\n        setMintedTokens(_id);\n\n        // _preScriptionsExists[_preScription] = true;\n\n    }\n\n    function getPreScriptionByIndex(uint index) public returns(preScription memory) {\n        return preScriptions[index];\n    }\n\n    //     function setPrsData(   \n    //     string memory _userName, \n    //     string memory _hosName,\n    //     string memory _pharName, \n    //     string memory _dCode, \n    //     string memory _dispensingCount, \n    //     string memory _prescriptionCount\n    //   ) \n    //     public prsExists(_userName, _hosName, _pharName, _dCode, _dispensingCount, _prescriptionCount) {\n            \n    //         preScription memory prsData;\n            \n    //         prsData.userName = _userName;\n    //         prsData.hosName = _hosName;\n    //         prsData.pharName = _pharName;\n    //         prsData.dCode = _dCode;\n    //         prsData.dispensingCount = _dispensingCount;\n    //         prsData.prescriptionCount = _prescriptionCount;\n\n    //         PreScriptions.push(prsData);\n    //         // return prsData;\n\n    //     } \n\n    //      function Test22() public returns (preScription memory){\n    //     return PreScriptions[0];\n    // }\n\n\n    \n\n\n    constructor() ERC721Connector('PreScription','Script')\n {}\n\n}\n\n\n",
  "sourcePath": "C:\\Users\\SSAFY\\Desktop\\ \\S07P22E205\\smart-contract\\src\\contracts\\PreSciption.sol",
  "compiler": {
    "name": "solc",
    "version": "0.8.17+commit.8df45f5f.Emscripten.clang"
  },
  "schemaVersion": "3.4.9",
  "updatedAt": "2022-09-26T07:38:17.881Z",
  "networkType": "ethereum",
  "devdoc": {
    "kind": "dev",
    "methods": {
      "ownerOf(uint256)": {
        "details": "NFTs assigned to zero address are considered invalid, and queries  about them do throw.",
        "params": {
          "_tokenId": "The identifier for an NFT"
        },
        "returns": {
          "_0": "The address of the owner of the NFT"
        }
      },
      "supportsInterface(bytes4)": {
        "details": "Interface identification is specified in ERC-165. This function  uses less than 30,000 gas.",
        "params": {
          "interfaceID": "The interface identifier, as specified in ERC-165"
        },
        "returns": {
          "_0": "`true` if the contract implements `interfaceID` and  `interfaceID` is not 0xffffffff, `false` otherwise"
        }
      }
    },
    "version": 1
  },
  "userdoc": {
    "kind": "user",
    "methods": {
      "ownerOf(uint256)": {
        "notice": "Find the owner of an NFT"
      },
      "supportsInterface(bytes4)": {
        "notice": "Query if a contract implements an interface"
      }
    },
    "version": 1
  }
}