{
  "contractName": "PreScription",
  "abi": [
    {
      "inputs": [],
      "stateMutability": "nonpayable",
      "type": "constructor"
    },
    {
      "anonymous": false,
      "inputs": [
        {
          "indexed": true,
          "internalType": "address",
          "name": "_owner",
          "type": "address"
        },
        {
          "indexed": true,
          "internalType": "address",
          "name": "_approved",
          "type": "address"
        },
        {
          "indexed": true,
          "internalType": "uint256",
          "name": "_tokenId",
          "type": "uint256"
        }
      ],
      "name": "Approval",
      "type": "event"
    },
    {
      "anonymous": false,
      "inputs": [
        {
          "indexed": true,
          "internalType": "address",
          "name": "_from",
          "type": "address"
        },
        {
          "indexed": true,
          "internalType": "address",
          "name": "_to",
          "type": "address"
        },
        {
          "indexed": true,
          "internalType": "uint256",
          "name": "_tokenId",
          "type": "uint256"
        }
      ],
      "name": "Transfer",
      "type": "event"
    },
    {
      "inputs": [
        {
          "internalType": "address",
          "name": "owner",
          "type": "address"
        }
      ],
      "name": "alltokenOfOwner",
      "outputs": [
        {
          "internalType": "uint256[]",
          "name": "",
          "type": "uint256[]"
        }
      ],
      "stateMutability": "view",
      "type": "function"
    },
    {
      "inputs": [
        {
          "internalType": "address",
          "name": "_to",
          "type": "address"
        },
        {
          "internalType": "uint256",
          "name": "tokenId",
          "type": "uint256"
        }
      ],
      "name": "approve",
      "outputs": [],
      "stateMutability": "nonpayable",
      "type": "function"
    },
    {
      "inputs": [
        {
          "internalType": "address",
          "name": "_owner",
          "type": "address"
        }
      ],
      "name": "balanceOf",
      "outputs": [
        {
          "internalType": "uint256",
          "name": "",
          "type": "uint256"
        }
      ],
      "stateMutability": "view",
      "type": "function"
    },
    {
      "inputs": [],
      "name": "name",
      "outputs": [
        {
          "internalType": "string",
          "name": "",
          "type": "string"
        }
      ],
      "stateMutability": "view",
      "type": "function"
    },
    {
      "inputs": [
        {
          "internalType": "uint256",
          "name": "_tokenId",
          "type": "uint256"
        }
      ],
      "name": "ownerOf",
      "outputs": [
        {
          "internalType": "address",
          "name": "",
          "type": "address"
        }
      ],
      "stateMutability": "view",
      "type": "function"
    },
    {
      "inputs": [
        {
          "internalType": "uint256",
          "name": "",
          "type": "uint256"
        }
      ],
      "name": "preScriptions",
      "outputs": [
        {
          "internalType": "string",
          "name": "userName",
          "type": "string"
        },
        {
          "internalType": "string",
          "name": "hosName",
          "type": "string"
        },
        {
          "internalType": "string",
          "name": "pharName",
          "type": "string"
        },
        {
          "internalType": "string",
          "name": "dCode",
          "type": "string"
        },
        {
          "internalType": "uint256",
          "name": "dispensingCount",
          "type": "uint256"
        },
        {
          "internalType": "uint256",
          "name": "prescriptionCount",
          "type": "uint256"
        },
        {
          "internalType": "uint256",
          "name": "pubDate",
          "type": "uint256"
        },
        {
          "internalType": "uint256",
          "name": "prepDate",
          "type": "uint256"
        }
      ],
      "stateMutability": "view",
      "type": "function"
    },
    {
      "inputs": [
        {
          "internalType": "bytes4",
          "name": "interfaceID",
          "type": "bytes4"
        }
      ],
      "name": "supportsInterface",
      "outputs": [
        {
          "internalType": "bool",
          "name": "",
          "type": "bool"
        }
      ],
      "stateMutability": "view",
      "type": "function"
    },
    {
      "inputs": [],
      "name": "symbol",
      "outputs": [
        {
          "internalType": "string",
          "name": "",
          "type": "string"
        }
      ],
      "stateMutability": "view",
      "type": "function"
    },
    {
      "inputs": [
        {
          "internalType": "uint256",
          "name": "index",
          "type": "uint256"
        }
      ],
      "name": "tokenByIndex",
      "outputs": [
        {
          "internalType": "uint256",
          "name": "",
          "type": "uint256"
        }
      ],
      "stateMutability": "view",
      "type": "function"
    },
    {
      "inputs": [
        {
          "internalType": "address",
          "name": "owner",
          "type": "address"
        },
        {
          "internalType": "uint256",
          "name": "index",
          "type": "uint256"
        }
      ],
      "name": "tokenOfOwnerByIndex",
      "outputs": [
        {
          "internalType": "uint256",
          "name": "",
          "type": "uint256"
        }
      ],
      "stateMutability": "view",
      "type": "function"
    },
    {
      "inputs": [],
      "name": "totalSupply",
      "outputs": [
        {
          "internalType": "uint256",
          "name": "",
          "type": "uint256"
        }
      ],
      "stateMutability": "view",
      "type": "function"
    },
    {
      "inputs": [
        {
          "internalType": "address",
          "name": "_from",
          "type": "address"
        },
        {
          "internalType": "address",
          "name": "_to",
          "type": "address"
        },
        {
          "internalType": "uint256",
          "name": "_tokenId",
          "type": "uint256"
        }
      ],
      "name": "transferFrom",
      "outputs": [],
      "stateMutability": "nonpayable",
      "type": "function"
    },
    {
      "inputs": [
        {
          "internalType": "address",
          "name": "_from",
          "type": "address"
        },
        {
          "internalType": "address",
          "name": "_to",
          "type": "address"
        },
        {
          "internalType": "uint256",
          "name": "_tokenId",
          "type": "uint256"
        }
      ],
      "name": "transferPrs",
      "outputs": [],
      "stateMutability": "nonpayable",
      "type": "function"
    },
    {
      "inputs": [
        {
          "internalType": "address",
          "name": "_address",
          "type": "address"
        }
      ],
      "name": "getAllListFromAccount",
      "outputs": [
        {
          "components": [
            {
              "internalType": "string",
              "name": "userName",
              "type": "string"
            },
            {
              "internalType": "string",
              "name": "hosName",
              "type": "string"
            },
            {
              "internalType": "string",
              "name": "pharName",
              "type": "string"
            },
            {
              "internalType": "string",
              "name": "dCode",
              "type": "string"
            },
            {
              "internalType": "string[]",
              "name": "dName",
              "type": "string[]"
            },
            {
              "internalType": "uint256[]",
              "name": "dosage",
              "type": "uint256[]"
            },
            {
              "internalType": "uint256[]",
              "name": "doseNum",
              "type": "uint256[]"
            },
            {
              "internalType": "uint256[]",
              "name": "dosePeriod",
              "type": "uint256[]"
            },
            {
              "internalType": "uint256",
              "name": "dispensingCount",
              "type": "uint256"
            },
            {
              "internalType": "uint256",
              "name": "prescriptionCount",
              "type": "uint256"
            },
            {
              "internalType": "string[]",
              "name": "howtoTake",
              "type": "string[]"
            },
            {
              "internalType": "uint256",
              "name": "pubDate",
              "type": "uint256"
            },
            {
              "internalType": "uint256",
              "name": "prepDate",
              "type": "uint256"
            }
          ],
          "internalType": "struct PreScription.preScription[]",
          "name": "",
          "type": "tuple[]"
        }
      ],
      "stateMutability": "view",
      "type": "function"
    },
    {
      "inputs": [
        {
          "internalType": "address",
          "name": "_address",
          "type": "address"
        }
      ],
      "name": "getAllTokensOwned",
      "outputs": [
        {
          "internalType": "uint256[]",
          "name": "",
          "type": "uint256[]"
        }
      ],
      "stateMutability": "view",
      "type": "function"
    },
    {
      "inputs": [
        {
          "internalType": "address",
          "name": "_from",
          "type": "address"
        },
        {
          "internalType": "address",
          "name": "_to",
          "type": "address"
        }
      ],
      "name": "getPatientListFromAccount",
      "outputs": [
        {
          "components": [
            {
              "internalType": "string",
              "name": "userName",
              "type": "string"
            },
            {
              "internalType": "string",
              "name": "hosName",
              "type": "string"
            },
            {
              "internalType": "string",
              "name": "pharName",
              "type": "string"
            },
            {
              "internalType": "string",
              "name": "dCode",
              "type": "string"
            },
            {
              "internalType": "string[]",
              "name": "dName",
              "type": "string[]"
            },
            {
              "internalType": "uint256[]",
              "name": "dosage",
              "type": "uint256[]"
            },
            {
              "internalType": "uint256[]",
              "name": "doseNum",
              "type": "uint256[]"
            },
            {
              "internalType": "uint256[]",
              "name": "dosePeriod",
              "type": "uint256[]"
            },
            {
              "internalType": "uint256",
              "name": "dispensingCount",
              "type": "uint256"
            },
            {
              "internalType": "uint256",
              "name": "prescriptionCount",
              "type": "uint256"
            },
            {
              "internalType": "string[]",
              "name": "howtoTake",
              "type": "string[]"
            },
            {
              "internalType": "uint256",
              "name": "pubDate",
              "type": "uint256"
            },
            {
              "internalType": "uint256",
              "name": "prepDate",
              "type": "uint256"
            }
          ],
          "internalType": "struct PreScription.preScription[]",
          "name": "",
          "type": "tuple[]"
        }
      ],
      "stateMutability": "view",
      "type": "function"
    },
    {
      "inputs": [
        {
          "internalType": "uint256",
          "name": "_tokenId",
          "type": "uint256"
        }
      ],
      "name": "getOfferCountOfToken",
      "outputs": [
        {
          "internalType": "uint256",
          "name": "",
          "type": "uint256"
        }
      ],
      "stateMutability": "view",
      "type": "function"
    },
    {
      "inputs": [
        {
          "internalType": "address",
          "name": "_address",
          "type": "address"
        }
      ],
      "name": "setPatientAuth",
      "outputs": [],
      "stateMutability": "nonpayable",
      "type": "function"
    },
    {
      "inputs": [
        {
          "internalType": "address",
          "name": "_address",
          "type": "address"
        }
      ],
      "name": "setDoctorAuth",
      "outputs": [],
      "stateMutability": "nonpayable",
      "type": "function"
    },
    {
      "inputs": [
        {
          "internalType": "address",
          "name": "_address",
          "type": "address"
        }
      ],
      "name": "setPharmacyAuth",
      "outputs": [],
      "stateMutability": "nonpayable",
      "type": "function"
    },
    {
      "inputs": [
        {
          "internalType": "address",
          "name": "_address",
          "type": "address"
        }
      ],
      "name": "getAuthOfAccount",
      "outputs": [
        {
          "internalType": "uint256",
          "name": "",
          "type": "uint256"
        }
      ],
      "stateMutability": "view",
      "type": "function"
    },
    {
      "inputs": [
        {
          "internalType": "uint256",
          "name": "_tokenId",
          "type": "uint256"
        }
      ],
      "name": "setMintedTokens",
      "outputs": [],
      "stateMutability": "nonpayable",
      "type": "function"
    },
    {
      "inputs": [],
      "name": "getMintedTokens",
      "outputs": [
        {
          "internalType": "uint256[]",
          "name": "",
          "type": "uint256[]"
        }
      ],
      "stateMutability": "view",
      "type": "function"
    },
    {
      "inputs": [
        {
          "internalType": "address",
          "name": "_address",
          "type": "address"
        }
      ],
      "name": "getBalanceOf",
      "outputs": [
        {
          "internalType": "uint256",
          "name": "",
          "type": "uint256"
        }
      ],
      "stateMutability": "view",
      "type": "function"
    },
    {
      "inputs": [
        {
          "internalType": "address",
          "name": "_from",
          "type": "address"
        },
        {
          "internalType": "address",
          "name": "_to",
          "type": "address"
        },
        {
          "internalType": "uint256",
          "name": "_tokenId",
          "type": "uint256"
        }
      ],
      "name": "transferPreScription",
      "outputs": [],
      "stateMutability": "nonpayable",
      "type": "function"
    },
    {
      "inputs": [
        {
          "internalType": "address",
          "name": "_from",
          "type": "address"
        },
        {
          "internalType": "address",
          "name": "_to",
          "type": "address"
        },
        {
          "internalType": "uint256",
          "name": "_tokenId",
          "type": "uint256"
        }
      ],
      "name": "transferDoctorToPatient",
      "outputs": [],
      "stateMutability": "nonpayable",
      "type": "function"
    },
    {
      "inputs": [
        {
          "internalType": "address",
          "name": "_from",
          "type": "address"
        },
        {
          "internalType": "address",
          "name": "_to",
          "type": "address"
        },
        {
          "internalType": "uint256",
          "name": "_tokenId",
          "type": "uint256"
        }
      ],
      "name": "transferPharmacyToPatient",
      "outputs": [],
      "stateMutability": "nonpayable",
      "type": "function"
    },
    {
      "inputs": [
        {
          "components": [
            {
              "internalType": "string",
              "name": "userName",
              "type": "string"
            },
            {
              "internalType": "string",
              "name": "hosName",
              "type": "string"
            },
            {
              "internalType": "string",
              "name": "pharName",
              "type": "string"
            },
            {
              "internalType": "string",
              "name": "dCode",
              "type": "string"
            },
            {
              "internalType": "string[]",
              "name": "dName",
              "type": "string[]"
            },
            {
              "internalType": "uint256[]",
              "name": "dosage",
              "type": "uint256[]"
            },
            {
              "internalType": "uint256[]",
              "name": "doseNum",
              "type": "uint256[]"
            },
            {
              "internalType": "uint256[]",
              "name": "dosePeriod",
              "type": "uint256[]"
            },
            {
              "internalType": "uint256",
              "name": "dispensingCount",
              "type": "uint256"
            },
            {
              "internalType": "uint256",
              "name": "prescriptionCount",
              "type": "uint256"
            },
            {
              "internalType": "string[]",
              "name": "howtoTake",
              "type": "string[]"
            },
            {
              "internalType": "uint256",
              "name": "pubDate",
              "type": "uint256"
            },
            {
              "internalType": "uint256",
              "name": "prepDate",
              "type": "uint256"
            }
          ],
          "internalType": "struct PreScription.preScription",
          "name": "_preScription",
          "type": "tuple"
        }
      ],
      "name": "mint",
      "outputs": [],
      "stateMutability": "nonpayable",
      "type": "function"
    },
    {
      "inputs": [
        {
          "internalType": "uint256",
          "name": "index",
          "type": "uint256"
        }
      ],
      "name": "getPreScriptionByIndex",
      "outputs": [
        {
          "components": [
            {
              "internalType": "string",
              "name": "userName",
              "type": "string"
            },
            {
              "internalType": "string",
              "name": "hosName",
              "type": "string"
            },
            {
              "internalType": "string",
              "name": "pharName",
              "type": "string"
            },
            {
              "internalType": "string",
              "name": "dCode",
              "type": "string"
            },
            {
              "internalType": "string[]",
              "name": "dName",
              "type": "string[]"
            },
            {
              "internalType": "uint256[]",
              "name": "dosage",
              "type": "uint256[]"
            },
            {
              "internalType": "uint256[]",
              "name": "doseNum",
              "type": "uint256[]"
            },
            {
              "internalType": "uint256[]",
              "name": "dosePeriod",
              "type": "uint256[]"
            },
            {
              "internalType": "uint256",
              "name": "dispensingCount",
              "type": "uint256"
            },
            {
              "internalType": "uint256",
              "name": "prescriptionCount",
              "type": "uint256"
            },
            {
              "internalType": "string[]",
              "name": "howtoTake",
              "type": "string[]"
            },
            {
              "internalType": "uint256",
              "name": "pubDate",
              "type": "uint256"
            },
            {
              "internalType": "uint256",
              "name": "prepDate",
              "type": "uint256"
            }
          ],
          "internalType": "struct PreScription.preScription",
          "name": "",
          "type": "tuple"
        }
      ],
      "stateMutability": "view",
      "type": "function"
    }
  ],
  "bytecode": "0x60806040523480156200001157600080fd5b506040518060400160405280600c81526020017f507265536372697074696f6e00000000000000000000000000000000000000008152506040518060400160405280600681526020017f53637269707400000000000000000000000000000000000000000000000000008152508181620000b17f01ffc9a7a5cef8baa21ed3c5c0d7e23accb804b619e9333b597f47a0d84076e26200021c60201b60201c565b620001047f13b182f4c0e5b2efbac0efe6cf6d756c8b89f4b79c5707a043ed9ea740574ee97f7feaf19471f34a12a7eaf32d5f3090aa2260ea8624dc8a138e74e0bf0f623076186200021c60201b60201c565b81600190816200011591906200056d565b5080600290816200012791906200056d565b5050506200019f7f22c82707ba960a14c7592ffb6b8cfaa073fed0048a84cc7fa41f6b5bd8e7f2e47f3a6eb71757dfc6e784c1459d26270140c2c147d95ca985c80026fc5301c3eca17f8a7e378434598edc36d108689a030cbc9d7d465de4f74c71bae1028eed6a881b18186200021c60201b60201c565b620002147f8230223f691b981717299fae9549350a0d894555723531f02108b1f522c1a7977f6da5e1284143cdd2d15038a59bde3be031250f00291d64494c12d967b3a4e0c37fc53637662700e6c65104059db8bba34439e0c32483ab7c34e3ccae52c739549518186200021c60201b60201c565b5050620006d7565b63ffffffff60e01b817bffffffffffffffffffffffffffffffffffffffffffffffffffffffff19160362000287576040517f08c379a00000000000000000000000000000000000000000000000000000000081526004016200027e90620006b5565b60405180910390fd5b6001600080837bffffffffffffffffffffffffffffffffffffffffffffffffffffffff19167bffffffffffffffffffffffffffffffffffffffffffffffffffffffff1916815260200190815260200160002060006101000a81548160ff02191690831515021790555050565b600081519050919050565b7f4e487b7100000000000000000000000000000000000000000000000000000000600052604160045260246000fd5b7f4e487b7100000000000000000000000000000000000000000000000000000000600052602260045260246000fd5b600060028204905060018216806200037557607f821691505b6020821081036200038b576200038a6200032d565b5b50919050565b60008190508160005260206000209050919050565b60006020601f8301049050919050565b600082821b905092915050565b600060088302620003f57fffffffffffffffffffffffffffffffffffffffffffffffffffffffffffffffff82620003b6565b620004018683620003b6565b95508019841693508086168417925050509392505050565b6000819050919050565b6000819050919050565b60006200044e62000448620004428462000419565b62000423565b62000419565b9050919050565b6000819050919050565b6200046a836200042d565b62000482620004798262000455565b848454620003c3565b825550505050565b600090565b620004996200048a565b620004a68184846200045f565b505050565b5b81811015620004ce57620004c26000826200048f565b600181019050620004ac565b5050565b601f8211156200051d57620004e78162000391565b620004f284620003a6565b8101602085101562000502578190505b6200051a6200051185620003a6565b830182620004ab565b50505b505050565b600082821c905092915050565b6000620005426000198460080262000522565b1980831691505092915050565b60006200055d83836200052f565b9150826002028217905092915050565b6200057882620002f3565b67ffffffffffffffff811115620005945762000593620002fe565b5b620005a082546200035c565b620005ad828285620004d2565b600060209050601f831160018114620005e55760008415620005d0578287015190505b620005dc85826200054f565b8655506200064c565b601f198416620005f58662000391565b60005b828110156200061f57848901518255600182019150602085019450602081019050620005f8565b868310156200063f57848901516200063b601f8916826200052f565b8355505b6001600288020188555050505b505050505050565b600082825260208201905092915050565b7f496e76616c696420696e74657266616365207265717565737400000000000000600082015250565b60006200069d60198362000654565b9150620006aa8262000665565b602082019050919050565b60006020820190508181036000830152620006d0816200068e565b9050919050565b61604780620006e76000396000f3fe608060405234801561001057600080fd5b50600436106101cf5760003560e01c80636f9886b011610104578063892a18ba116100a2578063aba55a8611610071578063aba55a86146105a1578063d6204d28146105bd578063dc965290146105d9578063e241ff48146105f7576101cf565b8063892a18ba14610507578063952d58041461053757806395d89b41146105535780639b96eece14610571576101cf565b8063785e320d116100de578063785e320d146104835780637a38699b1461049f578063818a6a4e146104bb57806383103433146104eb576101cf565b80636f9886b01461040757806370a0823114610423578063729efebf14610453576101cf565b806322986c26116101715780634f6ccce71161014b5780634f6ccce71461035b57806358c7c5311461038b5780636352211e146103a757806369c5e936146103d7576101cf565b806322986c26146102df57806323b872dd1461030f5780632f745c591461032b576101cf565b80630a54de1a116101ad5780630a54de1a1461023e57806311bb5e7a1461026e57806318160ddd146102a55780631c18c246146102c3576101cf565b806301ffc9a7146101d457806306fdde0314610204578063095ea7b314610222575b600080fd5b6101ee60048036038101906101e99190614365565b610627565b6040516101fb91906143ad565b60405180910390f35b61020c61068e565b6040516102199190614458565b60405180910390f35b61023c6004803603810190610237919061450e565b610720565b005b6102586004803603810190610253919061454e565b6108bb565b6040516102659190614896565b60405180910390f35b6102886004803603810190610283919061454e565b610e22565b60405161029c9897969594939291906148c7565b60405180910390f35b6102ad61109a565b6040516102ba9190614961565b60405180910390f35b6102dd60048036038101906102d8919061497c565b6110a7565b005b6102f960048036038101906102f491906149cf565b6112fa565b6040516103069190614c22565b60405180910390f35b6103296004803603810190610324919061497c565b611901565b005b6103456004803603810190610340919061450e565b611924565b6040516103529190614961565b60405180910390f35b6103756004803603810190610370919061454e565b6119d4565b6040516103829190614961565b60405180910390f35b6103a560048036038101906103a0919061497c565b611a45565b005b6103c160048036038101906103bc919061454e565b611d0e565b6040516103ce9190614c53565b60405180910390f35b6103f160048036038101906103ec9190614c6e565b611dbf565b6040516103fe9190614c22565b60405180910390f35b610421600480360381019061041c919061497c565b612388565b005b61043d60048036038101906104389190614c6e565b612c8e565b60405161044a9190614961565b60405180910390f35b61046d60048036038101906104689190614c6e565b612d4c565b60405161047a9190614d0a565b60405180910390f35b61049d6004803603810190610498919061454e565b612de3565b005b6104b960048036038101906104b49190614c6e565b612e4c565b005b6104d560048036038101906104d0919061454e565b612e94565b6040516104e29190614961565b60405180910390f35b61050560048036038101906105009190614c6e565b612eb1565b005b610521600480360381019061051c9190614c6e565b612ef9565b60405161052e9190614961565b60405180910390f35b610551600480360381019061054c9190615248565b612f42565b005b61055b6135a8565b6040516105689190614458565b60405180910390f35b61058b60048036038101906105869190614c6e565b61363a565b6040516105989190614961565b60405180910390f35b6105bb60048036038101906105b6919061497c565b61364c565b005b6105d760048036038101906105d29190614c6e565b613893565b005b6105e16138db565b6040516105ee9190614d0a565b60405180910390f35b610611600480360381019061060c9190614c6e565b613970565b60405161061e9190614d0a565b60405180910390f35b6000806000837bffffffffffffffffffffffffffffffffffffffffffffffffffffffff19167bffffffffffffffffffffffffffffffffffffffffffffffffffffffff1916815260200190815260200160002060009054906101000a900460ff169050919050565b60606001805461069d906152c0565b80601f01602080910402602001604051908101604052809291908181526020018280546106c9906152c0565b80156107165780601f106106eb57610100808354040283529160200191610716565b820191906000526020600020905b8154815290600101906020018083116106f957829003601f168201915b5050505050905090565b600061072b82611d0e565b90508073ffffffffffffffffffffffffffffffffffffffff168373ffffffffffffffffffffffffffffffffffffffff160361079b576040517f08c379a000000000000000000000000000000000000000000000000000000000815260040161079290615363565b60405180910390fd5b8073ffffffffffffffffffffffffffffffffffffffff163373ffffffffffffffffffffffffffffffffffffffff1614610809576040517f08c379a0000000000000000000000000000000000000000000000000000000008152600401610800906153f5565b60405180910390fd5b826005600084815260200190815260200160002060006101000a81548173ffffffffffffffffffffffffffffffffffffffff021916908373ffffffffffffffffffffffffffffffffffffffff160217905550818373ffffffffffffffffffffffffffffffffffffffff168273ffffffffffffffffffffffffffffffffffffffff167f8c5be1e5ebec7d5bd14f71427d1e84f3dd0314c0f7b2291e5b200ac8c7c3b92560405160405180910390a4505050565b6108c36140bb565b600a82815481106108d7576108d6615415565b5b90600052602060002090600d0201604051806101a0016040529081600082018054610901906152c0565b80601f016020809104026020016040519081016040528092919081815260200182805461092d906152c0565b801561097a5780601f1061094f5761010080835404028352916020019161097a565b820191906000526020600020905b81548152906001019060200180831161095d57829003601f168201915b50505050508152602001600182018054610993906152c0565b80601f01602080910402602001604051908101604052809291908181526020018280546109bf906152c0565b8015610a0c5780601f106109e157610100808354040283529160200191610a0c565b820191906000526020600020905b8154815290600101906020018083116109ef57829003601f168201915b50505050508152602001600282018054610a25906152c0565b80601f0160208091040260200160405190810160405280929190818152602001828054610a51906152c0565b8015610a9e5780601f10610a7357610100808354040283529160200191610a9e565b820191906000526020600020905b815481529060010190602001808311610a8157829003601f168201915b50505050508152602001600382018054610ab7906152c0565b80601f0160208091040260200160405190810160405280929190818152602001828054610ae3906152c0565b8015610b305780601f10610b0557610100808354040283529160200191610b30565b820191906000526020600020905b815481529060010190602001808311610b1357829003601f168201915b5050505050815260200160048201805480602002602001604051908101604052809291908181526020016000905b82821015610c0a578382906000526020600020018054610b7d906152c0565b80601f0160208091040260200160405190810160405280929190818152602001828054610ba9906152c0565b8015610bf65780601f10610bcb57610100808354040283529160200191610bf6565b820191906000526020600020905b815481529060010190602001808311610bd957829003601f168201915b505050505081526020019060010190610b5e565b50505050815260200160058201805480602002602001604051908101604052809291908181526020018280548015610c6157602002820191906000526020600020905b815481526020019060010190808311610c4d575b5050505050815260200160068201805480602002602001604051908101604052809291908181526020018280548015610cb957602002820191906000526020600020905b815481526020019060010190808311610ca5575b5050505050815260200160078201805480602002602001604051908101604052809291908181526020018280548015610d1157602002820191906000526020600020905b815481526020019060010190808311610cfd575b505050505081526020016008820154815260200160098201548152602001600a8201805480602002602001604051908101604052809291908181526020016000905b82821015610dff578382906000526020600020018054610d72906152c0565b80601f0160208091040260200160405190810160405280929190818152602001828054610d9e906152c0565b8015610deb5780601f10610dc057610100808354040283529160200191610deb565b820191906000526020600020905b815481529060010190602001808311610dce57829003601f168201915b505050505081526020019060010190610d53565b505050508152602001600b8201548152602001600c820154815250509050919050565b600a8181548110610e3257600080fd5b90600052602060002090600d0201600091509050806000018054610e55906152c0565b80601f0160208091040260200160405190810160405280929190818152602001828054610e81906152c0565b8015610ece5780601f10610ea357610100808354040283529160200191610ece565b820191906000526020600020905b815481529060010190602001808311610eb157829003601f168201915b505050505090806001018054610ee3906152c0565b80601f0160208091040260200160405190810160405280929190818152602001828054610f0f906152c0565b8015610f5c5780601f10610f3157610100808354040283529160200191610f5c565b820191906000526020600020905b815481529060010190602001808311610f3f57829003601f168201915b505050505090806002018054610f71906152c0565b80601f0160208091040260200160405190810160405280929190818152602001828054610f9d906152c0565b8015610fea5780601f10610fbf57610100808354040283529160200191610fea565b820191906000526020600020905b815481529060010190602001808311610fcd57829003601f168201915b505050505090806003018054610fff906152c0565b80601f016020809104026020016040519081016040528092919081815260200182805461102b906152c0565b80156110785780601f1061104d57610100808354040283529160200191611078565b820191906000526020600020905b81548152906001019060200180831161105b57829003601f168201915b50505050509080600801549080600901549080600b01549080600c0154905088565b6000600680549050905090565b6110b2838383611901565b60006009600083815260200190815260200160002054905060008190505b6001600860008773ffffffffffffffffffffffffffffffffffffffff1673ffffffffffffffffffffffffffffffffffffffff1681526020019081526020016000208054905061111f9190615473565b81101561128457600860008673ffffffffffffffffffffffffffffffffffffffff1673ffffffffffffffffffffffffffffffffffffffff16815260200190815260200160002060018261117291906154a7565b8154811061118357611182615415565b5b9060005260206000200154600860008773ffffffffffffffffffffffffffffffffffffffff1673ffffffffffffffffffffffffffffffffffffffff16815260200190815260200160002082815481106111df576111de615415565b5b906000526020600020018190555060096000600860008873ffffffffffffffffffffffffffffffffffffffff1673ffffffffffffffffffffffffffffffffffffffff168152602001908152602001600020838154811061124257611241615415565b5b90600052602060002001548152602001908152602001600020600081548092919061126c906154db565b9190505550808061127c90615504565b9150506110d0565b50600860008573ffffffffffffffffffffffffffffffffffffffff1673ffffffffffffffffffffffffffffffffffffffff1681526020019081526020016000208054806112d4576112d361554c565b5b600190038181906000526020600020016000905590556112f48383613a07565b50505050565b6060601060008473ffffffffffffffffffffffffffffffffffffffff1673ffffffffffffffffffffffffffffffffffffffff16815260200190815260200160002060008373ffffffffffffffffffffffffffffffffffffffff1673ffffffffffffffffffffffffffffffffffffffff168152602001908152602001600020805480602002602001604051908101604052809291908181526020016000905b828210156118f557838290600052602060002090600d0201604051806101a00160405290816000820180546113cc906152c0565b80601f01602080910402602001604051908101604052809291908181526020018280546113f8906152c0565b80156114455780601f1061141a57610100808354040283529160200191611445565b820191906000526020600020905b81548152906001019060200180831161142857829003601f168201915b5050505050815260200160018201805461145e906152c0565b80601f016020809104026020016040519081016040528092919081815260200182805461148a906152c0565b80156114d75780601f106114ac576101008083540402835291602001916114d7565b820191906000526020600020905b8154815290600101906020018083116114ba57829003601f168201915b505050505081526020016002820180546114f0906152c0565b80601f016020809104026020016040519081016040528092919081815260200182805461151c906152c0565b80156115695780601f1061153e57610100808354040283529160200191611569565b820191906000526020600020905b81548152906001019060200180831161154c57829003601f168201915b50505050508152602001600382018054611582906152c0565b80601f01602080910402602001604051908101604052809291908181526020018280546115ae906152c0565b80156115fb5780601f106115d0576101008083540402835291602001916115fb565b820191906000526020600020905b8154815290600101906020018083116115de57829003601f168201915b5050505050815260200160048201805480602002602001604051908101604052809291908181526020016000905b828210156116d5578382906000526020600020018054611648906152c0565b80601f0160208091040260200160405190810160405280929190818152602001828054611674906152c0565b80156116c15780601f10611696576101008083540402835291602001916116c1565b820191906000526020600020905b8154815290600101906020018083116116a457829003601f168201915b505050505081526020019060010190611629565b5050505081526020016005820180548060200260200160405190810160405280929190818152602001828054801561172c57602002820191906000526020600020905b815481526020019060010190808311611718575b505050505081526020016006820180548060200260200160405190810160405280929190818152602001828054801561178457602002820191906000526020600020905b815481526020019060010190808311611770575b50505050508152602001600782018054806020026020016040519081016040528092919081815260200182805480156117dc57602002820191906000526020600020905b8154815260200190600101908083116117c8575b505050505081526020016008820154815260200160098201548152602001600a8201805480602002602001604051908101604052809291908181526020016000905b828210156118ca57838290600052602060002001805461183d906152c0565b80601f0160208091040260200160405190810160405280929190818152602001828054611869906152c0565b80156118b65780601f1061188b576101008083540402835291602001916118b6565b820191906000526020600020905b81548152906001019060200180831161189957829003601f168201915b50505050508152602001906001019061181e565b505050508152602001600b8201548152602001600c8201548152505081526020019060010190611398565b50505050905092915050565b61190b3382613acb565b61191457600080fd5b61191f838383613b5a565b505050565b600061192f83612c8e565b8210611970576040517f08c379a0000000000000000000000000000000000000000000000000000000008152600401611967906155c7565b60405180910390fd5b600860008473ffffffffffffffffffffffffffffffffffffffff1673ffffffffffffffffffffffffffffffffffffffff16815260200190815260200160002082815481106119c1576119c0615415565b5b9060005260206000200154905092915050565b60006119de61109a565b8210611a1f576040517f08c379a0000000000000000000000000000000000000000000000000000000008152600401611a1690615633565b60405180910390fd5b60068281548110611a3357611a32615415565b5b90600052602060002001549050919050565b6003600d60008573ffffffffffffffffffffffffffffffffffffffff1673ffffffffffffffffffffffffffffffffffffffff1681526020019081526020016000205414611ac7576040517f08c379a0000000000000000000000000000000000000000000000000000000008152600401611abe9061569f565b60405180910390fd5b6000601260008381526020019081526020016000205403611b1d576040517f08c379a0000000000000000000000000000000000000000000000000000000008152600401611b1490615731565b60405180910390fd5b611b288383836110a7565b601260008281526020019081526020016000206000815480929190611b4c906154db565b9190505550601060008473ffffffffffffffffffffffffffffffffffffffff1673ffffffffffffffffffffffffffffffffffffffff16815260200190815260200160002060008373ffffffffffffffffffffffffffffffffffffffff1673ffffffffffffffffffffffffffffffffffffffff168152602001908152602001600020600a8281548110611be157611be0615415565b5b90600052602060002090600d020190806001815401808255809150506001900390600052602060002090600d020160009091909190915060008201816000019081611c2c9190615913565b5060018201816001019081611c419190615913565b5060028201816002019081611c569190615913565b5060038201816003019081611c6b9190615913565b506004820181600401908054611c82929190614123565b506005820181600501908054611c99929190614180565b506006820181600601908054611cb0929190614180565b506007820181600701908054611cc7929190614180565b506008820154816008015560098201548160090155600a820181600a01908054611cf2929190614123565b50600b82015481600b0155600c82015481600c01555050505050565b6000806003600084815260200190815260200160002060009054906101000a900473ffffffffffffffffffffffffffffffffffffffff169050600073ffffffffffffffffffffffffffffffffffffffff168173ffffffffffffffffffffffffffffffffffffffff1603611db6576040517f08c379a0000000000000000000000000000000000000000000000000000000008152600401611dad90615a6d565b60405180910390fd5b80915050919050565b6060600c60008373ffffffffffffffffffffffffffffffffffffffff1673ffffffffffffffffffffffffffffffffffffffff168152602001908152602001600020805480602002602001604051908101604052809291908181526020016000905b8282101561237d57838290600052602060002090600d0201604051806101a0016040529081600082018054611e54906152c0565b80601f0160208091040260200160405190810160405280929190818152602001828054611e80906152c0565b8015611ecd5780601f10611ea257610100808354040283529160200191611ecd565b820191906000526020600020905b815481529060010190602001808311611eb057829003601f168201915b50505050508152602001600182018054611ee6906152c0565b80601f0160208091040260200160405190810160405280929190818152602001828054611f12906152c0565b8015611f5f5780601f10611f3457610100808354040283529160200191611f5f565b820191906000526020600020905b815481529060010190602001808311611f4257829003601f168201915b50505050508152602001600282018054611f78906152c0565b80601f0160208091040260200160405190810160405280929190818152602001828054611fa4906152c0565b8015611ff15780601f10611fc657610100808354040283529160200191611ff1565b820191906000526020600020905b815481529060010190602001808311611fd457829003601f168201915b5050505050815260200160038201805461200a906152c0565b80601f0160208091040260200160405190810160405280929190818152602001828054612036906152c0565b80156120835780601f1061205857610100808354040283529160200191612083565b820191906000526020600020905b81548152906001019060200180831161206657829003601f168201915b5050505050815260200160048201805480602002602001604051908101604052809291908181526020016000905b8282101561215d5783829060005260206000200180546120d0906152c0565b80601f01602080910402602001604051908101604052809291908181526020018280546120fc906152c0565b80156121495780601f1061211e57610100808354040283529160200191612149565b820191906000526020600020905b81548152906001019060200180831161212c57829003601f168201915b5050505050815260200190600101906120b1565b505050508152602001600582018054806020026020016040519081016040528092919081815260200182805480156121b457602002820191906000526020600020905b8154815260200190600101908083116121a0575b505050505081526020016006820180548060200260200160405190810160405280929190818152602001828054801561220c57602002820191906000526020600020905b8154815260200190600101908083116121f8575b505050505081526020016007820180548060200260200160405190810160405280929190818152602001828054801561226457602002820191906000526020600020905b815481526020019060010190808311612250575b505050505081526020016008820154815260200160098201548152602001600a8201805480602002602001604051908101604052809291908181526020016000905b828210156123525783829060005260206000200180546122c5906152c0565b80601f01602080910402602001604051908101604052809291908181526020018280546122f1906152c0565b801561233e5780601f106123135761010080835404028352916020019161233e565b820191906000526020600020905b81548152906001019060200180831161232157829003601f168201915b5050505050815260200190600101906122a6565b505050508152602001600b8201548152602001600c8201548152505081526020019060010190611e20565b505050509050919050565b6123938383836110a7565b600b60008373ffffffffffffffffffffffffffffffffffffffff1673ffffffffffffffffffffffffffffffffffffffff168152602001908152602001600020819080600181540180825580915050600190039060005260206000200160009091909190915055600c60008373ffffffffffffffffffffffffffffffffffffffff1673ffffffffffffffffffffffffffffffffffffffff168152602001908152602001600020600a828154811061244c5761244b615415565b5b90600052602060002090600d020190806001815401808255809150506001900390600052602060002090600d0201600090919091909150600082018160000190816124979190615913565b50600182018160010190816124ac9190615913565b50600282018160020190816124c19190615913565b50600382018160030190816124d69190615913565b5060048201816004019080546124ed929190614123565b506005820181600501908054612504929190614180565b50600682018160060190805461251b929190614180565b506007820181600701908054612532929190614180565b506008820154816008015560098201548160090155600a820181600a0190805461255d929190614123565b50600b82015481600b0155600c82015481600c015550506000600a828154811061258a57612589615415565b5b90600052602060002090600d0201604051806101a00160405290816000820180546125b4906152c0565b80601f01602080910402602001604051908101604052809291908181526020018280546125e0906152c0565b801561262d5780601f106126025761010080835404028352916020019161262d565b820191906000526020600020905b81548152906001019060200180831161261057829003601f168201915b50505050508152602001600182018054612646906152c0565b80601f0160208091040260200160405190810160405280929190818152602001828054612672906152c0565b80156126bf5780601f10612694576101008083540402835291602001916126bf565b820191906000526020600020905b8154815290600101906020018083116126a257829003601f168201915b505050505081526020016002820180546126d8906152c0565b80601f0160208091040260200160405190810160405280929190818152602001828054612704906152c0565b80156127515780601f1061272657610100808354040283529160200191612751565b820191906000526020600020905b81548152906001019060200180831161273457829003601f168201915b5050505050815260200160038201805461276a906152c0565b80601f0160208091040260200160405190810160405280929190818152602001828054612796906152c0565b80156127e35780601f106127b8576101008083540402835291602001916127e3565b820191906000526020600020905b8154815290600101906020018083116127c657829003601f168201915b5050505050815260200160048201805480602002602001604051908101604052809291908181526020016000905b828210156128bd578382906000526020600020018054612830906152c0565b80601f016020809104026020016040519081016040528092919081815260200182805461285c906152c0565b80156128a95780601f1061287e576101008083540402835291602001916128a9565b820191906000526020600020905b81548152906001019060200180831161288c57829003601f168201915b505050505081526020019060010190612811565b5050505081526020016005820180548060200260200160405190810160405280929190818152602001828054801561291457602002820191906000526020600020905b815481526020019060010190808311612900575b505050505081526020016006820180548060200260200160405190810160405280929190818152602001828054801561296c57602002820191906000526020600020905b815481526020019060010190808311612958575b50505050508152602001600782018054806020026020016040519081016040528092919081815260200182805480156129c457602002820191906000526020600020905b8154815260200190600101908083116129b0575b505050505081526020016008820154815260200160098201548152602001600a8201805480602002602001604051908101604052809291908181526020016000905b82821015612ab2578382906000526020600020018054612a25906152c0565b80601f0160208091040260200160405190810160405280929190818152602001828054612a51906152c0565b8015612a9e5780601f10612a7357610100808354040283529160200191612a9e565b820191906000526020600020905b815481529060010190602001808311612a8157829003601f168201915b505050505081526020019060010190612a06565b505050508152602001600b8201548152602001600c820154815250509050601060008573ffffffffffffffffffffffffffffffffffffffff1673ffffffffffffffffffffffffffffffffffffffff16815260200190815260200160002060008473ffffffffffffffffffffffffffffffffffffffff1673ffffffffffffffffffffffffffffffffffffffff168152602001908152602001600020600a8381548110612b6057612b5f615415565b5b90600052602060002090600d020190806001815401808255809150506001900390600052602060002090600d020160009091909190915060008201816000019081612bab9190615913565b5060018201816001019081612bc09190615913565b5060028201816002019081612bd59190615913565b5060038201816003019081612bea9190615913565b506004820181600401908054612c01929190614123565b506005820181600501908054612c18929190614180565b506006820181600601908054612c2f929190614180565b506007820181600701908054612c46929190614180565b506008820154816008015560098201548160090155600a820181600a01908054612c71929190614123565b50600b82015481600b0155600c82015481600c0155505050505050565b60008073ffffffffffffffffffffffffffffffffffffffff168273ffffffffffffffffffffffffffffffffffffffff1603612cfe576040517f08c379a0000000000000000000000000000000000000000000000000000000008152600401612cf590615a6d565b60405180910390fd5b612d45600460008473ffffffffffffffffffffffffffffffffffffffff1673ffffffffffffffffffffffffffffffffffffffff168152602001908152602001600020613d7f565b9050919050565b6060600b60008373ffffffffffffffffffffffffffffffffffffffff1673ffffffffffffffffffffffffffffffffffffffff168152602001908152602001600020805480602002602001604051908101604052809291908181526020018280548015612dd757602002820191906000526020600020905b815481526020019060010190808311612dc3575b50505050509050919050565b601360003373ffffffffffffffffffffffffffffffffffffffff1673ffffffffffffffffffffffffffffffffffffffff16815260200190815260200160002081908060018154018082558091505060019003906000526020600020016000909190919091505550565b6003600d60008373ffffffffffffffffffffffffffffffffffffffff1673ffffffffffffffffffffffffffffffffffffffff1681526020019081526020016000208190555050565b600060126000838152602001908152602001600020549050919050565b6001600d60008373ffffffffffffffffffffffffffffffffffffffff1673ffffffffffffffffffffffffffffffffffffffff1681526020019081526020016000208190555050565b6000600d60008373ffffffffffffffffffffffffffffffffffffffff1673ffffffffffffffffffffffffffffffffffffffff168152602001908152602001600020549050919050565b80600001518160200151826060015183608001518461016001516000805b600a805490508110156131cf576000805b600a8381548110612f8557612f84615415565b5b90600052602060002090600d02016004018054905081101561304057858181518110612fb457612fb3615415565b5b602002602001015180519060200120600a8481548110612fd757612fd6615415565b5b90600052602060002090600d02016004018281548110612ffa57612ff9615415565b5b906000526020600020016040516130119190615b30565b60405180910390200361302d57818061302990615504565b9250505b808061303890615504565b915050612f71565b508451600a838154811061305757613056615415565b5b90600052602060002090600d0201600401805490501480156130a05750600a828154811061308857613087615415565b5b90600052602060002090600d02016004018054905081145b80156130d0575083600a83815481106130bc576130bb615415565b5b90600052602060002090600d0201600b0154145b801561311b57508780519060200120600a83815481106130f3576130f2615415565b5b90600052602060002090600d02016000016040516131119190615b30565b6040518091039020145b801561316657508680519060200120600a838154811061313e5761313d615415565b5b90600052602060002090600d020160010160405161315c9190615b30565b6040518091039020145b80156131b157508580519060200120600a838154811061318957613188615415565b5b90600052602060002090600d02016003016040516131a79190615b30565b6040518091039020145b156131bb57600192505b5080806131c790615504565b915050612f60565b508015613211576040517f08c379a000000000000000000000000000000000000000000000000000000000815260040161320890615bb9565b60405180910390fd5b6002600d60003373ffffffffffffffffffffffffffffffffffffffff1673ffffffffffffffffffffffffffffffffffffffff1681526020019081526020016000205414613293576040517f08c379a000000000000000000000000000000000000000000000000000000000815260040161328a90615c25565b60405180910390fd5b600a8790806001815401808255809150506001900390600052602060002090600d020160009091909190915060008201518160000190816132d49190615c45565b5060208201518160010190816132ea9190615c45565b5060408201518160020190816133009190615c45565b5060608201518160030190816133169190615c45565b5060808201518160040190805190602001906133339291906141d2565b5060a082015181600501908051906020019061335092919061422b565b5060c082015181600601908051906020019061336d92919061422b565b5060e082015181600701908051906020019061338a92919061422b565b506101008201518160080155610120820151816009015561014082015181600a0190805190602001906133be9291906141d2565b5061016082015181600b015561018082015181600c0155505060006001600a805490506133eb9190615473565b9050600c60003373ffffffffffffffffffffffffffffffffffffffff1673ffffffffffffffffffffffffffffffffffffffff1681526020019081526020016000208890806001815401808255809150506001900390600052602060002090600d0201600090919091909150600082015181600001908161346b9190615c45565b5060208201518160010190816134819190615c45565b5060408201518160020190816134979190615c45565b5060608201518160030190816134ad9190615c45565b5060808201518160040190805190602001906134ca9291906141d2565b5060a08201518160050190805190602001906134e792919061422b565b5060c082015181600601908051906020019061350492919061422b565b5060e082015181600701908051906020019061352192919061422b565b506101008201518160080155610120820151816009015561014082015181600a0190805190602001906135559291906141d2565b5061016082015181600b015561018082015181600c0155505087610120015160126000838152602001908152602001600020819055506135953382613d8d565b61359e81612de3565b5050505050505050565b6060600280546135b7906152c0565b80601f01602080910402602001604051908101604052809291908181526020018280546135e3906152c0565b80156136305780601f1061360557610100808354040283529160200191613630565b820191906000526020600020905b81548152906001019060200180831161361357829003601f168201915b5050505050905090565b600061364582612c8e565b9050919050565b60006012600083815260200190815260200160002054036136a2576040517f08c379a000000000000000000000000000000000000000000000000000000000815260040161369990615731565b60405180910390fd5b600b60008373ffffffffffffffffffffffffffffffffffffffff1673ffffffffffffffffffffffffffffffffffffffff168152602001908152602001600020819080600181540180825580915050600190039060005260206000200160009091909190915055600c60008373ffffffffffffffffffffffffffffffffffffffff1673ffffffffffffffffffffffffffffffffffffffff168152602001908152602001600020600a828154811061375b5761375a615415565b5b90600052602060002090600d020190806001815401808255809150506001900390600052602060002090600d0201600090919091909150600082018160000190816137a69190615913565b50600182018160010190816137bb9190615913565b50600282018160020190816137d09190615913565b50600382018160030190816137e59190615913565b5060048201816004019080546137fc929190614123565b506005820181600501908054613813929190614180565b50600682018160060190805461382a929190614180565b506007820181600701908054613841929190614180565b506008820154816008015560098201548160090155600a820181600a0190805461386c929190614123565b50600b82015481600b0155600c82015481600c0155505061388e8383836110a7565b505050565b6002600d60008373ffffffffffffffffffffffffffffffffffffffff1673ffffffffffffffffffffffffffffffffffffffff1681526020019081526020016000208190555050565b6060601360003373ffffffffffffffffffffffffffffffffffffffff1673ffffffffffffffffffffffffffffffffffffffff16815260200190815260200160002080548060200260200160405190810160405280929190818152602001828054801561396657602002820191906000526020600020905b815481526020019060010190808311613952575b5050505050905090565b6060600860008373ffffffffffffffffffffffffffffffffffffffff1673ffffffffffffffffffffffffffffffffffffffff1681526020019081526020016000208054806020026020016040519081016040528092919081815260200182805480156139fb57602002820191906000526020600020905b8154815260200190600101908083116139e7575b50505050509050919050565b600860008373ffffffffffffffffffffffffffffffffffffffff1673ffffffffffffffffffffffffffffffffffffffff168152602001908152602001600020805490506009600083815260200190815260200160002081905550600860008373ffffffffffffffffffffffffffffffffffffffff1673ffffffffffffffffffffffffffffffffffffffff1681526020019081526020016000208190806001815401808255809150506001900390600052602060002001600090919091909150555050565b6000613ad682613dae565b613b15576040517f08c379a0000000000000000000000000000000000000000000000000000000008152600401613b0c90615d63565b60405180910390fd5b6000613b2083611d0e565b90508073ffffffffffffffffffffffffffffffffffffffff168473ffffffffffffffffffffffffffffffffffffffff161491505092915050565b600073ffffffffffffffffffffffffffffffffffffffff168273ffffffffffffffffffffffffffffffffffffffff1603613bc9576040517f08c379a0000000000000000000000000000000000000000000000000000000008152600401613bc090615df5565b60405180910390fd5b8273ffffffffffffffffffffffffffffffffffffffff16613be982611d0e565b73ffffffffffffffffffffffffffffffffffffffff1614613c3f576040517f08c379a0000000000000000000000000000000000000000000000000000000008152600401613c3690615e87565b60405180910390fd5b613c86600460008573ffffffffffffffffffffffffffffffffffffffff1673ffffffffffffffffffffffffffffffffffffffff168152602001908152602001600020613e20565b613ccd600460008473ffffffffffffffffffffffffffffffffffffffff1673ffffffffffffffffffffffffffffffffffffffff168152602001908152602001600020613e43565b816003600083815260200190815260200160002060006101000a81548173ffffffffffffffffffffffffffffffffffffffff021916908373ffffffffffffffffffffffffffffffffffffffff160217905550808273ffffffffffffffffffffffffffffffffffffffff168473ffffffffffffffffffffffffffffffffffffffff167fddf252ad1be2c89b69c2b068fc378daa952ba7f163c4a11628f55a4df523b3ef60405160405180910390a4505050565b600081600001549050919050565b613d978282613e62565b613da081614013565b613daa8282613a07565b5050565b6000806003600084815260200190815260200160002060009054906101000a900473ffffffffffffffffffffffffffffffffffffffff169050600073ffffffffffffffffffffffffffffffffffffffff168173ffffffffffffffffffffffffffffffffffffffff161415915050919050565b613e386001826000015461405c90919063ffffffff16565b816000018190555050565b6001816000016000828254613e5891906154a7565b9250508190555050565b600073ffffffffffffffffffffffffffffffffffffffff168273ffffffffffffffffffffffffffffffffffffffff1603613ed1576040517f08c379a0000000000000000000000000000000000000000000000000000000008152600401613ec890615f19565b60405180910390fd5b613eda81613dae565b15613f1a576040517f08c379a0000000000000000000000000000000000000000000000000000000008152600401613f1190615f85565b60405180910390fd5b816003600083815260200190815260200160002060006101000a81548173ffffffffffffffffffffffffffffffffffffffff021916908373ffffffffffffffffffffffffffffffffffffffff160217905550613fb3600460008473ffffffffffffffffffffffffffffffffffffffff1673ffffffffffffffffffffffffffffffffffffffff168152602001908152602001600020613e43565b808273ffffffffffffffffffffffffffffffffffffffff16600073ffffffffffffffffffffffffffffffffffffffff167fddf252ad1be2c89b69c2b068fc378daa952ba7f163c4a11628f55a4df523b3ef60405160405180910390a45050565b6006805490506007600083815260200190815260200160002081905550600681908060018154018082558091505060019003906000526020600020016000909190919091505550565b6000828211156140a1576040517f08c379a000000000000000000000000000000000000000000000000000000000815260040161409890615ff1565b60405180910390fd5b600082846140af9190615473565b90508091505092915050565b604051806101a00160405280606081526020016060815260200160608152602001606081526020016060815260200160608152602001606081526020016060815260200160008152602001600081526020016060815260200160008152602001600081525090565b82805482825590600052602060002090810192821561416f5760005260206000209182015b8281111561416e578282908161415e9190615913565b5091600101919060010190614148565b5b50905061417c9190614278565b5090565b8280548282559060005260206000209081019282156141c15760005260206000209182015b828111156141c05782548255916001019190600101906141a5565b5b5090506141ce919061429c565b5090565b82805482825590600052602060002090810192821561421a579160200282015b828111156142195782518290816142099190615c45565b50916020019190600101906141f2565b5b5090506142279190614278565b5090565b828054828255906000526020600020908101928215614267579160200282015b8281111561426657825182559160200191906001019061424b565b5b509050614274919061429c565b5090565b5b80821115614298576000818161428f91906142b9565b50600101614279565b5090565b5b808211156142b557600081600090555060010161429d565b5090565b5080546142c5906152c0565b6000825580601f106142d757506142f6565b601f0160209004906000526020600020908101906142f5919061429c565b5b50565b6000604051905090565b600080fd5b600080fd5b60007fffffffff0000000000000000000000000000000000000000000000000000000082169050919050565b6143428161430d565b811461434d57600080fd5b50565b60008135905061435f81614339565b92915050565b60006020828403121561437b5761437a614303565b5b600061438984828501614350565b91505092915050565b60008115159050919050565b6143a781614392565b82525050565b60006020820190506143c2600083018461439e565b92915050565b600081519050919050565b600082825260208201905092915050565b60005b838110156144025780820151818401526020810190506143e7565b60008484015250505050565b6000601f19601f8301169050919050565b600061442a826143c8565b61443481856143d3565b93506144448185602086016143e4565b61444d8161440e565b840191505092915050565b60006020820190508181036000830152614472818461441f565b905092915050565b600073ffffffffffffffffffffffffffffffffffffffff82169050919050565b60006144a58261447a565b9050919050565b6144b58161449a565b81146144c057600080fd5b50565b6000813590506144d2816144ac565b92915050565b6000819050919050565b6144eb816144d8565b81146144f657600080fd5b50565b600081359050614508816144e2565b92915050565b6000806040838503121561452557614524614303565b5b6000614533858286016144c3565b9250506020614544858286016144f9565b9150509250929050565b60006020828403121561456457614563614303565b5b6000614572848285016144f9565b91505092915050565b600082825260208201905092915050565b6000614597826143c8565b6145a1818561457b565b93506145b18185602086016143e4565b6145ba8161440e565b840191505092915050565b600081519050919050565b600082825260208201905092915050565b6000819050602082019050919050565b60006145fd838361458c565b905092915050565b6000602082019050919050565b600061461d826145c5565b61462781856145d0565b935083602082028501614639856145e1565b8060005b85811015614675578484038952815161465685826145f1565b945061466183614605565b925060208a0199505060018101905061463d565b50829750879550505050505092915050565b600081519050919050565b600082825260208201905092915050565b6000819050602082019050919050565b6146bc816144d8565b82525050565b60006146ce83836146b3565b60208301905092915050565b6000602082019050919050565b60006146f282614687565b6146fc8185614692565b9350614707836146a3565b8060005b8381101561473857815161471f88826146c2565b975061472a836146da565b92505060018101905061470b565b5085935050505092915050565b60006101a0830160008301518482036000860152614763828261458c565b9150506020830151848203602086015261477d828261458c565b91505060408301518482036040860152614797828261458c565b915050606083015184820360608601526147b1828261458c565b915050608083015184820360808601526147cb8282614612565b91505060a083015184820360a08601526147e582826146e7565b91505060c083015184820360c08601526147ff82826146e7565b91505060e083015184820360e086015261481982826146e7565b9150506101008301516148306101008601826146b3565b506101208301516148456101208601826146b3565b5061014083015184820361014086015261485f8282614612565b9150506101608301516148766101608601826146b3565b5061018083015161488b6101808601826146b3565b508091505092915050565b600060208201905081810360008301526148b08184614745565b905092915050565b6148c1816144d8565b82525050565b60006101008201905081810360008301526148e2818b61441f565b905081810360208301526148f6818a61441f565b9050818103604083015261490a818961441f565b9050818103606083015261491e818861441f565b905061492d60808301876148b8565b61493a60a08301866148b8565b61494760c08301856148b8565b61495460e08301846148b8565b9998505050505050505050565b600060208201905061497660008301846148b8565b92915050565b60008060006060848603121561499557614994614303565b5b60006149a3868287016144c3565b93505060206149b4868287016144c3565b92505060406149c5868287016144f9565b9150509250925092565b600080604083850312156149e6576149e5614303565b5b60006149f4858286016144c3565b9250506020614a05858286016144c3565b9150509250929050565b600081519050919050565b600082825260208201905092915050565b6000819050602082019050919050565b60006101a0830160008301518482036000860152614a59828261458c565b91505060208301518482036020860152614a73828261458c565b91505060408301518482036040860152614a8d828261458c565b91505060608301518482036060860152614aa7828261458c565b91505060808301518482036080860152614ac18282614612565b91505060a083015184820360a0860152614adb82826146e7565b91505060c083015184820360c0860152614af582826146e7565b91505060e083015184820360e0860152614b0f82826146e7565b915050610100830151614b266101008601826146b3565b50610120830151614b3b6101208601826146b3565b50610140830151848203610140860152614b558282614612565b915050610160830151614b6c6101608601826146b3565b50610180830151614b816101808601826146b3565b508091505092915050565b6000614b988383614a3b565b905092915050565b6000602082019050919050565b6000614bb882614a0f565b614bc28185614a1a565b935083602082028501614bd485614a2b565b8060005b85811015614c105784840389528151614bf18582614b8c565b9450614bfc83614ba0565b925060208a01995050600181019050614bd8565b50829750879550505050505092915050565b60006020820190508181036000830152614c3c8184614bad565b905092915050565b614c4d8161449a565b82525050565b6000602082019050614c686000830184614c44565b92915050565b600060208284031215614c8457614c83614303565b5b6000614c92848285016144c3565b91505092915050565b600082825260208201905092915050565b6000614cb782614687565b614cc18185614c9b565b9350614ccc836146a3565b8060005b83811015614cfd578151614ce488826146c2565b9750614cef836146da565b925050600181019050614cd0565b5085935050505092915050565b60006020820190508181036000830152614d248184614cac565b905092915050565b600080fd5b7f4e487b7100000000000000000000000000000000000000000000000000000000600052604160045260246000fd5b614d698261440e565b810181811067ffffffffffffffff82111715614d8857614d87614d31565b5b80604052505050565b6000614d9b6142f9565b9050614da78282614d60565b919050565b600080fd5b600080fd5b600080fd5b600067ffffffffffffffff821115614dd657614dd5614d31565b5b614ddf8261440e565b9050602081019050919050565b82818337600083830152505050565b6000614e0e614e0984614dbb565b614d91565b905082815260208101848484011115614e2a57614e29614db6565b5b614e35848285614dec565b509392505050565b600082601f830112614e5257614e51614db1565b5b8135614e62848260208601614dfb565b91505092915050565b600067ffffffffffffffff821115614e8657614e85614d31565b5b602082029050602081019050919050565b600080fd5b6000614eaf614eaa84614e6b565b614d91565b90508083825260208201905060208402830185811115614ed257614ed1614e97565b5b835b81811015614f1957803567ffffffffffffffff811115614ef757614ef6614db1565b5b808601614f048982614e3d565b85526020850194505050602081019050614ed4565b5050509392505050565b600082601f830112614f3857614f37614db1565b5b8135614f48848260208601614e9c565b91505092915050565b600067ffffffffffffffff821115614f6c57614f6b614d31565b5b602082029050602081019050919050565b6000614f90614f8b84614f51565b614d91565b90508083825260208201905060208402830185811115614fb357614fb2614e97565b5b835b81811015614fdc5780614fc888826144f9565b845260208401935050602081019050614fb5565b5050509392505050565b600082601f830112614ffb57614ffa614db1565b5b813561500b848260208601614f7d565b91505092915050565b60006101a0828403121561502b5761502a614d2c565b5b6150366101a0614d91565b9050600082013567ffffffffffffffff81111561505657615055614dac565b5b61506284828501614e3d565b600083015250602082013567ffffffffffffffff81111561508657615085614dac565b5b61509284828501614e3d565b602083015250604082013567ffffffffffffffff8111156150b6576150b5614dac565b5b6150c284828501614e3d565b604083015250606082013567ffffffffffffffff8111156150e6576150e5614dac565b5b6150f284828501614e3d565b606083015250608082013567ffffffffffffffff81111561511657615115614dac565b5b61512284828501614f23565b60808301525060a082013567ffffffffffffffff81111561514657615145614dac565b5b61515284828501614fe6565b60a08301525060c082013567ffffffffffffffff81111561517657615175614dac565b5b61518284828501614fe6565b60c08301525060e082013567ffffffffffffffff8111156151a6576151a5614dac565b5b6151b284828501614fe6565b60e0830152506101006151c7848285016144f9565b610100830152506101206151dd848285016144f9565b6101208301525061014082013567ffffffffffffffff81111561520357615202614dac565b5b61520f84828501614f23565b61014083015250610160615225848285016144f9565b6101608301525061018061523b848285016144f9565b6101808301525092915050565b60006020828403121561525e5761525d614303565b5b600082013567ffffffffffffffff81111561527c5761527b614308565b5b61528884828501615014565b91505092915050565b7f4e487b7100000000000000000000000000000000000000000000000000000000600052602260045260246000fd5b600060028204905060018216806152d857607f821691505b6020821081036152eb576152ea615291565b5b50919050565b7f4572726f72202d20617070726f76616c20746f2063757272656e74206f776e6560008201527f7200000000000000000000000000000000000000000000000000000000000000602082015250565b600061534d6021836143d3565b9150615358826152f1565b604082019050919050565b6000602082019050818103600083015261537c81615340565b9050919050565b7f43757272656e742063616c6c6572206973206e6f7420746865206f776e65722060008201527f6f662074686520746f6b656e0000000000000000000000000000000000000000602082015250565b60006153df602c836143d3565b91506153ea82615383565b604082019050919050565b6000602082019050818103600083015261540e816153d2565b9050919050565b7f4e487b7100000000000000000000000000000000000000000000000000000000600052603260045260246000fd5b7f4e487b7100000000000000000000000000000000000000000000000000000000600052601160045260246000fd5b600061547e826144d8565b9150615489836144d8565b92508282039050818111156154a1576154a0615444565b5b92915050565b60006154b2826144d8565b91506154bd836144d8565b92508282019050808211156154d5576154d4615444565b5b92915050565b60006154e6826144d8565b9150600082036154f9576154f8615444565b5b600182039050919050565b600061550f826144d8565b91507fffffffffffffffffffffffffffffffffffffffffffffffffffffffffffffffff820361554157615540615444565b5b600182019050919050565b7f4e487b7100000000000000000000000000000000000000000000000000000000600052603160045260246000fd5b7f6f776e657220696e646578206973206f7574206f6620626f756e647321000000600082015250565b60006155b1601d836143d3565b91506155bc8261557b565b602082019050919050565b600060208201905081810360008301526155e0816155a4565b9050919050565b7f676c6f62616c20696e646578206973206f7574206f6620626f756e6473210000600082015250565b600061561d601e836143d3565b9150615628826155e7565b602082019050919050565b6000602082019050818103600083015261564c81615610565b9050919050565b7f596f7520646f206e6f74207065726d697474696f6e0000000000000000000000600082015250565b60006156896015836143d3565b915061569482615653565b602082019050919050565b600060208201905081810360008301526156b88161567c565b9050919050565b7f546865206e756d626572206f662064697370656e73696e67206861732062656560008201527f6e2065786365656465642e000000000000000000000000000000000000000000602082015250565b600061571b602b836143d3565b9150615726826156bf565b604082019050919050565b6000602082019050818103600083015261574a8161570e565b9050919050565b600081549050615760816152c0565b9050919050565b60008190508160005260206000209050919050565b60006020601f8301049050919050565b600082821b905092915050565b6000600883026157c97fffffffffffffffffffffffffffffffffffffffffffffffffffffffffffffffff8261578c565b6157d3868361578c565b95508019841693508086168417925050509392505050565b6000819050919050565b600061581061580b615806846144d8565b6157eb565b6144d8565b9050919050565b6000819050919050565b61582a836157f5565b61583e61583682615817565b848454615799565b825550505050565b600090565b615853615846565b61585e818484615821565b505050565b5b818110156158825761587760008261584b565b600181019050615864565b5050565b601f8211156158c75761589881615767565b6158a18461577c565b810160208510156158b0578190505b6158c46158bc8561577c565b830182615863565b50505b505050565b600082821c905092915050565b60006158ea600019846008026158cc565b1980831691505092915050565b600061590383836158d9565b9150826002028217905092915050565b8181036159215750506159f9565b61592a82615751565b67ffffffffffffffff81111561594357615942614d31565b5b61594d82546152c0565b615958828285615886565b6000601f8311600181146159875760008415615975578287015490505b61597f85826158f7565b8655506159f2565b601f19841661599587615767565b96506159a086615767565b60005b828110156159c8578489015482556001820191506001850194506020810190506159a3565b868310156159e557848901546159e1601f8916826158d9565b8355505b6001600288020188555050505b5050505050505b565b7f6f776e657220717565727920666f72206e6f6e2d6578697374656e7420746f6b60008201527f656e000000000000000000000000000000000000000000000000000000000000602082015250565b6000615a576022836143d3565b9150615a62826159fb565b604082019050919050565b60006020820190508181036000830152615a8681615a4a565b9050919050565b600081905092915050565b60008190508160005260206000209050919050565b60008154615aba816152c0565b615ac48186615a8d565b94506001821660008114615adf5760018114615af457615b27565b60ff1983168652811515820286019350615b27565b615afd85615a98565b60005b83811015615b1f57815481890152600182019150602081019050615b00565b838801955050505b50505092915050565b6000615b3c8284615aad565b915081905092915050565b7f4572726f72203a20616c7265616479206578697374732070726553637269707460008201527f696f6e2000000000000000000000000000000000000000000000000000000000602082015250565b6000615ba36024836143d3565b9150615bae82615b47565b604082019050919050565b60006020820190508181036000830152615bd281615b96565b9050919050565b7f596f7520646f206e6f742068617665207065726d697373696f6e000000000000600082015250565b6000615c0f601a836143d3565b9150615c1a82615bd9565b602082019050919050565b60006020820190508181036000830152615c3e81615c02565b9050919050565b615c4e826143c8565b67ffffffffffffffff811115615c6757615c66614d31565b5b615c7182546152c0565b615c7c828285615886565b600060209050601f831160018114615caf5760008415615c9d578287015190505b615ca785826158f7565b865550615d0f565b601f198416615cbd86615767565b60005b82811015615ce557848901518255600182019150602085019450602081019050615cc0565b86831015615d025784890151615cfe601f8916826158d9565b8355505b6001600288020188555050505b505050505050565b7f746f6b656e20646f6573206e6f74206578697374000000000000000000000000600082015250565b6000615d4d6014836143d3565b9150615d5882615d17565b602082019050919050565b60006020820190508181036000830152615d7c81615d40565b9050919050565b7f4572726f72202d20455243373231205472616e7366657220746f20746865207a60008201527f65726f2061646472657373000000000000000000000000000000000000000000602082015250565b6000615ddf602b836143d3565b9150615dea82615d83565b604082019050919050565b60006020820190508181036000830152615e0e81615dd2565b9050919050565b7f547279696e6720746f207472616e73666572206120746f6b656e20746865206160008201527f64647265737320646f6573206e6f74206f776e21000000000000000000000000602082015250565b6000615e716034836143d3565b9150615e7c82615e15565b604082019050919050565b60006020820190508181036000830152615ea081615e64565b9050919050565b7f4552433732313a206d696e74696e6720746f20746865207a65726f206164647260008201527f6573000000000000000000000000000000000000000000000000000000000000602082015250565b6000615f036022836143d3565b9150615f0e82615ea7565b604082019050919050565b60006020820190508181036000830152615f3281615ef6565b9050919050565b7f4552433732313a20746f6b656e20616c7265616479206d696e74656400000000600082015250565b6000615f6f601c836143d3565b9150615f7a82615f39565b602082019050919050565b60006020820190508181036000830152615f9e81615f62565b9050919050565b7f536166654d6174683a207375627472616374696f6e206f766572666c6f770000600082015250565b6000615fdb601e836143d3565b9150615fe682615fa5565b602082019050919050565b6000602082019050818103600083015261600a81615fce565b905091905056fea2646970667358221220d5dc18619c3c47547e390fdd975dec23cbfca73163f607580fb90b1551817dd164736f6c63430008110033",
  "immutableReferences": {},
  "source": "// SPDX-License-Identifier: MIT\r\npragma solidity ^0.8.0;\r\n\r\nimport './ERC721Connector.sol';\r\n\r\ncontract PreScription is ERC721Connector {\r\n\r\n    // array to store our nfts\r\n    //  \r\n   struct  preScription {\r\n        // preScriptionExists        ?   .\r\n        string userName; //  \r\n        string hosName; //  \r\n        string pharName; //  \r\n        string dCode; // \r\n        string[] dName; // \r\n\r\n        uint[] dosage; // \r\n        uint[] doseNum; //  \r\n        uint[] dosePeriod; // \r\n        uint dispensingCount; //   \r\n        uint prescriptionCount; // \r\n        // uint period; //  ? .\r\n        string[] howtoTake; // \r\n        uint pubDate; // \r\n        uint prepDate; //  \r\n        \r\n        }\r\n        \r\n        //        \r\n   \r\n   //  \r\n\r\n   \r\n    preScription[] public preScriptions;\r\n    // preScription pp;\r\n    \r\n   \r\n\r\n    \r\n    mapping (address => uint[]) _allTokensOwned; //     ID \r\n\r\n    mapping (address => preScription[]) _allListFromAccount; //    \r\n    \r\n    mapping (address => uint) _accountAuth;  //   (1 , 2 , 3 )\r\n    \r\n    mapping(string => bool) _preScriptionsExists;\r\n\r\n    \r\n    // mapping (uint256 => uint ) _blockTotokenid;\r\n\r\n    // mapping (address => uint[]) _addToblock;\r\n    //  =>   =>  ID\r\n    mapping (address => mapping (address => uint[])) _patientListFromAccount2;\r\n\r\n    mapping (address => mapping (address => preScription[])) _patientListFromAccount;\r\n\r\n    //  \r\n    // mapping (address => preScription[]) _regularPrescription;\r\n\r\n     \r\n    // //   ->    \r\n    // mapping(address => address[])\r\n    // //   \r\n    // mapping(address => uint[])\r\n\r\n    //   \r\n    mapping (uint256 => uint256) _prsCountOfTokenId;\r\n    //   \r\n    mapping (uint256 => uint256) _offerCountOfTokenId;\r\n\r\n        // _address    \r\n        function getAllListFromAccount(address _address) public view returns(preScription[] memory){\r\n            return _allListFromAccount[_address];\r\n        }\r\n\r\n         //     \r\n        function getAllTokensOwned(address _address) public view returns(uint[] memory){\r\n            return _allTokensOwned[_address];\r\n        }\r\n        // _from _to     \r\n        function getPatientListFromAccount(address _from, address _to) public view returns(preScription[] memory) {\r\n            return _patientListFromAccount[_from][_to];\r\n        }\r\n        function getOfferCountOfToken(uint _tokenId) public view returns(uint){\r\n            return _offerCountOfTokenId[_tokenId];\r\n        }\r\n        //  \r\n        // function getRegularPreScription(address _address) public view returns(preScription[] memory) {\r\n        //     return _regularPrescription[_address];\r\n        // }\r\n       \r\n\r\n\r\n       \r\n        // \r\n        function setPatientAuth(address _address) public {\r\n        _accountAuth[_address] = 1;\r\n    }\r\n        // \r\n        function setDoctorAuth(address _address) public {\r\n        _accountAuth[_address] = 2;\r\n    }\r\n        //\r\n        function setPharmacyAuth(address _address) public {\r\n        _accountAuth[_address] = 3;\r\n    }\r\n        //    \r\n        function getAuthOfAccount(address _address) public view returns(uint){\r\n            return _accountAuth[_address];\r\n        }\r\n\r\n\r\n    //    ?\r\n    //   (  ID)\r\n    mapping (address => uint256[]) _mintedTokens;\r\n\r\n  \r\n    mapping (address => uint256[]) _alltokensOfphaccount;\r\n   \r\n    //       ????\r\n    \r\n    \r\n    //   (msg.sender)      \r\n\r\n    function setMintedTokens(uint _tokenId) public {\r\n        _mintedTokens[msg.sender].push(_tokenId);\r\n    }\r\n    function getMintedTokens() public view returns (uint256[] memory){\r\n        return _mintedTokens[msg.sender];\r\n    }\r\n    \r\n    \r\n\r\n\r\n    \r\n    //   \r\n    modifier prsExists( \r\n        string memory _userName, \r\n        string memory _hosName,\r\n        string memory _dCode,\r\n        string[] memory _dName, // \r\n        uint _pubDate // \r\n  \r\n        ) {\r\n           bool check = false;\r\n           for (uint i = 0; i < preScriptions.length; i++){\r\n                uint cnt = 0; \r\n                for(uint j = 0; j < preScriptions[i].dName.length; j++){\r\n                    if(\r\n                         keccak256(bytes(preScriptions[i].dName[j])) == keccak256(bytes(_dName[j])) \r\n                    ){\r\n                           cnt++;\r\n                    }\r\n                }\r\n            if(preScriptions[i].dName.length == _dName.length && \r\n                    cnt == preScriptions[i].dName.length && \r\n                    preScriptions[i].pubDate == _pubDate &&\r\n                keccak256(bytes(preScriptions[i].userName)) == keccak256(bytes(_userName)) &&\r\n                keccak256(bytes(preScriptions[i].hosName)) == keccak256(bytes(_hosName)) &&\r\n                keccak256(bytes(preScriptions[i].dCode)) == keccak256(bytes(_dCode))\r\n           \r\n            ) {\r\n                check =true;\r\n            }\r\n           } \r\n           require(!check, \"Error : already exists preScription \");\r\n           _;\r\n        }\r\n   \r\n        function getBalanceOf(address _address) public view returns(uint256) {\r\n            return balanceOf(_address);\r\n        }\r\n\r\n        //   / /  \r\n\r\n        // \r\n        function transferPreScription(address _from, address _to, uint _tokenId) public {\r\n            //     \r\n            require(_offerCountOfTokenId[_tokenId] != 0, 'The number of dispensing has been exceeded.');\r\n            //       ex)    \r\n            //      ID\r\n            _allTokensOwned[_to].push(_tokenId);\r\n            _allListFromAccount[_to].push(preScriptions[_tokenId]);\r\n           transferPrs(_from, _to, _tokenId);\r\n        }\r\n\r\n        \r\n        //    \r\n        function transferDoctorToPatient(address _from, address _to, uint _tokenId) public {\r\n              \r\n              transferPrs(_from, _to, _tokenId);\r\n            _allTokensOwned[_to].push(_tokenId);\r\n            _allListFromAccount[_to].push(preScriptions[_tokenId]);\r\n            preScription memory prs = preScriptions[_tokenId];\r\n\r\n        //     //   1    .\r\n        //       if(prs.prescriptionCount > 1){\r\n        //     _regularPrescription[_to].push(prs);\r\n        // }\r\n        //     // _patientListFromAccount[_from][_to].push(_tokenId);\r\n            _patientListFromAccount[_from][_to].push(preScriptions[_tokenId]);\r\n\r\n        }\r\n        //   \r\n        function transferPharmacyToPatient(address _from, address _to, uint _tokenId) public {\r\n            require(_accountAuth[_from] == 3, 'You do not permittion');\r\n            require(_offerCountOfTokenId[_tokenId] != 0, 'The number of dispensing has been exceeded.');\r\n            transferPrs(_from, _to, _tokenId);\r\n            _offerCountOfTokenId[_tokenId]--;\r\n           // _patientListFromAccount[_from][_to].push(_tokenId);\r\n            _patientListFromAccount[_from][_to].push(preScriptions[_tokenId]);\r\n        }\r\n    \r\n//     ()\r\n  function mint(\r\n   \r\n        preScription memory _preScription\r\n         ) \r\n        public prsExists ( _preScription.userName, _preScription.hosName,  _preScription.dCode, _preScription.dName, _preScription.pubDate ) {\r\n            require(_accountAuth[msg.sender] == 2, 'You do not have permission');\r\n          \r\n        preScriptions.push(_preScription);\r\n        \r\n      \r\n        uint _id = preScriptions.length - 1;\r\n\r\n        _allListFromAccount[msg.sender].push(_preScription);\r\n        // _blockTotokenid[block.number] = _id;\r\n        // _addToblock[msg.sender].push(block.number);\r\n        //     0   .\r\n      \r\n        _offerCountOfTokenId[_id] = _preScription.prescriptionCount;\r\n        // .push no longer returns the length but a ref to the added element\r\n        _mint(msg.sender, _id);\r\n        //  (  )\r\n        setMintedTokens(_id);\r\n\r\n        // _preScriptionsExists[_preScription] = true;\r\n\r\n    }\r\n\r\n    function getPreScriptionByIndex(uint index) public view returns(preScription memory) {\r\n        return preScriptions[index];\r\n    }\r\n\r\n    \r\n\r\n\r\n    constructor() ERC721Connector('PreScription','Script') {}\r\n\r\n}\r\n\r\n\r\n",
  "sourcePath": "C:\\Users\\SSAFY\\S07P22E205\\smart-contract\\src\\contracts\\PreSciption.sol",
  "compiler": {
    "name": "solc",
    "version": "0.8.17+commit.8df45f5f.Emscripten.clang"
  },
  "schemaVersion": "3.4.10",
  "updatedAt": "2022-10-06T13:32:03.852Z",
  "devdoc": {
    "kind": "dev",
    "methods": {
      "ownerOf(uint256)": {
        "details": "NFTs assigned to zero address are considered invalid, and queries  about them do throw.",
        "params": {
          "_tokenId": "The identifier for an NFT"
        },
        "returns": {
          "_0": "The address of the owner of the NFT"
        }
      },
      "supportsInterface(bytes4)": {
        "details": "Interface identification is specified in ERC-165. This function  uses less than 30,000 gas.",
        "params": {
          "interfaceID": "The interface identifier, as specified in ERC-165"
        },
        "returns": {
          "_0": "`true` if the contract implements `interfaceID` and  `interfaceID` is not 0xffffffff, `false` otherwise"
        }
      }
    },
    "version": 1
  },
  "userdoc": {
    "kind": "user",
    "methods": {
      "ownerOf(uint256)": {
        "notice": "Find the owner of an NFT"
      },
      "supportsInterface(bytes4)": {
        "notice": "Query if a contract implements an interface"
      }
    },
    "version": 1
  }
}