{
  "contractName": "PreScription",
  "abi": [
    {
      "inputs": [],
      "stateMutability": "nonpayable",
      "type": "constructor"
    },
    {
      "anonymous": false,
      "inputs": [
        {
          "indexed": true,
          "internalType": "address",
          "name": "_owner",
          "type": "address"
        },
        {
          "indexed": true,
          "internalType": "address",
          "name": "_approved",
          "type": "address"
        },
        {
          "indexed": true,
          "internalType": "uint256",
          "name": "_tokenId",
          "type": "uint256"
        }
      ],
      "name": "Approval",
      "type": "event"
    },
    {
      "anonymous": false,
      "inputs": [
        {
          "indexed": true,
          "internalType": "address",
          "name": "_from",
          "type": "address"
        },
        {
          "indexed": true,
          "internalType": "address",
          "name": "_to",
          "type": "address"
        },
        {
          "indexed": true,
          "internalType": "uint256",
          "name": "_tokenId",
          "type": "uint256"
        }
      ],
      "name": "Transfer",
      "type": "event"
    },
    {
      "inputs": [
        {
          "internalType": "address",
          "name": "owner",
          "type": "address"
        }
      ],
      "name": "alltokenOfOwner",
      "outputs": [
        {
          "internalType": "uint256[]",
          "name": "",
          "type": "uint256[]"
        }
      ],
      "stateMutability": "view",
      "type": "function",
      "constant": true
    },
    {
      "inputs": [
        {
          "internalType": "address",
          "name": "_to",
          "type": "address"
        },
        {
          "internalType": "uint256",
          "name": "tokenId",
          "type": "uint256"
        }
      ],
      "name": "approve",
      "outputs": [],
      "stateMutability": "nonpayable",
      "type": "function"
    },
    {
      "inputs": [
        {
          "internalType": "address",
          "name": "_owner",
          "type": "address"
        }
      ],
      "name": "balanceOf",
      "outputs": [
        {
          "internalType": "uint256",
          "name": "",
          "type": "uint256"
        }
      ],
      "stateMutability": "view",
      "type": "function",
      "constant": true
    },
    {
      "inputs": [],
      "name": "name",
      "outputs": [
        {
          "internalType": "string",
          "name": "",
          "type": "string"
        }
      ],
      "stateMutability": "view",
      "type": "function",
      "constant": true
    },
    {
      "inputs": [
        {
          "internalType": "uint256",
          "name": "_tokenId",
          "type": "uint256"
        }
      ],
      "name": "ownerOf",
      "outputs": [
        {
          "internalType": "address",
          "name": "",
          "type": "address"
        }
      ],
      "stateMutability": "view",
      "type": "function",
      "constant": true
    },
    {
      "inputs": [
        {
          "internalType": "uint256",
          "name": "",
          "type": "uint256"
        }
      ],
      "name": "preScriptions",
      "outputs": [
        {
          "internalType": "string",
          "name": "userName",
          "type": "string"
        },
        {
          "internalType": "string",
          "name": "hosName",
          "type": "string"
        },
        {
          "internalType": "string",
          "name": "pharName",
          "type": "string"
        },
        {
          "internalType": "string",
          "name": "dCode",
          "type": "string"
        },
        {
          "internalType": "uint256",
          "name": "dispensingCount",
          "type": "uint256"
        },
        {
          "internalType": "uint256",
          "name": "prescriptionCount",
          "type": "uint256"
        },
        {
          "internalType": "string",
          "name": "howtoTake",
          "type": "string"
        },
        {
          "internalType": "uint256",
          "name": "pubDate",
          "type": "uint256"
        },
        {
          "internalType": "uint256",
          "name": "prepDate",
          "type": "uint256"
        }
      ],
      "stateMutability": "view",
      "type": "function",
      "constant": true
    },
    {
      "inputs": [
        {
          "internalType": "bytes4",
          "name": "interfaceID",
          "type": "bytes4"
        }
      ],
      "name": "supportsInterface",
      "outputs": [
        {
          "internalType": "bool",
          "name": "",
          "type": "bool"
        }
      ],
      "stateMutability": "view",
      "type": "function",
      "constant": true
    },
    {
      "inputs": [],
      "name": "symbol",
      "outputs": [
        {
          "internalType": "string",
          "name": "",
          "type": "string"
        }
      ],
      "stateMutability": "view",
      "type": "function",
      "constant": true
    },
    {
      "inputs": [
        {
          "internalType": "uint256",
          "name": "index",
          "type": "uint256"
        }
      ],
      "name": "tokenByIndex",
      "outputs": [
        {
          "internalType": "uint256",
          "name": "",
          "type": "uint256"
        }
      ],
      "stateMutability": "view",
      "type": "function",
      "constant": true
    },
    {
      "inputs": [
        {
          "internalType": "address",
          "name": "owner",
          "type": "address"
        },
        {
          "internalType": "uint256",
          "name": "index",
          "type": "uint256"
        }
      ],
      "name": "tokenOfOwnerByIndex",
      "outputs": [
        {
          "internalType": "uint256",
          "name": "",
          "type": "uint256"
        }
      ],
      "stateMutability": "view",
      "type": "function",
      "constant": true
    },
    {
      "inputs": [],
      "name": "totalSupply",
      "outputs": [
        {
          "internalType": "uint256",
          "name": "",
          "type": "uint256"
        }
      ],
      "stateMutability": "view",
      "type": "function",
      "constant": true
    },
    {
      "inputs": [
        {
          "internalType": "address",
          "name": "_from",
          "type": "address"
        },
        {
          "internalType": "address",
          "name": "_to",
          "type": "address"
        },
        {
          "internalType": "uint256",
          "name": "_tokenId",
          "type": "uint256"
        }
      ],
      "name": "transferFrom",
      "outputs": [],
      "stateMutability": "nonpayable",
      "type": "function"
    },
    {
      "inputs": [
        {
          "internalType": "address",
          "name": "_from",
          "type": "address"
        },
        {
          "internalType": "address",
          "name": "_to",
          "type": "address"
        },
        {
          "internalType": "uint256",
          "name": "_tokenId",
          "type": "uint256"
        }
      ],
      "name": "transferPrs",
      "outputs": [],
      "stateMutability": "nonpayable",
      "type": "function"
    },
    {
      "inputs": [
        {
          "internalType": "address",
          "name": "_address",
          "type": "address"
        }
      ],
      "name": "getAllListFromAccount",
      "outputs": [
        {
          "components": [
            {
              "internalType": "string",
              "name": "userName",
              "type": "string"
            },
            {
              "internalType": "string",
              "name": "hosName",
              "type": "string"
            },
            {
              "internalType": "string",
              "name": "pharName",
              "type": "string"
            },
            {
              "internalType": "string",
              "name": "dCode",
              "type": "string"
            },
            {
              "internalType": "string[]",
              "name": "dName",
              "type": "string[]"
            },
            {
              "internalType": "uint256[]",
              "name": "dosage",
              "type": "uint256[]"
            },
            {
              "internalType": "uint256[]",
              "name": "doseNum",
              "type": "uint256[]"
            },
            {
              "internalType": "uint256[]",
              "name": "dosePeriod",
              "type": "uint256[]"
            },
            {
              "internalType": "uint256",
              "name": "dispensingCount",
              "type": "uint256"
            },
            {
              "internalType": "uint256",
              "name": "prescriptionCount",
              "type": "uint256"
            },
            {
              "internalType": "string",
              "name": "howtoTake",
              "type": "string"
            },
            {
              "internalType": "uint256",
              "name": "pubDate",
              "type": "uint256"
            },
            {
              "internalType": "uint256",
              "name": "prepDate",
              "type": "uint256"
            }
          ],
          "internalType": "struct PreScription.preScription[]",
          "name": "",
          "type": "tuple[]"
        }
      ],
      "stateMutability": "view",
      "type": "function",
      "constant": true
    },
    {
      "inputs": [
        {
          "internalType": "address",
          "name": "_address",
          "type": "address"
        }
      ],
      "name": "getAllTokensOwned",
      "outputs": [
        {
          "internalType": "uint256[]",
          "name": "",
          "type": "uint256[]"
        }
      ],
      "stateMutability": "view",
      "type": "function",
      "constant": true
    },
    {
      "inputs": [
        {
          "internalType": "address",
          "name": "_from",
          "type": "address"
        },
        {
          "internalType": "address",
          "name": "_to",
          "type": "address"
        }
      ],
      "name": "getPatientListFromAccount",
      "outputs": [
        {
          "components": [
            {
              "internalType": "string",
              "name": "userName",
              "type": "string"
            },
            {
              "internalType": "string",
              "name": "hosName",
              "type": "string"
            },
            {
              "internalType": "string",
              "name": "pharName",
              "type": "string"
            },
            {
              "internalType": "string",
              "name": "dCode",
              "type": "string"
            },
            {
              "internalType": "string[]",
              "name": "dName",
              "type": "string[]"
            },
            {
              "internalType": "uint256[]",
              "name": "dosage",
              "type": "uint256[]"
            },
            {
              "internalType": "uint256[]",
              "name": "doseNum",
              "type": "uint256[]"
            },
            {
              "internalType": "uint256[]",
              "name": "dosePeriod",
              "type": "uint256[]"
            },
            {
              "internalType": "uint256",
              "name": "dispensingCount",
              "type": "uint256"
            },
            {
              "internalType": "uint256",
              "name": "prescriptionCount",
              "type": "uint256"
            },
            {
              "internalType": "string",
              "name": "howtoTake",
              "type": "string"
            },
            {
              "internalType": "uint256",
              "name": "pubDate",
              "type": "uint256"
            },
            {
              "internalType": "uint256",
              "name": "prepDate",
              "type": "uint256"
            }
          ],
          "internalType": "struct PreScription.preScription[]",
          "name": "",
          "type": "tuple[]"
        }
      ],
      "stateMutability": "view",
      "type": "function",
      "constant": true
    },
    {
      "inputs": [
        {
          "internalType": "uint256",
          "name": "_tokenId",
          "type": "uint256"
        }
      ],
      "name": "getOfferCountOfToken",
      "outputs": [
        {
          "internalType": "uint256",
          "name": "",
          "type": "uint256"
        }
      ],
      "stateMutability": "view",
      "type": "function",
      "constant": true
    },
    {
      "inputs": [
        {
          "internalType": "address",
          "name": "_address",
          "type": "address"
        }
      ],
      "name": "setPatientAuth",
      "outputs": [],
      "stateMutability": "nonpayable",
      "type": "function"
    },
    {
      "inputs": [
        {
          "internalType": "address",
          "name": "_address",
          "type": "address"
        }
      ],
      "name": "setDoctorAuth",
      "outputs": [],
      "stateMutability": "nonpayable",
      "type": "function"
    },
    {
      "inputs": [
        {
          "internalType": "address",
          "name": "_address",
          "type": "address"
        }
      ],
      "name": "setPharmacyAuth",
      "outputs": [],
      "stateMutability": "nonpayable",
      "type": "function"
    },
    {
      "inputs": [
        {
          "internalType": "uint256",
          "name": "_tokenId",
          "type": "uint256"
        }
      ],
      "name": "setMintedTokens",
      "outputs": [],
      "stateMutability": "nonpayable",
      "type": "function"
    },
    {
      "inputs": [],
      "name": "getMintedTokens",
      "outputs": [
        {
          "internalType": "uint256[]",
          "name": "",
          "type": "uint256[]"
        }
      ],
      "stateMutability": "view",
      "type": "function",
      "constant": true
    },
    {
      "inputs": [
        {
          "internalType": "address",
          "name": "_address",
          "type": "address"
        }
      ],
      "name": "getBalanceOf",
      "outputs": [
        {
          "internalType": "uint256",
          "name": "",
          "type": "uint256"
        }
      ],
      "stateMutability": "view",
      "type": "function",
      "constant": true
    },
    {
      "inputs": [
        {
          "internalType": "address",
          "name": "_from",
          "type": "address"
        },
        {
          "internalType": "address",
          "name": "_to",
          "type": "address"
        },
        {
          "internalType": "uint256",
          "name": "_tokenId",
          "type": "uint256"
        }
      ],
      "name": "transferPreScription",
      "outputs": [],
      "stateMutability": "nonpayable",
      "type": "function"
    },
    {
      "inputs": [
        {
          "internalType": "address",
          "name": "_from",
          "type": "address"
        },
        {
          "internalType": "address",
          "name": "_to",
          "type": "address"
        },
        {
          "internalType": "uint256",
          "name": "_tokenId",
          "type": "uint256"
        }
      ],
      "name": "transferDoctorToPatient",
      "outputs": [],
      "stateMutability": "nonpayable",
      "type": "function"
    },
    {
      "inputs": [
        {
          "internalType": "address",
          "name": "_from",
          "type": "address"
        },
        {
          "internalType": "address",
          "name": "_to",
          "type": "address"
        },
        {
          "internalType": "uint256",
          "name": "_tokenId",
          "type": "uint256"
        }
      ],
      "name": "transferPharmacyToPatient",
      "outputs": [],
      "stateMutability": "nonpayable",
      "type": "function"
    },
    {
      "inputs": [
        {
          "components": [
            {
              "internalType": "string",
              "name": "userName",
              "type": "string"
            },
            {
              "internalType": "string",
              "name": "hosName",
              "type": "string"
            },
            {
              "internalType": "string",
              "name": "pharName",
              "type": "string"
            },
            {
              "internalType": "string",
              "name": "dCode",
              "type": "string"
            },
            {
              "internalType": "string[]",
              "name": "dName",
              "type": "string[]"
            },
            {
              "internalType": "uint256[]",
              "name": "dosage",
              "type": "uint256[]"
            },
            {
              "internalType": "uint256[]",
              "name": "doseNum",
              "type": "uint256[]"
            },
            {
              "internalType": "uint256[]",
              "name": "dosePeriod",
              "type": "uint256[]"
            },
            {
              "internalType": "uint256",
              "name": "dispensingCount",
              "type": "uint256"
            },
            {
              "internalType": "uint256",
              "name": "prescriptionCount",
              "type": "uint256"
            },
            {
              "internalType": "string",
              "name": "howtoTake",
              "type": "string"
            },
            {
              "internalType": "uint256",
              "name": "pubDate",
              "type": "uint256"
            },
            {
              "internalType": "uint256",
              "name": "prepDate",
              "type": "uint256"
            }
          ],
          "internalType": "struct PreScription.preScription",
          "name": "_preScription",
          "type": "tuple"
        }
      ],
      "name": "mint",
      "outputs": [],
      "stateMutability": "nonpayable",
      "type": "function"
    },
    {
      "inputs": [
        {
          "internalType": "uint256",
          "name": "index",
          "type": "uint256"
        }
      ],
      "name": "getPreScriptionByIndex",
      "outputs": [
        {
          "components": [
            {
              "internalType": "string",
              "name": "userName",
              "type": "string"
            },
            {
              "internalType": "string",
              "name": "hosName",
              "type": "string"
            },
            {
              "internalType": "string",
              "name": "pharName",
              "type": "string"
            },
            {
              "internalType": "string",
              "name": "dCode",
              "type": "string"
            },
            {
              "internalType": "string[]",
              "name": "dName",
              "type": "string[]"
            },
            {
              "internalType": "uint256[]",
              "name": "dosage",
              "type": "uint256[]"
            },
            {
              "internalType": "uint256[]",
              "name": "doseNum",
              "type": "uint256[]"
            },
            {
              "internalType": "uint256[]",
              "name": "dosePeriod",
              "type": "uint256[]"
            },
            {
              "internalType": "uint256",
              "name": "dispensingCount",
              "type": "uint256"
            },
            {
              "internalType": "uint256",
              "name": "prescriptionCount",
              "type": "uint256"
            },
            {
              "internalType": "string",
              "name": "howtoTake",
              "type": "string"
            },
            {
              "internalType": "uint256",
              "name": "pubDate",
              "type": "uint256"
            },
            {
              "internalType": "uint256",
              "name": "prepDate",
              "type": "uint256"
            }
          ],
          "internalType": "struct PreScription.preScription",
          "name": "",
          "type": "tuple"
        }
      ],
      "stateMutability": "nonpayable",
      "type": "function"
    }
  ],
  "bytecode": "0x60806040523480156200001157600080fd5b506040518060400160405280600c81526020017f507265536372697074696f6e00000000000000000000000000000000000000008152506040518060400160405280600681526020017f53637269707400000000000000000000000000000000000000000000000000008152508181620000b17f01ffc9a7a5cef8baa21ed3c5c0d7e23accb804b619e9333b597f47a0d84076e26200021c60201b60201c565b620001047f13b182f4c0e5b2efbac0efe6cf6d756c8b89f4b79c5707a043ed9ea740574ee97f7feaf19471f34a12a7eaf32d5f3090aa2260ea8624dc8a138e74e0bf0f623076186200021c60201b60201c565b81600190816200011591906200056d565b5080600290816200012791906200056d565b5050506200019f7f22c82707ba960a14c7592ffb6b8cfaa073fed0048a84cc7fa41f6b5bd8e7f2e47f3a6eb71757dfc6e784c1459d26270140c2c147d95ca985c80026fc5301c3eca17f8a7e378434598edc36d108689a030cbc9d7d465de4f74c71bae1028eed6a881b18186200021c60201b60201c565b620002147f8230223f691b981717299fae9549350a0d894555723531f02108b1f522c1a7977f6da5e1284143cdd2d15038a59bde3be031250f00291d64494c12d967b3a4e0c37fc53637662700e6c65104059db8bba34439e0c32483ab7c34e3ccae52c739549518186200021c60201b60201c565b5050620006d7565b63ffffffff60e01b817bffffffffffffffffffffffffffffffffffffffffffffffffffffffff19160362000287576040517f08c379a00000000000000000000000000000000000000000000000000000000081526004016200027e90620006b5565b60405180910390fd5b6001600080837bffffffffffffffffffffffffffffffffffffffffffffffffffffffff19167bffffffffffffffffffffffffffffffffffffffffffffffffffffffff1916815260200190815260200160002060006101000a81548160ff02191690831515021790555050565b600081519050919050565b7f4e487b7100000000000000000000000000000000000000000000000000000000600052604160045260246000fd5b7f4e487b7100000000000000000000000000000000000000000000000000000000600052602260045260246000fd5b600060028204905060018216806200037557607f821691505b6020821081036200038b576200038a6200032d565b5b50919050565b60008190508160005260206000209050919050565b60006020601f8301049050919050565b600082821b905092915050565b600060088302620003f57fffffffffffffffffffffffffffffffffffffffffffffffffffffffffffffffff82620003b6565b620004018683620003b6565b95508019841693508086168417925050509392505050565b6000819050919050565b6000819050919050565b60006200044e62000448620004428462000419565b62000423565b62000419565b9050919050565b6000819050919050565b6200046a836200042d565b62000482620004798262000455565b848454620003c3565b825550505050565b600090565b620004996200048a565b620004a68184846200045f565b505050565b5b81811015620004ce57620004c26000826200048f565b600181019050620004ac565b5050565b601f8211156200051d57620004e78162000391565b620004f284620003a6565b8101602085101562000502578190505b6200051a6200051185620003a6565b830182620004ab565b50505b505050565b600082821c905092915050565b6000620005426000198460080262000522565b1980831691505092915050565b60006200055d83836200052f565b9150826002028217905092915050565b6200057882620002f3565b67ffffffffffffffff811115620005945762000593620002fe565b5b620005a082546200035c565b620005ad828285620004d2565b600060209050601f831160018114620005e55760008415620005d0578287015190505b620005dc85826200054f565b8655506200064c565b601f198416620005f58662000391565b60005b828110156200061f57848901518255600182019150602085019450602081019050620005f8565b868310156200063f57848901516200063b601f8916826200052f565b8355505b6001600288020188555050505b505050505050565b600082825260208201905092915050565b7f496e76616c696420696e74657266616365207265717565737400000000000000600082015250565b60006200069d60198362000654565b9150620006aa8262000665565b602082019050919050565b60006020820190508181036000830152620006d0816200068e565b9050919050565b615b0d80620006e76000396000f3fe608060405234801561001057600080fd5b50600436106101c45760003560e01c806369c5e936116100f95780638310343311610097578063aba55a8611610071578063aba55a8614610567578063d6204d2814610583578063dc9652901461059f578063e241ff48146105bd576101c4565b806383103433146104fd57806395d89b41146105195780639b96eece14610537576101c4565b8063729efebf116100d3578063729efebf14610465578063785e320d146104955780637a38699b146104b1578063818a6a4e146104cd576101c4565b806369c5e936146103e95780636f9886b01461041957806370a0823114610435576101c4565b806322986c26116101665780634933e56e116101405780634933e56e146103515780634f6ccce71461036d57806358c7c5311461039d5780636352211e146103b9576101c4565b806322986c26146102d557806323b872dd146103055780632f745c5914610321576101c4565b80630a54de1a116101a25780630a54de1a1461023357806311bb5e7a1461026357806318160ddd1461029b5780631c18c246146102b9576101c4565b806301ffc9a7146101c957806306fdde03146101f9578063095ea7b314610217575b600080fd5b6101e360048036038101906101de9190613e15565b6105ed565b6040516101f09190613e5d565b60405180910390f35b610201610654565b60405161020e9190613f08565b60405180910390f35b610231600480360381019061022c9190613fbe565b6106e6565b005b61024d60048036038101906102489190613ffe565b610881565b60405161025a9190614346565b60405180910390f35b61027d60048036038101906102789190613ffe565b610da1565b60405161029299989796959493929190614377565b60405180910390f35b6102a36110a7565b6040516102b09190614427565b60405180910390f35b6102d360048036038101906102ce9190614442565b6110b4565b005b6102ef60048036038101906102ea9190614495565b611307565b6040516102fc91906146e8565b60405180910390f35b61031f600480360381019061031a9190614442565b6118c7565b005b61033b60048036038101906103369190613fbe565b6118ea565b6040516103489190614427565b60405180910390f35b61036b60048036038101906103669190614c26565b61199a565b005b61038760048036038101906103829190613ffe565b6120df565b6040516103949190614427565b60405180910390f35b6103b760048036038101906103b29190614442565b612150565b005b6103d360048036038101906103ce9190613ffe565b612417565b6040516103e09190614c7e565b60405180910390f35b61040360048036038101906103fe9190614c99565b6124c8565b60405161041091906146e8565b60405180910390f35b610433600480360381019061042e9190614442565b612a4a565b005b61044f600480360381019061044a9190614c99565b612def565b60405161045c9190614427565b60405180910390f35b61047f600480360381019061047a9190614c99565b612ead565b60405161048c9190614d35565b60405180910390f35b6104af60048036038101906104aa9190613ffe565b612f44565b005b6104cb60048036038101906104c69190614c99565b612fad565b005b6104e760048036038101906104e29190613ffe565b612ff5565b6040516104f49190614427565b60405180910390f35b61051760048036038101906105129190614c99565b613012565b005b61052161305a565b60405161052e9190613f08565b60405180910390f35b610551600480360381019061054c9190614c99565b6130ec565b60405161055e9190614427565b60405180910390f35b610581600480360381019061057c9190614442565b6130fe565b005b61059d60048036038101906105989190614c99565b613343565b005b6105a761338b565b6040516105b49190614d35565b60405180910390f35b6105d760048036038101906105d29190614c99565b613420565b6040516105e49190614d35565b60405180910390f35b6000806000837bffffffffffffffffffffffffffffffffffffffffffffffffffffffff19167bffffffffffffffffffffffffffffffffffffffffffffffffffffffff1916815260200190815260200160002060009054906101000a900460ff169050919050565b60606001805461066390614d86565b80601f016020809104026020016040519081016040528092919081815260200182805461068f90614d86565b80156106dc5780601f106106b1576101008083540402835291602001916106dc565b820191906000526020600020905b8154815290600101906020018083116106bf57829003601f168201915b5050505050905090565b60006106f182612417565b90508073ffffffffffffffffffffffffffffffffffffffff168373ffffffffffffffffffffffffffffffffffffffff1603610761576040517f08c379a000000000000000000000000000000000000000000000000000000000815260040161075890614e29565b60405180910390fd5b8073ffffffffffffffffffffffffffffffffffffffff163373ffffffffffffffffffffffffffffffffffffffff16146107cf576040517f08c379a00000000000000000000000000000000000000000000000000000000081526004016107c690614ebb565b60405180910390fd5b826005600084815260200190815260200160002060006101000a81548173ffffffffffffffffffffffffffffffffffffffff021916908373ffffffffffffffffffffffffffffffffffffffff160217905550818373ffffffffffffffffffffffffffffffffffffffff168273ffffffffffffffffffffffffffffffffffffffff167f8c5be1e5ebec7d5bd14f71427d1e84f3dd0314c0f7b2291e5b200ac8c7c3b92560405160405180910390a4505050565b610889613b6b565b600a828154811061089d5761089c614edb565b5b90600052602060002090600d0201604051806101a00160405290816000820180546108c790614d86565b80601f01602080910402602001604051908101604052809291908181526020018280546108f390614d86565b80156109405780601f1061091557610100808354040283529160200191610940565b820191906000526020600020905b81548152906001019060200180831161092357829003601f168201915b5050505050815260200160018201805461095990614d86565b80601f016020809104026020016040519081016040528092919081815260200182805461098590614d86565b80156109d25780601f106109a7576101008083540402835291602001916109d2565b820191906000526020600020905b8154815290600101906020018083116109b557829003601f168201915b505050505081526020016002820180546109eb90614d86565b80601f0160208091040260200160405190810160405280929190818152602001828054610a1790614d86565b8015610a645780601f10610a3957610100808354040283529160200191610a64565b820191906000526020600020905b815481529060010190602001808311610a4757829003601f168201915b50505050508152602001600382018054610a7d90614d86565b80601f0160208091040260200160405190810160405280929190818152602001828054610aa990614d86565b8015610af65780601f10610acb57610100808354040283529160200191610af6565b820191906000526020600020905b815481529060010190602001808311610ad957829003601f168201915b5050505050815260200160048201805480602002602001604051908101604052809291908181526020016000905b82821015610bd0578382906000526020600020018054610b4390614d86565b80601f0160208091040260200160405190810160405280929190818152602001828054610b6f90614d86565b8015610bbc5780601f10610b9157610100808354040283529160200191610bbc565b820191906000526020600020905b815481529060010190602001808311610b9f57829003601f168201915b505050505081526020019060010190610b24565b50505050815260200160058201805480602002602001604051908101604052809291908181526020018280548015610c2757602002820191906000526020600020905b815481526020019060010190808311610c13575b5050505050815260200160068201805480602002602001604051908101604052809291908181526020018280548015610c7f57602002820191906000526020600020905b815481526020019060010190808311610c6b575b5050505050815260200160078201805480602002602001604051908101604052809291908181526020018280548015610cd757602002820191906000526020600020905b815481526020019060010190808311610cc3575b505050505081526020016008820154815260200160098201548152602001600a82018054610d0490614d86565b80601f0160208091040260200160405190810160405280929190818152602001828054610d3090614d86565b8015610d7d5780601f10610d5257610100808354040283529160200191610d7d565b820191906000526020600020905b815481529060010190602001808311610d6057829003601f168201915b50505050508152602001600b8201548152602001600c820154815250509050919050565b600a8181548110610db157600080fd5b90600052602060002090600d0201600091509050806000018054610dd490614d86565b80601f0160208091040260200160405190810160405280929190818152602001828054610e0090614d86565b8015610e4d5780601f10610e2257610100808354040283529160200191610e4d565b820191906000526020600020905b815481529060010190602001808311610e3057829003601f168201915b505050505090806001018054610e6290614d86565b80601f0160208091040260200160405190810160405280929190818152602001828054610e8e90614d86565b8015610edb5780601f10610eb057610100808354040283529160200191610edb565b820191906000526020600020905b815481529060010190602001808311610ebe57829003601f168201915b505050505090806002018054610ef090614d86565b80601f0160208091040260200160405190810160405280929190818152602001828054610f1c90614d86565b8015610f695780601f10610f3e57610100808354040283529160200191610f69565b820191906000526020600020905b815481529060010190602001808311610f4c57829003601f168201915b505050505090806003018054610f7e90614d86565b80601f0160208091040260200160405190810160405280929190818152602001828054610faa90614d86565b8015610ff75780601f10610fcc57610100808354040283529160200191610ff7565b820191906000526020600020905b815481529060010190602001808311610fda57829003601f168201915b50505050509080600801549080600901549080600a01805461101890614d86565b80601f016020809104026020016040519081016040528092919081815260200182805461104490614d86565b80156110915780601f1061106657610100808354040283529160200191611091565b820191906000526020600020905b81548152906001019060200180831161107457829003601f168201915b50505050509080600b01549080600c0154905089565b6000600680549050905090565b6110bf8383836118c7565b60006009600083815260200190815260200160002054905060008190505b6001600860008773ffffffffffffffffffffffffffffffffffffffff1673ffffffffffffffffffffffffffffffffffffffff1681526020019081526020016000208054905061112c9190614f39565b81101561129157600860008673ffffffffffffffffffffffffffffffffffffffff1673ffffffffffffffffffffffffffffffffffffffff16815260200190815260200160002060018261117f9190614f6d565b815481106111905761118f614edb565b5b9060005260206000200154600860008773ffffffffffffffffffffffffffffffffffffffff1673ffffffffffffffffffffffffffffffffffffffff16815260200190815260200160002082815481106111ec576111eb614edb565b5b906000526020600020018190555060096000600860008873ffffffffffffffffffffffffffffffffffffffff1673ffffffffffffffffffffffffffffffffffffffff168152602001908152602001600020838154811061124f5761124e614edb565b5b90600052602060002001548152602001908152602001600020600081548092919061127990614fa1565b9190505550808061128990614fca565b9150506110dd565b50600860008573ffffffffffffffffffffffffffffffffffffffff1673ffffffffffffffffffffffffffffffffffffffff1681526020019081526020016000208054806112e1576112e0615012565b5b6001900381819060005260206000200160009055905561130183836134b7565b50505050565b6060601260008473ffffffffffffffffffffffffffffffffffffffff1673ffffffffffffffffffffffffffffffffffffffff16815260200190815260200160002060008373ffffffffffffffffffffffffffffffffffffffff1673ffffffffffffffffffffffffffffffffffffffff168152602001908152602001600020805480602002602001604051908101604052809291908181526020016000905b828210156118bb57838290600052602060002090600d0201604051806101a00160405290816000820180546113d990614d86565b80601f016020809104026020016040519081016040528092919081815260200182805461140590614d86565b80156114525780601f1061142757610100808354040283529160200191611452565b820191906000526020600020905b81548152906001019060200180831161143557829003601f168201915b5050505050815260200160018201805461146b90614d86565b80601f016020809104026020016040519081016040528092919081815260200182805461149790614d86565b80156114e45780601f106114b9576101008083540402835291602001916114e4565b820191906000526020600020905b8154815290600101906020018083116114c757829003601f168201915b505050505081526020016002820180546114fd90614d86565b80601f016020809104026020016040519081016040528092919081815260200182805461152990614d86565b80156115765780601f1061154b57610100808354040283529160200191611576565b820191906000526020600020905b81548152906001019060200180831161155957829003601f168201915b5050505050815260200160038201805461158f90614d86565b80601f01602080910402602001604051908101604052809291908181526020018280546115bb90614d86565b80156116085780601f106115dd57610100808354040283529160200191611608565b820191906000526020600020905b8154815290600101906020018083116115eb57829003601f168201915b5050505050815260200160048201805480602002602001604051908101604052809291908181526020016000905b828210156116e257838290600052602060002001805461165590614d86565b80601f016020809104026020016040519081016040528092919081815260200182805461168190614d86565b80156116ce5780601f106116a3576101008083540402835291602001916116ce565b820191906000526020600020905b8154815290600101906020018083116116b157829003601f168201915b505050505081526020019060010190611636565b5050505081526020016005820180548060200260200160405190810160405280929190818152602001828054801561173957602002820191906000526020600020905b815481526020019060010190808311611725575b505050505081526020016006820180548060200260200160405190810160405280929190818152602001828054801561179157602002820191906000526020600020905b81548152602001906001019080831161177d575b50505050508152602001600782018054806020026020016040519081016040528092919081815260200182805480156117e957602002820191906000526020600020905b8154815260200190600101908083116117d5575b505050505081526020016008820154815260200160098201548152602001600a8201805461181690614d86565b80601f016020809104026020016040519081016040528092919081815260200182805461184290614d86565b801561188f5780601f106118645761010080835404028352916020019161188f565b820191906000526020600020905b81548152906001019060200180831161187257829003601f168201915b50505050508152602001600b8201548152602001600c82015481525050815260200190600101906113a5565b50505050905092915050565b6118d1338261357b565b6118da57600080fd5b6118e583838361360a565b505050565b60006118f583612def565b8210611936576040517f08c379a000000000000000000000000000000000000000000000000000000000815260040161192d9061508d565b60405180910390fd5b600860008473ffffffffffffffffffffffffffffffffffffffff1673ffffffffffffffffffffffffffffffffffffffff168152602001908152602001600020828154811061198757611986614edb565b5b9060005260206000200154905092915050565b80600001518160200151826040015183606001516000805b600a80549050811015611ab5578580519060200120600a82815481106119db576119da614edb565b5b90600052602060002090600d02016000016040516119f99190615150565b6040518091039020148015611a4d57508480519060200120600a8281548110611a2557611a24614edb565b5b90600052602060002090600d0201600101604051611a439190615150565b6040518091039020145b8015611a9857508280519060200120600a8281548110611a7057611a6f614edb565b5b90600052602060002090600d0201600301604051611a8e9190615150565b6040518091039020145b15611aa257600191505b8080611aad90614fca565b9150506119b2565b508015611af7576040517f08c379a0000000000000000000000000000000000000000000000000000000008152600401611aee906151d9565b60405180910390fd5b85608001518661016001516000805b600a80549050811015611c94576000805b600a8381548110611b2b57611b2a614edb565b5b90600052602060002090600d020160040180549050811015611be657858181518110611b5a57611b59614edb565b5b602002602001015180519060200120600a8481548110611b7d57611b7c614edb565b5b90600052602060002090600d02016004018281548110611ba057611b9f614edb565b5b90600052602060002001604051611bb79190615150565b604051809103902003611bd3578180611bcf90614fca565b9250505b8080611bde90614fca565b915050611b17565b508451600a8381548110611bfd57611bfc614edb565b5b90600052602060002090600d020160040180549050148015611c465750600a8281548110611c2e57611c2d614edb565b5b90600052602060002090600d02016004018054905081145b8015611c76575083600a8381548110611c6257611c61614edb565b5b90600052602060002090600d0201600b0154145b15611c8057600192505b508080611c8c90614fca565b915050611b06565b508015611cd6576040517f08c379a0000000000000000000000000000000000000000000000000000000008152600401611ccd906151d9565b60405180910390fd5b6002600d60003373ffffffffffffffffffffffffffffffffffffffff1673ffffffffffffffffffffffffffffffffffffffff1681526020019081526020016000205414611d58576040517f08c379a0000000000000000000000000000000000000000000000000000000008152600401611d4f90615245565b60405180910390fd5b600a8990806001815401808255809150506001900390600052602060002090600d02016000909190919091506000820151816000019081611d999190615411565b506020820151816001019081611daf9190615411565b506040820151816002019081611dc59190615411565b506060820151816003019081611ddb9190615411565b506080820151816004019080519060200190611df8929190613bd3565b5060a0820151816005019080519060200190611e15929190613c2c565b5060c0820151816006019080519060200190611e32929190613c2c565b5060e0820151816007019080519060200190611e4f929190613c2c565b506101008201518160080155610120820151816009015561014082015181600a019081611e7c9190615411565b5061016082015181600b015561018082015181600c0155505060006001600a80549050611ea99190614f39565b9050600c60003373ffffffffffffffffffffffffffffffffffffffff1673ffffffffffffffffffffffffffffffffffffffff1681526020019081526020016000208a90806001815401808255809150506001900390600052602060002090600d02016000909190919091506000820151816000019081611f299190615411565b506020820151816001019081611f3f9190615411565b506040820151816002019081611f559190615411565b506060820151816003019081611f6b9190615411565b506080820151816004019080519060200190611f88929190613bd3565b5060a0820151816005019080519060200190611fa5929190613c2c565b5060c0820151816006019080519060200190611fc2929190613c2c565b5060e0820151816007019080519060200190611fdf929190613c2c565b506101008201518160080155610120820151816009015561014082015181600a01908161200c9190615411565b5061016082015181600b015561018082015181600c0155505080600f600043815260200190815260200160002081905550601060003373ffffffffffffffffffffffffffffffffffffffff1673ffffffffffffffffffffffffffffffffffffffff16815260200190815260200160002043908060018154018082558091505060019003906000526020600020016000909190919091505589610120015160146000838152602001908152602001600020819055506120ca338261382f565b6120d381612f44565b50505050505050505050565b60006120e96110a7565b821061212a576040517f08c379a00000000000000000000000000000000000000000000000000000000081526004016121219061552f565b60405180910390fd5b6006828154811061213e5761213d614edb565b5b90600052602060002001549050919050565b6003600d60008573ffffffffffffffffffffffffffffffffffffffff1673ffffffffffffffffffffffffffffffffffffffff16815260200190815260200160002054146121d2576040517f08c379a00000000000000000000000000000000000000000000000000000000081526004016121c99061559b565b60405180910390fd5b6000601460008381526020019081526020016000205403612228576040517f08c379a000000000000000000000000000000000000000000000000000000000815260040161221f9061562d565b60405180910390fd5b6122338383836110b4565b60146000828152602001908152602001600020600081548092919061225790614fa1565b9190505550601260008473ffffffffffffffffffffffffffffffffffffffff1673ffffffffffffffffffffffffffffffffffffffff16815260200190815260200160002060008373ffffffffffffffffffffffffffffffffffffffff1673ffffffffffffffffffffffffffffffffffffffff168152602001908152602001600020600a82815481106122ec576122eb614edb565b5b90600052602060002090600d020190806001815401808255809150506001900390600052602060002090600d0201600090919091909150600082018160000190816123379190615663565b506001820181600101908161234c9190615663565b50600282018160020190816123619190615663565b50600382018160030190816123769190615663565b50600482018160040190805461238d929190613c79565b5060058201816005019080546123a4929190613cd6565b5060068201816006019080546123bb929190613cd6565b5060078201816007019080546123d2929190613cd6565b506008820154816008015560098201548160090155600a820181600a0190816123fb9190615663565b50600b82015481600b0155600c82015481600c01555050505050565b6000806003600084815260200190815260200160002060009054906101000a900473ffffffffffffffffffffffffffffffffffffffff169050600073ffffffffffffffffffffffffffffffffffffffff168173ffffffffffffffffffffffffffffffffffffffff16036124bf576040517f08c379a00000000000000000000000000000000000000000000000000000000081526004016124b6906157bd565b60405180910390fd5b80915050919050565b6060600c60008373ffffffffffffffffffffffffffffffffffffffff1673ffffffffffffffffffffffffffffffffffffffff168152602001908152602001600020805480602002602001604051908101604052809291908181526020016000905b82821015612a3f57838290600052602060002090600d0201604051806101a001604052908160008201805461255d90614d86565b80601f016020809104026020016040519081016040528092919081815260200182805461258990614d86565b80156125d65780601f106125ab576101008083540402835291602001916125d6565b820191906000526020600020905b8154815290600101906020018083116125b957829003601f168201915b505050505081526020016001820180546125ef90614d86565b80601f016020809104026020016040519081016040528092919081815260200182805461261b90614d86565b80156126685780601f1061263d57610100808354040283529160200191612668565b820191906000526020600020905b81548152906001019060200180831161264b57829003601f168201915b5050505050815260200160028201805461268190614d86565b80601f01602080910402602001604051908101604052809291908181526020018280546126ad90614d86565b80156126fa5780601f106126cf576101008083540402835291602001916126fa565b820191906000526020600020905b8154815290600101906020018083116126dd57829003601f168201915b5050505050815260200160038201805461271390614d86565b80601f016020809104026020016040519081016040528092919081815260200182805461273f90614d86565b801561278c5780601f106127615761010080835404028352916020019161278c565b820191906000526020600020905b81548152906001019060200180831161276f57829003601f168201915b5050505050815260200160048201805480602002602001604051908101604052809291908181526020016000905b828210156128665783829060005260206000200180546127d990614d86565b80601f016020809104026020016040519081016040528092919081815260200182805461280590614d86565b80156128525780601f1061282757610100808354040283529160200191612852565b820191906000526020600020905b81548152906001019060200180831161283557829003601f168201915b5050505050815260200190600101906127ba565b505050508152602001600582018054806020026020016040519081016040528092919081815260200182805480156128bd57602002820191906000526020600020905b8154815260200190600101908083116128a9575b505050505081526020016006820180548060200260200160405190810160405280929190818152602001828054801561291557602002820191906000526020600020905b815481526020019060010190808311612901575b505050505081526020016007820180548060200260200160405190810160405280929190818152602001828054801561296d57602002820191906000526020600020905b815481526020019060010190808311612959575b505050505081526020016008820154815260200160098201548152602001600a8201805461299a90614d86565b80601f01602080910402602001604051908101604052809291908181526020018280546129c690614d86565b8015612a135780601f106129e857610100808354040283529160200191612a13565b820191906000526020600020905b8154815290600101906020018083116129f657829003601f168201915b50505050508152602001600b8201548152602001600c8201548152505081526020019060010190612529565b505050509050919050565b612a558383836110b4565b600b60008373ffffffffffffffffffffffffffffffffffffffff1673ffffffffffffffffffffffffffffffffffffffff168152602001908152602001600020819080600181540180825580915050600190039060005260206000200160009091909190915055600c60008373ffffffffffffffffffffffffffffffffffffffff1673ffffffffffffffffffffffffffffffffffffffff168152602001908152602001600020600a8281548110612b0e57612b0d614edb565b5b90600052602060002090600d020190806001815401808255809150506001900390600052602060002090600d020160009091909190915060008201816000019081612b599190615663565b5060018201816001019081612b6e9190615663565b5060028201816002019081612b839190615663565b5060038201816003019081612b989190615663565b506004820181600401908054612baf929190613c79565b506005820181600501908054612bc6929190613cd6565b506006820181600601908054612bdd929190613cd6565b506007820181600701908054612bf4929190613cd6565b506008820154816008015560098201548160090155600a820181600a019081612c1d9190615663565b50600b82015481600b0155600c82015481600c01555050601260008473ffffffffffffffffffffffffffffffffffffffff1673ffffffffffffffffffffffffffffffffffffffff16815260200190815260200160002060008373ffffffffffffffffffffffffffffffffffffffff1673ffffffffffffffffffffffffffffffffffffffff168152602001908152602001600020600a8281548110612cc457612cc3614edb565b5b90600052602060002090600d020190806001815401808255809150506001900390600052602060002090600d020160009091909190915060008201816000019081612d0f9190615663565b5060018201816001019081612d249190615663565b5060028201816002019081612d399190615663565b5060038201816003019081612d4e9190615663565b506004820181600401908054612d65929190613c79565b506005820181600501908054612d7c929190613cd6565b506006820181600601908054612d93929190613cd6565b506007820181600701908054612daa929190613cd6565b506008820154816008015560098201548160090155600a820181600a019081612dd39190615663565b50600b82015481600b0155600c82015481600c01555050505050565b60008073ffffffffffffffffffffffffffffffffffffffff168273ffffffffffffffffffffffffffffffffffffffff1603612e5f576040517f08c379a0000000000000000000000000000000000000000000000000000000008152600401612e56906157bd565b60405180910390fd5b612ea6600460008473ffffffffffffffffffffffffffffffffffffffff1673ffffffffffffffffffffffffffffffffffffffff168152602001908152602001600020613850565b9050919050565b6060600b60008373ffffffffffffffffffffffffffffffffffffffff1673ffffffffffffffffffffffffffffffffffffffff168152602001908152602001600020805480602002602001604051908101604052809291908181526020018280548015612f3857602002820191906000526020600020905b815481526020019060010190808311612f24575b50505050509050919050565b601560003373ffffffffffffffffffffffffffffffffffffffff1673ffffffffffffffffffffffffffffffffffffffff16815260200190815260200160002081908060018154018082558091505060019003906000526020600020016000909190919091505550565b6003600d60008373ffffffffffffffffffffffffffffffffffffffff1673ffffffffffffffffffffffffffffffffffffffff1681526020019081526020016000208190555050565b600060146000838152602001908152602001600020549050919050565b6001600d60008373ffffffffffffffffffffffffffffffffffffffff1673ffffffffffffffffffffffffffffffffffffffff1681526020019081526020016000208190555050565b60606002805461306990614d86565b80601f016020809104026020016040519081016040528092919081815260200182805461309590614d86565b80156130e25780601f106130b7576101008083540402835291602001916130e2565b820191906000526020600020905b8154815290600101906020018083116130c557829003601f168201915b5050505050905090565b60006130f782612def565b9050919050565b6000601460008381526020019081526020016000205403613154576040517f08c379a000000000000000000000000000000000000000000000000000000000815260040161314b9061562d565b60405180910390fd5b600b60008373ffffffffffffffffffffffffffffffffffffffff1673ffffffffffffffffffffffffffffffffffffffff168152602001908152602001600020819080600181540180825580915050600190039060005260206000200160009091909190915055600c60008373ffffffffffffffffffffffffffffffffffffffff1673ffffffffffffffffffffffffffffffffffffffff168152602001908152602001600020600a828154811061320d5761320c614edb565b5b90600052602060002090600d020190806001815401808255809150506001900390600052602060002090600d0201600090919091909150600082018160000190816132589190615663565b506001820181600101908161326d9190615663565b50600282018160020190816132829190615663565b50600382018160030190816132979190615663565b5060048201816004019080546132ae929190613c79565b5060058201816005019080546132c5929190613cd6565b5060068201816006019080546132dc929190613cd6565b5060078201816007019080546132f3929190613cd6565b506008820154816008015560098201548160090155600a820181600a01908161331c9190615663565b50600b82015481600b0155600c82015481600c0155505061333e8383836110b4565b505050565b6002600d60008373ffffffffffffffffffffffffffffffffffffffff1673ffffffffffffffffffffffffffffffffffffffff1681526020019081526020016000208190555050565b6060601560003373ffffffffffffffffffffffffffffffffffffffff1673ffffffffffffffffffffffffffffffffffffffff16815260200190815260200160002080548060200260200160405190810160405280929190818152602001828054801561341657602002820191906000526020600020905b815481526020019060010190808311613402575b5050505050905090565b6060600860008373ffffffffffffffffffffffffffffffffffffffff1673ffffffffffffffffffffffffffffffffffffffff1681526020019081526020016000208054806020026020016040519081016040528092919081815260200182805480156134ab57602002820191906000526020600020905b815481526020019060010190808311613497575b50505050509050919050565b600860008373ffffffffffffffffffffffffffffffffffffffff1673ffffffffffffffffffffffffffffffffffffffff168152602001908152602001600020805490506009600083815260200190815260200160002081905550600860008373ffffffffffffffffffffffffffffffffffffffff1673ffffffffffffffffffffffffffffffffffffffff1681526020019081526020016000208190806001815401808255809150506001900390600052602060002001600090919091909150555050565b60006135868261385e565b6135c5576040517f08c379a00000000000000000000000000000000000000000000000000000000081526004016135bc90615829565b60405180910390fd5b60006135d083612417565b90508073ffffffffffffffffffffffffffffffffffffffff168473ffffffffffffffffffffffffffffffffffffffff161491505092915050565b600073ffffffffffffffffffffffffffffffffffffffff168273ffffffffffffffffffffffffffffffffffffffff1603613679576040517f08c379a0000000000000000000000000000000000000000000000000000000008152600401613670906158bb565b60405180910390fd5b8273ffffffffffffffffffffffffffffffffffffffff1661369982612417565b73ffffffffffffffffffffffffffffffffffffffff16146136ef576040517f08c379a00000000000000000000000000000000000000000000000000000000081526004016136e69061594d565b60405180910390fd5b613736600460008573ffffffffffffffffffffffffffffffffffffffff1673ffffffffffffffffffffffffffffffffffffffff1681526020019081526020016000206138d0565b61377d600460008473ffffffffffffffffffffffffffffffffffffffff1673ffffffffffffffffffffffffffffffffffffffff1681526020019081526020016000206138f3565b816003600083815260200190815260200160002060006101000a81548173ffffffffffffffffffffffffffffffffffffffff021916908373ffffffffffffffffffffffffffffffffffffffff160217905550808273ffffffffffffffffffffffffffffffffffffffff168473ffffffffffffffffffffffffffffffffffffffff167fddf252ad1be2c89b69c2b068fc378daa952ba7f163c4a11628f55a4df523b3ef60405160405180910390a4505050565b6138398282613912565b61384281613ac3565b61384c82826134b7565b5050565b600081600001549050919050565b6000806003600084815260200190815260200160002060009054906101000a900473ffffffffffffffffffffffffffffffffffffffff169050600073ffffffffffffffffffffffffffffffffffffffff168173ffffffffffffffffffffffffffffffffffffffff161415915050919050565b6138e860018260000154613b0c90919063ffffffff16565b816000018190555050565b60018160000160008282546139089190614f6d565b9250508190555050565b600073ffffffffffffffffffffffffffffffffffffffff168273ffffffffffffffffffffffffffffffffffffffff1603613981576040517f08c379a0000000000000000000000000000000000000000000000000000000008152600401613978906159df565b60405180910390fd5b61398a8161385e565b156139ca576040517f08c379a00000000000000000000000000000000000000000000000000000000081526004016139c190615a4b565b60405180910390fd5b816003600083815260200190815260200160002060006101000a81548173ffffffffffffffffffffffffffffffffffffffff021916908373ffffffffffffffffffffffffffffffffffffffff160217905550613a63600460008473ffffffffffffffffffffffffffffffffffffffff1673ffffffffffffffffffffffffffffffffffffffff1681526020019081526020016000206138f3565b808273ffffffffffffffffffffffffffffffffffffffff16600073ffffffffffffffffffffffffffffffffffffffff167fddf252ad1be2c89b69c2b068fc378daa952ba7f163c4a11628f55a4df523b3ef60405160405180910390a45050565b6006805490506007600083815260200190815260200160002081905550600681908060018154018082558091505060019003906000526020600020016000909190919091505550565b600082821115613b51576040517f08c379a0000000000000000000000000000000000000000000000000000000008152600401613b4890615ab7565b60405180910390fd5b60008284613b5f9190614f39565b90508091505092915050565b604051806101a00160405280606081526020016060815260200160608152602001606081526020016060815260200160608152602001606081526020016060815260200160008152602001600081526020016060815260200160008152602001600081525090565b828054828255906000526020600020908101928215613c1b579160200282015b82811115613c1a578251829081613c0a9190615411565b5091602001919060010190613bf3565b5b509050613c289190613d28565b5090565b828054828255906000526020600020908101928215613c68579160200282015b82811115613c67578251825591602001919060010190613c4c565b5b509050613c759190613d4c565b5090565b828054828255906000526020600020908101928215613cc55760005260206000209182015b82811115613cc45782829081613cb49190615663565b5091600101919060010190613c9e565b5b509050613cd29190613d28565b5090565b828054828255906000526020600020908101928215613d175760005260206000209182015b82811115613d16578254825591600101919060010190613cfb565b5b509050613d249190613d4c565b5090565b5b80821115613d485760008181613d3f9190613d69565b50600101613d29565b5090565b5b80821115613d65576000816000905550600101613d4d565b5090565b508054613d7590614d86565b6000825580601f10613d875750613da6565b601f016020900490600052602060002090810190613da59190613d4c565b5b50565b6000604051905090565b600080fd5b600080fd5b60007fffffffff0000000000000000000000000000000000000000000000000000000082169050919050565b613df281613dbd565b8114613dfd57600080fd5b50565b600081359050613e0f81613de9565b92915050565b600060208284031215613e2b57613e2a613db3565b5b6000613e3984828501613e00565b91505092915050565b60008115159050919050565b613e5781613e42565b82525050565b6000602082019050613e726000830184613e4e565b92915050565b600081519050919050565b600082825260208201905092915050565b60005b83811015613eb2578082015181840152602081019050613e97565b60008484015250505050565b6000601f19601f8301169050919050565b6000613eda82613e78565b613ee48185613e83565b9350613ef4818560208601613e94565b613efd81613ebe565b840191505092915050565b60006020820190508181036000830152613f228184613ecf565b905092915050565b600073ffffffffffffffffffffffffffffffffffffffff82169050919050565b6000613f5582613f2a565b9050919050565b613f6581613f4a565b8114613f7057600080fd5b50565b600081359050613f8281613f5c565b92915050565b6000819050919050565b613f9b81613f88565b8114613fa657600080fd5b50565b600081359050613fb881613f92565b92915050565b60008060408385031215613fd557613fd4613db3565b5b6000613fe385828601613f73565b9250506020613ff485828601613fa9565b9150509250929050565b60006020828403121561401457614013613db3565b5b600061402284828501613fa9565b91505092915050565b600082825260208201905092915050565b600061404782613e78565b614051818561402b565b9350614061818560208601613e94565b61406a81613ebe565b840191505092915050565b600081519050919050565b600082825260208201905092915050565b6000819050602082019050919050565b60006140ad838361403c565b905092915050565b6000602082019050919050565b60006140cd82614075565b6140d78185614080565b9350836020820285016140e985614091565b8060005b85811015614125578484038952815161410685826140a1565b9450614111836140b5565b925060208a019950506001810190506140ed565b50829750879550505050505092915050565b600081519050919050565b600082825260208201905092915050565b6000819050602082019050919050565b61416c81613f88565b82525050565b600061417e8383614163565b60208301905092915050565b6000602082019050919050565b60006141a282614137565b6141ac8185614142565b93506141b783614153565b8060005b838110156141e85781516141cf8882614172565b97506141da8361418a565b9250506001810190506141bb565b5085935050505092915050565b60006101a0830160008301518482036000860152614213828261403c565b9150506020830151848203602086015261422d828261403c565b91505060408301518482036040860152614247828261403c565b91505060608301518482036060860152614261828261403c565b9150506080830151848203608086015261427b82826140c2565b91505060a083015184820360a08601526142958282614197565b91505060c083015184820360c08601526142af8282614197565b91505060e083015184820360e08601526142c98282614197565b9150506101008301516142e0610100860182614163565b506101208301516142f5610120860182614163565b5061014083015184820361014086015261430f828261403c565b915050610160830151614326610160860182614163565b5061018083015161433b610180860182614163565b508091505092915050565b6000602082019050818103600083015261436081846141f5565b905092915050565b61437181613f88565b82525050565b6000610120820190508181036000830152614392818c613ecf565b905081810360208301526143a6818b613ecf565b905081810360408301526143ba818a613ecf565b905081810360608301526143ce8189613ecf565b90506143dd6080830188614368565b6143ea60a0830187614368565b81810360c08301526143fc8186613ecf565b905061440b60e0830185614368565b614419610100830184614368565b9a9950505050505050505050565b600060208201905061443c6000830184614368565b92915050565b60008060006060848603121561445b5761445a613db3565b5b600061446986828701613f73565b935050602061447a86828701613f73565b925050604061448b86828701613fa9565b9150509250925092565b600080604083850312156144ac576144ab613db3565b5b60006144ba85828601613f73565b92505060206144cb85828601613f73565b9150509250929050565b600081519050919050565b600082825260208201905092915050565b6000819050602082019050919050565b60006101a083016000830151848203600086015261451f828261403c565b91505060208301518482036020860152614539828261403c565b91505060408301518482036040860152614553828261403c565b9150506060830151848203606086015261456d828261403c565b9150506080830151848203608086015261458782826140c2565b91505060a083015184820360a08601526145a18282614197565b91505060c083015184820360c08601526145bb8282614197565b91505060e083015184820360e08601526145d58282614197565b9150506101008301516145ec610100860182614163565b50610120830151614601610120860182614163565b5061014083015184820361014086015261461b828261403c565b915050610160830151614632610160860182614163565b50610180830151614647610180860182614163565b508091505092915050565b600061465e8383614501565b905092915050565b6000602082019050919050565b600061467e826144d5565b61468881856144e0565b93508360208202850161469a856144f1565b8060005b858110156146d657848403895281516146b78582614652565b94506146c283614666565b925060208a0199505060018101905061469e565b50829750879550505050505092915050565b600060208201905081810360008301526147028184614673565b905092915050565b600080fd5b7f4e487b7100000000000000000000000000000000000000000000000000000000600052604160045260246000fd5b61474782613ebe565b810181811067ffffffffffffffff821117156147665761476561470f565b5b80604052505050565b6000614779613da9565b9050614785828261473e565b919050565b600080fd5b600080fd5b600080fd5b600067ffffffffffffffff8211156147b4576147b361470f565b5b6147bd82613ebe565b9050602081019050919050565b82818337600083830152505050565b60006147ec6147e784614799565b61476f565b90508281526020810184848401111561480857614807614794565b5b6148138482856147ca565b509392505050565b600082601f8301126148305761482f61478f565b5b81356148408482602086016147d9565b91505092915050565b600067ffffffffffffffff8211156148645761486361470f565b5b602082029050602081019050919050565b600080fd5b600061488d61488884614849565b61476f565b905080838252602082019050602084028301858111156148b0576148af614875565b5b835b818110156148f757803567ffffffffffffffff8111156148d5576148d461478f565b5b8086016148e2898261481b565b855260208501945050506020810190506148b2565b5050509392505050565b600082601f8301126149165761491561478f565b5b813561492684826020860161487a565b91505092915050565b600067ffffffffffffffff82111561494a5761494961470f565b5b602082029050602081019050919050565b600061496e6149698461492f565b61476f565b9050808382526020820190506020840283018581111561499157614990614875565b5b835b818110156149ba57806149a68882613fa9565b845260208401935050602081019050614993565b5050509392505050565b600082601f8301126149d9576149d861478f565b5b81356149e984826020860161495b565b91505092915050565b60006101a08284031215614a0957614a0861470a565b5b614a146101a061476f565b9050600082013567ffffffffffffffff811115614a3457614a3361478a565b5b614a408482850161481b565b600083015250602082013567ffffffffffffffff811115614a6457614a6361478a565b5b614a708482850161481b565b602083015250604082013567ffffffffffffffff811115614a9457614a9361478a565b5b614aa08482850161481b565b604083015250606082013567ffffffffffffffff811115614ac457614ac361478a565b5b614ad08482850161481b565b606083015250608082013567ffffffffffffffff811115614af457614af361478a565b5b614b0084828501614901565b60808301525060a082013567ffffffffffffffff811115614b2457614b2361478a565b5b614b30848285016149c4565b60a08301525060c082013567ffffffffffffffff811115614b5457614b5361478a565b5b614b60848285016149c4565b60c08301525060e082013567ffffffffffffffff811115614b8457614b8361478a565b5b614b90848285016149c4565b60e083015250610100614ba584828501613fa9565b61010083015250610120614bbb84828501613fa9565b6101208301525061014082013567ffffffffffffffff811115614be157614be061478a565b5b614bed8482850161481b565b61014083015250610160614c0384828501613fa9565b61016083015250610180614c1984828501613fa9565b6101808301525092915050565b600060208284031215614c3c57614c3b613db3565b5b600082013567ffffffffffffffff811115614c5a57614c59613db8565b5b614c66848285016149f2565b91505092915050565b614c7881613f4a565b82525050565b6000602082019050614c936000830184614c6f565b92915050565b600060208284031215614caf57614cae613db3565b5b6000614cbd84828501613f73565b91505092915050565b600082825260208201905092915050565b6000614ce282614137565b614cec8185614cc6565b9350614cf783614153565b8060005b83811015614d28578151614d0f8882614172565b9750614d1a8361418a565b925050600181019050614cfb565b5085935050505092915050565b60006020820190508181036000830152614d4f8184614cd7565b905092915050565b7f4e487b7100000000000000000000000000000000000000000000000000000000600052602260045260246000fd5b60006002820490506001821680614d9e57607f821691505b602082108103614db157614db0614d57565b5b50919050565b7f4572726f72202d20617070726f76616c20746f2063757272656e74206f776e6560008201527f7200000000000000000000000000000000000000000000000000000000000000602082015250565b6000614e13602183613e83565b9150614e1e82614db7565b604082019050919050565b60006020820190508181036000830152614e4281614e06565b9050919050565b7f43757272656e742063616c6c6572206973206e6f7420746865206f776e65722060008201527f6f662074686520746f6b656e0000000000000000000000000000000000000000602082015250565b6000614ea5602c83613e83565b9150614eb082614e49565b604082019050919050565b60006020820190508181036000830152614ed481614e98565b9050919050565b7f4e487b7100000000000000000000000000000000000000000000000000000000600052603260045260246000fd5b7f4e487b7100000000000000000000000000000000000000000000000000000000600052601160045260246000fd5b6000614f4482613f88565b9150614f4f83613f88565b9250828203905081811115614f6757614f66614f0a565b5b92915050565b6000614f7882613f88565b9150614f8383613f88565b9250828201905080821115614f9b57614f9a614f0a565b5b92915050565b6000614fac82613f88565b915060008203614fbf57614fbe614f0a565b5b600182039050919050565b6000614fd582613f88565b91507fffffffffffffffffffffffffffffffffffffffffffffffffffffffffffffffff820361500757615006614f0a565b5b600182019050919050565b7f4e487b7100000000000000000000000000000000000000000000000000000000600052603160045260246000fd5b7f6f776e657220696e646578206973206f7574206f6620626f756e647321000000600082015250565b6000615077601d83613e83565b915061508282615041565b602082019050919050565b600060208201905081810360008301526150a68161506a565b9050919050565b600081905092915050565b60008190508160005260206000209050919050565b600081546150da81614d86565b6150e481866150ad565b945060018216600081146150ff576001811461511457615147565b60ff1983168652811515820286019350615147565b61511d856150b8565b60005b8381101561513f57815481890152600182019150602081019050615120565b838801955050505b50505092915050565b600061515c82846150cd565b915081905092915050565b7f4572726f72203a20616c7265616479206578697374732070726553637269707460008201527f696f6e2000000000000000000000000000000000000000000000000000000000602082015250565b60006151c3602483613e83565b91506151ce82615167565b604082019050919050565b600060208201905081810360008301526151f2816151b6565b9050919050565b7f596f7520646f206e6f742068617665207065726d697373696f6e000000000000600082015250565b600061522f601a83613e83565b915061523a826151f9565b602082019050919050565b6000602082019050818103600083015261525e81615222565b9050919050565b60008190508160005260206000209050919050565b60006020601f8301049050919050565b600082821b905092915050565b6000600883026152c77fffffffffffffffffffffffffffffffffffffffffffffffffffffffffffffffff8261528a565b6152d1868361528a565b95508019841693508086168417925050509392505050565b6000819050919050565b600061530e61530961530484613f88565b6152e9565b613f88565b9050919050565b6000819050919050565b615328836152f3565b61533c61533482615315565b848454615297565b825550505050565b600090565b615351615344565b61535c81848461531f565b505050565b5b8181101561538057615375600082615349565b600181019050615362565b5050565b601f8211156153c55761539681615265565b61539f8461527a565b810160208510156153ae578190505b6153c26153ba8561527a565b830182615361565b50505b505050565b600082821c905092915050565b60006153e8600019846008026153ca565b1980831691505092915050565b600061540183836153d7565b9150826002028217905092915050565b61541a82613e78565b67ffffffffffffffff8111156154335761543261470f565b5b61543d8254614d86565b615448828285615384565b600060209050601f83116001811461547b5760008415615469578287015190505b61547385826153f5565b8655506154db565b601f19841661548986615265565b60005b828110156154b15784890151825560018201915060208501945060208101905061548c565b868310156154ce57848901516154ca601f8916826153d7565b8355505b6001600288020188555050505b505050505050565b7f676c6f62616c20696e646578206973206f7574206f6620626f756e6473210000600082015250565b6000615519601e83613e83565b9150615524826154e3565b602082019050919050565b600060208201905081810360008301526155488161550c565b9050919050565b7f596f7520646f206e6f74207065726d697474696f6e0000000000000000000000600082015250565b6000615585601583613e83565b91506155908261554f565b602082019050919050565b600060208201905081810360008301526155b481615578565b9050919050565b7f546865206e756d626572206f662064697370656e73696e67206861732062656560008201527f6e2065786365656465642e000000000000000000000000000000000000000000602082015250565b6000615617602b83613e83565b9150615622826155bb565b604082019050919050565b600060208201905081810360008301526156468161560a565b9050919050565b60008154905061565c81614d86565b9050919050565b818103615671575050615749565b61567a8261564d565b67ffffffffffffffff8111156156935761569261470f565b5b61569d8254614d86565b6156a8828285615384565b6000601f8311600181146156d757600084156156c5578287015490505b6156cf85826153f5565b865550615742565b601f1984166156e587615265565b96506156f086615265565b60005b82811015615718578489015482556001820191506001850194506020810190506156f3565b868310156157355784890154615731601f8916826153d7565b8355505b6001600288020188555050505b5050505050505b565b7f6f776e657220717565727920666f72206e6f6e2d6578697374656e7420746f6b60008201527f656e000000000000000000000000000000000000000000000000000000000000602082015250565b60006157a7602283613e83565b91506157b28261574b565b604082019050919050565b600060208201905081810360008301526157d68161579a565b9050919050565b7f746f6b656e20646f6573206e6f74206578697374000000000000000000000000600082015250565b6000615813601483613e83565b915061581e826157dd565b602082019050919050565b6000602082019050818103600083015261584281615806565b9050919050565b7f4572726f72202d20455243373231205472616e7366657220746f20746865207a60008201527f65726f2061646472657373000000000000000000000000000000000000000000602082015250565b60006158a5602b83613e83565b91506158b082615849565b604082019050919050565b600060208201905081810360008301526158d481615898565b9050919050565b7f547279696e6720746f207472616e73666572206120746f6b656e20746865206160008201527f64647265737320646f6573206e6f74206f776e21000000000000000000000000602082015250565b6000615937603483613e83565b9150615942826158db565b604082019050919050565b600060208201905081810360008301526159668161592a565b9050919050565b7f4552433732313a206d696e74696e6720746f20746865207a65726f206164647260008201527f6573000000000000000000000000000000000000000000000000000000000000602082015250565b60006159c9602283613e83565b91506159d48261596d565b604082019050919050565b600060208201905081810360008301526159f8816159bc565b9050919050565b7f4552433732313a20746f6b656e20616c7265616479206d696e74656400000000600082015250565b6000615a35601c83613e83565b9150615a40826159ff565b602082019050919050565b60006020820190508181036000830152615a6481615a28565b9050919050565b7f536166654d6174683a207375627472616374696f6e206f766572666c6f770000600082015250565b6000615aa1601e83613e83565b9150615aac82615a6b565b602082019050919050565b60006020820190508181036000830152615ad081615a94565b905091905056fea2646970667358221220305bc58512db722fe60d3967ab45747480f2fce74b2479adc9fe3f1fc7a2994264736f6c63430008110033",
  "immutableReferences": {},
  "source": "// SPDX-License-Identifier: MIT\r\npragma solidity ^0.8.0;\r\n\r\nimport './ERC721Connector.sol';\r\n\r\ncontract PreScription is ERC721Connector {\r\n\r\n    // array to store our nfts\r\n    //  \r\n   struct  preScription {\r\n        // preScriptionExists        ?   .\r\n        string userName; //  \r\n        string hosName; //  \r\n        string pharName; //  \r\n        string dCode; // \r\n        string[] dName; // \r\n\r\n        uint[] dosage; // \r\n        uint[] doseNum; //  \r\n        uint[] dosePeriod; // \r\n        uint dispensingCount; //   \r\n        uint prescriptionCount; // \r\n        // uint period; //  ? .\r\n        string howtoTake; // \r\n        uint pubDate; // \r\n        uint prepDate; //  \r\n        \r\n        }\r\n        \r\n        //        \r\n   \r\n   //  \r\n\r\n   \r\n    preScription[] public preScriptions;\r\n    // preScription pp;\r\n    \r\n   \r\n\r\n    \r\n    mapping (address => uint[]) _allTokensOwned; //     ID \r\n\r\n    mapping (address => preScription[]) _allListFromAccount; //    \r\n    \r\n    mapping (address => uint) _accountAuth;  //   (1 , 2 , 3 )\r\n    \r\n    mapping(string => bool) _preScriptionsExists;\r\n\r\n    \r\n    mapping (uint256 => uint ) _blockTotokenid;\r\n\r\n    mapping (address => uint[]) _addToblock;\r\n    //  =>   =>  ID\r\n    mapping (address => mapping (address => uint[])) _patientListFromAccount2;\r\n\r\n    mapping (address => mapping (address => preScription[])) _patientListFromAccount;\r\n\r\n    \r\n\r\n     \r\n    // //   ->    \r\n    // mapping(address => address[])\r\n    // //   \r\n    // mapping(address => uint[])\r\n\r\n    //   \r\n    mapping (uint256 => uint256) _prsCountOfTokenId;\r\n    //   \r\n    mapping (uint256 => uint256) _offerCountOfTokenId;\r\n\r\n        // _address    \r\n        function getAllListFromAccount(address _address) public view returns(preScription[] memory){\r\n            return _allListFromAccount[_address];\r\n        }\r\n\r\n         //     \r\n        function getAllTokensOwned(address _address) public view returns(uint[] memory){\r\n            return _allTokensOwned[_address];\r\n        }\r\n        // _from _to     \r\n        function getPatientListFromAccount(address _from, address _to) public view returns(preScription[] memory) {\r\n            return _patientListFromAccount[_from][_to];\r\n        }\r\n        function getOfferCountOfToken(uint _tokenId) public view returns(uint){\r\n            return _offerCountOfTokenId[_tokenId];\r\n        }\r\n       \r\n\r\n\r\n       \r\n        // \r\n        function setPatientAuth(address _address) public {\r\n        _accountAuth[_address] = 1;\r\n    }\r\n        // \r\n        function setDoctorAuth(address _address) public {\r\n        _accountAuth[_address] = 2;\r\n    }\r\n        //\r\n        function setPharmacyAuth(address _address) public {\r\n        _accountAuth[_address] = 3;\r\n    }\r\n        // function getAllPrescription(address _address) public view returns(preScription[] memory){\r\n        //     preScription[] memory prs;\r\n        //     for(uint i = 0; i < _allTokensOwned[_address].length; i++){\r\n        //         prs[i] = (preScriptions[_allTokensOwned[_address][i]]);\r\n        //     }\r\n        //     return prs;\r\n        // }\r\n\r\n  \r\n\r\n        // function getListOfPatient(address _from, address _to) public returns(preScription[] memory){\r\n        //     uint[] memory idList = _patientListFromAccount[_from][_to];\r\n        //     preScription[] memory  prsList;\r\n        //     for(uint i = 0; i < idList.length; i++){\r\n        //         prsList.push(idList[i]);\r\n        //     }\r\n        // }\r\n\r\n\r\n\r\n\r\n\r\n    //    ?\r\n    //   (  ID)\r\n    mapping (address => uint256[]) _mintedTokens;\r\n\r\n  \r\n    mapping (address => uint256[]) _alltokensOfphaccount;\r\n   \r\n    //       ????\r\n    \r\n    \r\n    //   (msg.sender)      \r\n\r\n    function setMintedTokens(uint _tokenId) public {\r\n        _mintedTokens[msg.sender].push(_tokenId);\r\n    }\r\n    function getMintedTokens() public view returns (uint256[] memory){\r\n        return _mintedTokens[msg.sender];\r\n    }\r\n\r\n\r\n    \r\n    //   \r\n    modifier prsExists( \r\n        string memory _userName, \r\n        string memory _hosName,\r\n        string memory _pharName, \r\n        string memory _dCode\r\n        // string[] memory _dName, // \r\n\r\n        // uint[] memory _dosage, // \r\n        // uint[] memory _doseNum, //  \r\n        // uint[] memory _dosePeriod, // \r\n        // uint _dispensingCount, //   \r\n        // uint _prescriptionCount, // \r\n        // // uint period; //  ? .\r\n        // string memory _howtoTake, // \r\n        // uint _pubDate // \r\n        // uint _prepDate // \r\n        // uint256 _pubDate\r\n        // uint256 _prepDate \r\n        ) {\r\n           bool check = false;\r\n           for (uint i = 0; i < preScriptions.length; i++){\r\n            if(\r\n                keccak256(bytes(preScriptions[i].userName)) == keccak256(bytes(_userName)) &&\r\n                keccak256(bytes(preScriptions[i].hosName)) == keccak256(bytes(_hosName)) &&\r\n                // keccak256(bytes(preScriptions[i].pharName)) == keccak256(bytes(_pharName)) &&\r\n                keccak256(bytes(preScriptions[i].dCode)) == keccak256(bytes(_dCode))\r\n                // for(uint j = 0; j < preScriptions[i].dName.length; j++){\r\n                //     if(\r\n                //          keccak256(bytes(preScriptions[j].dName)) == keccak256(bytes(_dName[j])) \r\n                //     )\r\n                // }\r\n                // preScriptions[i].dispensingCount == _dispensingCount &&\r\n                // preScriptions[i].prescriptionCount == _prescriptionCount\r\n                // keccak256(bytes(preScriptions[i].dispensingCount)) == keccak256(bytes(_dispensingCount)) &&\r\n                // keccak256(bytes(preScriptions[i].prescriptionCount)) == keccak256(bytes(_prescriptionCount)) \r\n                // PreScriptions[i].period == _period &&\r\n                // PreScriptions[i].pubDate == _pubDate &&\r\n                // PreScriptions[i].prepDate == _prepDate\r\n            ) {\r\n                check =true;\r\n            }\r\n           } \r\n           require(!check, \"Error : already exists preScription \");\r\n           _;\r\n        }\r\n        //  ,   \r\n         modifier prsnmExists(string[] memory _dName, uint256 _pubDate) {\r\n            bool check = false;\r\n           for (uint i = 0; i < preScriptions.length; i++){\r\n            uint cnt = 0;\r\n                for(uint j = 0; j < preScriptions[i].dName.length; j++){\r\n                    if(\r\n                         keccak256(bytes(preScriptions[i].dName[j])) == keccak256(bytes(_dName[j])) \r\n                      \r\n                    ){\r\n                           cnt++;\r\n                    }\r\n                }\r\n         \r\n                if( preScriptions[i].dName.length == _dName.length && \r\n                    cnt == preScriptions[i].dName.length && \r\n                    preScriptions[i].pubDate == _pubDate )\r\n             {\r\n                check =true;\r\n            }\r\n           } \r\n           require(!check, \"Error : already exists preScription \");\r\n           _;\r\n         }\r\n        //     \r\n        function getBalanceOf(address _address) public view returns(uint256) {\r\n            return balanceOf(_address);\r\n        }\r\n\r\n        //   / /  \r\n\r\n        // \r\n        function transferPreScription(address _from, address _to, uint _tokenId) public {\r\n            //     \r\n            require(_offerCountOfTokenId[_tokenId] != 0, 'The number of dispensing has been exceeded.');\r\n            //       ex)    \r\n            //      ID\r\n            _allTokensOwned[_to].push(_tokenId);\r\n            _allListFromAccount[_to].push(preScriptions[_tokenId]);\r\n           transferPrs(_from, _to, _tokenId);\r\n        }\r\n\r\n        \r\n        //    \r\n        function transferDoctorToPatient(address _from, address _to, uint _tokenId) public {\r\n              \r\n              transferPrs(_from, _to, _tokenId);\r\n            _allTokensOwned[_to].push(_tokenId);\r\n            _allListFromAccount[_to].push(preScriptions[_tokenId]);\r\n            // _patientListFromAccount[_from][_to].push(_tokenId);\r\n            _patientListFromAccount[_from][_to].push(preScriptions[_tokenId]);\r\n\r\n        }\r\n        //   \r\n        function transferPharmacyToPatient(address _from, address _to, uint _tokenId) public {\r\n            require(_accountAuth[_from] == 3, 'You do not permittion');\r\n            require(_offerCountOfTokenId[_tokenId] != 0, 'The number of dispensing has been exceeded.');\r\n            transferPrs(_from, _to, _tokenId);\r\n            _offerCountOfTokenId[_tokenId]--;\r\n           // _patientListFromAccount[_from][_to].push(_tokenId);\r\n            _patientListFromAccount[_from][_to].push(preScriptions[_tokenId]);\r\n        }\r\n    \r\n//     ()\r\n  function mint(\r\n   \r\n        preScription memory _preScription\r\n         ) \r\n        public prsExists ( _preScription.userName, _preScription.hosName, _preScription.pharName, _preScription.dCode ) \r\n               prsnmExists(_preScription.dName, _preScription.pubDate){\r\n            require(_accountAuth[msg.sender] == 2, 'You do not have permission');\r\n          \r\n        preScriptions.push(_preScription);\r\n        uint _id = preScriptions.length - 1;\r\n\r\n        _allListFromAccount[msg.sender].push(_preScription);\r\n        _blockTotokenid[block.number] = _id;\r\n        _addToblock[msg.sender].push(block.number);\r\n        //     0   .\r\n        _offerCountOfTokenId[_id] = _preScription.prescriptionCount;\r\n        // .push no longer returns the length but a ref to the added element\r\n        _mint(msg.sender, _id);\r\n        //  (  )\r\n        setMintedTokens(_id);\r\n\r\n        // _preScriptionsExists[_preScription] = true;\r\n\r\n    }\r\n\r\n    function getPreScriptionByIndex(uint index) public returns(preScription memory) {\r\n        return preScriptions[index];\r\n    }\r\n\r\n    \r\n\r\n\r\n    constructor() ERC721Connector('PreScription','Script') {}\r\n\r\n}\r\n\r\n\r\n",
  "sourcePath": "C:\\Users\\SSAFY\\Desktop\\GitClone2\\S07P22E205\\smart-contract\\src\\contracts\\PreSciption.sol",
  "compiler": {
    "name": "solc",
    "version": "0.8.17+commit.8df45f5f.Emscripten.clang"
  },
  "schemaVersion": "3.4.9",
  "updatedAt": "2022-10-01T18:08:05.741Z",
  "networkType": "ethereum",
  "devdoc": {
    "kind": "dev",
    "methods": {
      "ownerOf(uint256)": {
        "details": "NFTs assigned to zero address are considered invalid, and queries  about them do throw.",
        "params": {
          "_tokenId": "The identifier for an NFT"
        },
        "returns": {
          "_0": "The address of the owner of the NFT"
        }
      },
      "supportsInterface(bytes4)": {
        "details": "Interface identification is specified in ERC-165. This function  uses less than 30,000 gas.",
        "params": {
          "interfaceID": "The interface identifier, as specified in ERC-165"
        },
        "returns": {
          "_0": "`true` if the contract implements `interfaceID` and  `interfaceID` is not 0xffffffff, `false` otherwise"
        }
      }
    },
    "version": 1
  },
  "userdoc": {
    "kind": "user",
    "methods": {
      "ownerOf(uint256)": {
        "notice": "Find the owner of an NFT"
      },
      "supportsInterface(bytes4)": {
        "notice": "Query if a contract implements an interface"
      }
    },
    "version": 1
  }
}