{
  "contractName": "PreScription",
  "abi": [
    {
      "inputs": [],
      "stateMutability": "nonpayable",
      "type": "constructor"
    },
    {
      "anonymous": false,
      "inputs": [
        {
          "indexed": true,
          "internalType": "address",
          "name": "_owner",
          "type": "address"
        },
        {
          "indexed": true,
          "internalType": "address",
          "name": "_approved",
          "type": "address"
        },
        {
          "indexed": true,
          "internalType": "uint256",
          "name": "_tokenId",
          "type": "uint256"
        }
      ],
      "name": "Approval",
      "type": "event"
    },
    {
      "anonymous": false,
      "inputs": [
        {
          "indexed": true,
          "internalType": "address",
          "name": "_from",
          "type": "address"
        },
        {
          "indexed": true,
          "internalType": "address",
          "name": "_to",
          "type": "address"
        },
        {
          "indexed": true,
          "internalType": "uint256",
          "name": "_tokenId",
          "type": "uint256"
        }
      ],
      "name": "Transfer",
      "type": "event"
    },
    {
      "inputs": [
        {
          "internalType": "address",
          "name": "owner",
          "type": "address"
        }
      ],
      "name": "alltokenOfOwner",
      "outputs": [
        {
          "internalType": "uint256[]",
          "name": "",
          "type": "uint256[]"
        }
      ],
      "stateMutability": "view",
      "type": "function",
      "constant": true
    },
    {
      "inputs": [
        {
          "internalType": "address",
          "name": "_to",
          "type": "address"
        },
        {
          "internalType": "uint256",
          "name": "tokenId",
          "type": "uint256"
        }
      ],
      "name": "approve",
      "outputs": [],
      "stateMutability": "nonpayable",
      "type": "function"
    },
    {
      "inputs": [
        {
          "internalType": "address",
          "name": "_owner",
          "type": "address"
        }
      ],
      "name": "balanceOf",
      "outputs": [
        {
          "internalType": "uint256",
          "name": "",
          "type": "uint256"
        }
      ],
      "stateMutability": "view",
      "type": "function",
      "constant": true
    },
    {
      "inputs": [],
      "name": "name",
      "outputs": [
        {
          "internalType": "string",
          "name": "",
          "type": "string"
        }
      ],
      "stateMutability": "view",
      "type": "function",
      "constant": true
    },
    {
      "inputs": [
        {
          "internalType": "uint256",
          "name": "_tokenId",
          "type": "uint256"
        }
      ],
      "name": "ownerOf",
      "outputs": [
        {
          "internalType": "address",
          "name": "",
          "type": "address"
        }
      ],
      "stateMutability": "view",
      "type": "function",
      "constant": true
    },
    {
      "inputs": [
        {
          "internalType": "uint256",
          "name": "",
          "type": "uint256"
        }
      ],
      "name": "preScriptions",
      "outputs": [
        {
          "internalType": "string",
          "name": "userName",
          "type": "string"
        },
        {
          "internalType": "string",
          "name": "hosName",
          "type": "string"
        },
        {
          "internalType": "string",
          "name": "pharName",
          "type": "string"
        },
        {
          "internalType": "string",
          "name": "dCode",
          "type": "string"
        },
        {
          "internalType": "string",
          "name": "dispensingCount",
          "type": "string"
        },
        {
          "internalType": "string",
          "name": "prescriptionCount",
          "type": "string"
        }
      ],
      "stateMutability": "view",
      "type": "function",
      "constant": true
    },
    {
      "inputs": [
        {
          "internalType": "bytes4",
          "name": "interfaceID",
          "type": "bytes4"
        }
      ],
      "name": "supportsInterface",
      "outputs": [
        {
          "internalType": "bool",
          "name": "",
          "type": "bool"
        }
      ],
      "stateMutability": "view",
      "type": "function",
      "constant": true
    },
    {
      "inputs": [],
      "name": "symbol",
      "outputs": [
        {
          "internalType": "string",
          "name": "",
          "type": "string"
        }
      ],
      "stateMutability": "view",
      "type": "function",
      "constant": true
    },
    {
      "inputs": [
        {
          "internalType": "uint256",
          "name": "index",
          "type": "uint256"
        }
      ],
      "name": "tokenByIndex",
      "outputs": [
        {
          "internalType": "uint256",
          "name": "",
          "type": "uint256"
        }
      ],
      "stateMutability": "view",
      "type": "function",
      "constant": true
    },
    {
      "inputs": [
        {
          "internalType": "address",
          "name": "owner",
          "type": "address"
        },
        {
          "internalType": "uint256",
          "name": "index",
          "type": "uint256"
        }
      ],
      "name": "tokenOfOwnerByIndex",
      "outputs": [
        {
          "internalType": "uint256",
          "name": "",
          "type": "uint256"
        }
      ],
      "stateMutability": "view",
      "type": "function",
      "constant": true
    },
    {
      "inputs": [],
      "name": "totalSupply",
      "outputs": [
        {
          "internalType": "uint256",
          "name": "",
          "type": "uint256"
        }
      ],
      "stateMutability": "view",
      "type": "function",
      "constant": true
    },
    {
      "inputs": [
        {
          "internalType": "address",
          "name": "_from",
          "type": "address"
        },
        {
          "internalType": "address",
          "name": "_to",
          "type": "address"
        },
        {
          "internalType": "uint256",
          "name": "_tokenId",
          "type": "uint256"
        }
      ],
      "name": "transferFrom",
      "outputs": [],
      "stateMutability": "nonpayable",
      "type": "function"
    },
    {
      "inputs": [
        {
          "internalType": "address",
          "name": "_address",
          "type": "address"
        }
      ],
      "name": "setPatientAuth",
      "outputs": [],
      "stateMutability": "nonpayable",
      "type": "function"
    },
    {
      "inputs": [
        {
          "internalType": "address",
          "name": "_address",
          "type": "address"
        }
      ],
      "name": "setDoctorAuth",
      "outputs": [],
      "stateMutability": "nonpayable",
      "type": "function"
    },
    {
      "inputs": [
        {
          "internalType": "address",
          "name": "_address",
          "type": "address"
        }
      ],
      "name": "setPharmacyAuth",
      "outputs": [],
      "stateMutability": "nonpayable",
      "type": "function"
    },
    {
      "inputs": [
        {
          "internalType": "uint256",
          "name": "_tokenId",
          "type": "uint256"
        }
      ],
      "name": "setMintedTokens",
      "outputs": [],
      "stateMutability": "nonpayable",
      "type": "function"
    },
    {
      "inputs": [],
      "name": "getMintedTokens",
      "outputs": [
        {
          "internalType": "uint256[]",
          "name": "",
          "type": "uint256[]"
        }
      ],
      "stateMutability": "view",
      "type": "function",
      "constant": true
    },
    {
      "inputs": [
        {
          "internalType": "address",
          "name": "_from",
          "type": "address"
        },
        {
          "internalType": "address",
          "name": "_to",
          "type": "address"
        },
        {
          "internalType": "uint256",
          "name": "_tokenId",
          "type": "uint256"
        }
      ],
      "name": "transferPreScription",
      "outputs": [],
      "stateMutability": "nonpayable",
      "type": "function"
    },
    {
      "inputs": [
        {
          "internalType": "string",
          "name": "_userName",
          "type": "string"
        },
        {
          "internalType": "string",
          "name": "_hosName",
          "type": "string"
        },
        {
          "internalType": "string",
          "name": "_pharName",
          "type": "string"
        },
        {
          "internalType": "string",
          "name": "_dCode",
          "type": "string"
        },
        {
          "internalType": "string",
          "name": "_dispensingCount",
          "type": "string"
        },
        {
          "internalType": "string",
          "name": "_prescriptionCount",
          "type": "string"
        }
      ],
      "name": "mint",
      "outputs": [],
      "stateMutability": "nonpayable",
      "type": "function"
    },
    {
      "inputs": [
        {
          "internalType": "uint256",
          "name": "index",
          "type": "uint256"
        }
      ],
      "name": "getPreScriptionByIndex",
      "outputs": [
        {
          "components": [
            {
              "internalType": "string",
              "name": "userName",
              "type": "string"
            },
            {
              "internalType": "string",
              "name": "hosName",
              "type": "string"
            },
            {
              "internalType": "string",
              "name": "pharName",
              "type": "string"
            },
            {
              "internalType": "string",
              "name": "dCode",
              "type": "string"
            },
            {
              "internalType": "string",
              "name": "dispensingCount",
              "type": "string"
            },
            {
              "internalType": "string",
              "name": "prescriptionCount",
              "type": "string"
            }
          ],
          "internalType": "struct PreScription.preScription",
          "name": "",
          "type": "tuple"
        }
      ],
      "stateMutability": "nonpayable",
      "type": "function"
    }
  ],
  "bytecode": "0x60806040526000600e553480156200001657600080fd5b506040518060400160405280600c81526020017f507265536372697074696f6e00000000000000000000000000000000000000008152506040518060400160405280600681526020017f53637269707400000000000000000000000000000000000000000000000000008152508181620000b67f01ffc9a7a5cef8baa21ed3c5c0d7e23accb804b619e9333b597f47a0d84076e26200022160201b60201c565b620001097f13b182f4c0e5b2efbac0efe6cf6d756c8b89f4b79c5707a043ed9ea740574ee97f7feaf19471f34a12a7eaf32d5f3090aa2260ea8624dc8a138e74e0bf0f623076186200022160201b60201c565b81600190816200011a919062000572565b5080600290816200012c919062000572565b505050620001a47f22c82707ba960a14c7592ffb6b8cfaa073fed0048a84cc7fa41f6b5bd8e7f2e47f3a6eb71757dfc6e784c1459d26270140c2c147d95ca985c80026fc5301c3eca17f8a7e378434598edc36d108689a030cbc9d7d465de4f74c71bae1028eed6a881b18186200022160201b60201c565b620002197f8230223f691b981717299fae9549350a0d894555723531f02108b1f522c1a7977f6da5e1284143cdd2d15038a59bde3be031250f00291d64494c12d967b3a4e0c37fc53637662700e6c65104059db8bba34439e0c32483ab7c34e3ccae52c739549518186200022160201b60201c565b5050620006dc565b63ffffffff60e01b817bffffffffffffffffffffffffffffffffffffffffffffffffffffffff1916036200028c576040517f08c379a00000000000000000000000000000000000000000000000000000000081526004016200028390620006ba565b60405180910390fd5b6001600080837bffffffffffffffffffffffffffffffffffffffffffffffffffffffff19167bffffffffffffffffffffffffffffffffffffffffffffffffffffffff1916815260200190815260200160002060006101000a81548160ff02191690831515021790555050565b600081519050919050565b7f4e487b7100000000000000000000000000000000000000000000000000000000600052604160045260246000fd5b7f4e487b7100000000000000000000000000000000000000000000000000000000600052602260045260246000fd5b600060028204905060018216806200037a57607f821691505b60208210810362000390576200038f62000332565b5b50919050565b60008190508160005260206000209050919050565b60006020601f8301049050919050565b600082821b905092915050565b600060088302620003fa7fffffffffffffffffffffffffffffffffffffffffffffffffffffffffffffffff82620003bb565b620004068683620003bb565b95508019841693508086168417925050509392505050565b6000819050919050565b6000819050919050565b6000620004536200044d62000447846200041e565b62000428565b6200041e565b9050919050565b6000819050919050565b6200046f8362000432565b620004876200047e826200045a565b848454620003c8565b825550505050565b600090565b6200049e6200048f565b620004ab81848462000464565b505050565b5b81811015620004d357620004c760008262000494565b600181019050620004b1565b5050565b601f8211156200052257620004ec8162000396565b620004f784620003ab565b8101602085101562000507578190505b6200051f6200051685620003ab565b830182620004b0565b50505b505050565b600082821c905092915050565b6000620005476000198460080262000527565b1980831691505092915050565b600062000562838362000534565b9150826002028217905092915050565b6200057d82620002f8565b67ffffffffffffffff81111562000599576200059862000303565b5b620005a5825462000361565b620005b2828285620004d7565b600060209050601f831160018114620005ea5760008415620005d5578287015190505b620005e1858262000554565b86555062000651565b601f198416620005fa8662000396565b60005b828110156200062457848901518255600182019150602085019450602081019050620005fd565b8683101562000644578489015162000640601f89168262000534565b8355505b6001600288020188555050505b505050505050565b600082825260208201905092915050565b7f496e76616c696420696e74657266616365207265717565737400000000000000600082015250565b6000620006a260198362000659565b9150620006af826200066a565b602082019050919050565b60006020820190508181036000830152620006d58162000693565b9050919050565b61320180620006ec6000396000f3fe608060405234801561001057600080fd5b506004361061012c5760003560e01c806370a08231116100ad578063aba55a8611610071578063aba55a861461036c578063d6204d2814610388578063dc965290146103a4578063e241ff48146103c2578063ef5f5c0e146103f25761012c565b806370a08231146102ca578063785e320d146102fa5780637a38699b14610316578063831034331461033257806395d89b411461034e5761012c565b806318160ddd116100f457806318160ddd1461020057806323b872dd1461021e5780632f745c591461023a5780634f6ccce71461026a5780636352211e1461029a5761012c565b806301ffc9a71461013157806306fdde0314610161578063095ea7b31461017f5780630a54de1a1461019b57806311bb5e7a146101cb575b600080fd5b61014b60048036038101906101469190611f34565b61040e565b6040516101589190611f7c565b60405180910390f35b610169610475565b6040516101769190612027565b60405180910390f35b610199600480360381019061019491906120dd565b610507565b005b6101b560048036038101906101b0919061211d565b6106a2565b6040516101c29190612240565b60405180910390f35b6101e560048036038101906101e0919061211d565b610a4a565b6040516101f796959493929190612262565b60405180910390f35b610208610dc6565b60405161021591906122fc565b60405180910390f35b61023860048036038101906102339190612317565b610dd3565b005b610254600480360381019061024f91906120dd565b610df6565b60405161026191906122fc565b60405180910390f35b610284600480360381019061027f919061211d565b610ea6565b60405161029191906122fc565b60405180910390f35b6102b460048036038101906102af919061211d565b610f17565b6040516102c19190612379565b60405180910390f35b6102e460048036038101906102df9190612394565b610fc8565b6040516102f191906122fc565b60405180910390f35b610314600480360381019061030f919061211d565b611086565b005b610330600480360381019061032b9190612394565b6110ef565b005b61034c60048036038101906103479190612394565b611137565b005b61035661117f565b6040516103639190612027565b60405180910390f35b61038660048036038101906103819190612317565b611211565b005b6103a2600480360381019061039d9190612394565b611221565b005b6103ac611269565b6040516103b9919061247f565b60405180910390f35b6103dc60048036038101906103d79190612394565b6112fe565b6040516103e9919061247f565b60405180910390f35b61040c600480360381019061040791906125d6565b611395565b005b6000806000837bffffffffffffffffffffffffffffffffffffffffffffffffffffffff19167bffffffffffffffffffffffffffffffffffffffffffffffffffffffff1916815260200190815260200160002060009054906101000a900460ff169050919050565b6060600180546104849061273a565b80601f01602080910402602001604051908101604052809291908181526020018280546104b09061273a565b80156104fd5780601f106104d2576101008083540402835291602001916104fd565b820191906000526020600020905b8154815290600101906020018083116104e057829003601f168201915b5050505050905090565b600061051282610f17565b90508073ffffffffffffffffffffffffffffffffffffffff168373ffffffffffffffffffffffffffffffffffffffff1603610582576040517f08c379a0000000000000000000000000000000000000000000000000000000008152600401610579906127dd565b60405180910390fd5b8073ffffffffffffffffffffffffffffffffffffffff163373ffffffffffffffffffffffffffffffffffffffff16146105f0576040517f08c379a00000000000000000000000000000000000000000000000000000000081526004016105e79061286f565b60405180910390fd5b826005600084815260200190815260200160002060006101000a81548173ffffffffffffffffffffffffffffffffffffffff021916908373ffffffffffffffffffffffffffffffffffffffff160217905550818373ffffffffffffffffffffffffffffffffffffffff168273ffffffffffffffffffffffffffffffffffffffff167f8c5be1e5ebec7d5bd14f71427d1e84f3dd0314c0f7b2291e5b200ac8c7c3b92560405160405180910390a4505050565b6106aa611e92565b600d82815481106106be576106bd61288f565b5b90600052602060002090600602016040518060c00160405290816000820180546106e79061273a565b80601f01602080910402602001604051908101604052809291908181526020018280546107139061273a565b80156107605780601f1061073557610100808354040283529160200191610760565b820191906000526020600020905b81548152906001019060200180831161074357829003601f168201915b505050505081526020016001820180546107799061273a565b80601f01602080910402602001604051908101604052809291908181526020018280546107a59061273a565b80156107f25780601f106107c7576101008083540402835291602001916107f2565b820191906000526020600020905b8154815290600101906020018083116107d557829003601f168201915b5050505050815260200160028201805461080b9061273a565b80601f01602080910402602001604051908101604052809291908181526020018280546108379061273a565b80156108845780601f1061085957610100808354040283529160200191610884565b820191906000526020600020905b81548152906001019060200180831161086757829003601f168201915b5050505050815260200160038201805461089d9061273a565b80601f01602080910402602001604051908101604052809291908181526020018280546108c99061273a565b80156109165780601f106108eb57610100808354040283529160200191610916565b820191906000526020600020905b8154815290600101906020018083116108f957829003601f168201915b5050505050815260200160048201805461092f9061273a565b80601f016020809104026020016040519081016040528092919081815260200182805461095b9061273a565b80156109a85780601f1061097d576101008083540402835291602001916109a8565b820191906000526020600020905b81548152906001019060200180831161098b57829003601f168201915b505050505081526020016005820180546109c19061273a565b80601f01602080910402602001604051908101604052809291908181526020018280546109ed9061273a565b8015610a3a5780601f10610a0f57610100808354040283529160200191610a3a565b820191906000526020600020905b815481529060010190602001808311610a1d57829003601f168201915b5050505050815250509050919050565b600d8181548110610a5a57600080fd5b9060005260206000209060060201600091509050806000018054610a7d9061273a565b80601f0160208091040260200160405190810160405280929190818152602001828054610aa99061273a565b8015610af65780601f10610acb57610100808354040283529160200191610af6565b820191906000526020600020905b815481529060010190602001808311610ad957829003601f168201915b505050505090806001018054610b0b9061273a565b80601f0160208091040260200160405190810160405280929190818152602001828054610b379061273a565b8015610b845780601f10610b5957610100808354040283529160200191610b84565b820191906000526020600020905b815481529060010190602001808311610b6757829003601f168201915b505050505090806002018054610b999061273a565b80601f0160208091040260200160405190810160405280929190818152602001828054610bc59061273a565b8015610c125780601f10610be757610100808354040283529160200191610c12565b820191906000526020600020905b815481529060010190602001808311610bf557829003601f168201915b505050505090806003018054610c279061273a565b80601f0160208091040260200160405190810160405280929190818152602001828054610c539061273a565b8015610ca05780601f10610c7557610100808354040283529160200191610ca0565b820191906000526020600020905b815481529060010190602001808311610c8357829003601f168201915b505050505090806004018054610cb59061273a565b80601f0160208091040260200160405190810160405280929190818152602001828054610ce19061273a565b8015610d2e5780601f10610d0357610100808354040283529160200191610d2e565b820191906000526020600020905b815481529060010190602001808311610d1157829003601f168201915b505050505090806005018054610d439061273a565b80601f0160208091040260200160405190810160405280929190818152602001828054610d6f9061273a565b8015610dbc5780601f10610d9157610100808354040283529160200191610dbc565b820191906000526020600020905b815481529060010190602001808311610d9f57829003601f168201915b5050505050905086565b6000600980549050905090565b610ddd33826116e2565b610de657600080fd5b610df1838383611771565b505050565b6000610e0183610fc8565b8210610e42576040517f08c379a0000000000000000000000000000000000000000000000000000000008152600401610e399061290a565b60405180910390fd5b600b60008473ffffffffffffffffffffffffffffffffffffffff1673ffffffffffffffffffffffffffffffffffffffff1681526020019081526020016000208281548110610e9357610e9261288f565b5b9060005260206000200154905092915050565b6000610eb0610dc6565b8210610ef1576040517f08c379a0000000000000000000000000000000000000000000000000000000008152600401610ee890612976565b60405180910390fd5b60098281548110610f0557610f0461288f565b5b90600052602060002001549050919050565b6000806003600084815260200190815260200160002060009054906101000a900473ffffffffffffffffffffffffffffffffffffffff169050600073ffffffffffffffffffffffffffffffffffffffff168173ffffffffffffffffffffffffffffffffffffffff1603610fbf576040517f08c379a0000000000000000000000000000000000000000000000000000000008152600401610fb690612a08565b60405180910390fd5b80915050919050565b60008073ffffffffffffffffffffffffffffffffffffffff168273ffffffffffffffffffffffffffffffffffffffff1603611038576040517f08c379a000000000000000000000000000000000000000000000000000000000815260040161102f90612a08565b60405180910390fd5b61107f600460008473ffffffffffffffffffffffffffffffffffffffff1673ffffffffffffffffffffffffffffffffffffffff168152602001908152602001600020611a14565b9050919050565b601160003373ffffffffffffffffffffffffffffffffffffffff1673ffffffffffffffffffffffffffffffffffffffff16815260200190815260200160002081908060018154018082558091505060019003906000526020600020016000909190919091505550565b6003600f60008373ffffffffffffffffffffffffffffffffffffffff1673ffffffffffffffffffffffffffffffffffffffff1681526020019081526020016000208190555050565b6001600f60008373ffffffffffffffffffffffffffffffffffffffff1673ffffffffffffffffffffffffffffffffffffffff1681526020019081526020016000208190555050565b60606002805461118e9061273a565b80601f01602080910402602001604051908101604052809291908181526020018280546111ba9061273a565b80156112075780601f106111dc57610100808354040283529160200191611207565b820191906000526020600020905b8154815290600101906020018083116111ea57829003601f168201915b5050505050905090565b61121c838383610dd3565b505050565b6002600f60008373ffffffffffffffffffffffffffffffffffffffff1673ffffffffffffffffffffffffffffffffffffffff1681526020019081526020016000208190555050565b6060601160003373ffffffffffffffffffffffffffffffffffffffff1673ffffffffffffffffffffffffffffffffffffffff1681526020019081526020016000208054806020026020016040519081016040528092919081815260200182805480156112f457602002820191906000526020600020905b8154815260200190600101908083116112e0575b5050505050905090565b6060600b60008373ffffffffffffffffffffffffffffffffffffffff1673ffffffffffffffffffffffffffffffffffffffff16815260200190815260200160002080548060200260200160405190810160405280929190818152602001828054801561138957602002820191906000526020600020905b815481526020019060010190808311611375575b50505050509050919050565b8585858585856000805b600d80549050811015611583578780519060200120600d82815481106113c8576113c761288f565b5b90600052602060002090600602016000016040516113e69190612acb565b604051809103902014801561143a57508680519060200120600d82815481106114125761141161288f565b5b90600052602060002090600602016001016040516114309190612acb565b6040518091039020145b801561148557508580519060200120600d828154811061145d5761145c61288f565b5b906000526020600020906006020160020160405161147b9190612acb565b6040518091039020145b80156114d057508480519060200120600d82815481106114a8576114a761288f565b5b90600052602060002090600602016003016040516114c69190612acb565b6040518091039020145b801561151b57508380519060200120600d82815481106114f3576114f261288f565b5b90600052602060002090600602016004016040516115119190612acb565b6040518091039020145b801561156657508280519060200120600d828154811061153e5761153d61288f565b5b906000526020600020906006020160050160405161155c9190612acb565b6040518091039020145b1561157057600191505b808061157b90612b11565b91505061139f565b5080156115c5576040517f08c379a00000000000000000000000000000000000000000000000000000000081526004016115bc90612bcb565b60405180910390fd5b60006040518060c001604052808f81526020018e81526020018d81526020018c81526020018b81526020018a8152509050600d81908060018154018082558091505060019003906000526020600020906006020160009091909190915060008201518160000190816116379190612d97565b50602082015181600101908161164d9190612d97565b5060408201518160020190816116639190612d97565b5060608201518160030190816116799190612d97565b50608082015181600401908161168f9190612d97565b5060a08201518160050190816116a59190612d97565b50505060006001600d805490506116bc9190612e69565b90506116c83382611a22565b6116d181611086565b505050505050505050505050505050565b60006116ed82611a43565b61172c576040517f08c379a000000000000000000000000000000000000000000000000000000000815260040161172390612ee9565b60405180910390fd5b600061173783610f17565b90508073ffffffffffffffffffffffffffffffffffffffff168473ffffffffffffffffffffffffffffffffffffffff161491505092915050565b600073ffffffffffffffffffffffffffffffffffffffff168273ffffffffffffffffffffffffffffffffffffffff16036117e0576040517f08c379a00000000000000000000000000000000000000000000000000000000081526004016117d790612f7b565b60405180910390fd5b8273ffffffffffffffffffffffffffffffffffffffff1661180082610f17565b73ffffffffffffffffffffffffffffffffffffffff1614611856576040517f08c379a000000000000000000000000000000000000000000000000000000000815260040161184d9061300d565b60405180910390fd5b61189d600460008573ffffffffffffffffffffffffffffffffffffffff1673ffffffffffffffffffffffffffffffffffffffff168152602001908152602001600020611ab5565b6118e4600460008473ffffffffffffffffffffffffffffffffffffffff1673ffffffffffffffffffffffffffffffffffffffff168152602001908152602001600020611ad8565b816003600083815260200190815260200160002060006101000a81548173ffffffffffffffffffffffffffffffffffffffff021916908373ffffffffffffffffffffffffffffffffffffffff160217905550806006600043815260200190815260200160002081905550600760008473ffffffffffffffffffffffffffffffffffffffff1673ffffffffffffffffffffffffffffffffffffffff168152602001908152602001600020439080600181540180825580915050600190039060005260206000200160009091909190915055808273ffffffffffffffffffffffffffffffffffffffff168473ffffffffffffffffffffffffffffffffffffffff167fddf252ad1be2c89b69c2b068fc378daa952ba7f163c4a11628f55a4df523b3ef60405160405180910390a4505050565b600081600001549050919050565b611a2c8282611af7565b611a3581611d26565b611a3f8282611d6f565b5050565b6000806003600084815260200190815260200160002060009054906101000a900473ffffffffffffffffffffffffffffffffffffffff169050600073ffffffffffffffffffffffffffffffffffffffff168173ffffffffffffffffffffffffffffffffffffffff161415915050919050565b611acd60018260000154611e3390919063ffffffff16565b816000018190555050565b6001816000016000828254611aed919061302d565b9250508190555050565b600073ffffffffffffffffffffffffffffffffffffffff168273ffffffffffffffffffffffffffffffffffffffff1603611b66576040517f08c379a0000000000000000000000000000000000000000000000000000000008152600401611b5d906130d3565b60405180910390fd5b611b6f81611a43565b15611baf576040517f08c379a0000000000000000000000000000000000000000000000000000000008152600401611ba69061313f565b60405180910390fd5b816003600083815260200190815260200160002060006101000a81548173ffffffffffffffffffffffffffffffffffffffff021916908373ffffffffffffffffffffffffffffffffffffffff160217905550806006600043815260200190815260200160002081905550600760003373ffffffffffffffffffffffffffffffffffffffff1673ffffffffffffffffffffffffffffffffffffffff168152602001908152602001600020439080600181540180825580915050600190039060005260206000200160009091909190915055611cc6600460008473ffffffffffffffffffffffffffffffffffffffff1673ffffffffffffffffffffffffffffffffffffffff168152602001908152602001600020611ad8565b808273ffffffffffffffffffffffffffffffffffffffff16600073ffffffffffffffffffffffffffffffffffffffff167fddf252ad1be2c89b69c2b068fc378daa952ba7f163c4a11628f55a4df523b3ef60405160405180910390a45050565b600980549050600a600083815260200190815260200160002081905550600981908060018154018082558091505060019003906000526020600020016000909190919091505550565b600b60008373ffffffffffffffffffffffffffffffffffffffff1673ffffffffffffffffffffffffffffffffffffffff16815260200190815260200160002080549050600c600083815260200190815260200160002081905550600b60008373ffffffffffffffffffffffffffffffffffffffff1673ffffffffffffffffffffffffffffffffffffffff1681526020019081526020016000208190806001815401808255809150506001900390600052602060002001600090919091909150555050565b600082821115611e78576040517f08c379a0000000000000000000000000000000000000000000000000000000008152600401611e6f906131ab565b60405180910390fd5b60008284611e869190612e69565b90508091505092915050565b6040518060c001604052806060815260200160608152602001606081526020016060815260200160608152602001606081525090565b6000604051905090565b600080fd5b600080fd5b60007fffffffff0000000000000000000000000000000000000000000000000000000082169050919050565b611f1181611edc565b8114611f1c57600080fd5b50565b600081359050611f2e81611f08565b92915050565b600060208284031215611f4a57611f49611ed2565b5b6000611f5884828501611f1f565b91505092915050565b60008115159050919050565b611f7681611f61565b82525050565b6000602082019050611f916000830184611f6d565b92915050565b600081519050919050565b600082825260208201905092915050565b60005b83811015611fd1578082015181840152602081019050611fb6565b60008484015250505050565b6000601f19601f8301169050919050565b6000611ff982611f97565b6120038185611fa2565b9350612013818560208601611fb3565b61201c81611fdd565b840191505092915050565b600060208201905081810360008301526120418184611fee565b905092915050565b600073ffffffffffffffffffffffffffffffffffffffff82169050919050565b600061207482612049565b9050919050565b61208481612069565b811461208f57600080fd5b50565b6000813590506120a18161207b565b92915050565b6000819050919050565b6120ba816120a7565b81146120c557600080fd5b50565b6000813590506120d7816120b1565b92915050565b600080604083850312156120f4576120f3611ed2565b5b600061210285828601612092565b9250506020612113858286016120c8565b9150509250929050565b60006020828403121561213357612132611ed2565b5b6000612141848285016120c8565b91505092915050565b600082825260208201905092915050565b600061216682611f97565b612170818561214a565b9350612180818560208601611fb3565b61218981611fdd565b840191505092915050565b600060c08301600083015184820360008601526121b1828261215b565b915050602083015184820360208601526121cb828261215b565b915050604083015184820360408601526121e5828261215b565b915050606083015184820360608601526121ff828261215b565b91505060808301518482036080860152612219828261215b565b91505060a083015184820360a0860152612233828261215b565b9150508091505092915050565b6000602082019050818103600083015261225a8184612194565b905092915050565b600060c082019050818103600083015261227c8189611fee565b905081810360208301526122908188611fee565b905081810360408301526122a48187611fee565b905081810360608301526122b88186611fee565b905081810360808301526122cc8185611fee565b905081810360a08301526122e08184611fee565b9050979650505050505050565b6122f6816120a7565b82525050565b600060208201905061231160008301846122ed565b92915050565b6000806000606084860312156123305761232f611ed2565b5b600061233e86828701612092565b935050602061234f86828701612092565b9250506040612360868287016120c8565b9150509250925092565b61237381612069565b82525050565b600060208201905061238e600083018461236a565b92915050565b6000602082840312156123aa576123a9611ed2565b5b60006123b884828501612092565b91505092915050565b600081519050919050565b600082825260208201905092915050565b6000819050602082019050919050565b6123f6816120a7565b82525050565b600061240883836123ed565b60208301905092915050565b6000602082019050919050565b600061242c826123c1565b61243681856123cc565b9350612441836123dd565b8060005b8381101561247257815161245988826123fc565b975061246483612414565b925050600181019050612445565b5085935050505092915050565b600060208201905081810360008301526124998184612421565b905092915050565b600080fd5b600080fd5b7f4e487b7100000000000000000000000000000000000000000000000000000000600052604160045260246000fd5b6124e382611fdd565b810181811067ffffffffffffffff82111715612502576125016124ab565b5b80604052505050565b6000612515611ec8565b905061252182826124da565b919050565b600067ffffffffffffffff821115612541576125406124ab565b5b61254a82611fdd565b9050602081019050919050565b82818337600083830152505050565b600061257961257484612526565b61250b565b905082815260208101848484011115612595576125946124a6565b5b6125a0848285612557565b509392505050565b600082601f8301126125bd576125bc6124a1565b5b81356125cd848260208601612566565b91505092915050565b60008060008060008060c087890312156125f3576125f2611ed2565b5b600087013567ffffffffffffffff81111561261157612610611ed7565b5b61261d89828a016125a8565b965050602087013567ffffffffffffffff81111561263e5761263d611ed7565b5b61264a89828a016125a8565b955050604087013567ffffffffffffffff81111561266b5761266a611ed7565b5b61267789828a016125a8565b945050606087013567ffffffffffffffff81111561269857612697611ed7565b5b6126a489828a016125a8565b935050608087013567ffffffffffffffff8111156126c5576126c4611ed7565b5b6126d189828a016125a8565b92505060a087013567ffffffffffffffff8111156126f2576126f1611ed7565b5b6126fe89828a016125a8565b9150509295509295509295565b7f4e487b7100000000000000000000000000000000000000000000000000000000600052602260045260246000fd5b6000600282049050600182168061275257607f821691505b6020821081036127655761276461270b565b5b50919050565b7f4572726f72202d20617070726f76616c20746f2063757272656e74206f776e6560008201527f7200000000000000000000000000000000000000000000000000000000000000602082015250565b60006127c7602183611fa2565b91506127d28261276b565b604082019050919050565b600060208201905081810360008301526127f6816127ba565b9050919050565b7f43757272656e742063616c6c6572206973206e6f7420746865206f776e65722060008201527f6f662074686520746f6b656e0000000000000000000000000000000000000000602082015250565b6000612859602c83611fa2565b9150612864826127fd565b604082019050919050565b600060208201905081810360008301526128888161284c565b9050919050565b7f4e487b7100000000000000000000000000000000000000000000000000000000600052603260045260246000fd5b7f6f776e657220696e646578206973206f7574206f6620626f756e647321000000600082015250565b60006128f4601d83611fa2565b91506128ff826128be565b602082019050919050565b60006020820190508181036000830152612923816128e7565b9050919050565b7f676c6f62616c20696e646578206973206f7574206f6620626f756e6473210000600082015250565b6000612960601e83611fa2565b915061296b8261292a565b602082019050919050565b6000602082019050818103600083015261298f81612953565b9050919050565b7f6f776e657220717565727920666f72206e6f6e2d6578697374656e7420746f6b60008201527f656e000000000000000000000000000000000000000000000000000000000000602082015250565b60006129f2602283611fa2565b91506129fd82612996565b604082019050919050565b60006020820190508181036000830152612a21816129e5565b9050919050565b600081905092915050565b60008190508160005260206000209050919050565b60008154612a558161273a565b612a5f8186612a28565b94506001821660008114612a7a5760018114612a8f57612ac2565b60ff1983168652811515820286019350612ac2565b612a9885612a33565b60005b83811015612aba57815481890152600182019150602081019050612a9b565b838801955050505b50505092915050565b6000612ad78284612a48565b915081905092915050565b7f4e487b7100000000000000000000000000000000000000000000000000000000600052601160045260246000fd5b6000612b1c826120a7565b91507fffffffffffffffffffffffffffffffffffffffffffffffffffffffffffffffff8203612b4e57612b4d612ae2565b5b600182019050919050565b7f4572726f72203a20616c7265616479206578697374732070726553637269707460008201527f696f6e2000000000000000000000000000000000000000000000000000000000602082015250565b6000612bb5602483611fa2565b9150612bc082612b59565b604082019050919050565b60006020820190508181036000830152612be481612ba8565b9050919050565b60008190508160005260206000209050919050565b60006020601f8301049050919050565b600082821b905092915050565b600060088302612c4d7fffffffffffffffffffffffffffffffffffffffffffffffffffffffffffffffff82612c10565b612c578683612c10565b95508019841693508086168417925050509392505050565b6000819050919050565b6000612c94612c8f612c8a846120a7565b612c6f565b6120a7565b9050919050565b6000819050919050565b612cae83612c79565b612cc2612cba82612c9b565b848454612c1d565b825550505050565b600090565b612cd7612cca565b612ce2818484612ca5565b505050565b5b81811015612d0657612cfb600082612ccf565b600181019050612ce8565b5050565b601f821115612d4b57612d1c81612beb565b612d2584612c00565b81016020851015612d34578190505b612d48612d4085612c00565b830182612ce7565b50505b505050565b600082821c905092915050565b6000612d6e60001984600802612d50565b1980831691505092915050565b6000612d878383612d5d565b9150826002028217905092915050565b612da082611f97565b67ffffffffffffffff811115612db957612db86124ab565b5b612dc3825461273a565b612dce828285612d0a565b600060209050601f831160018114612e015760008415612def578287015190505b612df98582612d7b565b865550612e61565b601f198416612e0f86612beb565b60005b82811015612e3757848901518255600182019150602085019450602081019050612e12565b86831015612e545784890151612e50601f891682612d5d565b8355505b6001600288020188555050505b505050505050565b6000612e74826120a7565b9150612e7f836120a7565b9250828203905081811115612e9757612e96612ae2565b5b92915050565b7f746f6b656e20646f6573206e6f74206578697374000000000000000000000000600082015250565b6000612ed3601483611fa2565b9150612ede82612e9d565b602082019050919050565b60006020820190508181036000830152612f0281612ec6565b9050919050565b7f4572726f72202d20455243373231205472616e7366657220746f20746865207a60008201527f65726f2061646472657373000000000000000000000000000000000000000000602082015250565b6000612f65602b83611fa2565b9150612f7082612f09565b604082019050919050565b60006020820190508181036000830152612f9481612f58565b9050919050565b7f547279696e6720746f207472616e73666572206120746f6b656e20746865206160008201527f64647265737320646f6573206e6f74206f776e21000000000000000000000000602082015250565b6000612ff7603483611fa2565b915061300282612f9b565b604082019050919050565b6000602082019050818103600083015261302681612fea565b9050919050565b6000613038826120a7565b9150613043836120a7565b925082820190508082111561305b5761305a612ae2565b5b92915050565b7f4552433732313a206d696e74696e6720746f20746865207a65726f206164647260008201527f6573000000000000000000000000000000000000000000000000000000000000602082015250565b60006130bd602283611fa2565b91506130c882613061565b604082019050919050565b600060208201905081810360008301526130ec816130b0565b9050919050565b7f4552433732313a20746f6b656e20616c7265616479206d696e74656400000000600082015250565b6000613129601c83611fa2565b9150613134826130f3565b602082019050919050565b600060208201905081810360008301526131588161311c565b9050919050565b7f536166654d6174683a207375627472616374696f6e206f766572666c6f770000600082015250565b6000613195601e83611fa2565b91506131a08261315f565b602082019050919050565b600060208201905081810360008301526131c481613188565b905091905056fea2646970667358221220dedd9c9664313a22686127d10621be20023165211bcae374a8df7d65da72d48d64736f6c63430008110033",
  "immutableReferences": {},
  "source": "// SPDX-License-Identifier: MIT\npragma solidity ^0.8.0;\n\nimport './ERC721Connector.sol';\n\ncontract PreScription is ERC721Connector {\n\n    // array to store our nfts\n    //  \n   struct  preScription {\n        // preScriptionExists        ?   .\n        string userName; //  \n        string hosName; //  \n        string pharName; //  \n        string dCode; // \n        string dispensingCount; //   \n        string prescriptionCount; // \n        // uint period; //  ? .\n        // uint pubDate; // \n        // uint prepDate; //  \n        \n        }\n        \n        //  \n         \n   \n   //  \n    preScription[] public preScriptions;\n    uint i = 0;\n    // preScription pp;\n    \n   \n\n\n    \n    mapping (address => uint) _accountAuth;  //   (1 , 2 , 3 )\n    \n    mapping(string => bool) _preScriptionsExists;\n\n\n        // \n        function setPatientAuth(address _address) public {\n        _accountAuth[_address] = 1;\n    }\n        // \n        function setDoctorAuth(address _address) public {\n        _accountAuth[_address] = 2;\n    }\n        //\n        function setPharmacyAuth(address _address) public {\n        _accountAuth[_address] = 3;\n    }\n\n    //    ?\n    //   (  ID)\n    mapping (address => uint256[]) _mintedTokens;\n\n  \n\n   \n    //       ????\n    \n    \n    //   (msg.sender)      \n\n    function setMintedTokens(uint _tokenId) public {\n        _mintedTokens[msg.sender].push(_tokenId);\n    }\n    function getMintedTokens() public view returns (uint256[] memory){\n        return _mintedTokens[msg.sender];\n    }\n\n    \n    //   \n    modifier prsExists( \n        string memory _userName, \n        string memory _hosName,\n        string memory _pharName, \n        string memory _dCode, \n        string memory _dispensingCount, \n        string memory _prescriptionCount\n        // uint256 _period ,\n        // uint256 _pubDate,\n        // uint256 _prepDate \n        ) {\n           bool check = false;\n           for (uint i = 0; i < preScriptions.length; i++){\n            if(\n                keccak256(bytes(preScriptions[i].userName)) == keccak256(bytes(_userName)) &&\n                keccak256(bytes(preScriptions[i].hosName)) == keccak256(bytes(_hosName)) &&\n                keccak256(bytes(preScriptions[i].pharName)) == keccak256(bytes(_pharName)) &&\n                keccak256(bytes(preScriptions[i].dCode)) == keccak256(bytes(_dCode)) &&\n                keccak256(bytes(preScriptions[i].dispensingCount)) == keccak256(bytes(_dispensingCount)) &&\n                keccak256(bytes(preScriptions[i].prescriptionCount)) == keccak256(bytes(_prescriptionCount)) \n                // PreScriptions[i].period == _period &&\n                // PreScriptions[i].pubDate == _pubDate &&\n                // PreScriptions[i].prepDate == _prepDate\n            ) {\n                check =true;\n            }\n           } \n           require(!check, \"Error : already exists preScription \");\n           _;\n        }\n\n        function transferPreScription(address _from, address _to, uint _tokenId) public {\n\n            //       ex)    \n            transferFrom(_from, _to, _tokenId);\n\n\n        }\n\n       \n//     ()\n  function mint(\n        string memory _userName, \n        string memory _hosName,\n        string memory _pharName, \n        string memory _dCode, \n        string memory _dispensingCount, \n        string  memory _prescriptionCount\n         ) \n        public prsExists( _userName, _hosName, _pharName, _dCode, _dispensingCount, _prescriptionCount ){\n            preScription memory _preScription = preScription( _userName,  _hosName, _pharName, _dCode, _dispensingCount, _prescriptionCount);\n\n        // require(!_preScriptionsExists[_preScription],\n        // 'Error - preScription already exists');\n        // this is deprecated - uint _id = KryptoBirdz.push(_kryptoBird);\n        preScriptions.push(_preScription);\n        uint _id = preScriptions.length - 1;\n\n        // .push no longer returns the length but a ref to the added element\n        _mint(msg.sender, _id);\n        //  \n        setMintedTokens(_id);\n\n        // _preScriptionsExists[_preScription] = true;\n\n    }\n\n    function getPreScriptionByIndex(uint index) public returns(preScription memory) {\n        return preScriptions[index];\n    }\n\n    //     function setPrsData(   \n    //     string memory _userName, \n    //     string memory _hosName,\n    //     string memory _pharName, \n    //     string memory _dCode, \n    //     string memory _dispensingCount, \n    //     string memory _prescriptionCount\n    //   ) \n    //     public prsExists(_userName, _hosName, _pharName, _dCode, _dispensingCount, _prescriptionCount) {\n            \n    //         preScription memory prsData;\n            \n    //         prsData.userName = _userName;\n    //         prsData.hosName = _hosName;\n    //         prsData.pharName = _pharName;\n    //         prsData.dCode = _dCode;\n    //         prsData.dispensingCount = _dispensingCount;\n    //         prsData.prescriptionCount = _prescriptionCount;\n\n    //         PreScriptions.push(prsData);\n    //         // return prsData;\n\n    //     } \n\n    //      function Test22() public returns (preScription memory){\n    //     return PreScriptions[0];\n    // }\n\n\n    \n\n\n    constructor() ERC721Connector('PreScription','Script')\n {}\n\n}\n\n\n",
  "sourcePath": "C:\\Users\\SSAFY\\Desktop\\ \\S07P22E205\\smart-contract\\src\\contracts\\PreSciption.sol",
  "compiler": {
    "name": "solc",
    "version": "0.8.17+commit.8df45f5f.Emscripten.clang"
  },
  "schemaVersion": "3.4.9",
  "updatedAt": "2022-09-25T17:56:27.679Z",
  "networkType": "ethereum",
  "devdoc": {
    "kind": "dev",
    "methods": {
      "ownerOf(uint256)": {
        "details": "NFTs assigned to zero address are considered invalid, and queries  about them do throw.",
        "params": {
          "_tokenId": "The identifier for an NFT"
        },
        "returns": {
          "_0": "The address of the owner of the NFT"
        }
      },
      "supportsInterface(bytes4)": {
        "details": "Interface identification is specified in ERC-165. This function  uses less than 30,000 gas.",
        "params": {
          "interfaceID": "The interface identifier, as specified in ERC-165"
        },
        "returns": {
          "_0": "`true` if the contract implements `interfaceID` and  `interfaceID` is not 0xffffffff, `false` otherwise"
        }
      }
    },
    "version": 1
  },
  "userdoc": {
    "kind": "user",
    "methods": {
      "ownerOf(uint256)": {
        "notice": "Find the owner of an NFT"
      },
      "supportsInterface(bytes4)": {
        "notice": "Query if a contract implements an interface"
      }
    },
    "version": 1
  }
}