{
  "contractName": "PreScription",
  "abi": [
    {
      "inputs": [],
      "stateMutability": "nonpayable",
      "type": "constructor"
    },
    {
      "anonymous": false,
      "inputs": [
        {
          "indexed": true,
          "internalType": "address",
          "name": "_owner",
          "type": "address"
        },
        {
          "indexed": true,
          "internalType": "address",
          "name": "_approved",
          "type": "address"
        },
        {
          "indexed": true,
          "internalType": "uint256",
          "name": "_tokenId",
          "type": "uint256"
        }
      ],
      "name": "Approval",
      "type": "event"
    },
    {
      "anonymous": false,
      "inputs": [
        {
          "indexed": true,
          "internalType": "address",
          "name": "_from",
          "type": "address"
        },
        {
          "indexed": true,
          "internalType": "address",
          "name": "_to",
          "type": "address"
        },
        {
          "indexed": true,
          "internalType": "uint256",
          "name": "_tokenId",
          "type": "uint256"
        }
      ],
      "name": "Transfer",
      "type": "event"
    },
    {
      "inputs": [
        {
          "internalType": "uint256",
          "name": "",
          "type": "uint256"
        }
      ],
      "name": "PreScriptions",
      "outputs": [
        {
          "internalType": "string",
          "name": "Uname",
          "type": "string"
        },
        {
          "internalType": "string",
          "name": "Hname",
          "type": "string"
        }
      ],
      "stateMutability": "view",
      "type": "function",
      "constant": true
    },
    {
      "inputs": [
        {
          "internalType": "address",
          "name": "_to",
          "type": "address"
        },
        {
          "internalType": "uint256",
          "name": "tokenId",
          "type": "uint256"
        }
      ],
      "name": "approve",
      "outputs": [],
      "stateMutability": "nonpayable",
      "type": "function"
    },
    {
      "inputs": [
        {
          "internalType": "address",
          "name": "_owner",
          "type": "address"
        }
      ],
      "name": "balanceOf",
      "outputs": [
        {
          "internalType": "uint256",
          "name": "",
          "type": "uint256"
        }
      ],
      "stateMutability": "view",
      "type": "function",
      "constant": true
    },
    {
      "inputs": [],
      "name": "name",
      "outputs": [
        {
          "internalType": "string",
          "name": "",
          "type": "string"
        }
      ],
      "stateMutability": "view",
      "type": "function",
      "constant": true
    },
    {
      "inputs": [
        {
          "internalType": "uint256",
          "name": "_tokenId",
          "type": "uint256"
        }
      ],
      "name": "ownerOf",
      "outputs": [
        {
          "internalType": "address",
          "name": "",
          "type": "address"
        }
      ],
      "stateMutability": "view",
      "type": "function",
      "constant": true
    },
    {
      "inputs": [
        {
          "internalType": "bytes4",
          "name": "interfaceID",
          "type": "bytes4"
        }
      ],
      "name": "supportsInterface",
      "outputs": [
        {
          "internalType": "bool",
          "name": "",
          "type": "bool"
        }
      ],
      "stateMutability": "view",
      "type": "function",
      "constant": true
    },
    {
      "inputs": [],
      "name": "symbol",
      "outputs": [
        {
          "internalType": "string",
          "name": "",
          "type": "string"
        }
      ],
      "stateMutability": "view",
      "type": "function",
      "constant": true
    },
    {
      "inputs": [
        {
          "internalType": "uint256",
          "name": "index",
          "type": "uint256"
        }
      ],
      "name": "tokenByIndex",
      "outputs": [
        {
          "internalType": "uint256",
          "name": "",
          "type": "uint256"
        }
      ],
      "stateMutability": "view",
      "type": "function",
      "constant": true
    },
    {
      "inputs": [
        {
          "internalType": "address",
          "name": "owner",
          "type": "address"
        },
        {
          "internalType": "uint256",
          "name": "index",
          "type": "uint256"
        }
      ],
      "name": "tokenOfOwnerByIndex",
      "outputs": [
        {
          "internalType": "uint256",
          "name": "",
          "type": "uint256"
        }
      ],
      "stateMutability": "view",
      "type": "function",
      "constant": true
    },
    {
      "inputs": [],
      "name": "totalSupply",
      "outputs": [
        {
          "internalType": "uint256",
          "name": "",
          "type": "uint256"
        }
      ],
      "stateMutability": "view",
      "type": "function",
      "constant": true
    },
    {
      "inputs": [
        {
          "internalType": "address",
          "name": "_from",
          "type": "address"
        },
        {
          "internalType": "address",
          "name": "_to",
          "type": "address"
        },
        {
          "internalType": "uint256",
          "name": "_tokenId",
          "type": "uint256"
        }
      ],
      "name": "transferFrom",
      "outputs": [],
      "stateMutability": "nonpayable",
      "type": "function"
    },
    {
      "inputs": [
        {
          "internalType": "string",
          "name": "_Uname",
          "type": "string"
        },
        {
          "internalType": "string",
          "name": "_Hname",
          "type": "string"
        }
      ],
      "name": "mint",
      "outputs": [],
      "stateMutability": "nonpayable",
      "type": "function"
    }
  ],
  "bytecode": "0x60806040523480156200001157600080fd5b506040518060400160405280600c81526020017f507265536372697074696f6e00000000000000000000000000000000000000008152506040518060400160405280600681526020017f53637269707400000000000000000000000000000000000000000000000000008152508181620000b17f01ffc9a7a5cef8baa21ed3c5c0d7e23accb804b619e9333b597f47a0d84076e26200021c60201b60201c565b620001047f13b182f4c0e5b2efbac0efe6cf6d756c8b89f4b79c5707a043ed9ea740574ee97f7feaf19471f34a12a7eaf32d5f3090aa2260ea8624dc8a138e74e0bf0f623076186200021c60201b60201c565b81600190816200011591906200056d565b5080600290816200012791906200056d565b5050506200019f7f22c82707ba960a14c7592ffb6b8cfaa073fed0048a84cc7fa41f6b5bd8e7f2e47f3a6eb71757dfc6e784c1459d26270140c2c147d95ca985c80026fc5301c3eca17f8a7e378434598edc36d108689a030cbc9d7d465de4f74c71bae1028eed6a881b18186200021c60201b60201c565b620002147f8230223f691b981717299fae9549350a0d894555723531f02108b1f522c1a7977f6da5e1284143cdd2d15038a59bde3be031250f00291d64494c12d967b3a4e0c37fc53637662700e6c65104059db8bba34439e0c32483ab7c34e3ccae52c739549518186200021c60201b60201c565b5050620006d7565b63ffffffff60e01b817bffffffffffffffffffffffffffffffffffffffffffffffffffffffff19160362000287576040517f08c379a00000000000000000000000000000000000000000000000000000000081526004016200027e90620006b5565b60405180910390fd5b6001600080837bffffffffffffffffffffffffffffffffffffffffffffffffffffffff19167bffffffffffffffffffffffffffffffffffffffffffffffffffffffff1916815260200190815260200160002060006101000a81548160ff02191690831515021790555050565b600081519050919050565b7f4e487b7100000000000000000000000000000000000000000000000000000000600052604160045260246000fd5b7f4e487b7100000000000000000000000000000000000000000000000000000000600052602260045260246000fd5b600060028204905060018216806200037557607f821691505b6020821081036200038b576200038a6200032d565b5b50919050565b60008190508160005260206000209050919050565b60006020601f8301049050919050565b600082821b905092915050565b600060088302620003f57fffffffffffffffffffffffffffffffffffffffffffffffffffffffffffffffff82620003b6565b620004018683620003b6565b95508019841693508086168417925050509392505050565b6000819050919050565b6000819050919050565b60006200044e62000448620004428462000419565b62000423565b62000419565b9050919050565b6000819050919050565b6200046a836200042d565b62000482620004798262000455565b848454620003c3565b825550505050565b600090565b620004996200048a565b620004a68184846200045f565b505050565b5b81811015620004ce57620004c26000826200048f565b600181019050620004ac565b5050565b601f8211156200051d57620004e78162000391565b620004f284620003a6565b8101602085101562000502578190505b6200051a6200051185620003a6565b830182620004ab565b50505b505050565b600082821c905092915050565b6000620005426000198460080262000522565b1980831691505092915050565b60006200055d83836200052f565b9150826002028217905092915050565b6200057882620002f3565b67ffffffffffffffff811115620005945762000593620002fe565b5b620005a082546200035c565b620005ad828285620004d2565b600060209050601f831160018114620005e55760008415620005d0578287015190505b620005dc85826200054f565b8655506200064c565b601f198416620005f58662000391565b60005b828110156200061f57848901518255600182019150602085019450602081019050620005f8565b868310156200063f57848901516200063b601f8916826200052f565b8355505b6001600288020188555050505b505050505050565b600082825260208201905092915050565b7f496e76616c696420696e74657266616365207265717565737400000000000000600082015250565b60006200069d60198362000654565b9150620006aa8262000665565b602082019050919050565b60006020820190508181036000830152620006d0816200068e565b9050919050565b611f9580620006e76000396000f3fe608060405234801561001057600080fd5b50600436106100b45760003560e01c80634f6ccce7116100715780634f6ccce71461018d5780636352211e146101bd57806370a08231146101ed5780638aa0fdad1461021d57806395d89b4114610239578063c740d99614610257576100b4565b806301ffc9a7146100b957806306fdde03146100e9578063095ea7b31461010757806318160ddd1461012357806323b872dd146101415780632f745c591461015d575b600080fd5b6100d360048036038101906100ce9190611165565b610288565b6040516100e091906111ad565b60405180910390f35b6100f16102ef565b6040516100fe9190611258565b60405180910390f35b610121600480360381019061011c919061130e565b610381565b005b61012b61051c565b604051610138919061135d565b60405180910390f35b61015b60048036038101906101569190611378565b610529565b005b6101776004803603810190610172919061130e565b61054c565b604051610184919061135d565b60405180910390f35b6101a760048036038101906101a291906113cb565b6105fc565b6040516101b4919061135d565b60405180910390f35b6101d760048036038101906101d291906113cb565b61066d565b6040516101e49190611407565b60405180910390f35b61020760048036038101906102029190611422565b61071e565b604051610214919061135d565b60405180910390f35b61023760048036038101906102329190611584565b6107dc565b005b61024161086f565b60405161024e9190611258565b60405180910390f35b610271600480360381019061026c91906113cb565b610901565b60405161027f9291906115fc565b60405180910390f35b6000806000837bffffffffffffffffffffffffffffffffffffffffffffffffffffffff19167bffffffffffffffffffffffffffffffffffffffffffffffffffffffff1916815260200190815260200160002060009054906101000a900460ff169050919050565b6060600180546102fe90611662565b80601f016020809104026020016040519081016040528092919081815260200182805461032a90611662565b80156103775780601f1061034c57610100808354040283529160200191610377565b820191906000526020600020905b81548152906001019060200180831161035a57829003601f168201915b5050505050905090565b600061038c8261066d565b90508073ffffffffffffffffffffffffffffffffffffffff168373ffffffffffffffffffffffffffffffffffffffff16036103fc576040517f08c379a00000000000000000000000000000000000000000000000000000000081526004016103f390611705565b60405180910390fd5b8073ffffffffffffffffffffffffffffffffffffffff163373ffffffffffffffffffffffffffffffffffffffff161461046a576040517f08c379a000000000000000000000000000000000000000000000000000000000815260040161046190611797565b60405180910390fd5b826005600084815260200190815260200160002060006101000a81548173ffffffffffffffffffffffffffffffffffffffff021916908373ffffffffffffffffffffffffffffffffffffffff160217905550818373ffffffffffffffffffffffffffffffffffffffff168273ffffffffffffffffffffffffffffffffffffffff167f8c5be1e5ebec7d5bd14f71427d1e84f3dd0314c0f7b2291e5b200ac8c7c3b92560405160405180910390a4505050565b6000600680549050905090565b6105333382610a45565b61053c57600080fd5b610547838383610ad4565b505050565b60006105578361071e565b8210610598576040517f08c379a000000000000000000000000000000000000000000000000000000000815260040161058f90611803565b60405180910390fd5b600860008473ffffffffffffffffffffffffffffffffffffffff1673ffffffffffffffffffffffffffffffffffffffff16815260200190815260200160002082815481106105e9576105e8611823565b5b9060005260206000200154905092915050565b600061060661051c565b8210610647576040517f08c379a000000000000000000000000000000000000000000000000000000000815260040161063e9061189e565b60405180910390fd5b6006828154811061065b5761065a611823565b5b90600052602060002001549050919050565b6000806003600084815260200190815260200160002060009054906101000a900473ffffffffffffffffffffffffffffffffffffffff169050600073ffffffffffffffffffffffffffffffffffffffff168173ffffffffffffffffffffffffffffffffffffffff1603610715576040517f08c379a000000000000000000000000000000000000000000000000000000000815260040161070c90611930565b60405180910390fd5b80915050919050565b60008073ffffffffffffffffffffffffffffffffffffffff168273ffffffffffffffffffffffffffffffffffffffff160361078e576040517f08c379a000000000000000000000000000000000000000000000000000000000815260040161078590611930565b60405180910390fd5b6107d5600460008473ffffffffffffffffffffffffffffffffffffffff1673ffffffffffffffffffffffffffffffffffffffff168152602001908152602001600020610cf9565b9050919050565b600a604051806040016040528084815260200183815250908060018154018082558091505060019003906000526020600020906002020160009091909190915060008201518160000190816108319190611afc565b5060208201518160010190816108479190611afc565b50505060006001600a8054905061085e9190611bfd565b905061086a3382610d07565b505050565b60606002805461087e90611662565b80601f01602080910402602001604051908101604052809291908181526020018280546108aa90611662565b80156108f75780601f106108cc576101008083540402835291602001916108f7565b820191906000526020600020905b8154815290600101906020018083116108da57829003601f168201915b5050505050905090565b600a818154811061091157600080fd5b906000526020600020906002020160009150905080600001805461093490611662565b80601f016020809104026020016040519081016040528092919081815260200182805461096090611662565b80156109ad5780601f10610982576101008083540402835291602001916109ad565b820191906000526020600020905b81548152906001019060200180831161099057829003601f168201915b5050505050908060010180546109c290611662565b80601f01602080910402602001604051908101604052809291908181526020018280546109ee90611662565b8015610a3b5780601f10610a1057610100808354040283529160200191610a3b565b820191906000526020600020905b815481529060010190602001808311610a1e57829003601f168201915b5050505050905082565b6000610a5082610d28565b610a8f576040517f08c379a0000000000000000000000000000000000000000000000000000000008152600401610a8690611c7d565b60405180910390fd5b6000610a9a8361066d565b90508073ffffffffffffffffffffffffffffffffffffffff168473ffffffffffffffffffffffffffffffffffffffff161491505092915050565b600073ffffffffffffffffffffffffffffffffffffffff168273ffffffffffffffffffffffffffffffffffffffff1603610b43576040517f08c379a0000000000000000000000000000000000000000000000000000000008152600401610b3a90611d0f565b60405180910390fd5b8273ffffffffffffffffffffffffffffffffffffffff16610b638261066d565b73ffffffffffffffffffffffffffffffffffffffff1614610bb9576040517f08c379a0000000000000000000000000000000000000000000000000000000008152600401610bb090611da1565b60405180910390fd5b610c00600460008573ffffffffffffffffffffffffffffffffffffffff1673ffffffffffffffffffffffffffffffffffffffff168152602001908152602001600020610d9a565b610c47600460008473ffffffffffffffffffffffffffffffffffffffff1673ffffffffffffffffffffffffffffffffffffffff168152602001908152602001600020610dbd565b816003600083815260200190815260200160002060006101000a81548173ffffffffffffffffffffffffffffffffffffffff021916908373ffffffffffffffffffffffffffffffffffffffff160217905550808273ffffffffffffffffffffffffffffffffffffffff168473ffffffffffffffffffffffffffffffffffffffff167fddf252ad1be2c89b69c2b068fc378daa952ba7f163c4a11628f55a4df523b3ef60405160405180910390a4505050565b600081600001549050919050565b610d118282610ddc565b610d1a81610f8d565b610d248282610fd6565b5050565b6000806003600084815260200190815260200160002060009054906101000a900473ffffffffffffffffffffffffffffffffffffffff169050600073ffffffffffffffffffffffffffffffffffffffff168173ffffffffffffffffffffffffffffffffffffffff161415915050919050565b610db26001826000015461109a90919063ffffffff16565b816000018190555050565b6001816000016000828254610dd29190611dc1565b9250508190555050565b600073ffffffffffffffffffffffffffffffffffffffff168273ffffffffffffffffffffffffffffffffffffffff1603610e4b576040517f08c379a0000000000000000000000000000000000000000000000000000000008152600401610e4290611e67565b60405180910390fd5b610e5481610d28565b15610e94576040517f08c379a0000000000000000000000000000000000000000000000000000000008152600401610e8b90611ed3565b60405180910390fd5b816003600083815260200190815260200160002060006101000a81548173ffffffffffffffffffffffffffffffffffffffff021916908373ffffffffffffffffffffffffffffffffffffffff160217905550610f2d600460008473ffffffffffffffffffffffffffffffffffffffff1673ffffffffffffffffffffffffffffffffffffffff168152602001908152602001600020610dbd565b808273ffffffffffffffffffffffffffffffffffffffff16600073ffffffffffffffffffffffffffffffffffffffff167fddf252ad1be2c89b69c2b068fc378daa952ba7f163c4a11628f55a4df523b3ef60405160405180910390a45050565b6006805490506007600083815260200190815260200160002081905550600681908060018154018082558091505060019003906000526020600020016000909190919091505550565b600860008373ffffffffffffffffffffffffffffffffffffffff1673ffffffffffffffffffffffffffffffffffffffff168152602001908152602001600020805490506009600083815260200190815260200160002081905550600860008373ffffffffffffffffffffffffffffffffffffffff1673ffffffffffffffffffffffffffffffffffffffff1681526020019081526020016000208190806001815401808255809150506001900390600052602060002001600090919091909150555050565b6000828211156110df576040517f08c379a00000000000000000000000000000000000000000000000000000000081526004016110d690611f3f565b60405180910390fd5b600082846110ed9190611bfd565b90508091505092915050565b6000604051905090565b600080fd5b600080fd5b60007fffffffff0000000000000000000000000000000000000000000000000000000082169050919050565b6111428161110d565b811461114d57600080fd5b50565b60008135905061115f81611139565b92915050565b60006020828403121561117b5761117a611103565b5b600061118984828501611150565b91505092915050565b60008115159050919050565b6111a781611192565b82525050565b60006020820190506111c2600083018461119e565b92915050565b600081519050919050565b600082825260208201905092915050565b60005b838110156112025780820151818401526020810190506111e7565b60008484015250505050565b6000601f19601f8301169050919050565b600061122a826111c8565b61123481856111d3565b93506112448185602086016111e4565b61124d8161120e565b840191505092915050565b60006020820190508181036000830152611272818461121f565b905092915050565b600073ffffffffffffffffffffffffffffffffffffffff82169050919050565b60006112a58261127a565b9050919050565b6112b58161129a565b81146112c057600080fd5b50565b6000813590506112d2816112ac565b92915050565b6000819050919050565b6112eb816112d8565b81146112f657600080fd5b50565b600081359050611308816112e2565b92915050565b6000806040838503121561132557611324611103565b5b6000611333858286016112c3565b9250506020611344858286016112f9565b9150509250929050565b611357816112d8565b82525050565b6000602082019050611372600083018461134e565b92915050565b60008060006060848603121561139157611390611103565b5b600061139f868287016112c3565b93505060206113b0868287016112c3565b92505060406113c1868287016112f9565b9150509250925092565b6000602082840312156113e1576113e0611103565b5b60006113ef848285016112f9565b91505092915050565b6114018161129a565b82525050565b600060208201905061141c60008301846113f8565b92915050565b60006020828403121561143857611437611103565b5b6000611446848285016112c3565b91505092915050565b600080fd5b600080fd5b7f4e487b7100000000000000000000000000000000000000000000000000000000600052604160045260246000fd5b6114918261120e565b810181811067ffffffffffffffff821117156114b0576114af611459565b5b80604052505050565b60006114c36110f9565b90506114cf8282611488565b919050565b600067ffffffffffffffff8211156114ef576114ee611459565b5b6114f88261120e565b9050602081019050919050565b82818337600083830152505050565b6000611527611522846114d4565b6114b9565b90508281526020810184848401111561154357611542611454565b5b61154e848285611505565b509392505050565b600082601f83011261156b5761156a61144f565b5b813561157b848260208601611514565b91505092915050565b6000806040838503121561159b5761159a611103565b5b600083013567ffffffffffffffff8111156115b9576115b8611108565b5b6115c585828601611556565b925050602083013567ffffffffffffffff8111156115e6576115e5611108565b5b6115f285828601611556565b9150509250929050565b60006040820190508181036000830152611616818561121f565b9050818103602083015261162a818461121f565b90509392505050565b7f4e487b7100000000000000000000000000000000000000000000000000000000600052602260045260246000fd5b6000600282049050600182168061167a57607f821691505b60208210810361168d5761168c611633565b5b50919050565b7f4572726f72202d20617070726f76616c20746f2063757272656e74206f776e6560008201527f7200000000000000000000000000000000000000000000000000000000000000602082015250565b60006116ef6021836111d3565b91506116fa82611693565b604082019050919050565b6000602082019050818103600083015261171e816116e2565b9050919050565b7f43757272656e742063616c6c6572206973206e6f7420746865206f776e65722060008201527f6f662074686520746f6b656e0000000000000000000000000000000000000000602082015250565b6000611781602c836111d3565b915061178c82611725565b604082019050919050565b600060208201905081810360008301526117b081611774565b9050919050565b7f6f776e657220696e646578206973206f7574206f6620626f756e647321000000600082015250565b60006117ed601d836111d3565b91506117f8826117b7565b602082019050919050565b6000602082019050818103600083015261181c816117e0565b9050919050565b7f4e487b7100000000000000000000000000000000000000000000000000000000600052603260045260246000fd5b7f676c6f62616c20696e646578206973206f7574206f6620626f756e6473210000600082015250565b6000611888601e836111d3565b915061189382611852565b602082019050919050565b600060208201905081810360008301526118b78161187b565b9050919050565b7f6f776e657220717565727920666f72206e6f6e2d6578697374656e7420746f6b60008201527f656e000000000000000000000000000000000000000000000000000000000000602082015250565b600061191a6022836111d3565b9150611925826118be565b604082019050919050565b600060208201905081810360008301526119498161190d565b9050919050565b60008190508160005260206000209050919050565b60006020601f8301049050919050565b600082821b905092915050565b6000600883026119b27fffffffffffffffffffffffffffffffffffffffffffffffffffffffffffffffff82611975565b6119bc8683611975565b95508019841693508086168417925050509392505050565b6000819050919050565b60006119f96119f46119ef846112d8565b6119d4565b6112d8565b9050919050565b6000819050919050565b611a13836119de565b611a27611a1f82611a00565b848454611982565b825550505050565b600090565b611a3c611a2f565b611a47818484611a0a565b505050565b5b81811015611a6b57611a60600082611a34565b600181019050611a4d565b5050565b601f821115611ab057611a8181611950565b611a8a84611965565b81016020851015611a99578190505b611aad611aa585611965565b830182611a4c565b50505b505050565b600082821c905092915050565b6000611ad360001984600802611ab5565b1980831691505092915050565b6000611aec8383611ac2565b9150826002028217905092915050565b611b05826111c8565b67ffffffffffffffff811115611b1e57611b1d611459565b5b611b288254611662565b611b33828285611a6f565b600060209050601f831160018114611b665760008415611b54578287015190505b611b5e8582611ae0565b865550611bc6565b601f198416611b7486611950565b60005b82811015611b9c57848901518255600182019150602085019450602081019050611b77565b86831015611bb95784890151611bb5601f891682611ac2565b8355505b6001600288020188555050505b505050505050565b7f4e487b7100000000000000000000000000000000000000000000000000000000600052601160045260246000fd5b6000611c08826112d8565b9150611c13836112d8565b9250828203905081811115611c2b57611c2a611bce565b5b92915050565b7f746f6b656e20646f6573206e6f74206578697374000000000000000000000000600082015250565b6000611c676014836111d3565b9150611c7282611c31565b602082019050919050565b60006020820190508181036000830152611c9681611c5a565b9050919050565b7f4572726f72202d20455243373231205472616e7366657220746f20746865207a60008201527f65726f2061646472657373000000000000000000000000000000000000000000602082015250565b6000611cf9602b836111d3565b9150611d0482611c9d565b604082019050919050565b60006020820190508181036000830152611d2881611cec565b9050919050565b7f547279696e6720746f207472616e73666572206120746f6b656e20746865206160008201527f64647265737320646f6573206e6f74206f776e21000000000000000000000000602082015250565b6000611d8b6034836111d3565b9150611d9682611d2f565b604082019050919050565b60006020820190508181036000830152611dba81611d7e565b9050919050565b6000611dcc826112d8565b9150611dd7836112d8565b9250828201905080821115611def57611dee611bce565b5b92915050565b7f4552433732313a206d696e74696e6720746f20746865207a65726f206164647260008201527f6573000000000000000000000000000000000000000000000000000000000000602082015250565b6000611e516022836111d3565b9150611e5c82611df5565b604082019050919050565b60006020820190508181036000830152611e8081611e44565b9050919050565b7f4552433732313a20746f6b656e20616c7265616479206d696e74656400000000600082015250565b6000611ebd601c836111d3565b9150611ec882611e87565b602082019050919050565b60006020820190508181036000830152611eec81611eb0565b9050919050565b7f536166654d6174683a207375627472616374696f6e206f766572666c6f770000600082015250565b6000611f29601e836111d3565b9150611f3482611ef3565b602082019050919050565b60006020820190508181036000830152611f5881611f1c565b905091905056fea2646970667358221220efd3e51cf06941a625660e4668bf514413ace6b4c822010459eb93020da4faa664736f6c63430008110033",
  "immutableReferences": {},
  "source": "// SPDX-License-Identifier: MIT\npragma solidity ^0.8.0;\n\nimport './ERC721Connector.sol';\n\ncontract PreScription is ERC721Connector {\n\n    // array to store our nfts\n    //  \n    struct preScription {\n        string Uname; //  \n        string Hname; //  \n        \n        }\n  \n    preScription[] public PreScriptions;\n\n\n  \n    mapping(string => bool) _preScriptionsExists;\n\n    function mint(string memory _Uname, string memory _Hname ) public {\n\n        // require(!_preScriptionsExists[_preScription],\n        // 'Error - preScription already exists');\n        // this is deprecated - uint _id = KryptoBirdz.push(_kryptoBird);\n        PreScriptions.push(preScription(_Uname, _Hname));\n        uint _id = PreScriptions.length - 1;\n\n        // .push no longer returns the length but a ref to the added element\n        _mint(msg.sender, _id);\n\n        // _preScriptionsExists[_preScription] = true;\n\n    }\n\n    constructor() ERC721Connector('PreScription','Script')\n {}\n\n}\n\n\n",
  "sourcePath": "C:\\Users\\SSAFY\\Downloads\\nft-marketplace-solution\\src\\contracts\\PreSciption.sol",
  "compiler": {
    "name": "solc",
    "version": "0.8.17+commit.8df45f5f.Emscripten.clang"
  },
  "schemaVersion": "3.4.9",
  "updatedAt": "2022-09-21T06:05:35.682Z",
  "networkType": "ethereum",
  "devdoc": {
    "kind": "dev",
    "methods": {
      "ownerOf(uint256)": {
        "details": "NFTs assigned to zero address are considered invalid, and queries  about them do throw.",
        "params": {
          "_tokenId": "The identifier for an NFT"
        },
        "returns": {
          "_0": "The address of the owner of the NFT"
        }
      },
      "supportsInterface(bytes4)": {
        "details": "Interface identification is specified in ERC-165. This function  uses less than 30,000 gas.",
        "params": {
          "interfaceID": "The interface identifier, as specified in ERC-165"
        },
        "returns": {
          "_0": "`true` if the contract implements `interfaceID` and  `interfaceID` is not 0xffffffff, `false` otherwise"
        }
      }
    },
    "version": 1
  },
  "userdoc": {
    "kind": "user",
    "methods": {
      "ownerOf(uint256)": {
        "notice": "Find the owner of an NFT"
      },
      "supportsInterface(bytes4)": {
        "notice": "Query if a contract implements an interface"
      }
    },
    "version": 1
  }
}